{
  "abi": [
    {
      "inputs": [
        {
          "internalType": "address",
          "name": "_stablecoinAddress",
          "type": "address"
        },
        {
          "internalType": "address",
          "name": "_feeWallet",
          "type": "address"
        }
      ],
      "stateMutability": "nonpayable",
      "type": "constructor"
    },
    {
      "anonymous": false,
      "inputs": [
        {
          "indexed": true,
          "internalType": "uint256",
          "name": "dealId",
          "type": "uint256"
        },
        {
          "indexed": true,
          "internalType": "address",
          "name": "buyer",
          "type": "address"
        },
        {
          "indexed": false,
          "internalType": "uint256",
          "name": "amount",
          "type": "uint256"
        }
      ],
      "name": "Deposited",
      "type": "event"
    },
    {
      "anonymous": false,
      "inputs": [
        {
          "indexed": true,
          "internalType": "uint256",
          "name": "dealId",
          "type": "uint256"
        },
        {
          "indexed": true,
          "internalType": "address",
          "name": "disputer",
          "type": "address"
        }
      ],
      "name": "DisputeRaised",
      "type": "event"
    },
    {
      "anonymous": false,
      "inputs": [
        {
          "indexed": true,
          "internalType": "uint256",
          "name": "dealId",
          "type": "uint256"
        },
        {
          "indexed": false,
          "internalType": "address",
          "name": "winner",
          "type": "address"
        },
        {
          "indexed": false,
          "internalType": "uint256",
          "name": "amount",
          "type": "uint256"
        }
      ],
      "name": "DisputeResolved",
      "type": "event"
    },
    {
      "anonymous": false,
      "inputs": [
        {
          "indexed": true,
          "internalType": "address",
          "name": "previousOwner",
          "type": "address"
        },
        {
          "indexed": true,
          "internalType": "address",
          "name": "newOwner",
          "type": "address"
        }
      ],
      "name": "OwnershipTransferred",
      "type": "event"
    },
    {
      "anonymous": false,
      "inputs": [
        {
          "indexed": true,
          "internalType": "uint256",
          "name": "dealId",
          "type": "uint256"
        },
        {
          "indexed": true,
          "internalType": "address",
          "name": "seller",
          "type": "address"
        },
        {
          "indexed": false,
          "internalType": "uint256",
          "name": "netAmount",
          "type": "uint256"
        },
        {
          "indexed": false,
          "internalType": "uint256",
          "name": "feeTaken",
          "type": "uint256"
        }
      ],
      "name": "Released",
      "type": "event"
    },
    {
      "inputs": [
        {
          "internalType": "uint256",
          "name": "_dealId",
          "type": "uint256"
        },
        {
          "internalType": "address",
          "name": "_seller",
          "type": "address"
        },
        {
          "internalType": "uint256",
          "name": "_amount",
          "type": "uint256"
        }
      ],
      "name": "createDeal",
      "outputs": [],
      "stateMutability": "nonpayable",
      "type": "function"
    },
    {
      "inputs": [
        {
          "internalType": "uint256",
          "name": "",
          "type": "uint256"
        }
      ],
      "name": "deals",
      "outputs": [
        {
          "internalType": "address",
          "name": "buyer",
          "type": "address"
        },
        {
          "internalType": "address",
          "name": "seller",
          "type": "address"
        },
        {
          "internalType": "uint256",
          "name": "amount",
          "type": "uint256"
        },
        {
          "internalType": "bool",
          "name": "isCompleted",
          "type": "bool"
        },
        {
          "internalType": "bool",
          "name": "isDisputed",
          "type": "bool"
        }
      ],
      "stateMutability": "view",
      "type": "function"
    },
    {
      "inputs": [],
      "name": "feeBasisPoints",
      "outputs": [
        {
          "internalType": "uint256",
          "name": "",
          "type": "uint256"
        }
      ],
      "stateMutability": "view",
      "type": "function"
    },
    {
      "inputs": [],
      "name": "feeWallet",
      "outputs": [
        {
          "internalType": "address",
          "name": "",
          "type": "address"
        }
      ],
      "stateMutability": "view",
      "type": "function"
    },
    {
      "inputs": [],
      "name": "owner",
      "outputs": [
        {
          "internalType": "address",
          "name": "",
          "type": "address"
        }
      ],
      "stateMutability": "view",
      "type": "function"
    },
    {
      "inputs": [
        {
          "internalType": "uint256",
          "name": "_dealId",
          "type": "uint256"
        }
      ],
      "name": "raiseDispute",
      "outputs": [],
      "stateMutability": "nonpayable",
      "type": "function"
    },
    {
      "inputs": [
        {
          "internalType": "uint256",
          "name": "_dealId",
          "type": "uint256"
        }
      ],
      "name": "releaseFunds",
      "outputs": [],
      "stateMutability": "nonpayable",
      "type": "function"
    },
    {
      "inputs": [],
      "name": "renounceOwnership",
      "outputs": [],
      "stateMutability": "nonpayable",
      "type": "function"
    },
    {
      "inputs": [
        {
          "internalType": "uint256",
          "name": "_dealId",
          "type": "uint256"
        },
        {
          "internalType": "address",
          "name": "_winner",
          "type": "address"
        }
      ],
      "name": "resolveDispute",
      "outputs": [],
      "stateMutability": "nonpayable",
      "type": "function"
    },
    {
      "inputs": [],
      "name": "stablecoin",
      "outputs": [
        {
          "internalType": "contract IERC20",
          "name": "",
          "type": "address"
        }
      ],
      "stateMutability": "view",
      "type": "function"
    },
    {
      "inputs": [
        {
          "internalType": "address",
          "name": "newOwner",
          "type": "address"
        }
      ],
      "name": "transferOwnership",
      "outputs": [],
      "stateMutability": "nonpayable",
      "type": "function"
    }
  ],
  "devdoc": {
    "kind": "dev",
    "methods": {
      "owner()": {
        "details": "Returns the address of the current owner."
      },
      "renounceOwnership()": {
        "details": "Leaves the contract without owner. It will not be possible to call `onlyOwner` functions. Can only be called by the current owner. NOTE: Renouncing ownership will leave the contract without an owner, thereby disabling any functionality that is only available to the owner."
      },
      "transferOwnership(address)": {
        "details": "Transfers ownership of the contract to a new account (`newOwner`). Can only be called by the current owner."
      }
    },
    "version": 1
  },
  "evm": {
    "assembly": "    /* \"AhadiEscrow.sol\":232:3557  contract AhadiEscrow is ReentrancyGuard, Ownable {... */\n  mstore(0x40, 0x80)\n    /* \"AhadiEscrow.sol\":355:358  250 */\n  0xfa\n    /* \"AhadiEscrow.sol\":323:358  uint256 public feeBasisPoints = 250 */\n  0x02\n  sstore\n    /* \"AhadiEscrow.sol\":1098:1246  constructor(address _stablecoinAddress, address _feeWallet) {... */\n  callvalue\n  dup1\n  iszero\n  tag_1\n  jumpi\n  0x00\n  dup1\n  revert\ntag_1:\n  pop\n  mload(0x40)\n  sub(codesize, bytecodeSize)\n  dup1\n  bytecodeSize\n  dup4\n  codecopy\n  dup2\n  add\n  0x40\n  dup2\n  swap1\n  mstore\n  tag_2\n  swap2\n  tag_3\n  jump\t// in\ntag_2:\n    /* \"@openzeppelin/contracts/security/ReentrancyGuard.sol\":1716:1717   */\n  0x01\n    /* \"@openzeppelin/contracts/security/ReentrancyGuard.sol\":1821:1828   */\n  0x00\n    /* \"@openzeppelin/contracts/security/ReentrancyGuard.sol\":1821:1843   */\n  sstore\n    /* \"@openzeppelin/contracts/access/Ownable.sol\":936:968   */\n  tag_9\n    /* \"@openzeppelin/contracts/utils/Context.sol\":734:744   */\n  caller\n    /* \"@openzeppelin/contracts/access/Ownable.sol\":936:954   */\n  tag_12\n    /* \"@openzeppelin/contracts/access/Ownable.sol\":936:968   */\n  jump\t// in\ntag_9:\n    /* \"AhadiEscrow.sol\":1168:1178  stablecoin */\n  0x04\n    /* \"AhadiEscrow.sol\":1168:1207  stablecoin = IERC20(_stablecoinAddress) */\n  dup1\n  sload\n  sub(shl(0xa0, 0x01), 0x01)\n  swap4\n  dup5\n  and\n  not(sub(shl(0xa0, 0x01), 0x01))\n  swap2\n  dup3\n  and\n  or\n  swap1\n  swap2\n  sstore\n    /* \"AhadiEscrow.sol\":1217:1226  feeWallet */\n  0x03\n    /* \"AhadiEscrow.sol\":1217:1239  feeWallet = _feeWallet */\n  dup1\n  sload\n  swap3\n  swap1\n  swap4\n  and\n  swap2\n  and\n  or\n  swap1\n  sstore\n    /* \"AhadiEscrow.sol\":232:3557  contract AhadiEscrow is ReentrancyGuard, Ownable {... */\n  jump(tag_18)\n    /* \"@openzeppelin/contracts/access/Ownable.sol\":2426:2613   */\ntag_12:\n    /* \"@openzeppelin/contracts/access/Ownable.sol\":2518:2524   */\n  0x01\n  dup1\n  sload\n  sub(shl(0xa0, 0x01), 0x01)\n    /* \"@openzeppelin/contracts/access/Ownable.sol\":2534:2551   */\n  dup4\n  dup2\n  and\n  not(sub(shl(0xa0, 0x01), 0x01))\n  dup4\n  and\n  dup2\n  or\n  swap1\n  swap4\n  sstore\n    /* \"@openzeppelin/contracts/access/Ownable.sol\":2566:2606   */\n  mload(0x40)\n    /* \"@openzeppelin/contracts/access/Ownable.sol\":2518:2524   */\n  swap2\n  and\n  swap2\n    /* \"@openzeppelin/contracts/access/Ownable.sol\":2534:2551   */\n  swap1\n    /* \"@openzeppelin/contracts/access/Ownable.sol\":2518:2524   */\n  dup3\n  swap1\n    /* \"@openzeppelin/contracts/access/Ownable.sol\":2566:2606   */\n  0x8be0079c531659141344cd1fd0a4f28419497f9722a3daafe3b4186f6b6457e0\n  swap1\n    /* \"@openzeppelin/contracts/access/Ownable.sol\":2499:2515   */\n  0x00\n  swap1\n    /* \"@openzeppelin/contracts/access/Ownable.sol\":2566:2606   */\n  log3\n    /* \"@openzeppelin/contracts/access/Ownable.sol\":2489:2613   */\n  pop\n    /* \"@openzeppelin/contracts/access/Ownable.sol\":2426:2613   */\n  pop\n  jump\t// out\n    /* \"#utility.yul\":14:191   */\ntag_17:\n    /* \"#utility.yul\":93:106   */\n  dup1\n  mload\n  sub(shl(0xa0, 0x01), 0x01)\n    /* \"#utility.yul\":135:166   */\n  dup2\n  and\n    /* \"#utility.yul\":125:167   */\n  dup2\n  eq\n    /* \"#utility.yul\":115:185   */\n  tag_20\n  jumpi\n    /* \"#utility.yul\":181:182   */\n  0x00\n    /* \"#utility.yul\":178:179   */\n  dup1\n    /* \"#utility.yul\":171:183   */\n  revert\n    /* \"#utility.yul\":115:185   */\ntag_20:\n    /* \"#utility.yul\":14:191   */\n  swap2\n  swap1\n  pop\n  jump\t// out\n    /* \"#utility.yul\":196:489   */\ntag_3:\n    /* \"#utility.yul\":275:281   */\n  0x00\n    /* \"#utility.yul\":283:289   */\n  dup1\n    /* \"#utility.yul\":336:338   */\n  0x40\n    /* \"#utility.yul\":324:333   */\n  dup4\n    /* \"#utility.yul\":315:322   */\n  dup6\n    /* \"#utility.yul\":311:334   */\n  sub\n    /* \"#utility.yul\":307:339   */\n  slt\n    /* \"#utility.yul\":304:356   */\n  iszero\n  tag_22\n  jumpi\n    /* \"#utility.yul\":352:353   */\n  0x00\n    /* \"#utility.yul\":349:350   */\n  dup1\n    /* \"#utility.yul\":342:354   */\n  revert\n    /* \"#utility.yul\":304:356   */\ntag_22:\n    /* \"#utility.yul\":375:415   */\n  tag_23\n    /* \"#utility.yul\":405:414   */\n  dup4\n    /* \"#utility.yul\":375:415   */\n  tag_17\n  jump\t// in\ntag_23:\n    /* \"#utility.yul\":365:415   */\n  swap2\n  pop\n    /* \"#utility.yul\":434:483   */\n  tag_24\n    /* \"#utility.yul\":479:481   */\n  0x20\n    /* \"#utility.yul\":468:477   */\n  dup5\n    /* \"#utility.yul\":464:482   */\n  add\n    /* \"#utility.yul\":434:483   */\n  tag_17\n  jump\t// in\ntag_24:\n    /* \"#utility.yul\":424:483   */\n  swap1\n  pop\n    /* \"#utility.yul\":196:489   */\n  swap3\n  pop\n  swap3\n  swap1\n  pop\n  jump\t// out\ntag_18:\n    /* \"AhadiEscrow.sol\":232:3557  contract AhadiEscrow is ReentrancyGuard, Ownable {... */\n  dataSize(sub_0)\n  dup1\n  dataOffset(sub_0)\n  0x00\n  codecopy\n  0x00\n  return\nstop\n\nsub_0: assembly {\n        /* \"AhadiEscrow.sol\":232:3557  contract AhadiEscrow is ReentrancyGuard, Ownable {... */\n      mstore(0x40, 0x80)\n      callvalue\n      dup1\n      iszero\n      tag_1\n      jumpi\n      0x00\n      dup1\n      revert\n    tag_1:\n      pop\n      jumpi(tag_2, lt(calldatasize, 0x04))\n      shr(0xe0, calldataload(0x00))\n      dup1\n      0xa2bbe2b7\n      gt\n      tag_14\n      jumpi\n      dup1\n      0xe9cbd822\n      gt\n      tag_15\n      jumpi\n      dup1\n      0xe9cbd822\n      eq\n      tag_11\n      jumpi\n      dup1\n      0xf25f4b56\n      eq\n      tag_12\n      jumpi\n      dup1\n      0xf2fde38b\n      eq\n      tag_13\n      jumpi\n      0x00\n      dup1\n      revert\n    tag_15:\n      dup1\n      0xa2bbe2b7\n      eq\n      tag_8\n      jumpi\n      dup1\n      0xa5c1674e\n      eq\n      tag_9\n      jumpi\n      dup1\n      0xb8606eef\n      eq\n      tag_10\n      jumpi\n      0x00\n      dup1\n      revert\n    tag_14:\n      dup1\n      0x4d68282f\n      gt\n      tag_16\n      jumpi\n      dup1\n      0x4d68282f\n      eq\n      tag_5\n      jumpi\n      dup1\n      0x715018a6\n      eq\n      tag_6\n      jumpi\n      dup1\n      0x8da5cb5b\n      eq\n      tag_7\n      jumpi\n      0x00\n      dup1\n      revert\n    tag_16:\n      dup1\n      0x03988f84\n      eq\n      tag_3\n      jumpi\n      dup1\n      0x0e33599d\n      eq\n      tag_4\n      jumpi\n    tag_2:\n      0x00\n      dup1\n      revert\n        /* \"AhadiEscrow.sol\":608:645  mapping(uint256 => Deal) public deals */\n    tag_3:\n      tag_17\n      tag_18\n      calldatasize\n      0x04\n      tag_19\n      jump\t// in\n    tag_18:\n      mstore(0x20, 0x05)\n      0x00\n      swap1\n      dup2\n      mstore\n      0x40\n      swap1\n      keccak256\n      dup1\n      sload\n      0x01\n      dup3\n      add\n      sload\n      0x02\n      dup4\n      add\n      sload\n      0x03\n      swap1\n      swap4\n      add\n      sload\n      sub(shl(0xa0, 0x01), 0x01)\n      swap3\n      dup4\n      and\n      swap4\n      swap2\n      swap1\n      swap3\n      and\n      swap2\n      0xff\n      dup1\n      dup3\n      and\n      swap2\n      0x0100\n      swap1\n      div\n      and\n      dup6\n      jump\n    tag_17:\n      0x40\n      dup1\n      mload\n      sub(shl(0xa0, 0x01), 0x01)\n        /* \"#utility.yul\":525:540   */\n      swap7\n      dup8\n      and\n        /* \"#utility.yul\":507:541   */\n      dup2\n      mstore\n        /* \"#utility.yul\":577:592   */\n      swap6\n      swap1\n      swap5\n      and\n        /* \"#utility.yul\":572:574   */\n      0x20\n        /* \"#utility.yul\":557:575   */\n      dup7\n      add\n        /* \"#utility.yul\":550:593   */\n      mstore\n        /* \"#utility.yul\":609:627   */\n      swap3\n      dup5\n      add\n        /* \"#utility.yul\":602:636   */\n      swap2\n      swap1\n      swap2\n      mstore\n        /* \"#utility.yul\":679:693   */\n      iszero\n        /* \"#utility.yul\":672:694   */\n      iszero\n        /* \"#utility.yul\":667:669   */\n      0x60\n        /* \"#utility.yul\":652:670   */\n      dup4\n      add\n        /* \"#utility.yul\":645:695   */\n      mstore\n        /* \"#utility.yul\":739:753   */\n      iszero\n        /* \"#utility.yul\":732:754   */\n      iszero\n        /* \"#utility.yul\":726:729   */\n      0x80\n        /* \"#utility.yul\":711:730   */\n      dup3\n      add\n        /* \"#utility.yul\":704:755   */\n      mstore\n        /* \"#utility.yul\":433:436   */\n      0xa0\n        /* \"#utility.yul\":418:437   */\n      add\n        /* \"AhadiEscrow.sol\":608:645  mapping(uint256 => Deal) public deals */\n    tag_21:\n      mload(0x40)\n      dup1\n      swap2\n      sub\n      swap1\n      return\n        /* \"AhadiEscrow.sol\":3083:3555  function resolveDispute(... */\n    tag_4:\n      tag_23\n      tag_24\n      calldatasize\n      0x04\n      tag_25\n      jump\t// in\n    tag_24:\n      tag_26\n      jump\t// in\n    tag_23:\n      stop\n        /* \"AhadiEscrow.sol\":1984:2670  function releaseFunds(uint256 _dealId) external nonReentrant {... */\n    tag_5:\n      tag_23\n      tag_28\n      calldatasize\n      0x04\n      tag_19\n      jump\t// in\n    tag_28:\n      tag_29\n      jump\t// in\n        /* \"@openzeppelin/contracts/access/Ownable.sol\":1824:1925   */\n    tag_6:\n      tag_23\n      tag_31\n      jump\t// in\n        /* \"@openzeppelin/contracts/access/Ownable.sol\":1201:1286   */\n    tag_7:\n        /* \"@openzeppelin/contracts/access/Ownable.sol\":1273:1279   */\n      and(sub(shl(0xa0, 0x01), 0x01), sload(0x01))\n        /* \"@openzeppelin/contracts/access/Ownable.sol\":1201:1286   */\n    tag_32:\n      mload(0x40)\n      sub(shl(0xa0, 0x01), 0x01)\n        /* \"#utility.yul\":1390:1445   */\n      swap1\n      swap2\n      and\n        /* \"#utility.yul\":1372:1446   */\n      dup2\n      mstore\n        /* \"#utility.yul\":1360:1362   */\n      0x20\n        /* \"#utility.yul\":1345:1363   */\n      add\n        /* \"@openzeppelin/contracts/access/Ownable.sol\":1201:1286   */\n      tag_21\n        /* \"#utility.yul\":1226:1452   */\n      jump\n        /* \"AhadiEscrow.sol\":1277:1954  function createDeal(... */\n    tag_8:\n      tag_23\n      tag_37\n      calldatasize\n      0x04\n      tag_38\n      jump\t// in\n    tag_37:\n      tag_39\n      jump\t// in\n        /* \"AhadiEscrow.sol\":2700:3053  function raiseDispute(uint256 _dealId) external {... */\n    tag_9:\n      tag_23\n      tag_41\n      calldatasize\n      0x04\n      tag_19\n      jump\t// in\n    tag_41:\n      tag_42\n      jump\t// in\n        /* \"AhadiEscrow.sol\":323:358  uint256 public feeBasisPoints = 250 */\n    tag_10:\n      tag_43\n      sload(0x02)\n      dup2\n      jump\n    tag_43:\n      mload(0x40)\n        /* \"#utility.yul\":1930:1955   */\n      swap1\n      dup2\n      mstore\n        /* \"#utility.yul\":1918:1920   */\n      0x20\n        /* \"#utility.yul\":1903:1921   */\n      add\n        /* \"AhadiEscrow.sol\":323:358  uint256 public feeBasisPoints = 250 */\n      tag_21\n        /* \"#utility.yul\":1784:1961   */\n      jump\n        /* \"AhadiEscrow.sol\":430:454  IERC20 public stablecoin */\n    tag_11:\n      sload(0x04)\n      tag_32\n      swap1\n      sub(shl(0xa0, 0x01), 0x01)\n      and\n      dup2\n      jump\n        /* \"AhadiEscrow.sol\":364:388  address public feeWallet */\n    tag_12:\n      sload(0x03)\n      tag_32\n      swap1\n      sub(shl(0xa0, 0x01), 0x01)\n      and\n      dup2\n      jump\n        /* \"@openzeppelin/contracts/access/Ownable.sol\":2074:2272   */\n    tag_13:\n      tag_23\n      tag_55\n      calldatasize\n      0x04\n      tag_56\n      jump\t// in\n    tag_55:\n      tag_57\n      jump\t// in\n        /* \"AhadiEscrow.sol\":3083:3555  function resolveDispute(... */\n    tag_26:\n        /* \"@openzeppelin/contracts/access/Ownable.sol\":1094:1107   */\n      tag_59\n        /* \"@openzeppelin/contracts/access/Ownable.sol\":1094:1105   */\n      tag_60\n        /* \"@openzeppelin/contracts/access/Ownable.sol\":1094:1107   */\n      jump\t// in\n    tag_59:\n        /* \"@openzeppelin/contracts/security/ReentrancyGuard.sol\":2261:2282   */\n      tag_62\n        /* \"@openzeppelin/contracts/security/ReentrancyGuard.sol\":2261:2280   */\n      tag_63\n        /* \"@openzeppelin/contracts/security/ReentrancyGuard.sol\":2261:2282   */\n      jump\t// in\n    tag_62:\n        /* \"AhadiEscrow.sol\":3205:3222  Deal storage deal */\n      0x00\n        /* \"AhadiEscrow.sol\":3225:3239  deals[_dealId] */\n      dup3\n      dup2\n      mstore\n        /* \"AhadiEscrow.sol\":3225:3230  deals */\n      0x05\n        /* \"AhadiEscrow.sol\":3225:3239  deals[_dealId] */\n      0x20\n      mstore\n      0x40\n      swap1\n      keccak256\n        /* \"AhadiEscrow.sol\":3257:3272  deal.isDisputed */\n      0x03\n      dup2\n      add\n      sload\n      0x0100\n      swap1\n      div\n      0xff\n      and\n        /* \"AhadiEscrow.sol\":3249:3289  require(deal.isDisputed, \"Not disputed\") */\n      tag_65\n      jumpi\n      mload(0x40)\n      shl(0xe5, 0x461bcd)\n      dup2\n      mstore\n        /* \"#utility.yul\":2604:2606   */\n      0x20\n        /* \"AhadiEscrow.sol\":3249:3289  require(deal.isDisputed, \"Not disputed\") */\n      0x04\n      dup3\n      add\n        /* \"#utility.yul\":2586:2607   */\n      mstore\n        /* \"#utility.yul\":2643:2645   */\n      0x0c\n        /* \"#utility.yul\":2623:2641   */\n      0x24\n      dup3\n      add\n        /* \"#utility.yul\":2616:2646   */\n      mstore\n        /* \"#utility.yul\":2682:2696   */\n      0x4e6f742064697370757465640000000000000000000000000000000000000000\n        /* \"#utility.yul\":2662:2680   */\n      0x44\n      dup3\n      add\n        /* \"#utility.yul\":2655:2697   */\n      mstore\n        /* \"#utility.yul\":2714:2732   */\n      0x64\n      add\n        /* \"AhadiEscrow.sol\":3249:3289  require(deal.isDisputed, \"Not disputed\") */\n    tag_66:\n      mload(0x40)\n      dup1\n      swap2\n      sub\n      swap1\n      revert\n    tag_65:\n        /* \"AhadiEscrow.sol\":3308:3324  deal.isCompleted */\n      0x03\n      dup2\n      add\n      sload\n      0xff\n      and\n        /* \"AhadiEscrow.sol\":3307:3324  !deal.isCompleted */\n      iszero\n        /* \"AhadiEscrow.sol\":3299:3340  require(!deal.isCompleted, \"Deal closed\") */\n      tag_68\n      jumpi\n      mload(0x40)\n      shl(0xe5, 0x461bcd)\n      dup2\n      mstore\n        /* \"#utility.yul\":2945:2947   */\n      0x20\n        /* \"AhadiEscrow.sol\":3299:3340  require(!deal.isCompleted, \"Deal closed\") */\n      0x04\n      dup3\n      add\n        /* \"#utility.yul\":2927:2948   */\n      mstore\n        /* \"#utility.yul\":2984:2986   */\n      0x0b\n        /* \"#utility.yul\":2964:2982   */\n      0x24\n      dup3\n      add\n        /* \"#utility.yul\":2957:2987   */\n      mstore\n      shl(0xaa, 0x1119585b0818db1bdcd959)\n        /* \"#utility.yul\":3003:3021   */\n      0x44\n      dup3\n      add\n        /* \"#utility.yul\":2996:3037   */\n      mstore\n        /* \"#utility.yul\":3054:3072   */\n      0x64\n      add\n        /* \"AhadiEscrow.sol\":3299:3340  require(!deal.isCompleted, \"Deal closed\") */\n      tag_66\n        /* \"#utility.yul\":2743:3078   */\n      jump\n        /* \"AhadiEscrow.sol\":3299:3340  require(!deal.isCompleted, \"Deal closed\") */\n    tag_68:\n        /* \"AhadiEscrow.sol\":3351:3367  deal.isCompleted */\n      0x03\n      dup2\n      add\n        /* \"AhadiEscrow.sol\":3351:3374  deal.isCompleted = true */\n      dup1\n      sload\n      not(0xffff)\n        /* \"AhadiEscrow.sol\":3384:3407  deal.isDisputed = false */\n      and\n        /* \"AhadiEscrow.sol\":3370:3374  true */\n      0x01\n        /* \"AhadiEscrow.sol\":3384:3407  deal.isDisputed = false */\n      or\n      swap1\n      sstore\n        /* \"AhadiEscrow.sol\":3426:3436  stablecoin */\n      0x04\n      dup1\n      sload\n        /* \"AhadiEscrow.sol\":3455:3466  deal.amount */\n      0x02\n      dup4\n      add\n      sload\n        /* \"AhadiEscrow.sol\":3426:3467  stablecoin.transfer(_winner, deal.amount) */\n      mload(0x40)\n      shl(0xe0, 0xa9059cbb)\n      dup2\n      mstore\n      sub(shl(0xa0, 0x01), 0x01)\n        /* \"AhadiEscrow.sol\":3426:3436  stablecoin */\n      swap1\n      swap3\n      and\n      swap3\n        /* \"AhadiEscrow.sol\":3426:3445  stablecoin.transfer */\n      0xa9059cbb\n      swap3\n        /* \"AhadiEscrow.sol\":3426:3467  stablecoin.transfer(_winner, deal.amount) */\n      tag_71\n      swap3\n        /* \"AhadiEscrow.sol\":3446:3453  _winner */\n      dup8\n      swap3\n        /* \"AhadiEscrow.sol\":3455:3466  deal.amount */\n      swap1\n      swap2\n        /* \"AhadiEscrow.sol\":3426:3467  stablecoin.transfer(_winner, deal.amount) */\n      add\n      sub(shl(0xa0, 0x01), 0x01)\n        /* \"#utility.yul\":3275:3330   */\n      swap3\n      swap1\n      swap3\n      and\n        /* \"#utility.yul\":3257:3331   */\n      dup3\n      mstore\n        /* \"#utility.yul\":3362:3364   */\n      0x20\n        /* \"#utility.yul\":3347:3365   */\n      dup3\n      add\n        /* \"#utility.yul\":3340:3374   */\n      mstore\n        /* \"#utility.yul\":3245:3247   */\n      0x40\n        /* \"#utility.yul\":3230:3248   */\n      add\n      swap1\n        /* \"#utility.yul\":3083:3380   */\n      jump\n        /* \"AhadiEscrow.sol\":3426:3467  stablecoin.transfer(_winner, deal.amount) */\n    tag_71:\n      0x20\n      mload(0x40)\n      dup1\n      dup4\n      sub\n      dup2\n      0x00\n      dup8\n      gas\n      call\n      iszero\n      dup1\n      iszero\n      tag_74\n      jumpi\n      returndatasize\n      0x00\n      dup1\n      returndatacopy\n      revert(0x00, returndatasize)\n    tag_74:\n      pop\n      pop\n      pop\n      pop\n      mload(0x40)\n      returndatasize\n      not(0x1f)\n      0x1f\n      dup3\n      add\n      and\n      dup3\n      add\n      dup1\n      0x40\n      mstore\n      pop\n      dup2\n      add\n      swap1\n      tag_75\n      swap2\n      swap1\n      tag_76\n      jump\t// in\n    tag_75:\n        /* \"AhadiEscrow.sol\":3418:3487  require(stablecoin.transfer(_winner, deal.amount), \"Transfer failed\") */\n      tag_77\n      jumpi\n      mload(0x40)\n      shl(0xe5, 0x461bcd)\n      dup2\n      mstore\n        /* \"#utility.yul\":3869:3871   */\n      0x20\n        /* \"AhadiEscrow.sol\":3418:3487  require(stablecoin.transfer(_winner, deal.amount), \"Transfer failed\") */\n      0x04\n      dup3\n      add\n        /* \"#utility.yul\":3851:3872   */\n      mstore\n        /* \"#utility.yul\":3908:3910   */\n      0x0f\n        /* \"#utility.yul\":3888:3906   */\n      0x24\n      dup3\n      add\n        /* \"#utility.yul\":3881:3911   */\n      mstore\n      shl(0x8a, 0x151c985b9cd9995c8819985a5b1959)\n        /* \"#utility.yul\":3927:3945   */\n      0x44\n      dup3\n      add\n        /* \"#utility.yul\":3920:3965   */\n      mstore\n        /* \"#utility.yul\":3982:4000   */\n      0x64\n      add\n        /* \"AhadiEscrow.sol\":3418:3487  require(stablecoin.transfer(_winner, deal.amount), \"Transfer failed\") */\n      tag_66\n        /* \"#utility.yul\":3667:4006   */\n      jump\n        /* \"AhadiEscrow.sol\":3418:3487  require(stablecoin.transfer(_winner, deal.amount), \"Transfer failed\") */\n    tag_77:\n        /* \"AhadiEscrow.sol\":3536:3547  deal.amount */\n      0x02\n      dup2\n      add\n      sload\n        /* \"AhadiEscrow.sol\":3502:3548  DisputeResolved(_dealId, _winner, deal.amount) */\n      0x40\n      dup1\n      mload\n      sub(shl(0xa0, 0x01), 0x01)\n        /* \"#utility.yul\":3275:3330   */\n      dup6\n      and\n        /* \"#utility.yul\":3257:3331   */\n      dup2\n      mstore\n        /* \"#utility.yul\":3362:3364   */\n      0x20\n        /* \"#utility.yul\":3347:3365   */\n      dup2\n      add\n        /* \"#utility.yul\":3340:3374   */\n      swap3\n      swap1\n      swap3\n      mstore\n        /* \"AhadiEscrow.sol\":3518:3525  _dealId */\n      dup5\n      swap2\n        /* \"AhadiEscrow.sol\":3502:3548  DisputeResolved(_dealId, _winner, deal.amount) */\n      0xdf0baf5489595ea17a097d16827d60793e2f57f3b85a982e5d7e02838b841ee6\n      swap2\n        /* \"#utility.yul\":3230:3248   */\n      add\n        /* \"AhadiEscrow.sol\":3502:3548  DisputeResolved(_dealId, _winner, deal.amount) */\n      mload(0x40)\n      dup1\n      swap2\n      sub\n      swap1\n      log2\n        /* \"AhadiEscrow.sol\":3195:3555  {... */\n      pop\n        /* \"@openzeppelin/contracts/security/ReentrancyGuard.sol\":2303:2323   */\n      tag_81\n        /* \"@openzeppelin/contracts/security/ReentrancyGuard.sol\":1716:1717   */\n      0x01\n        /* \"@openzeppelin/contracts/security/ReentrancyGuard.sol\":2809:2816   */\n      0x00\n        /* \"@openzeppelin/contracts/security/ReentrancyGuard.sol\":2809:2831   */\n      sstore\n        /* \"@openzeppelin/contracts/security/ReentrancyGuard.sol\":2629:2838   */\n      jump\n        /* \"@openzeppelin/contracts/security/ReentrancyGuard.sol\":2303:2323   */\n    tag_81:\n        /* \"AhadiEscrow.sol\":3083:3555  function resolveDispute(... */\n      pop\n      pop\n      jump\t// out\n        /* \"AhadiEscrow.sol\":1984:2670  function releaseFunds(uint256 _dealId) external nonReentrant {... */\n    tag_29:\n        /* \"@openzeppelin/contracts/security/ReentrancyGuard.sol\":2261:2282   */\n      tag_84\n        /* \"@openzeppelin/contracts/security/ReentrancyGuard.sol\":2261:2280   */\n      tag_63\n        /* \"@openzeppelin/contracts/security/ReentrancyGuard.sol\":2261:2282   */\n      jump\t// in\n    tag_84:\n        /* \"AhadiEscrow.sol\":2055:2072  Deal storage deal */\n      0x00\n        /* \"AhadiEscrow.sol\":2075:2089  deals[_dealId] */\n      dup2\n      dup2\n      mstore\n        /* \"AhadiEscrow.sol\":2075:2080  deals */\n      0x05\n        /* \"AhadiEscrow.sol\":2075:2089  deals[_dealId] */\n      0x20\n      mstore\n      0x40\n      swap1\n      keccak256\n        /* \"AhadiEscrow.sol\":2121:2131  deal.buyer */\n      dup1\n      sload\n      sub(shl(0xa0, 0x01), 0x01)\n      and\n        /* \"AhadiEscrow.sol\":2107:2117  msg.sender */\n      caller\n        /* \"AhadiEscrow.sol\":2107:2131  msg.sender == deal.buyer */\n      eq\n        /* \"AhadiEscrow.sol\":2099:2158  require(msg.sender == deal.buyer, \"Only Buyer can release\") */\n      tag_86\n      jumpi\n      mload(0x40)\n      shl(0xe5, 0x461bcd)\n      dup2\n      mstore\n        /* \"#utility.yul\":4213:4215   */\n      0x20\n        /* \"AhadiEscrow.sol\":2099:2158  require(msg.sender == deal.buyer, \"Only Buyer can release\") */\n      0x04\n      dup3\n      add\n        /* \"#utility.yul\":4195:4216   */\n      mstore\n        /* \"#utility.yul\":4252:4254   */\n      0x16\n        /* \"#utility.yul\":4232:4250   */\n      0x24\n      dup3\n      add\n        /* \"#utility.yul\":4225:4255   */\n      mstore\n        /* \"#utility.yul\":4291:4315   */\n      0x4f6e6c792042757965722063616e2072656c6561736500000000000000000000\n        /* \"#utility.yul\":4271:4289   */\n      0x44\n      dup3\n      add\n        /* \"#utility.yul\":4264:4316   */\n      mstore\n        /* \"#utility.yul\":4333:4351   */\n      0x64\n      add\n        /* \"AhadiEscrow.sol\":2099:2158  require(msg.sender == deal.buyer, \"Only Buyer can release\") */\n      tag_66\n        /* \"#utility.yul\":4011:4357   */\n      jump\n        /* \"AhadiEscrow.sol\":2099:2158  require(msg.sender == deal.buyer, \"Only Buyer can release\") */\n    tag_86:\n        /* \"AhadiEscrow.sol\":2177:2193  deal.isCompleted */\n      0x03\n      dup2\n      add\n      sload\n      0xff\n      and\n        /* \"AhadiEscrow.sol\":2176:2193  !deal.isCompleted */\n      iszero\n        /* \"AhadiEscrow.sol\":2168:2209  require(!deal.isCompleted, \"Deal closed\") */\n      tag_89\n      jumpi\n      mload(0x40)\n      shl(0xe5, 0x461bcd)\n      dup2\n      mstore\n        /* \"#utility.yul\":2945:2947   */\n      0x20\n        /* \"AhadiEscrow.sol\":2168:2209  require(!deal.isCompleted, \"Deal closed\") */\n      0x04\n      dup3\n      add\n        /* \"#utility.yul\":2927:2948   */\n      mstore\n        /* \"#utility.yul\":2984:2986   */\n      0x0b\n        /* \"#utility.yul\":2964:2982   */\n      0x24\n      dup3\n      add\n        /* \"#utility.yul\":2957:2987   */\n      mstore\n      shl(0xaa, 0x1119585b0818db1bdcd959)\n        /* \"#utility.yul\":3003:3021   */\n      0x44\n      dup3\n      add\n        /* \"#utility.yul\":2996:3037   */\n      mstore\n        /* \"#utility.yul\":3054:3072   */\n      0x64\n      add\n        /* \"AhadiEscrow.sol\":2168:2209  require(!deal.isCompleted, \"Deal closed\") */\n      tag_66\n        /* \"#utility.yul\":2743:3078   */\n      jump\n        /* \"AhadiEscrow.sol\":2168:2209  require(!deal.isCompleted, \"Deal closed\") */\n    tag_89:\n        /* \"AhadiEscrow.sol\":2228:2243  deal.isDisputed */\n      0x03\n      dup2\n      add\n      sload\n      0x0100\n      swap1\n      div\n      0xff\n      and\n        /* \"AhadiEscrow.sol\":2227:2243  !deal.isDisputed */\n      iszero\n        /* \"AhadiEscrow.sol\":2219:2263  require(!deal.isDisputed, \"Deal in dispute\") */\n      tag_91\n      jumpi\n      mload(0x40)\n      shl(0xe5, 0x461bcd)\n      dup2\n      mstore\n        /* \"#utility.yul\":4564:4566   */\n      0x20\n        /* \"AhadiEscrow.sol\":2219:2263  require(!deal.isDisputed, \"Deal in dispute\") */\n      0x04\n      dup3\n      add\n        /* \"#utility.yul\":4546:4567   */\n      mstore\n        /* \"#utility.yul\":4603:4605   */\n      0x0f\n        /* \"#utility.yul\":4583:4601   */\n      0x24\n      dup3\n      add\n        /* \"#utility.yul\":4576:4606   */\n      mstore\n        /* \"#utility.yul\":4642:4659   */\n      0x4465616c20696e20646973707574650000000000000000000000000000000000\n        /* \"#utility.yul\":4622:4640   */\n      0x44\n      dup3\n      add\n        /* \"#utility.yul\":4615:4660   */\n      mstore\n        /* \"#utility.yul\":4677:4695   */\n      0x64\n      add\n        /* \"AhadiEscrow.sol\":2219:2263  require(!deal.isDisputed, \"Deal in dispute\") */\n      tag_66\n        /* \"#utility.yul\":4362:4701   */\n      jump\n        /* \"AhadiEscrow.sol\":2219:2263  require(!deal.isDisputed, \"Deal in dispute\") */\n    tag_91:\n        /* \"AhadiEscrow.sol\":2274:2290  deal.isCompleted */\n      0x03\n      dup2\n      add\n        /* \"AhadiEscrow.sol\":2274:2297  deal.isCompleted = true */\n      dup1\n      sload\n      not(0xff)\n      and\n        /* \"AhadiEscrow.sol\":2293:2297  true */\n      0x01\n        /* \"AhadiEscrow.sol\":2274:2297  deal.isCompleted = true */\n      or\n      swap1\n      sstore\n        /* \"AhadiEscrow.sol\":2337:2351  feeBasisPoints */\n      0x02\n      dup1\n      sload\n        /* \"AhadiEscrow.sol\":2323:2334  deal.amount */\n      swap1\n      dup3\n      add\n      sload\n        /* \"AhadiEscrow.sol\":2274:2290  deal.isCompleted */\n      0x00\n      swap2\n        /* \"AhadiEscrow.sol\":2355:2360  10000 */\n      0x2710\n      swap2\n        /* \"AhadiEscrow.sol\":2323:2351  deal.amount * feeBasisPoints */\n      tag_94\n      swap2\n        /* \"AhadiEscrow.sol\":2337:2351  feeBasisPoints */\n      swap1\n        /* \"AhadiEscrow.sol\":2323:2351  deal.amount * feeBasisPoints */\n      tag_95\n      jump\t// in\n    tag_94:\n        /* \"AhadiEscrow.sol\":2322:2360  (deal.amount * feeBasisPoints) / 10000 */\n      tag_96\n      swap2\n      swap1\n      tag_97\n      jump\t// in\n    tag_96:\n        /* \"AhadiEscrow.sol\":2308:2360  uint256 fee = (deal.amount * feeBasisPoints) / 10000 */\n      swap1\n      pop\n        /* \"AhadiEscrow.sol\":2370:2384  uint256 payout */\n      0x00\n        /* \"AhadiEscrow.sol\":2401:2404  fee */\n      dup2\n        /* \"AhadiEscrow.sol\":2387:2391  deal */\n      dup4\n        /* \"AhadiEscrow.sol\":2387:2398  deal.amount */\n      0x02\n      add\n      sload\n        /* \"AhadiEscrow.sol\":2387:2404  deal.amount - fee */\n      tag_98\n      swap2\n      swap1\n      tag_99\n      jump\t// in\n    tag_98:\n        /* \"AhadiEscrow.sol\":2436:2446  stablecoin */\n      0x04\n      dup1\n      sload\n      0x01\n        /* \"AhadiEscrow.sol\":2456:2467  deal.seller */\n      dup7\n      add\n      sload\n        /* \"AhadiEscrow.sol\":2436:2476  stablecoin.transfer(deal.seller, payout) */\n      mload(0x40)\n      shl(0xe0, 0xa9059cbb)\n      dup2\n      mstore\n      sub(shl(0xa0, 0x01), 0x01)\n        /* \"AhadiEscrow.sol\":2456:2467  deal.seller */\n      swap2\n      dup3\n      and\n        /* \"AhadiEscrow.sol\":2436:2476  stablecoin.transfer(deal.seller, payout) */\n      swap4\n      dup2\n      add\n        /* \"#utility.yul\":3257:3331   */\n      swap4\n      swap1\n      swap4\n      mstore\n        /* \"#utility.yul\":3347:3365   */\n      0x24\n      dup4\n      add\n        /* \"#utility.yul\":3340:3374   */\n      dup5\n      swap1\n      mstore\n        /* \"AhadiEscrow.sol\":2370:2404  uint256 payout = deal.amount - fee */\n      swap3\n      swap4\n      pop\n        /* \"AhadiEscrow.sol\":2436:2446  stablecoin */\n      swap2\n      swap1\n      swap2\n      and\n      swap1\n        /* \"AhadiEscrow.sol\":2436:2455  stablecoin.transfer */\n      0xa9059cbb\n      swap1\n        /* \"#utility.yul\":3230:3248   */\n      0x44\n      add\n        /* \"AhadiEscrow.sol\":2436:2476  stablecoin.transfer(deal.seller, payout) */\n      0x20\n      mload(0x40)\n      dup1\n      dup4\n      sub\n      dup2\n      0x00\n      dup8\n      gas\n      call\n      iszero\n      dup1\n      iszero\n      tag_102\n      jumpi\n      returndatasize\n      0x00\n      dup1\n      returndatacopy\n      revert(0x00, returndatasize)\n    tag_102:\n      pop\n      pop\n      pop\n      pop\n      mload(0x40)\n      returndatasize\n      not(0x1f)\n      0x1f\n      dup3\n      add\n      and\n      dup3\n      add\n      dup1\n      0x40\n      mstore\n      pop\n      dup2\n      add\n      swap1\n      tag_103\n      swap2\n      swap1\n      tag_76\n      jump\t// in\n    tag_103:\n        /* \"AhadiEscrow.sol\":2415:2527  require(... */\n      tag_104\n      jumpi\n      mload(0x40)\n      shl(0xe5, 0x461bcd)\n      dup2\n      mstore\n        /* \"#utility.yul\":5568:5570   */\n      0x20\n        /* \"AhadiEscrow.sol\":2415:2527  require(... */\n      0x04\n      dup3\n      add\n        /* \"#utility.yul\":5550:5571   */\n      mstore\n        /* \"#utility.yul\":5607:5609   */\n      0x19\n        /* \"#utility.yul\":5587:5605   */\n      0x24\n      dup3\n      add\n        /* \"#utility.yul\":5580:5610   */\n      mstore\n        /* \"#utility.yul\":5646:5673   */\n      0x5472616e7366657220746f2073656c6c6572206661696c656400000000000000\n        /* \"#utility.yul\":5626:5644   */\n      0x44\n      dup3\n      add\n        /* \"#utility.yul\":5619:5674   */\n      mstore\n        /* \"#utility.yul\":5691:5709   */\n      0x64\n      add\n        /* \"AhadiEscrow.sol\":2415:2527  require(... */\n      tag_66\n        /* \"#utility.yul\":5366:5715   */\n      jump\n        /* \"AhadiEscrow.sol\":2415:2527  require(... */\n    tag_104:\n        /* \"AhadiEscrow.sol\":2545:2555  stablecoin */\n      0x04\n      dup1\n      sload\n        /* \"AhadiEscrow.sol\":2565:2574  feeWallet */\n      sload(0x03)\n        /* \"AhadiEscrow.sol\":2545:2580  stablecoin.transfer(feeWallet, fee) */\n      mload(0x40)\n      shl(0xe0, 0xa9059cbb)\n      dup2\n      mstore\n      sub(shl(0xa0, 0x01), 0x01)\n        /* \"AhadiEscrow.sol\":2565:2574  feeWallet */\n      swap2\n      dup3\n      and\n        /* \"AhadiEscrow.sol\":2545:2580  stablecoin.transfer(feeWallet, fee) */\n      swap4\n      dup2\n      add\n        /* \"#utility.yul\":3257:3331   */\n      swap4\n      swap1\n      swap4\n      mstore\n        /* \"#utility.yul\":3347:3365   */\n      0x24\n      dup4\n      add\n        /* \"#utility.yul\":3340:3374   */\n      dup6\n      swap1\n      mstore\n        /* \"AhadiEscrow.sol\":2545:2555  stablecoin */\n      and\n      swap1\n        /* \"AhadiEscrow.sol\":2545:2564  stablecoin.transfer */\n      0xa9059cbb\n      swap1\n        /* \"#utility.yul\":3230:3248   */\n      0x44\n      add\n        /* \"AhadiEscrow.sol\":2545:2580  stablecoin.transfer(feeWallet, fee) */\n      0x20\n      mload(0x40)\n      dup1\n      dup4\n      sub\n      dup2\n      0x00\n      dup8\n      gas\n      call\n      iszero\n      dup1\n      iszero\n      tag_109\n      jumpi\n      returndatasize\n      0x00\n      dup1\n      returndatacopy\n      revert(0x00, returndatasize)\n    tag_109:\n      pop\n      pop\n      pop\n      pop\n      mload(0x40)\n      returndatasize\n      not(0x1f)\n      0x1f\n      dup3\n      add\n      and\n      dup3\n      add\n      dup1\n      0x40\n      mstore\n      pop\n      dup2\n      add\n      swap1\n      tag_110\n      swap2\n      swap1\n      tag_76\n      jump\t// in\n    tag_110:\n        /* \"AhadiEscrow.sol\":2537:2604  require(stablecoin.transfer(feeWallet, fee), \"Fee transfer failed\") */\n      tag_111\n      jumpi\n      mload(0x40)\n      shl(0xe5, 0x461bcd)\n      dup2\n      mstore\n        /* \"#utility.yul\":5922:5924   */\n      0x20\n        /* \"AhadiEscrow.sol\":2537:2604  require(stablecoin.transfer(feeWallet, fee), \"Fee transfer failed\") */\n      0x04\n      dup3\n      add\n        /* \"#utility.yul\":5904:5925   */\n      mstore\n        /* \"#utility.yul\":5961:5963   */\n      0x13\n        /* \"#utility.yul\":5941:5959   */\n      0x24\n      dup3\n      add\n        /* \"#utility.yul\":5934:5964   */\n      mstore\n        /* \"#utility.yul\":6000:6021   */\n      0x466565207472616e73666572206661696c656400000000000000000000000000\n        /* \"#utility.yul\":5980:5998   */\n      0x44\n      dup3\n      add\n        /* \"#utility.yul\":5973:6022   */\n      mstore\n        /* \"#utility.yul\":6039:6057   */\n      0x64\n      add\n        /* \"AhadiEscrow.sol\":2537:2604  require(stablecoin.transfer(feeWallet, fee), \"Fee transfer failed\") */\n      tag_66\n        /* \"#utility.yul\":5720:6063   */\n      jump\n        /* \"AhadiEscrow.sol\":2537:2604  require(stablecoin.transfer(feeWallet, fee), \"Fee transfer failed\") */\n    tag_111:\n        /* \"AhadiEscrow.sol\":2638:2649  deal.seller */\n      0x01\n      dup4\n      add\n      sload\n        /* \"AhadiEscrow.sol\":2620:2663  Released(_dealId, deal.seller, payout, fee) */\n      0x40\n      dup1\n      mload\n        /* \"#utility.yul\":6242:6267   */\n      dup4\n      dup2\n      mstore\n        /* \"#utility.yul\":6298:6300   */\n      0x20\n        /* \"#utility.yul\":6283:6301   */\n      dup2\n      add\n        /* \"#utility.yul\":6276:6310   */\n      dup6\n      swap1\n      mstore\n      sub(shl(0xa0, 0x01), 0x01)\n        /* \"AhadiEscrow.sol\":2638:2649  deal.seller */\n      swap1\n      swap3\n      and\n      swap2\n        /* \"AhadiEscrow.sol\":2629:2636  _dealId */\n      dup7\n      swap2\n        /* \"AhadiEscrow.sol\":2620:2663  Released(_dealId, deal.seller, payout, fee) */\n      0xf86dbbaae73a38eba376327ec68def0678d91d952b4a18aa86d880f199632bd9\n      swap2\n        /* \"#utility.yul\":6215:6233   */\n      add\n        /* \"AhadiEscrow.sol\":2620:2663  Released(_dealId, deal.seller, payout, fee) */\n      mload(0x40)\n      dup1\n      swap2\n      sub\n      swap1\n      log3\n        /* \"AhadiEscrow.sol\":2045:2670  {... */\n      pop\n      pop\n      pop\n        /* \"@openzeppelin/contracts/security/ReentrancyGuard.sol\":2303:2323   */\n      tag_116\n        /* \"@openzeppelin/contracts/security/ReentrancyGuard.sol\":1716:1717   */\n      0x01\n        /* \"@openzeppelin/contracts/security/ReentrancyGuard.sol\":2809:2816   */\n      0x00\n        /* \"@openzeppelin/contracts/security/ReentrancyGuard.sol\":2809:2831   */\n      sstore\n        /* \"@openzeppelin/contracts/security/ReentrancyGuard.sol\":2629:2838   */\n      jump\n        /* \"@openzeppelin/contracts/security/ReentrancyGuard.sol\":2303:2323   */\n    tag_116:\n        /* \"AhadiEscrow.sol\":1984:2670  function releaseFunds(uint256 _dealId) external nonReentrant {... */\n      pop\n      jump\t// out\n        /* \"@openzeppelin/contracts/access/Ownable.sol\":1824:1925   */\n    tag_31:\n        /* \"@openzeppelin/contracts/access/Ownable.sol\":1094:1107   */\n      tag_118\n        /* \"@openzeppelin/contracts/access/Ownable.sol\":1094:1105   */\n      tag_60\n        /* \"@openzeppelin/contracts/access/Ownable.sol\":1094:1107   */\n      jump\t// in\n    tag_118:\n        /* \"@openzeppelin/contracts/access/Ownable.sol\":1888:1918   */\n      tag_120\n        /* \"@openzeppelin/contracts/access/Ownable.sol\":1915:1916   */\n      0x00\n        /* \"@openzeppelin/contracts/access/Ownable.sol\":1888:1906   */\n      tag_121\n        /* \"@openzeppelin/contracts/access/Ownable.sol\":1888:1918   */\n      jump\t// in\n    tag_120:\n        /* \"@openzeppelin/contracts/access/Ownable.sol\":1824:1925   */\n      jump\t// out\n        /* \"AhadiEscrow.sol\":1277:1954  function createDeal(... */\n    tag_39:\n        /* \"@openzeppelin/contracts/security/ReentrancyGuard.sol\":2261:2282   */\n      tag_124\n        /* \"@openzeppelin/contracts/security/ReentrancyGuard.sol\":2261:2280   */\n      tag_63\n        /* \"@openzeppelin/contracts/security/ReentrancyGuard.sol\":2261:2282   */\n      jump\t// in\n    tag_124:\n        /* \"AhadiEscrow.sol\":1418:1432  deals[_dealId] */\n      0x00\n      dup4\n      dup2\n      mstore\n        /* \"AhadiEscrow.sol\":1418:1423  deals */\n      0x05\n        /* \"AhadiEscrow.sol\":1418:1432  deals[_dealId] */\n      0x20\n      mstore\n      0x40\n      swap1\n      keccak256\n        /* \"AhadiEscrow.sol\":1418:1439  deals[_dealId].amount */\n      0x02\n      add\n      sload\n        /* \"AhadiEscrow.sol\":1418:1444  deals[_dealId].amount == 0 */\n      iszero\n        /* \"AhadiEscrow.sol\":1410:1463  require(deals[_dealId].amount == 0, \"Deal ID exists\") */\n      tag_126\n      jumpi\n      mload(0x40)\n      shl(0xe5, 0x461bcd)\n      dup2\n      mstore\n        /* \"#utility.yul\":6523:6525   */\n      0x20\n        /* \"AhadiEscrow.sol\":1410:1463  require(deals[_dealId].amount == 0, \"Deal ID exists\") */\n      0x04\n      dup3\n      add\n        /* \"#utility.yul\":6505:6526   */\n      mstore\n        /* \"#utility.yul\":6562:6564   */\n      0x0e\n        /* \"#utility.yul\":6542:6560   */\n      0x24\n      dup3\n      add\n        /* \"#utility.yul\":6535:6565   */\n      mstore\n        /* \"#utility.yul\":6601:6617   */\n      0x4465616c20494420657869737473000000000000000000000000000000000000\n        /* \"#utility.yul\":6581:6599   */\n      0x44\n      dup3\n      add\n        /* \"#utility.yul\":6574:6618   */\n      mstore\n        /* \"#utility.yul\":6635:6653   */\n      0x64\n      add\n        /* \"AhadiEscrow.sol\":1410:1463  require(deals[_dealId].amount == 0, \"Deal ID exists\") */\n      tag_66\n        /* \"#utility.yul\":6321:6659   */\n      jump\n        /* \"AhadiEscrow.sol\":1410:1463  require(deals[_dealId].amount == 0, \"Deal ID exists\") */\n    tag_126:\n        /* \"AhadiEscrow.sol\":1491:1492  0 */\n      0x00\n        /* \"AhadiEscrow.sol\":1481:1488  _amount */\n      dup2\n        /* \"AhadiEscrow.sol\":1481:1492  _amount > 0 */\n      gt\n        /* \"AhadiEscrow.sol\":1473:1515  require(_amount > 0, \"Amount must be > 0\") */\n      tag_129\n      jumpi\n      mload(0x40)\n      shl(0xe5, 0x461bcd)\n      dup2\n      mstore\n        /* \"#utility.yul\":6866:6868   */\n      0x20\n        /* \"AhadiEscrow.sol\":1473:1515  require(_amount > 0, \"Amount must be > 0\") */\n      0x04\n      dup3\n      add\n        /* \"#utility.yul\":6848:6869   */\n      mstore\n        /* \"#utility.yul\":6905:6907   */\n      0x12\n        /* \"#utility.yul\":6885:6903   */\n      0x24\n      dup3\n      add\n        /* \"#utility.yul\":6878:6908   */\n      mstore\n        /* \"#utility.yul\":6944:6964   */\n      0x416d6f756e74206d757374206265203e20300000000000000000000000000000\n        /* \"#utility.yul\":6924:6942   */\n      0x44\n      dup3\n      add\n        /* \"#utility.yul\":6917:6965   */\n      mstore\n        /* \"#utility.yul\":6982:7000   */\n      0x64\n      add\n        /* \"AhadiEscrow.sol\":1473:1515  require(_amount > 0, \"Amount must be > 0\") */\n      tag_66\n        /* \"#utility.yul\":6664:7006   */\n      jump\n        /* \"AhadiEscrow.sol\":1473:1515  require(_amount > 0, \"Amount must be > 0\") */\n    tag_129:\n        /* \"AhadiEscrow.sol\":1596:1606  stablecoin */\n      0x04\n      dup1\n      sload\n        /* \"AhadiEscrow.sol\":1596:1655  stablecoin.transferFrom(msg.sender, address(this), _amount) */\n      mload(0x40)\n      shl(0xe0, 0x23b872dd)\n      dup2\n      mstore\n        /* \"AhadiEscrow.sol\":1620:1630  msg.sender */\n      caller\n        /* \"AhadiEscrow.sol\":1596:1655  stablecoin.transferFrom(msg.sender, address(this), _amount) */\n      swap3\n      dup2\n      add\n        /* \"#utility.yul\":7274:7308   */\n      swap3\n      swap1\n      swap3\n      mstore\n        /* \"AhadiEscrow.sol\":1640:1644  this */\n      address\n        /* \"#utility.yul\":7324:7342   */\n      0x24\n      dup4\n      add\n        /* \"#utility.yul\":7317:7360   */\n      mstore\n        /* \"#utility.yul\":7376:7394   */\n      0x44\n      dup3\n      add\n        /* \"#utility.yul\":7369:7403   */\n      dup4\n      swap1\n      mstore\n      sub(shl(0xa0, 0x01), 0x01)\n        /* \"AhadiEscrow.sol\":1596:1606  stablecoin */\n      and\n      swap1\n        /* \"AhadiEscrow.sol\":1596:1619  stablecoin.transferFrom */\n      0x23b872dd\n      swap1\n        /* \"#utility.yul\":7186:7204   */\n      0x64\n      add\n        /* \"AhadiEscrow.sol\":1596:1655  stablecoin.transferFrom(msg.sender, address(this), _amount) */\n      0x20\n      mload(0x40)\n      dup1\n      dup4\n      sub\n      dup2\n      0x00\n      dup8\n      gas\n      call\n      iszero\n      dup1\n      iszero\n      tag_135\n      jumpi\n      returndatasize\n      0x00\n      dup1\n      returndatacopy\n      revert(0x00, returndatasize)\n    tag_135:\n      pop\n      pop\n      pop\n      pop\n      mload(0x40)\n      returndatasize\n      not(0x1f)\n      0x1f\n      dup3\n      add\n      and\n      dup3\n      add\n      dup1\n      0x40\n      mstore\n      pop\n      dup2\n      add\n      swap1\n      tag_136\n      swap2\n      swap1\n      tag_76\n      jump\t// in\n    tag_136:\n        /* \"AhadiEscrow.sol\":1575:1696  require(... */\n      tag_137\n      jumpi\n      mload(0x40)\n      shl(0xe5, 0x461bcd)\n      dup2\n      mstore\n        /* \"#utility.yul\":3869:3871   */\n      0x20\n        /* \"AhadiEscrow.sol\":1575:1696  require(... */\n      0x04\n      dup3\n      add\n        /* \"#utility.yul\":3851:3872   */\n      mstore\n        /* \"#utility.yul\":3908:3910   */\n      0x0f\n        /* \"#utility.yul\":3888:3906   */\n      0x24\n      dup3\n      add\n        /* \"#utility.yul\":3881:3911   */\n      mstore\n      shl(0x8a, 0x151c985b9cd9995c8819985a5b1959)\n        /* \"#utility.yul\":3927:3945   */\n      0x44\n      dup3\n      add\n        /* \"#utility.yul\":3920:3965   */\n      mstore\n        /* \"#utility.yul\":3982:4000   */\n      0x64\n      add\n        /* \"AhadiEscrow.sol\":1575:1696  require(... */\n      tag_66\n        /* \"#utility.yul\":3667:4006   */\n      jump\n        /* \"AhadiEscrow.sol\":1575:1696  require(... */\n    tag_137:\n        /* \"AhadiEscrow.sol\":1724:1892  Deal({... */\n      0x40\n      dup1\n      mload\n      0xa0\n      dup2\n      add\n      dup3\n      mstore\n        /* \"AhadiEscrow.sol\":1750:1760  msg.sender */\n      caller\n        /* \"AhadiEscrow.sol\":1724:1892  Deal({... */\n      dup1\n      dup3\n      mstore\n      sub(shl(0xa0, 0x01), 0x01)\n      dup6\n      dup2\n      and\n      0x20\n      dup1\n      dup6\n      add\n      swap2\n      dup3\n      mstore\n      dup5\n      dup7\n      add\n      dup8\n      dup2\n      mstore\n      0x00\n      0x60\n      dup8\n      add\n      dup2\n      dup2\n      mstore\n      0x80\n      dup9\n      add\n      dup3\n      dup2\n      mstore\n        /* \"AhadiEscrow.sol\":1707:1721  deals[_dealId] */\n      dup13\n      dup4\n      mstore\n        /* \"AhadiEscrow.sol\":1707:1712  deals */\n      0x05\n        /* \"AhadiEscrow.sol\":1707:1721  deals[_dealId] */\n      dup6\n      mstore\n      swap2\n      dup10\n      swap1\n      keccak256\n        /* \"AhadiEscrow.sol\":1707:1892  deals[_dealId] = Deal({... */\n      swap8\n      mload\n      dup9\n      sload\n      swap1\n      dup8\n      and\n      not(0xffffffffffffffffffffffffffffffffffffffff)\n      swap2\n      dup3\n      and\n      or\n      dup10\n      sstore\n      swap5\n      mload\n      0x01\n      dup10\n      add\n      dup1\n      sload\n      swap2\n      swap1\n      swap8\n      and\n      swap6\n      and\n      swap5\n      swap1\n      swap5\n      or\n      swap1\n      swap5\n      sstore\n      mload\n      0x02\n      dup7\n      add\n      sstore\n      swap1\n      mload\n      0x03\n      swap1\n      swap5\n      add\n      dup1\n      sload\n      swap3\n      mload\n      iszero\n      iszero\n      0x0100\n      mul\n      not(0xff00)\n      swap6\n      iszero\n      iszero\n      swap6\n      swap1\n      swap6\n      and\n      not(0xffff)\n      swap1\n      swap4\n      and\n      swap3\n      swap1\n      swap3\n      or\n      swap4\n      swap1\n      swap4\n      or\n      swap1\n      sstore\n        /* \"AhadiEscrow.sol\":1908:1947  Deposited(_dealId, msg.sender, _amount) */\n      swap2\n      mload\n        /* \"#utility.yul\":1930:1955   */\n      dup4\n      dup2\n      mstore\n        /* \"AhadiEscrow.sol\":1707:1721  deals[_dealId] */\n      dup6\n      swap2\n        /* \"AhadiEscrow.sol\":1908:1947  Deposited(_dealId, msg.sender, _amount) */\n      0x1599c0fcf897af5babc2bfcf707f5dc050f841b044d97c3251ecec35b9abf80b\n      swap2\n        /* \"#utility.yul\":1903:1921   */\n      add\n        /* \"AhadiEscrow.sol\":1908:1947  Deposited(_dealId, msg.sender, _amount) */\n      mload(0x40)\n      dup1\n      swap2\n      sub\n      swap1\n      log3\n        /* \"@openzeppelin/contracts/security/ReentrancyGuard.sol\":2303:2323   */\n      tag_140\n        /* \"@openzeppelin/contracts/security/ReentrancyGuard.sol\":1716:1717   */\n      0x01\n        /* \"@openzeppelin/contracts/security/ReentrancyGuard.sol\":2809:2816   */\n      0x00\n        /* \"@openzeppelin/contracts/security/ReentrancyGuard.sol\":2809:2831   */\n      sstore\n        /* \"@openzeppelin/contracts/security/ReentrancyGuard.sol\":2629:2838   */\n      jump\n        /* \"@openzeppelin/contracts/security/ReentrancyGuard.sol\":2303:2323   */\n    tag_140:\n        /* \"AhadiEscrow.sol\":1277:1954  function createDeal(... */\n      pop\n      pop\n      pop\n      jump\t// out\n        /* \"AhadiEscrow.sol\":2700:3053  function raiseDispute(uint256 _dealId) external {... */\n    tag_42:\n        /* \"AhadiEscrow.sol\":2758:2775  Deal storage deal */\n      0x00\n        /* \"AhadiEscrow.sol\":2778:2792  deals[_dealId] */\n      dup2\n      dup2\n      mstore\n        /* \"AhadiEscrow.sol\":2778:2783  deals */\n      0x05\n        /* \"AhadiEscrow.sol\":2778:2792  deals[_dealId] */\n      0x20\n      mstore\n      0x40\n      swap1\n      keccak256\n        /* \"AhadiEscrow.sol\":2837:2847  deal.buyer */\n      dup1\n      sload\n      sub(shl(0xa0, 0x01), 0x01)\n      and\n        /* \"AhadiEscrow.sol\":2823:2833  msg.sender */\n      caller\n        /* \"AhadiEscrow.sol\":2823:2847  msg.sender == deal.buyer */\n      eq\n      dup1\n        /* \"AhadiEscrow.sol\":2823:2876  msg.sender == deal.buyer || msg.sender == deal.seller */\n      tag_142\n      jumpi\n      pop\n        /* \"AhadiEscrow.sol\":2865:2876  deal.seller */\n      0x01\n      dup2\n      add\n      sload\n      sub(shl(0xa0, 0x01), 0x01)\n      and\n        /* \"AhadiEscrow.sol\":2851:2861  msg.sender */\n      caller\n        /* \"AhadiEscrow.sol\":2851:2876  msg.sender == deal.seller */\n      eq\n        /* \"AhadiEscrow.sol\":2823:2876  msg.sender == deal.buyer || msg.sender == deal.seller */\n    tag_142:\n        /* \"AhadiEscrow.sol\":2802:2914  require(... */\n      tag_143\n      jumpi\n      mload(0x40)\n      shl(0xe5, 0x461bcd)\n      dup2\n      mstore\n        /* \"#utility.yul\":7616:7618   */\n      0x20\n        /* \"AhadiEscrow.sol\":2802:2914  require(... */\n      0x04\n      dup3\n      add\n        /* \"#utility.yul\":7598:7619   */\n      mstore\n        /* \"#utility.yul\":7655:7657   */\n      0x0c\n        /* \"#utility.yul\":7635:7653   */\n      0x24\n      dup3\n      add\n        /* \"#utility.yul\":7628:7658   */\n      mstore\n        /* \"#utility.yul\":7694:7708   */\n      0x4e6f7420696e766f6c7665640000000000000000000000000000000000000000\n        /* \"#utility.yul\":7674:7692   */\n      0x44\n      dup3\n      add\n        /* \"#utility.yul\":7667:7709   */\n      mstore\n        /* \"#utility.yul\":7726:7744   */\n      0x64\n      add\n        /* \"AhadiEscrow.sol\":2802:2914  require(... */\n      tag_66\n        /* \"#utility.yul\":7414:7750   */\n      jump\n        /* \"AhadiEscrow.sol\":2802:2914  require(... */\n    tag_143:\n        /* \"AhadiEscrow.sol\":2933:2949  deal.isCompleted */\n      0x03\n      dup2\n      add\n      sload\n      0xff\n      and\n        /* \"AhadiEscrow.sol\":2932:2949  !deal.isCompleted */\n      iszero\n        /* \"AhadiEscrow.sol\":2924:2965  require(!deal.isCompleted, \"Deal closed\") */\n      tag_146\n      jumpi\n      mload(0x40)\n      shl(0xe5, 0x461bcd)\n      dup2\n      mstore\n        /* \"#utility.yul\":2945:2947   */\n      0x20\n        /* \"AhadiEscrow.sol\":2924:2965  require(!deal.isCompleted, \"Deal closed\") */\n      0x04\n      dup3\n      add\n        /* \"#utility.yul\":2927:2948   */\n      mstore\n        /* \"#utility.yul\":2984:2986   */\n      0x0b\n        /* \"#utility.yul\":2964:2982   */\n      0x24\n      dup3\n      add\n        /* \"#utility.yul\":2957:2987   */\n      mstore\n      shl(0xaa, 0x1119585b0818db1bdcd959)\n        /* \"#utility.yul\":3003:3021   */\n      0x44\n      dup3\n      add\n        /* \"#utility.yul\":2996:3037   */\n      mstore\n        /* \"#utility.yul\":3054:3072   */\n      0x64\n      add\n        /* \"AhadiEscrow.sol\":2924:2965  require(!deal.isCompleted, \"Deal closed\") */\n      tag_66\n        /* \"#utility.yul\":2743:3078   */\n      jump\n        /* \"AhadiEscrow.sol\":2924:2965  require(!deal.isCompleted, \"Deal closed\") */\n    tag_146:\n        /* \"AhadiEscrow.sol\":2975:2990  deal.isDisputed */\n      0x03\n      dup2\n      add\n        /* \"AhadiEscrow.sol\":2975:2997  deal.isDisputed = true */\n      dup1\n      sload\n      not(0xff00)\n      and\n      0x0100\n      or\n      swap1\n      sstore\n        /* \"AhadiEscrow.sol\":3012:3046  DisputeRaised(_dealId, msg.sender) */\n      mload(0x40)\n        /* \"AhadiEscrow.sol\":3035:3045  msg.sender */\n      caller\n      swap1\n        /* \"AhadiEscrow.sol\":3026:3033  _dealId */\n      dup4\n      swap1\n        /* \"AhadiEscrow.sol\":3012:3046  DisputeRaised(_dealId, msg.sender) */\n      0x84a477df8a28a4276ca6dee4458a06c3015f30c477d9c949ede4e13ff8a552b4\n      swap1\n        /* \"AhadiEscrow.sol\":2975:2997  deal.isDisputed = true */\n      0x00\n      swap1\n        /* \"AhadiEscrow.sol\":3012:3046  DisputeRaised(_dealId, msg.sender) */\n      log3\n        /* \"AhadiEscrow.sol\":2748:3053  {... */\n      pop\n        /* \"AhadiEscrow.sol\":2700:3053  function raiseDispute(uint256 _dealId) external {... */\n      pop\n      jump\t// out\n        /* \"@openzeppelin/contracts/access/Ownable.sol\":2074:2272   */\n    tag_57:\n        /* \"@openzeppelin/contracts/access/Ownable.sol\":1094:1107   */\n      tag_149\n        /* \"@openzeppelin/contracts/access/Ownable.sol\":1094:1105   */\n      tag_60\n        /* \"@openzeppelin/contracts/access/Ownable.sol\":1094:1107   */\n      jump\t// in\n    tag_149:\n      sub(shl(0xa0, 0x01), 0x01)\n        /* \"@openzeppelin/contracts/access/Ownable.sol\":2162:2184   */\n      dup2\n      and\n        /* \"@openzeppelin/contracts/access/Ownable.sol\":2154:2227   */\n      tag_151\n      jumpi\n      mload(0x40)\n      shl(0xe5, 0x461bcd)\n      dup2\n      mstore\n        /* \"#utility.yul\":7957:7959   */\n      0x20\n        /* \"@openzeppelin/contracts/access/Ownable.sol\":2154:2227   */\n      0x04\n      dup3\n      add\n        /* \"#utility.yul\":7939:7960   */\n      mstore\n        /* \"#utility.yul\":7996:7998   */\n      0x26\n        /* \"#utility.yul\":7976:7994   */\n      0x24\n      dup3\n      add\n        /* \"#utility.yul\":7969:7999   */\n      mstore\n        /* \"#utility.yul\":8035:8069   */\n      0x4f776e61626c653a206e6577206f776e657220697320746865207a65726f2061\n        /* \"#utility.yul\":8015:8033   */\n      0x44\n      dup3\n      add\n        /* \"#utility.yul\":8008:8070   */\n      mstore\n        /* \"#utility.yul\":8106:8114   */\n      0x6464726573730000000000000000000000000000000000000000000000000000\n        /* \"#utility.yul\":8086:8104   */\n      0x64\n      dup3\n      add\n        /* \"#utility.yul\":8079:8115   */\n      mstore\n        /* \"#utility.yul\":8132:8151   */\n      0x84\n      add\n        /* \"@openzeppelin/contracts/access/Ownable.sol\":2154:2227   */\n      tag_66\n        /* \"#utility.yul\":7755:8157   */\n      jump\n        /* \"@openzeppelin/contracts/access/Ownable.sol\":2154:2227   */\n    tag_151:\n        /* \"@openzeppelin/contracts/access/Ownable.sol\":2237:2265   */\n      tag_116\n        /* \"@openzeppelin/contracts/access/Ownable.sol\":2256:2264   */\n      dup2\n        /* \"@openzeppelin/contracts/access/Ownable.sol\":2237:2255   */\n      tag_121\n        /* \"@openzeppelin/contracts/access/Ownable.sol\":2237:2265   */\n      jump\t// in\n        /* \"@openzeppelin/contracts/access/Ownable.sol\":1359:1489   */\n    tag_60:\n        /* \"@openzeppelin/contracts/access/Ownable.sol\":1273:1279   */\n      and(sub(shl(0xa0, 0x01), 0x01), sload(0x01))\n        /* \"@openzeppelin/contracts/utils/Context.sol\":734:744   */\n      caller\n        /* \"@openzeppelin/contracts/access/Ownable.sol\":1422:1445   */\n      eq\n        /* \"@openzeppelin/contracts/access/Ownable.sol\":1414:1482   */\n      tag_120\n      jumpi\n      mload(0x40)\n      shl(0xe5, 0x461bcd)\n      dup2\n      mstore\n        /* \"#utility.yul\":8364:8366   */\n      0x20\n        /* \"@openzeppelin/contracts/access/Ownable.sol\":1414:1482   */\n      0x04\n      dup3\n      add\n        /* \"#utility.yul\":8346:8367   */\n      dup2\n      swap1\n      mstore\n        /* \"#utility.yul\":8383:8401   */\n      0x24\n      dup3\n      add\n        /* \"#utility.yul\":8376:8406   */\n      mstore\n        /* \"#utility.yul\":8442:8476   */\n      0x4f776e61626c653a2063616c6c6572206973206e6f7420746865206f776e6572\n        /* \"#utility.yul\":8422:8440   */\n      0x44\n      dup3\n      add\n        /* \"#utility.yul\":8415:8477   */\n      mstore\n        /* \"#utility.yul\":8494:8512   */\n      0x64\n      add\n        /* \"@openzeppelin/contracts/access/Ownable.sol\":1414:1482   */\n      tag_66\n        /* \"#utility.yul\":8162:8518   */\n      jump\n        /* \"@openzeppelin/contracts/security/ReentrancyGuard.sol\":2336:2623   */\n    tag_63:\n        /* \"@openzeppelin/contracts/security/ReentrancyGuard.sol\":1759:1760   */\n      0x02\n        /* \"@openzeppelin/contracts/security/ReentrancyGuard.sol\":2468:2475   */\n      sload(0x00)\n        /* \"@openzeppelin/contracts/security/ReentrancyGuard.sol\":2468:2487   */\n      sub\n        /* \"@openzeppelin/contracts/security/ReentrancyGuard.sol\":2460:2523   */\n      tag_163\n      jumpi\n      mload(0x40)\n      shl(0xe5, 0x461bcd)\n      dup2\n      mstore\n        /* \"#utility.yul\":8725:8727   */\n      0x20\n        /* \"@openzeppelin/contracts/security/ReentrancyGuard.sol\":2460:2523   */\n      0x04\n      dup3\n      add\n        /* \"#utility.yul\":8707:8728   */\n      mstore\n        /* \"#utility.yul\":8764:8766   */\n      0x1f\n        /* \"#utility.yul\":8744:8762   */\n      0x24\n      dup3\n      add\n        /* \"#utility.yul\":8737:8767   */\n      mstore\n        /* \"#utility.yul\":8803:8836   */\n      0x5265656e7472616e637947756172643a207265656e7472616e742063616c6c00\n        /* \"#utility.yul\":8783:8801   */\n      0x44\n      dup3\n      add\n        /* \"#utility.yul\":8776:8837   */\n      mstore\n        /* \"#utility.yul\":8854:8872   */\n      0x64\n      add\n        /* \"@openzeppelin/contracts/security/ReentrancyGuard.sol\":2460:2523   */\n      tag_66\n        /* \"#utility.yul\":8523:8878   */\n      jump\n        /* \"@openzeppelin/contracts/security/ReentrancyGuard.sol\":2460:2523   */\n    tag_163:\n        /* \"@openzeppelin/contracts/security/ReentrancyGuard.sol\":1759:1760   */\n      0x02\n        /* \"@openzeppelin/contracts/security/ReentrancyGuard.sol\":2598:2605   */\n      0x00\n        /* \"@openzeppelin/contracts/security/ReentrancyGuard.sol\":2598:2616   */\n      sstore\n        /* \"@openzeppelin/contracts/security/ReentrancyGuard.sol\":2336:2623   */\n      jump\t// out\n        /* \"@openzeppelin/contracts/access/Ownable.sol\":2426:2613   */\n    tag_121:\n        /* \"@openzeppelin/contracts/access/Ownable.sol\":2518:2524   */\n      0x01\n      dup1\n      sload\n      sub(shl(0xa0, 0x01), 0x01)\n        /* \"@openzeppelin/contracts/access/Ownable.sol\":2534:2551   */\n      dup4\n      dup2\n      and\n      not(0xffffffffffffffffffffffffffffffffffffffff)\n      dup4\n      and\n      dup2\n      or\n      swap1\n      swap4\n      sstore\n        /* \"@openzeppelin/contracts/access/Ownable.sol\":2566:2606   */\n      mload(0x40)\n        /* \"@openzeppelin/contracts/access/Ownable.sol\":2518:2524   */\n      swap2\n      and\n      swap2\n        /* \"@openzeppelin/contracts/access/Ownable.sol\":2534:2551   */\n      swap1\n        /* \"@openzeppelin/contracts/access/Ownable.sol\":2518:2524   */\n      dup3\n      swap1\n        /* \"@openzeppelin/contracts/access/Ownable.sol\":2566:2606   */\n      0x8be0079c531659141344cd1fd0a4f28419497f9722a3daafe3b4186f6b6457e0\n      swap1\n        /* \"@openzeppelin/contracts/access/Ownable.sol\":2499:2515   */\n      0x00\n      swap1\n        /* \"@openzeppelin/contracts/access/Ownable.sol\":2566:2606   */\n      log3\n        /* \"@openzeppelin/contracts/access/Ownable.sol\":2489:2613   */\n      pop\n        /* \"@openzeppelin/contracts/access/Ownable.sol\":2426:2613   */\n      pop\n      jump\t// out\n        /* \"#utility.yul\":14:194   */\n    tag_19:\n        /* \"#utility.yul\":73:79   */\n      0x00\n        /* \"#utility.yul\":126:128   */\n      0x20\n        /* \"#utility.yul\":114:123   */\n      dup3\n        /* \"#utility.yul\":105:112   */\n      dup5\n        /* \"#utility.yul\":101:124   */\n      sub\n        /* \"#utility.yul\":97:129   */\n      slt\n        /* \"#utility.yul\":94:146   */\n      iszero\n      tag_173\n      jumpi\n        /* \"#utility.yul\":142:143   */\n      0x00\n        /* \"#utility.yul\":139:140   */\n      dup1\n        /* \"#utility.yul\":132:144   */\n      revert\n        /* \"#utility.yul\":94:146   */\n    tag_173:\n      pop\n        /* \"#utility.yul\":165:188   */\n      calldataload\n      swap2\n        /* \"#utility.yul\":14:194   */\n      swap1\n      pop\n      jump\t// out\n        /* \"#utility.yul\":766:962   */\n    tag_169:\n        /* \"#utility.yul\":834:854   */\n      dup1\n      calldataload\n      sub(shl(0xa0, 0x01), 0x01)\n        /* \"#utility.yul\":883:937   */\n      dup2\n      and\n        /* \"#utility.yul\":873:938   */\n      dup2\n      eq\n        /* \"#utility.yul\":863:956   */\n      tag_176\n      jumpi\n        /* \"#utility.yul\":952:953   */\n      0x00\n        /* \"#utility.yul\":949:950   */\n      dup1\n        /* \"#utility.yul\":942:954   */\n      revert\n        /* \"#utility.yul\":863:956   */\n    tag_176:\n        /* \"#utility.yul\":766:962   */\n      swap2\n      swap1\n      pop\n      jump\t// out\n        /* \"#utility.yul\":967:1221   */\n    tag_25:\n        /* \"#utility.yul\":1035:1041   */\n      0x00\n        /* \"#utility.yul\":1043:1049   */\n      dup1\n        /* \"#utility.yul\":1096:1098   */\n      0x40\n        /* \"#utility.yul\":1084:1093   */\n      dup4\n        /* \"#utility.yul\":1075:1082   */\n      dup6\n        /* \"#utility.yul\":1071:1094   */\n      sub\n        /* \"#utility.yul\":1067:1099   */\n      slt\n        /* \"#utility.yul\":1064:1116   */\n      iszero\n      tag_178\n      jumpi\n        /* \"#utility.yul\":1112:1113   */\n      0x00\n        /* \"#utility.yul\":1109:1110   */\n      dup1\n        /* \"#utility.yul\":1102:1114   */\n      revert\n        /* \"#utility.yul\":1064:1116   */\n    tag_178:\n        /* \"#utility.yul\":1148:1157   */\n      dup3\n        /* \"#utility.yul\":1135:1158   */\n      calldataload\n        /* \"#utility.yul\":1125:1158   */\n      swap2\n      pop\n        /* \"#utility.yul\":1177:1215   */\n      tag_179\n        /* \"#utility.yul\":1211:1213   */\n      0x20\n        /* \"#utility.yul\":1200:1209   */\n      dup5\n        /* \"#utility.yul\":1196:1214   */\n      add\n        /* \"#utility.yul\":1177:1215   */\n      tag_169\n      jump\t// in\n    tag_179:\n        /* \"#utility.yul\":1167:1215   */\n      swap1\n      pop\n        /* \"#utility.yul\":967:1221   */\n      swap3\n      pop\n      swap3\n      swap1\n      pop\n      jump\t// out\n        /* \"#utility.yul\":1457:1779   */\n    tag_38:\n        /* \"#utility.yul\":1534:1540   */\n      0x00\n        /* \"#utility.yul\":1542:1548   */\n      dup1\n        /* \"#utility.yul\":1550:1556   */\n      0x00\n        /* \"#utility.yul\":1603:1605   */\n      0x60\n        /* \"#utility.yul\":1591:1600   */\n      dup5\n        /* \"#utility.yul\":1582:1589   */\n      dup7\n        /* \"#utility.yul\":1578:1601   */\n      sub\n        /* \"#utility.yul\":1574:1606   */\n      slt\n        /* \"#utility.yul\":1571:1623   */\n      iszero\n      tag_182\n      jumpi\n        /* \"#utility.yul\":1619:1620   */\n      0x00\n        /* \"#utility.yul\":1616:1617   */\n      dup1\n        /* \"#utility.yul\":1609:1621   */\n      revert\n        /* \"#utility.yul\":1571:1623   */\n    tag_182:\n        /* \"#utility.yul\":1655:1664   */\n      dup4\n        /* \"#utility.yul\":1642:1665   */\n      calldataload\n        /* \"#utility.yul\":1632:1665   */\n      swap3\n      pop\n        /* \"#utility.yul\":1684:1722   */\n      tag_183\n        /* \"#utility.yul\":1718:1720   */\n      0x20\n        /* \"#utility.yul\":1707:1716   */\n      dup6\n        /* \"#utility.yul\":1703:1721   */\n      add\n        /* \"#utility.yul\":1684:1722   */\n      tag_169\n      jump\t// in\n    tag_183:\n        /* \"#utility.yul\":1674:1722   */\n      swap2\n      pop\n        /* \"#utility.yul\":1769:1771   */\n      0x40\n        /* \"#utility.yul\":1758:1767   */\n      dup5\n        /* \"#utility.yul\":1754:1772   */\n      add\n        /* \"#utility.yul\":1741:1773   */\n      calldataload\n        /* \"#utility.yul\":1731:1773   */\n      swap1\n      pop\n        /* \"#utility.yul\":1457:1779   */\n      swap3\n      pop\n      swap3\n      pop\n      swap3\n      jump\t// out\n        /* \"#utility.yul\":2211:2397   */\n    tag_56:\n        /* \"#utility.yul\":2270:2276   */\n      0x00\n        /* \"#utility.yul\":2323:2325   */\n      0x20\n        /* \"#utility.yul\":2311:2320   */\n      dup3\n        /* \"#utility.yul\":2302:2309   */\n      dup5\n        /* \"#utility.yul\":2298:2321   */\n      sub\n        /* \"#utility.yul\":2294:2326   */\n      slt\n        /* \"#utility.yul\":2291:2343   */\n      iszero\n      tag_187\n      jumpi\n        /* \"#utility.yul\":2339:2340   */\n      0x00\n        /* \"#utility.yul\":2336:2337   */\n      dup1\n        /* \"#utility.yul\":2329:2341   */\n      revert\n        /* \"#utility.yul\":2291:2343   */\n    tag_187:\n        /* \"#utility.yul\":2362:2391   */\n      tag_188\n        /* \"#utility.yul\":2381:2390   */\n      dup3\n        /* \"#utility.yul\":2362:2391   */\n      tag_169\n      jump\t// in\n    tag_188:\n        /* \"#utility.yul\":2352:2391   */\n      swap4\n        /* \"#utility.yul\":2211:2397   */\n      swap3\n      pop\n      pop\n      pop\n      jump\t// out\n        /* \"#utility.yul\":3385:3662   */\n    tag_76:\n        /* \"#utility.yul\":3452:3458   */\n      0x00\n        /* \"#utility.yul\":3505:3507   */\n      0x20\n        /* \"#utility.yul\":3493:3502   */\n      dup3\n        /* \"#utility.yul\":3484:3491   */\n      dup5\n        /* \"#utility.yul\":3480:3503   */\n      sub\n        /* \"#utility.yul\":3476:3508   */\n      slt\n        /* \"#utility.yul\":3473:3525   */\n      iszero\n      tag_193\n      jumpi\n        /* \"#utility.yul\":3521:3522   */\n      0x00\n        /* \"#utility.yul\":3518:3519   */\n      dup1\n        /* \"#utility.yul\":3511:3523   */\n      revert\n        /* \"#utility.yul\":3473:3525   */\n    tag_193:\n        /* \"#utility.yul\":3553:3562   */\n      dup2\n        /* \"#utility.yul\":3547:3563   */\n      mload\n        /* \"#utility.yul\":3606:3611   */\n      dup1\n        /* \"#utility.yul\":3599:3612   */\n      iszero\n        /* \"#utility.yul\":3592:3613   */\n      iszero\n        /* \"#utility.yul\":3585:3590   */\n      dup2\n        /* \"#utility.yul\":3582:3614   */\n      eq\n        /* \"#utility.yul\":3572:3632   */\n      tag_188\n      jumpi\n        /* \"#utility.yul\":3628:3629   */\n      0x00\n        /* \"#utility.yul\":3625:3626   */\n      dup1\n        /* \"#utility.yul\":3618:3630   */\n      revert\n        /* \"#utility.yul\":4706:4833   */\n    tag_170:\n        /* \"#utility.yul\":4767:4777   */\n      0x4e487b71\n        /* \"#utility.yul\":4762:4765   */\n      0xe0\n        /* \"#utility.yul\":4758:4778   */\n      shl\n        /* \"#utility.yul\":4755:4756   */\n      0x00\n        /* \"#utility.yul\":4748:4779   */\n      mstore\n        /* \"#utility.yul\":4798:4802   */\n      0x11\n        /* \"#utility.yul\":4795:4796   */\n      0x04\n        /* \"#utility.yul\":4788:4803   */\n      mstore\n        /* \"#utility.yul\":4822:4826   */\n      0x24\n        /* \"#utility.yul\":4819:4820   */\n      0x00\n        /* \"#utility.yul\":4812:4827   */\n      revert\n        /* \"#utility.yul\":4838:5006   */\n    tag_95:\n        /* \"#utility.yul\":4911:4920   */\n      dup1\n      dup3\n      mul\n        /* \"#utility.yul\":4942:4951   */\n      dup2\n      iszero\n        /* \"#utility.yul\":4959:4974   */\n      dup3\n      dup3\n      div\n        /* \"#utility.yul\":4953:4975   */\n      dup5\n      eq\n        /* \"#utility.yul\":4939:4976   */\n      or\n        /* \"#utility.yul\":4929:5000   */\n      tag_201\n      jumpi\n        /* \"#utility.yul\":4980:4998   */\n      tag_201\n      tag_170\n      jump\t// in\n    tag_201:\n        /* \"#utility.yul\":4838:5006   */\n      swap3\n      swap2\n      pop\n      pop\n      jump\t// out\n        /* \"#utility.yul\":5011:5228   */\n    tag_97:\n        /* \"#utility.yul\":5051:5052   */\n      0x00\n        /* \"#utility.yul\":5077:5078   */\n      dup3\n        /* \"#utility.yul\":5067:5199   */\n      tag_203\n      jumpi\n        /* \"#utility.yul\":5121:5131   */\n      0x4e487b71\n        /* \"#utility.yul\":5116:5119   */\n      0xe0\n        /* \"#utility.yul\":5112:5132   */\n      shl\n        /* \"#utility.yul\":5109:5110   */\n      0x00\n        /* \"#utility.yul\":5102:5133   */\n      mstore\n        /* \"#utility.yul\":5156:5160   */\n      0x12\n        /* \"#utility.yul\":5153:5154   */\n      0x04\n        /* \"#utility.yul\":5146:5161   */\n      mstore\n        /* \"#utility.yul\":5184:5188   */\n      0x24\n        /* \"#utility.yul\":5181:5182   */\n      0x00\n        /* \"#utility.yul\":5174:5189   */\n      revert\n        /* \"#utility.yul\":5067:5199   */\n    tag_203:\n      pop\n        /* \"#utility.yul\":5213:5222   */\n      div\n      swap1\n        /* \"#utility.yul\":5011:5228   */\n      jump\t// out\n        /* \"#utility.yul\":5233:5361   */\n    tag_99:\n        /* \"#utility.yul\":5300:5309   */\n      dup2\n      dup2\n      sub\n        /* \"#utility.yul\":5321:5332   */\n      dup2\n      dup2\n      gt\n        /* \"#utility.yul\":5318:5355   */\n      iszero\n      tag_201\n      jumpi\n        /* \"#utility.yul\":5335:5353   */\n      tag_201\n      tag_170\n      jump\t// in\n\n    auxdata: 0xa2646970667358221220938993c1110c40c6604941eb2bbe10c94f9205bb9cbb643edfc88fc4f83953c564736f6c63430008190033\n}\n",
    "bytecode": {
      "linkReferences": {},
      "object": "608060405260fa600255348015610014575f80fd5b50604051610ecd380380610ecd833981016040819052610033916100dd565b60015f5561004033610071565b600480546001600160a01b039384166001600160a01b0319918216179091556003805492909316911617905561010e565b600180546001600160a01b038381166001600160a01b0319831681179093556040519116919082907f8be0079c531659141344cd1fd0a4f28419497f9722a3daafe3b4186f6b6457e0905f90a35050565b80516001600160a01b03811681146100d8575f80fd5b919050565b5f80604083850312156100ee575f80fd5b6100f7836100c2565b9150610105602084016100c2565b90509250929050565b610db28061011b5f395ff3fe608060405234801561000f575f80fd5b50600436106100c4575f3560e01c8063a2bbe2b71161007d578063e9cbd82211610058578063e9cbd822146101e3578063f25f4b56146101f6578063f2fde38b14610209575f80fd5b8063a2bbe2b7146101a6578063a5c1674e146101b9578063b8606eef146101cc575f80fd5b80634d68282f116100ad5780634d68282f14610166578063715018a6146101795780638da5cb5b14610181575f80fd5b806303988f84146100c85780630e33599d14610151575b5f80fd5b6101156100d6366004610c4c565b60056020525f908152604090208054600182015460028301546003909301546001600160a01b0392831693919092169160ff8082169161010090041685565b604080516001600160a01b03968716815295909416602086015292840191909152151560608301521515608082015260a0015b60405180910390f35b61016461015f366004610c7e565b61021c565b005b610164610174366004610c4c565b61040a565b610164610744565b6001546001600160a01b03165b6040516001600160a01b039091168152602001610148565b6101646101b4366004610ca8565b610757565b6101646101c7366004610c4c565b6109af565b6101d560025481565b604051908152602001610148565b60045461018e906001600160a01b031681565b60035461018e906001600160a01b031681565b610164610217366004610cda565b610ab0565b610224610b3d565b61022c610b97565b5f8281526005602052604090206003810154610100900460ff166102975760405162461bcd60e51b815260206004820152600c60248201527f4e6f74206469737075746564000000000000000000000000000000000000000060448201526064015b60405180910390fd5b600381015460ff16156102da5760405162461bcd60e51b815260206004820152600b60248201526a1119585b0818db1bdcd95960aa1b604482015260640161028e565b60038101805461ffff1916600117905560048054600283015460405163a9059cbb60e01b81526001600160a01b039092169263a9059cbb926103349287929091016001600160a01b03929092168252602082015260400190565b6020604051808303815f875af1158015610350573d5f803e3d5ffd5b505050506040513d601f19601f820116820180604052508101906103749190610cfa565b6103b25760405162461bcd60e51b815260206004820152600f60248201526e151c985b9cd9995c8819985a5b1959608a1b604482015260640161028e565b6002810154604080516001600160a01b0385168152602081019290925284917fdf0baf5489595ea17a097d16827d60793e2f57f3b85a982e5d7e02838b841ee6910160405180910390a25061040660015f55565b5050565b610412610b97565b5f81815260056020526040902080546001600160a01b031633146104785760405162461bcd60e51b815260206004820152601660248201527f4f6e6c792042757965722063616e2072656c6561736500000000000000000000604482015260640161028e565b600381015460ff16156104bb5760405162461bcd60e51b815260206004820152600b60248201526a1119585b0818db1bdcd95960aa1b604482015260640161028e565b6003810154610100900460ff16156105155760405162461bcd60e51b815260206004820152600f60248201527f4465616c20696e20646973707574650000000000000000000000000000000000604482015260640161028e565b60038101805460ff1916600117905560028054908201545f916127109161053c9190610d2d565b6105469190610d4a565b90505f8183600201546105599190610d69565b60048054600186015460405163a9059cbb60e01b81526001600160a01b039182169381019390935260248301849052929350919091169063a9059cbb906044016020604051808303815f875af11580156105b5573d5f803e3d5ffd5b505050506040513d601f19601f820116820180604052508101906105d99190610cfa565b6106255760405162461bcd60e51b815260206004820152601960248201527f5472616e7366657220746f2073656c6c6572206661696c656400000000000000604482015260640161028e565b6004805460035460405163a9059cbb60e01b81526001600160a01b039182169381019390935260248301859052169063a9059cbb906044016020604051808303815f875af1158015610679573d5f803e3d5ffd5b505050506040513d601f19601f8201168201806040525081019061069d9190610cfa565b6106e95760405162461bcd60e51b815260206004820152601360248201527f466565207472616e73666572206661696c656400000000000000000000000000604482015260640161028e565b600183015460408051838152602081018590526001600160a01b039092169186917ff86dbbaae73a38eba376327ec68def0678d91d952b4a18aa86d880f199632bd9910160405180910390a350505061074160015f55565b50565b61074c610b3d565b6107555f610bee565b565b61075f610b97565b5f83815260056020526040902060020154156107bd5760405162461bcd60e51b815260206004820152600e60248201527f4465616c20494420657869737473000000000000000000000000000000000000604482015260640161028e565b5f811161080c5760405162461bcd60e51b815260206004820152601260248201527f416d6f756e74206d757374206265203e20300000000000000000000000000000604482015260640161028e565b600480546040516323b872dd60e01b81523392810192909252306024830152604482018390526001600160a01b0316906323b872dd906064016020604051808303815f875af1158015610861573d5f803e3d5ffd5b505050506040513d601f19601f820116820180604052508101906108859190610cfa565b6108c35760405162461bcd60e51b815260206004820152600f60248201526e151c985b9cd9995c8819985a5b1959608a1b604482015260640161028e565b6040805160a081018252338082526001600160a01b0385811660208085019182528486018781525f60608701818152608088018281528c835260058552918990209751885490871673ffffffffffffffffffffffffffffffffffffffff19918216178955945160018901805491909716951694909417909455516002860155905160039094018054925115156101000261ff00199515159590951661ffff1990931692909217939093179055915183815285917f1599c0fcf897af5babc2bfcf707f5dc050f841b044d97c3251ecec35b9abf80b910160405180910390a36109aa60015f55565b505050565b5f81815260056020526040902080546001600160a01b03163314806109e0575060018101546001600160a01b031633145b610a2c5760405162461bcd60e51b815260206004820152600c60248201527f4e6f7420696e766f6c7665640000000000000000000000000000000000000000604482015260640161028e565b600381015460ff1615610a6f5760405162461bcd60e51b815260206004820152600b60248201526a1119585b0818db1bdcd95960aa1b604482015260640161028e565b60038101805461ff001916610100179055604051339083907f84a477df8a28a4276ca6dee4458a06c3015f30c477d9c949ede4e13ff8a552b4905f90a35050565b610ab8610b3d565b6001600160a01b038116610b345760405162461bcd60e51b815260206004820152602660248201527f4f776e61626c653a206e6577206f776e657220697320746865207a65726f206160448201527f6464726573730000000000000000000000000000000000000000000000000000606482015260840161028e565b61074181610bee565b6001546001600160a01b031633146107555760405162461bcd60e51b815260206004820181905260248201527f4f776e61626c653a2063616c6c6572206973206e6f7420746865206f776e6572604482015260640161028e565b60025f5403610be85760405162461bcd60e51b815260206004820152601f60248201527f5265656e7472616e637947756172643a207265656e7472616e742063616c6c00604482015260640161028e565b60025f55565b600180546001600160a01b0383811673ffffffffffffffffffffffffffffffffffffffff19831681179093556040519116919082907f8be0079c531659141344cd1fd0a4f28419497f9722a3daafe3b4186f6b6457e0905f90a35050565b5f60208284031215610c5c575f80fd5b5035919050565b80356001600160a01b0381168114610c79575f80fd5b919050565b5f8060408385031215610c8f575f80fd5b82359150610c9f60208401610c63565b90509250929050565b5f805f60608486031215610cba575f80fd5b83359250610cca60208501610c63565b9150604084013590509250925092565b5f60208284031215610cea575f80fd5b610cf382610c63565b9392505050565b5f60208284031215610d0a575f80fd5b81518015158114610cf3575f80fd5b634e487b7160e01b5f52601160045260245ffd5b8082028115828204841417610d4457610d44610d19565b92915050565b5f82610d6457634e487b7160e01b5f52601260045260245ffd5b500490565b81810381811115610d4457610d44610d1956fea2646970667358221220938993c1110c40c6604941eb2bbe10c94f9205bb9cbb643edfc88fc4f83953c564736f6c63430008190033",
      "opcodes": "PUSH1 0x80 PUSH1 0x40 MSTORE PUSH1 0xFA PUSH1 0x2 SSTORE CALLVALUE DUP1 ISZERO PUSH2 0x14 JUMPI PUSH0 DUP1 REVERT JUMPDEST POP PUSH1 0x40 MLOAD PUSH2 0xECD CODESIZE SUB DUP1 PUSH2 0xECD DUP4 CODECOPY DUP2 ADD PUSH1 0x40 DUP2 SWAP1 MSTORE PUSH2 0x33 SWAP2 PUSH2 0xDD JUMP JUMPDEST PUSH1 0x1 PUSH0 SSTORE PUSH2 0x40 CALLER PUSH2 0x71 JUMP JUMPDEST PUSH1 0x4 DUP1 SLOAD PUSH1 0x1 PUSH1 0x1 PUSH1 0xA0 SHL SUB SWAP4 DUP5 AND PUSH1 0x1 PUSH1 0x1 PUSH1 0xA0 SHL SUB NOT SWAP2 DUP3 AND OR SWAP1 SWAP2 SSTORE PUSH1 0x3 DUP1 SLOAD SWAP3 SWAP1 SWAP4 AND SWAP2 AND OR SWAP1 SSTORE PUSH2 0x10E JUMP JUMPDEST PUSH1 0x1 DUP1 SLOAD PUSH1 0x1 PUSH1 0x1 PUSH1 0xA0 SHL SUB DUP4 DUP2 AND PUSH1 0x1 PUSH1 0x1 PUSH1 0xA0 SHL SUB NOT DUP4 AND DUP2 OR SWAP1 SWAP4 SSTORE PUSH1 0x40 MLOAD SWAP2 AND SWAP2 SWAP1 DUP3 SWAP1 PUSH32 0x8BE0079C531659141344CD1FD0A4F28419497F9722A3DAAFE3B4186F6B6457E0 SWAP1 PUSH0 SWAP1 LOG3 POP POP JUMP JUMPDEST DUP1 MLOAD PUSH1 0x1 PUSH1 0x1 PUSH1 0xA0 SHL SUB DUP2 AND DUP2 EQ PUSH2 0xD8 JUMPI PUSH0 DUP1 REVERT JUMPDEST SWAP2 SWAP1 POP JUMP JUMPDEST PUSH0 DUP1 PUSH1 0x40 DUP4 DUP6 SUB SLT ISZERO PUSH2 0xEE JUMPI PUSH0 DUP1 REVERT JUMPDEST PUSH2 0xF7 DUP4 PUSH2 0xC2 JUMP JUMPDEST SWAP2 POP PUSH2 0x105 PUSH1 0x20 DUP5 ADD PUSH2 0xC2 JUMP JUMPDEST SWAP1 POP SWAP3 POP SWAP3 SWAP1 POP JUMP JUMPDEST PUSH2 0xDB2 DUP1 PUSH2 0x11B PUSH0 CODECOPY PUSH0 RETURN INVALID PUSH1 0x80 PUSH1 0x40 MSTORE CALLVALUE DUP1 ISZERO PUSH2 0xF JUMPI PUSH0 DUP1 REVERT JUMPDEST POP PUSH1 0x4 CALLDATASIZE LT PUSH2 0xC4 JUMPI PUSH0 CALLDATALOAD PUSH1 0xE0 SHR DUP1 PUSH4 0xA2BBE2B7 GT PUSH2 0x7D JUMPI DUP1 PUSH4 0xE9CBD822 GT PUSH2 0x58 JUMPI DUP1 PUSH4 0xE9CBD822 EQ PUSH2 0x1E3 JUMPI DUP1 PUSH4 0xF25F4B56 EQ PUSH2 0x1F6 JUMPI DUP1 PUSH4 0xF2FDE38B EQ PUSH2 0x209 JUMPI PUSH0 DUP1 REVERT JUMPDEST DUP1 PUSH4 0xA2BBE2B7 EQ PUSH2 0x1A6 JUMPI DUP1 PUSH4 0xA5C1674E EQ PUSH2 0x1B9 JUMPI DUP1 PUSH4 0xB8606EEF EQ PUSH2 0x1CC JUMPI PUSH0 DUP1 REVERT JUMPDEST DUP1 PUSH4 0x4D68282F GT PUSH2 0xAD JUMPI DUP1 PUSH4 0x4D68282F EQ PUSH2 0x166 JUMPI DUP1 PUSH4 0x715018A6 EQ PUSH2 0x179 JUMPI DUP1 PUSH4 0x8DA5CB5B EQ PUSH2 0x181 JUMPI PUSH0 DUP1 REVERT JUMPDEST DUP1 PUSH4 0x3988F84 EQ PUSH2 0xC8 JUMPI DUP1 PUSH4 0xE33599D EQ PUSH2 0x151 JUMPI JUMPDEST PUSH0 DUP1 REVERT JUMPDEST PUSH2 0x115 PUSH2 0xD6 CALLDATASIZE PUSH1 0x4 PUSH2 0xC4C JUMP JUMPDEST PUSH1 0x5 PUSH1 0x20 MSTORE PUSH0 SWAP1 DUP2 MSTORE PUSH1 0x40 SWAP1 KECCAK256 DUP1 SLOAD PUSH1 0x1 DUP3 ADD SLOAD PUSH1 0x2 DUP4 ADD SLOAD PUSH1 0x3 SWAP1 SWAP4 ADD SLOAD PUSH1 0x1 PUSH1 0x1 PUSH1 0xA0 SHL SUB SWAP3 DUP4 AND SWAP4 SWAP2 SWAP1 SWAP3 AND SWAP2 PUSH1 0xFF DUP1 DUP3 AND SWAP2 PUSH2 0x100 SWAP1 DIV AND DUP6 JUMP JUMPDEST PUSH1 0x40 DUP1 MLOAD PUSH1 0x1 PUSH1 0x1 PUSH1 0xA0 SHL SUB SWAP7 DUP8 AND DUP2 MSTORE SWAP6 SWAP1 SWAP5 AND PUSH1 0x20 DUP7 ADD MSTORE SWAP3 DUP5 ADD SWAP2 SWAP1 SWAP2 MSTORE ISZERO ISZERO PUSH1 0x60 DUP4 ADD MSTORE ISZERO ISZERO PUSH1 0x80 DUP3 ADD MSTORE PUSH1 0xA0 ADD JUMPDEST PUSH1 0x40 MLOAD DUP1 SWAP2 SUB SWAP1 RETURN JUMPDEST PUSH2 0x164 PUSH2 0x15F CALLDATASIZE PUSH1 0x4 PUSH2 0xC7E JUMP JUMPDEST PUSH2 0x21C JUMP JUMPDEST STOP JUMPDEST PUSH2 0x164 PUSH2 0x174 CALLDATASIZE PUSH1 0x4 PUSH2 0xC4C JUMP JUMPDEST PUSH2 0x40A JUMP JUMPDEST PUSH2 0x164 PUSH2 0x744 JUMP JUMPDEST PUSH1 0x1 SLOAD PUSH1 0x1 PUSH1 0x1 PUSH1 0xA0 SHL SUB AND JUMPDEST PUSH1 0x40 MLOAD PUSH1 0x1 PUSH1 0x1 PUSH1 0xA0 SHL SUB SWAP1 SWAP2 AND DUP2 MSTORE PUSH1 0x20 ADD PUSH2 0x148 JUMP JUMPDEST PUSH2 0x164 PUSH2 0x1B4 CALLDATASIZE PUSH1 0x4 PUSH2 0xCA8 JUMP JUMPDEST PUSH2 0x757 JUMP JUMPDEST PUSH2 0x164 PUSH2 0x1C7 CALLDATASIZE PUSH1 0x4 PUSH2 0xC4C JUMP JUMPDEST PUSH2 0x9AF JUMP JUMPDEST PUSH2 0x1D5 PUSH1 0x2 SLOAD DUP2 JUMP JUMPDEST PUSH1 0x40 MLOAD SWAP1 DUP2 MSTORE PUSH1 0x20 ADD PUSH2 0x148 JUMP JUMPDEST PUSH1 0x4 SLOAD PUSH2 0x18E SWAP1 PUSH1 0x1 PUSH1 0x1 PUSH1 0xA0 SHL SUB AND DUP2 JUMP JUMPDEST PUSH1 0x3 SLOAD PUSH2 0x18E SWAP1 PUSH1 0x1 PUSH1 0x1 PUSH1 0xA0 SHL SUB AND DUP2 JUMP JUMPDEST PUSH2 0x164 PUSH2 0x217 CALLDATASIZE PUSH1 0x4 PUSH2 0xCDA JUMP JUMPDEST PUSH2 0xAB0 JUMP JUMPDEST PUSH2 0x224 PUSH2 0xB3D JUMP JUMPDEST PUSH2 0x22C PUSH2 0xB97 JUMP JUMPDEST PUSH0 DUP3 DUP2 MSTORE PUSH1 0x5 PUSH1 0x20 MSTORE PUSH1 0x40 SWAP1 KECCAK256 PUSH1 0x3 DUP2 ADD SLOAD PUSH2 0x100 SWAP1 DIV PUSH1 0xFF AND PUSH2 0x297 JUMPI PUSH1 0x40 MLOAD PUSH3 0x461BCD PUSH1 0xE5 SHL DUP2 MSTORE PUSH1 0x20 PUSH1 0x4 DUP3 ADD MSTORE PUSH1 0xC PUSH1 0x24 DUP3 ADD MSTORE PUSH32 0x4E6F742064697370757465640000000000000000000000000000000000000000 PUSH1 0x44 DUP3 ADD MSTORE PUSH1 0x64 ADD JUMPDEST PUSH1 0x40 MLOAD DUP1 SWAP2 SUB SWAP1 REVERT JUMPDEST PUSH1 0x3 DUP2 ADD SLOAD PUSH1 0xFF AND ISZERO PUSH2 0x2DA JUMPI PUSH1 0x40 MLOAD PUSH3 0x461BCD PUSH1 0xE5 SHL DUP2 MSTORE PUSH1 0x20 PUSH1 0x4 DUP3 ADD MSTORE PUSH1 0xB PUSH1 0x24 DUP3 ADD MSTORE PUSH11 0x1119585B0818DB1BDCD959 PUSH1 0xAA SHL PUSH1 0x44 DUP3 ADD MSTORE PUSH1 0x64 ADD PUSH2 0x28E JUMP JUMPDEST PUSH1 0x3 DUP2 ADD DUP1 SLOAD PUSH2 0xFFFF NOT AND PUSH1 0x1 OR SWAP1 SSTORE PUSH1 0x4 DUP1 SLOAD PUSH1 0x2 DUP4 ADD SLOAD PUSH1 0x40 MLOAD PUSH4 0xA9059CBB PUSH1 0xE0 SHL DUP2 MSTORE PUSH1 0x1 PUSH1 0x1 PUSH1 0xA0 SHL SUB SWAP1 SWAP3 AND SWAP3 PUSH4 0xA9059CBB SWAP3 PUSH2 0x334 SWAP3 DUP8 SWAP3 SWAP1 SWAP2 ADD PUSH1 0x1 PUSH1 0x1 PUSH1 0xA0 SHL SUB SWAP3 SWAP1 SWAP3 AND DUP3 MSTORE PUSH1 0x20 DUP3 ADD MSTORE PUSH1 0x40 ADD SWAP1 JUMP JUMPDEST PUSH1 0x20 PUSH1 0x40 MLOAD DUP1 DUP4 SUB DUP2 PUSH0 DUP8 GAS CALL ISZERO DUP1 ISZERO PUSH2 0x350 JUMPI RETURNDATASIZE PUSH0 DUP1 RETURNDATACOPY RETURNDATASIZE PUSH0 REVERT JUMPDEST POP POP POP POP PUSH1 0x40 MLOAD RETURNDATASIZE PUSH1 0x1F NOT PUSH1 0x1F DUP3 ADD AND DUP3 ADD DUP1 PUSH1 0x40 MSTORE POP DUP2 ADD SWAP1 PUSH2 0x374 SWAP2 SWAP1 PUSH2 0xCFA JUMP JUMPDEST PUSH2 0x3B2 JUMPI PUSH1 0x40 MLOAD PUSH3 0x461BCD PUSH1 0xE5 SHL DUP2 MSTORE PUSH1 0x20 PUSH1 0x4 DUP3 ADD MSTORE PUSH1 0xF PUSH1 0x24 DUP3 ADD MSTORE PUSH15 0x151C985B9CD9995C8819985A5B1959 PUSH1 0x8A SHL PUSH1 0x44 DUP3 ADD MSTORE PUSH1 0x64 ADD PUSH2 0x28E JUMP JUMPDEST PUSH1 0x2 DUP2 ADD SLOAD PUSH1 0x40 DUP1 MLOAD PUSH1 0x1 PUSH1 0x1 PUSH1 0xA0 SHL SUB DUP6 AND DUP2 MSTORE PUSH1 0x20 DUP2 ADD SWAP3 SWAP1 SWAP3 MSTORE DUP5 SWAP2 PUSH32 0xDF0BAF5489595EA17A097D16827D60793E2F57F3B85A982E5D7E02838B841EE6 SWAP2 ADD PUSH1 0x40 MLOAD DUP1 SWAP2 SUB SWAP1 LOG2 POP PUSH2 0x406 PUSH1 0x1 PUSH0 SSTORE JUMP JUMPDEST POP POP JUMP JUMPDEST PUSH2 0x412 PUSH2 0xB97 JUMP JUMPDEST PUSH0 DUP2 DUP2 MSTORE PUSH1 0x5 PUSH1 0x20 MSTORE PUSH1 0x40 SWAP1 KECCAK256 DUP1 SLOAD PUSH1 0x1 PUSH1 0x1 PUSH1 0xA0 SHL SUB AND CALLER EQ PUSH2 0x478 JUMPI PUSH1 0x40 MLOAD PUSH3 0x461BCD PUSH1 0xE5 SHL DUP2 MSTORE PUSH1 0x20 PUSH1 0x4 DUP3 ADD MSTORE PUSH1 0x16 PUSH1 0x24 DUP3 ADD MSTORE PUSH32 0x4F6E6C792042757965722063616E2072656C6561736500000000000000000000 PUSH1 0x44 DUP3 ADD MSTORE PUSH1 0x64 ADD PUSH2 0x28E JUMP JUMPDEST PUSH1 0x3 DUP2 ADD SLOAD PUSH1 0xFF AND ISZERO PUSH2 0x4BB JUMPI PUSH1 0x40 MLOAD PUSH3 0x461BCD PUSH1 0xE5 SHL DUP2 MSTORE PUSH1 0x20 PUSH1 0x4 DUP3 ADD MSTORE PUSH1 0xB PUSH1 0x24 DUP3 ADD MSTORE PUSH11 0x1119585B0818DB1BDCD959 PUSH1 0xAA SHL PUSH1 0x44 DUP3 ADD MSTORE PUSH1 0x64 ADD PUSH2 0x28E JUMP JUMPDEST PUSH1 0x3 DUP2 ADD SLOAD PUSH2 0x100 SWAP1 DIV PUSH1 0xFF AND ISZERO PUSH2 0x515 JUMPI PUSH1 0x40 MLOAD PUSH3 0x461BCD PUSH1 0xE5 SHL DUP2 MSTORE PUSH1 0x20 PUSH1 0x4 DUP3 ADD MSTORE PUSH1 0xF PUSH1 0x24 DUP3 ADD MSTORE PUSH32 0x4465616C20696E20646973707574650000000000000000000000000000000000 PUSH1 0x44 DUP3 ADD MSTORE PUSH1 0x64 ADD PUSH2 0x28E JUMP JUMPDEST PUSH1 0x3 DUP2 ADD DUP1 SLOAD PUSH1 0xFF NOT AND PUSH1 0x1 OR SWAP1 SSTORE PUSH1 0x2 DUP1 SLOAD SWAP1 DUP3 ADD SLOAD PUSH0 SWAP2 PUSH2 0x2710 SWAP2 PUSH2 0x53C SWAP2 SWAP1 PUSH2 0xD2D JUMP JUMPDEST PUSH2 0x546 SWAP2 SWAP1 PUSH2 0xD4A JUMP JUMPDEST SWAP1 POP PUSH0 DUP2 DUP4 PUSH1 0x2 ADD SLOAD PUSH2 0x559 SWAP2 SWAP1 PUSH2 0xD69 JUMP JUMPDEST PUSH1 0x4 DUP1 SLOAD PUSH1 0x1 DUP7 ADD SLOAD PUSH1 0x40 MLOAD PUSH4 0xA9059CBB PUSH1 0xE0 SHL DUP2 MSTORE PUSH1 0x1 PUSH1 0x1 PUSH1 0xA0 SHL SUB SWAP2 DUP3 AND SWAP4 DUP2 ADD SWAP4 SWAP1 SWAP4 MSTORE PUSH1 0x24 DUP4 ADD DUP5 SWAP1 MSTORE SWAP3 SWAP4 POP SWAP2 SWAP1 SWAP2 AND SWAP1 PUSH4 0xA9059CBB SWAP1 PUSH1 0x44 ADD PUSH1 0x20 PUSH1 0x40 MLOAD DUP1 DUP4 SUB DUP2 PUSH0 DUP8 GAS CALL ISZERO DUP1 ISZERO PUSH2 0x5B5 JUMPI RETURNDATASIZE PUSH0 DUP1 RETURNDATACOPY RETURNDATASIZE PUSH0 REVERT JUMPDEST POP POP POP POP PUSH1 0x40 MLOAD RETURNDATASIZE PUSH1 0x1F NOT PUSH1 0x1F DUP3 ADD AND DUP3 ADD DUP1 PUSH1 0x40 MSTORE POP DUP2 ADD SWAP1 PUSH2 0x5D9 SWAP2 SWAP1 PUSH2 0xCFA JUMP JUMPDEST PUSH2 0x625 JUMPI PUSH1 0x40 MLOAD PUSH3 0x461BCD PUSH1 0xE5 SHL DUP2 MSTORE PUSH1 0x20 PUSH1 0x4 DUP3 ADD MSTORE PUSH1 0x19 PUSH1 0x24 DUP3 ADD MSTORE PUSH32 0x5472616E7366657220746F2073656C6C6572206661696C656400000000000000 PUSH1 0x44 DUP3 ADD MSTORE PUSH1 0x64 ADD PUSH2 0x28E JUMP JUMPDEST PUSH1 0x4 DUP1 SLOAD PUSH1 0x3 SLOAD PUSH1 0x40 MLOAD PUSH4 0xA9059CBB PUSH1 0xE0 SHL DUP2 MSTORE PUSH1 0x1 PUSH1 0x1 PUSH1 0xA0 SHL SUB SWAP2 DUP3 AND SWAP4 DUP2 ADD SWAP4 SWAP1 SWAP4 MSTORE PUSH1 0x24 DUP4 ADD DUP6 SWAP1 MSTORE AND SWAP1 PUSH4 0xA9059CBB SWAP1 PUSH1 0x44 ADD PUSH1 0x20 PUSH1 0x40 MLOAD DUP1 DUP4 SUB DUP2 PUSH0 DUP8 GAS CALL ISZERO DUP1 ISZERO PUSH2 0x679 JUMPI RETURNDATASIZE PUSH0 DUP1 RETURNDATACOPY RETURNDATASIZE PUSH0 REVERT JUMPDEST POP POP POP POP PUSH1 0x40 MLOAD RETURNDATASIZE PUSH1 0x1F NOT PUSH1 0x1F DUP3 ADD AND DUP3 ADD DUP1 PUSH1 0x40 MSTORE POP DUP2 ADD SWAP1 PUSH2 0x69D SWAP2 SWAP1 PUSH2 0xCFA JUMP JUMPDEST PUSH2 0x6E9 JUMPI PUSH1 0x40 MLOAD PUSH3 0x461BCD PUSH1 0xE5 SHL DUP2 MSTORE PUSH1 0x20 PUSH1 0x4 DUP3 ADD MSTORE PUSH1 0x13 PUSH1 0x24 DUP3 ADD MSTORE PUSH32 0x466565207472616E73666572206661696C656400000000000000000000000000 PUSH1 0x44 DUP3 ADD MSTORE PUSH1 0x64 ADD PUSH2 0x28E JUMP JUMPDEST PUSH1 0x1 DUP4 ADD SLOAD PUSH1 0x40 DUP1 MLOAD DUP4 DUP2 MSTORE PUSH1 0x20 DUP2 ADD DUP6 SWAP1 MSTORE PUSH1 0x1 PUSH1 0x1 PUSH1 0xA0 SHL SUB SWAP1 SWAP3 AND SWAP2 DUP7 SWAP2 PUSH32 0xF86DBBAAE73A38EBA376327EC68DEF0678D91D952B4A18AA86D880F199632BD9 SWAP2 ADD PUSH1 0x40 MLOAD DUP1 SWAP2 SUB SWAP1 LOG3 POP POP POP PUSH2 0x741 PUSH1 0x1 PUSH0 SSTORE JUMP JUMPDEST POP JUMP JUMPDEST PUSH2 0x74C PUSH2 0xB3D JUMP JUMPDEST PUSH2 0x755 PUSH0 PUSH2 0xBEE JUMP JUMPDEST JUMP JUMPDEST PUSH2 0x75F PUSH2 0xB97 JUMP JUMPDEST PUSH0 DUP4 DUP2 MSTORE PUSH1 0x5 PUSH1 0x20 MSTORE PUSH1 0x40 SWAP1 KECCAK256 PUSH1 0x2 ADD SLOAD ISZERO PUSH2 0x7BD JUMPI PUSH1 0x40 MLOAD PUSH3 0x461BCD PUSH1 0xE5 SHL DUP2 MSTORE PUSH1 0x20 PUSH1 0x4 DUP3 ADD MSTORE PUSH1 0xE PUSH1 0x24 DUP3 ADD MSTORE PUSH32 0x4465616C20494420657869737473000000000000000000000000000000000000 PUSH1 0x44 DUP3 ADD MSTORE PUSH1 0x64 ADD PUSH2 0x28E JUMP JUMPDEST PUSH0 DUP2 GT PUSH2 0x80C JUMPI PUSH1 0x40 MLOAD PUSH3 0x461BCD PUSH1 0xE5 SHL DUP2 MSTORE PUSH1 0x20 PUSH1 0x4 DUP3 ADD MSTORE PUSH1 0x12 PUSH1 0x24 DUP3 ADD MSTORE PUSH32 0x416D6F756E74206D757374206265203E20300000000000000000000000000000 PUSH1 0x44 DUP3 ADD MSTORE PUSH1 0x64 ADD PUSH2 0x28E JUMP JUMPDEST PUSH1 0x4 DUP1 SLOAD PUSH1 0x40 MLOAD PUSH4 0x23B872DD PUSH1 0xE0 SHL DUP2 MSTORE CALLER SWAP3 DUP2 ADD SWAP3 SWAP1 SWAP3 MSTORE ADDRESS PUSH1 0x24 DUP4 ADD MSTORE PUSH1 0x44 DUP3 ADD DUP4 SWAP1 MSTORE PUSH1 0x1 PUSH1 0x1 PUSH1 0xA0 SHL SUB AND SWAP1 PUSH4 0x23B872DD SWAP1 PUSH1 0x64 ADD PUSH1 0x20 PUSH1 0x40 MLOAD DUP1 DUP4 SUB DUP2 PUSH0 DUP8 GAS CALL ISZERO DUP1 ISZERO PUSH2 0x861 JUMPI RETURNDATASIZE PUSH0 DUP1 RETURNDATACOPY RETURNDATASIZE PUSH0 REVERT JUMPDEST POP POP POP POP PUSH1 0x40 MLOAD RETURNDATASIZE PUSH1 0x1F NOT PUSH1 0x1F DUP3 ADD AND DUP3 ADD DUP1 PUSH1 0x40 MSTORE POP DUP2 ADD SWAP1 PUSH2 0x885 SWAP2 SWAP1 PUSH2 0xCFA JUMP JUMPDEST PUSH2 0x8C3 JUMPI PUSH1 0x40 MLOAD PUSH3 0x461BCD PUSH1 0xE5 SHL DUP2 MSTORE PUSH1 0x20 PUSH1 0x4 DUP3 ADD MSTORE PUSH1 0xF PUSH1 0x24 DUP3 ADD MSTORE PUSH15 0x151C985B9CD9995C8819985A5B1959 PUSH1 0x8A SHL PUSH1 0x44 DUP3 ADD MSTORE PUSH1 0x64 ADD PUSH2 0x28E JUMP JUMPDEST PUSH1 0x40 DUP1 MLOAD PUSH1 0xA0 DUP2 ADD DUP3 MSTORE CALLER DUP1 DUP3 MSTORE PUSH1 0x1 PUSH1 0x1 PUSH1 0xA0 SHL SUB DUP6 DUP2 AND PUSH1 0x20 DUP1 DUP6 ADD SWAP2 DUP3 MSTORE DUP5 DUP7 ADD DUP8 DUP2 MSTORE PUSH0 PUSH1 0x60 DUP8 ADD DUP2 DUP2 MSTORE PUSH1 0x80 DUP9 ADD DUP3 DUP2 MSTORE DUP13 DUP4 MSTORE PUSH1 0x5 DUP6 MSTORE SWAP2 DUP10 SWAP1 KECCAK256 SWAP8 MLOAD DUP9 SLOAD SWAP1 DUP8 AND PUSH20 0xFFFFFFFFFFFFFFFFFFFFFFFFFFFFFFFFFFFFFFFF NOT SWAP2 DUP3 AND OR DUP10 SSTORE SWAP5 MLOAD PUSH1 0x1 DUP10 ADD DUP1 SLOAD SWAP2 SWAP1 SWAP8 AND SWAP6 AND SWAP5 SWAP1 SWAP5 OR SWAP1 SWAP5 SSTORE MLOAD PUSH1 0x2 DUP7 ADD SSTORE SWAP1 MLOAD PUSH1 0x3 SWAP1 SWAP5 ADD DUP1 SLOAD SWAP3 MLOAD ISZERO ISZERO PUSH2 0x100 MUL PUSH2 0xFF00 NOT SWAP6 ISZERO ISZERO SWAP6 SWAP1 SWAP6 AND PUSH2 0xFFFF NOT SWAP1 SWAP4 AND SWAP3 SWAP1 SWAP3 OR SWAP4 SWAP1 SWAP4 OR SWAP1 SSTORE SWAP2 MLOAD DUP4 DUP2 MSTORE DUP6 SWAP2 PUSH32 0x1599C0FCF897AF5BABC2BFCF707F5DC050F841B044D97C3251ECEC35B9ABF80B SWAP2 ADD PUSH1 0x40 MLOAD DUP1 SWAP2 SUB SWAP1 LOG3 PUSH2 0x9AA PUSH1 0x1 PUSH0 SSTORE JUMP JUMPDEST POP POP POP JUMP JUMPDEST PUSH0 DUP2 DUP2 MSTORE PUSH1 0x5 PUSH1 0x20 MSTORE PUSH1 0x40 SWAP1 KECCAK256 DUP1 SLOAD PUSH1 0x1 PUSH1 0x1 PUSH1 0xA0 SHL SUB AND CALLER EQ DUP1 PUSH2 0x9E0 JUMPI POP PUSH1 0x1 DUP2 ADD SLOAD PUSH1 0x1 PUSH1 0x1 PUSH1 0xA0 SHL SUB AND CALLER EQ JUMPDEST PUSH2 0xA2C JUMPI PUSH1 0x40 MLOAD PUSH3 0x461BCD PUSH1 0xE5 SHL DUP2 MSTORE PUSH1 0x20 PUSH1 0x4 DUP3 ADD MSTORE PUSH1 0xC PUSH1 0x24 DUP3 ADD MSTORE PUSH32 0x4E6F7420696E766F6C7665640000000000000000000000000000000000000000 PUSH1 0x44 DUP3 ADD MSTORE PUSH1 0x64 ADD PUSH2 0x28E JUMP JUMPDEST PUSH1 0x3 DUP2 ADD SLOAD PUSH1 0xFF AND ISZERO PUSH2 0xA6F JUMPI PUSH1 0x40 MLOAD PUSH3 0x461BCD PUSH1 0xE5 SHL DUP2 MSTORE PUSH1 0x20 PUSH1 0x4 DUP3 ADD MSTORE PUSH1 0xB PUSH1 0x24 DUP3 ADD MSTORE PUSH11 0x1119585B0818DB1BDCD959 PUSH1 0xAA SHL PUSH1 0x44 DUP3 ADD MSTORE PUSH1 0x64 ADD PUSH2 0x28E JUMP JUMPDEST PUSH1 0x3 DUP2 ADD DUP1 SLOAD PUSH2 0xFF00 NOT AND PUSH2 0x100 OR SWAP1 SSTORE PUSH1 0x40 MLOAD CALLER SWAP1 DUP4 SWAP1 PUSH32 0x84A477DF8A28A4276CA6DEE4458A06C3015F30C477D9C949EDE4E13FF8A552B4 SWAP1 PUSH0 SWAP1 LOG3 POP POP JUMP JUMPDEST PUSH2 0xAB8 PUSH2 0xB3D JUMP JUMPDEST PUSH1 0x1 PUSH1 0x1 PUSH1 0xA0 SHL SUB DUP2 AND PUSH2 0xB34 JUMPI PUSH1 0x40 MLOAD PUSH3 0x461BCD PUSH1 0xE5 SHL DUP2 MSTORE PUSH1 0x20 PUSH1 0x4 DUP3 ADD MSTORE PUSH1 0x26 PUSH1 0x24 DUP3 ADD MSTORE PUSH32 0x4F776E61626C653A206E6577206F776E657220697320746865207A65726F2061 PUSH1 0x44 DUP3 ADD MSTORE PUSH32 0x6464726573730000000000000000000000000000000000000000000000000000 PUSH1 0x64 DUP3 ADD MSTORE PUSH1 0x84 ADD PUSH2 0x28E JUMP JUMPDEST PUSH2 0x741 DUP2 PUSH2 0xBEE JUMP JUMPDEST PUSH1 0x1 SLOAD PUSH1 0x1 PUSH1 0x1 PUSH1 0xA0 SHL SUB AND CALLER EQ PUSH2 0x755 JUMPI PUSH1 0x40 MLOAD PUSH3 0x461BCD PUSH1 0xE5 SHL DUP2 MSTORE PUSH1 0x20 PUSH1 0x4 DUP3 ADD DUP2 SWAP1 MSTORE PUSH1 0x24 DUP3 ADD MSTORE PUSH32 0x4F776E61626C653A2063616C6C6572206973206E6F7420746865206F776E6572 PUSH1 0x44 DUP3 ADD MSTORE PUSH1 0x64 ADD PUSH2 0x28E JUMP JUMPDEST PUSH1 0x2 PUSH0 SLOAD SUB PUSH2 0xBE8 JUMPI PUSH1 0x40 MLOAD PUSH3 0x461BCD PUSH1 0xE5 SHL DUP2 MSTORE PUSH1 0x20 PUSH1 0x4 DUP3 ADD MSTORE PUSH1 0x1F PUSH1 0x24 DUP3 ADD MSTORE PUSH32 0x5265656E7472616E637947756172643A207265656E7472616E742063616C6C00 PUSH1 0x44 DUP3 ADD MSTORE PUSH1 0x64 ADD PUSH2 0x28E JUMP JUMPDEST PUSH1 0x2 PUSH0 SSTORE JUMP JUMPDEST PUSH1 0x1 DUP1 SLOAD PUSH1 0x1 PUSH1 0x1 PUSH1 0xA0 SHL SUB DUP4 DUP2 AND PUSH20 0xFFFFFFFFFFFFFFFFFFFFFFFFFFFFFFFFFFFFFFFF NOT DUP4 AND DUP2 OR SWAP1 SWAP4 SSTORE PUSH1 0x40 MLOAD SWAP2 AND SWAP2 SWAP1 DUP3 SWAP1 PUSH32 0x8BE0079C531659141344CD1FD0A4F28419497F9722A3DAAFE3B4186F6B6457E0 SWAP1 PUSH0 SWAP1 LOG3 POP POP JUMP JUMPDEST PUSH0 PUSH1 0x20 DUP3 DUP5 SUB SLT ISZERO PUSH2 0xC5C JUMPI PUSH0 DUP1 REVERT JUMPDEST POP CALLDATALOAD SWAP2 SWAP1 POP JUMP JUMPDEST DUP1 CALLDATALOAD PUSH1 0x1 PUSH1 0x1 PUSH1 0xA0 SHL SUB DUP2 AND DUP2 EQ PUSH2 0xC79 JUMPI PUSH0 DUP1 REVERT JUMPDEST SWAP2 SWAP1 POP JUMP JUMPDEST PUSH0 DUP1 PUSH1 0x40 DUP4 DUP6 SUB SLT ISZERO PUSH2 0xC8F JUMPI PUSH0 DUP1 REVERT JUMPDEST DUP3 CALLDATALOAD SWAP2 POP PUSH2 0xC9F PUSH1 0x20 DUP5 ADD PUSH2 0xC63 JUMP JUMPDEST SWAP1 POP SWAP3 POP SWAP3 SWAP1 POP JUMP JUMPDEST PUSH0 DUP1 PUSH0 PUSH1 0x60 DUP5 DUP7 SUB SLT ISZERO PUSH2 0xCBA JUMPI PUSH0 DUP1 REVERT JUMPDEST DUP4 CALLDATALOAD SWAP3 POP PUSH2 0xCCA PUSH1 0x20 DUP6 ADD PUSH2 0xC63 JUMP JUMPDEST SWAP2 POP PUSH1 0x40 DUP5 ADD CALLDATALOAD SWAP1 POP SWAP3 POP SWAP3 POP SWAP3 JUMP JUMPDEST PUSH0 PUSH1 0x20 DUP3 DUP5 SUB SLT ISZERO PUSH2 0xCEA JUMPI PUSH0 DUP1 REVERT JUMPDEST PUSH2 0xCF3 DUP3 PUSH2 0xC63 JUMP JUMPDEST SWAP4 SWAP3 POP POP POP JUMP JUMPDEST PUSH0 PUSH1 0x20 DUP3 DUP5 SUB SLT ISZERO PUSH2 0xD0A JUMPI PUSH0 DUP1 REVERT JUMPDEST DUP2 MLOAD DUP1 ISZERO ISZERO DUP2 EQ PUSH2 0xCF3 JUMPI PUSH0 DUP1 REVERT JUMPDEST PUSH4 0x4E487B71 PUSH1 0xE0 SHL PUSH0 MSTORE PUSH1 0x11 PUSH1 0x4 MSTORE PUSH1 0x24 PUSH0 REVERT JUMPDEST DUP1 DUP3 MUL DUP2 ISZERO DUP3 DUP3 DIV DUP5 EQ OR PUSH2 0xD44 JUMPI PUSH2 0xD44 PUSH2 0xD19 JUMP JUMPDEST SWAP3 SWAP2 POP POP JUMP JUMPDEST PUSH0 DUP3 PUSH2 0xD64 JUMPI PUSH4 0x4E487B71 PUSH1 0xE0 SHL PUSH0 MSTORE PUSH1 0x12 PUSH1 0x4 MSTORE PUSH1 0x24 PUSH0 REVERT JUMPDEST POP DIV SWAP1 JUMP JUMPDEST DUP2 DUP2 SUB DUP2 DUP2 GT ISZERO PUSH2 0xD44 JUMPI PUSH2 0xD44 PUSH2 0xD19 JUMP INVALID LOG2 PUSH5 0x6970667358 0x22 SLT KECCAK256 SWAP4 DUP10 SWAP4 0xC1 GT 0xC BLOCKHASH 0xC6 PUSH1 0x49 COINBASE 0xEB 0x2B 0xBE LT 0xC9 0x4F SWAP3 SDIV 0xBB SWAP13 0xBB PUSH5 0x3EDFC88FC4 0xF8 CODECOPY MSTORE8 0xC5 PUSH5 0x736F6C6343 STOP ADDMOD NOT STOP CALLER "
    },
    "gasEstimates": {
      "creation": {
        "codeDepositCost": "701200",
        "executionCost": "infinite",
        "totalCost": "infinite"
      },
      "external": {
        "createDeal(uint256,address,uint256)": "infinite",
        "deals(uint256)": "8969",
        "feeBasisPoints()": "2361",
        "feeWallet()": "2380",
        "owner()": "2386",
        "raiseDispute(uint256)": "32517",
        "releaseFunds(uint256)": "infinite",
        "renounceOwnership()": "infinite",
        "resolveDispute(uint256,address)": "infinite",
        "stablecoin()": "2358",
        "transferOwnership(address)": "28387"
      }
    },
    "methodIdentifiers": {
      "createDeal(uint256,address,uint256)": "a2bbe2b7",
      "deals(uint256)": "03988f84",
      "feeBasisPoints()": "b8606eef",
      "feeWallet()": "f25f4b56",
      "owner()": "8da5cb5b",
      "raiseDispute(uint256)": "a5c1674e",
      "releaseFunds(uint256)": "4d68282f",
      "renounceOwnership()": "715018a6",
      "resolveDispute(uint256,address)": "0e33599d",
      "stablecoin()": "e9cbd822",
      "transferOwnership(address)": "f2fde38b"
    }
  },
  "storageLayout": {
    "storage": [
      {
        "astId": 466,
        "contract": "AhadiEscrow.sol:AhadiEscrow",
        "label": "_status",
        "offset": 0,
        "slot": "0",
        "type": "t_uint256"
      },
      {
        "astId": 350,
        "contract": "AhadiEscrow.sol:AhadiEscrow",
        "label": "_owner",
        "offset": 0,
        "slot": "1",
        "type": "t_address"
      },
      {
        "astId": 11,
        "contract": "AhadiEscrow.sol:AhadiEscrow",
        "label": "feeBasisPoints",
        "offset": 0,
        "slot": "2",
        "type": "t_uint256"
      },
      {
        "astId": 13,
        "contract": "AhadiEscrow.sol:AhadiEscrow",
        "label": "feeWallet",
        "offset": 0,
        "slot": "3",
        "type": "t_address"
      },
      {
        "astId": 16,
        "contract": "AhadiEscrow.sol:AhadiEscrow",
        "label": "stablecoin",
        "offset": 0,
        "slot": "4",
        "type": "t_contract(IERC20)598"
      },
      {
        "astId": 32,
        "contract": "AhadiEscrow.sol:AhadiEscrow",
        "label": "deals",
        "offset": 0,
        "slot": "5",
        "type": "t_mapping(t_uint256,t_struct(Deal)27_storage)"
      }
    ],
    "types": {
      "t_address": {
        "encoding": "inplace",
        "label": "address",
        "numberOfBytes": "20"
      },
      "t_bool": {
        "encoding": "inplace",
        "label": "bool",
        "numberOfBytes": "1"
      },
      "t_contract(IERC20)598": {
        "encoding": "inplace",
        "label": "contract IERC20",
        "numberOfBytes": "20"
      },
      "t_mapping(t_uint256,t_struct(Deal)27_storage)": {
        "encoding": "mapping",
        "key": "t_uint256",
        "label": "mapping(uint256 => struct AhadiEscrow.Deal)",
        "numberOfBytes": "32",
        "value": "t_struct(Deal)27_storage"
      },
      "t_struct(Deal)27_storage": {
        "encoding": "inplace",
        "label": "struct AhadiEscrow.Deal",
        "members": [
          {
            "astId": 18,
            "contract": "AhadiEscrow.sol:AhadiEscrow",
            "label": "buyer",
            "offset": 0,
            "slot": "0",
            "type": "t_address"
          },
          {
            "astId": 20,
            "contract": "AhadiEscrow.sol:AhadiEscrow",
            "label": "seller",
            "offset": 0,
            "slot": "1",
            "type": "t_address"
          },
          {
            "astId": 22,
            "contract": "AhadiEscrow.sol:AhadiEscrow",
            "label": "amount",
            "offset": 0,
            "slot": "2",
            "type": "t_uint256"
          },
          {
            "astId": 24,
            "contract": "AhadiEscrow.sol:AhadiEscrow",
            "label": "isCompleted",
            "offset": 0,
            "slot": "3",
            "type": "t_bool"
          },
          {
            "astId": 26,
            "contract": "AhadiEscrow.sol:AhadiEscrow",
            "label": "isDisputed",
            "offset": 1,
            "slot": "3",
            "type": "t_bool"
          }
        ],
        "numberOfBytes": "128"
      },
      "t_uint256": {
        "encoding": "inplace",
        "label": "uint256",
        "numberOfBytes": "32"
      }
    }
  },
  "userdoc": {
    "kind": "user",
    "methods": {},
    "version": 1
  }
}