{
  "abi": [
    {
      "inputs": [
        {
          "internalType": "address",
          "name": "_stablecoinAddress",
          "type": "address"
        },
        {
          "internalType": "address",
          "name": "_feeWallet",
          "type": "address"
        }
      ],
      "stateMutability": "nonpayable",
      "type": "constructor"
    },
    {
      "anonymous": false,
      "inputs": [
        {
          "indexed": true,
          "internalType": "uint256",
          "name": "dealId",
          "type": "uint256"
        },
        {
          "indexed": true,
          "internalType": "address",
          "name": "buyer",
          "type": "address"
        },
        {
          "indexed": true,
          "internalType": "address",
          "name": "seller",
          "type": "address"
        },
        {
          "indexed": false,
          "internalType": "uint256",
          "name": "amount",
          "type": "uint256"
        },
        {
          "indexed": false,
          "internalType": "uint256",
          "name": "timeoutInSeconds",
          "type": "uint256"
        }
      ],
      "name": "Deposited",
      "type": "event"
    },
    {
      "anonymous": false,
      "inputs": [
        {
          "indexed": true,
          "internalType": "uint256",
          "name": "dealId",
          "type": "uint256"
        },
        {
          "indexed": true,
          "internalType": "address",
          "name": "disputer",
          "type": "address"
        }
      ],
      "name": "DisputeRaised",
      "type": "event"
    },
    {
      "anonymous": false,
      "inputs": [
        {
          "indexed": true,
          "internalType": "uint256",
          "name": "dealId",
          "type": "uint256"
        },
        {
          "indexed": true,
          "internalType": "address",
          "name": "winner",
          "type": "address"
        },
        {
          "indexed": false,
          "internalType": "uint256",
          "name": "amount",
          "type": "uint256"
        }
      ],
      "name": "DisputeResolved",
      "type": "event"
    },
    {
      "anonymous": false,
      "inputs": [
        {
          "indexed": true,
          "internalType": "address",
          "name": "token",
          "type": "address"
        },
        {
          "indexed": true,
          "internalType": "address",
          "name": "to",
          "type": "address"
        },
        {
          "indexed": false,
          "internalType": "uint256",
          "name": "amount",
          "type": "uint256"
        }
      ],
      "name": "ExcessTokensRecovered",
      "type": "event"
    },
    {
      "anonymous": false,
      "inputs": [
        {
          "indexed": false,
          "internalType": "uint256",
          "name": "newFee",
          "type": "uint256"
        }
      ],
      "name": "FeeUpdated",
      "type": "event"
    },
    {
      "anonymous": false,
      "inputs": [
        {
          "indexed": true,
          "internalType": "address",
          "name": "newWallet",
          "type": "address"
        }
      ],
      "name": "FeeWalletUpdated",
      "type": "event"
    },
    {
      "anonymous": false,
      "inputs": [
        {
          "indexed": true,
          "internalType": "address",
          "name": "previousOwner",
          "type": "address"
        },
        {
          "indexed": true,
          "internalType": "address",
          "name": "newOwner",
          "type": "address"
        }
      ],
      "name": "OwnershipTransferred",
      "type": "event"
    },
    {
      "anonymous": false,
      "inputs": [
        {
          "indexed": false,
          "internalType": "address",
          "name": "account",
          "type": "address"
        }
      ],
      "name": "Paused",
      "type": "event"
    },
    {
      "anonymous": false,
      "inputs": [
        {
          "indexed": true,
          "internalType": "uint256",
          "name": "dealId",
          "type": "uint256"
        },
        {
          "indexed": true,
          "internalType": "address",
          "name": "buyer",
          "type": "address"
        },
        {
          "indexed": false,
          "internalType": "uint256",
          "name": "amount",
          "type": "uint256"
        }
      ],
      "name": "Refunded",
      "type": "event"
    },
    {
      "anonymous": false,
      "inputs": [
        {
          "indexed": true,
          "internalType": "uint256",
          "name": "dealId",
          "type": "uint256"
        },
        {
          "indexed": true,
          "internalType": "address",
          "name": "seller",
          "type": "address"
        },
        {
          "indexed": false,
          "internalType": "uint256",
          "name": "netAmount",
          "type": "uint256"
        },
        {
          "indexed": false,
          "internalType": "uint256",
          "name": "fee",
          "type": "uint256"
        }
      ],
      "name": "Released",
      "type": "event"
    },
    {
      "anonymous": false,
      "inputs": [
        {
          "indexed": false,
          "internalType": "address",
          "name": "account",
          "type": "address"
        }
      ],
      "name": "Unpaused",
      "type": "event"
    },
    {
      "inputs": [],
      "name": "MAX_FEE",
      "outputs": [
        {
          "internalType": "uint256",
          "name": "",
          "type": "uint256"
        }
      ],
      "stateMutability": "view",
      "type": "function"
    },
    {
      "inputs": [],
      "name": "MAX_TIMEOUT",
      "outputs": [
        {
          "internalType": "uint256",
          "name": "",
          "type": "uint256"
        }
      ],
      "stateMutability": "view",
      "type": "function"
    },
    {
      "inputs": [],
      "name": "MIN_DEAL_AMOUNT",
      "outputs": [
        {
          "internalType": "uint256",
          "name": "",
          "type": "uint256"
        }
      ],
      "stateMutability": "view",
      "type": "function"
    },
    {
      "inputs": [],
      "name": "MIN_TIMEOUT",
      "outputs": [
        {
          "internalType": "uint256",
          "name": "",
          "type": "uint256"
        }
      ],
      "stateMutability": "view",
      "type": "function"
    },
    {
      "inputs": [
        {
          "internalType": "address",
          "name": "_seller",
          "type": "address"
        },
        {
          "internalType": "uint256",
          "name": "_amount",
          "type": "uint256"
        },
        {
          "internalType": "uint256",
          "name": "_timeoutSeconds",
          "type": "uint256"
        }
      ],
      "name": "createDeal",
      "outputs": [
        {
          "internalType": "uint256",
          "name": "dealId",
          "type": "uint256"
        }
      ],
      "stateMutability": "nonpayable",
      "type": "function"
    },
    {
      "inputs": [
        {
          "internalType": "uint256",
          "name": "",
          "type": "uint256"
        }
      ],
      "name": "deals",
      "outputs": [
        {
          "internalType": "uint256",
          "name": "id",
          "type": "uint256"
        },
        {
          "internalType": "address",
          "name": "buyer",
          "type": "address"
        },
        {
          "internalType": "address",
          "name": "seller",
          "type": "address"
        },
        {
          "internalType": "uint256",
          "name": "amount",
          "type": "uint256"
        },
        {
          "internalType": "bool",
          "name": "isCompleted",
          "type": "bool"
        },
        {
          "internalType": "bool",
          "name": "isDisputed",
          "type": "bool"
        },
        {
          "internalType": "uint256",
          "name": "createdAt",
          "type": "uint256"
        },
        {
          "internalType": "uint256",
          "name": "expiryTime",
          "type": "uint256"
        }
      ],
      "stateMutability": "view",
      "type": "function"
    },
    {
      "inputs": [],
      "name": "feeBasisPoints",
      "outputs": [
        {
          "internalType": "uint256",
          "name": "",
          "type": "uint256"
        }
      ],
      "stateMutability": "view",
      "type": "function"
    },
    {
      "inputs": [],
      "name": "feeWallet",
      "outputs": [
        {
          "internalType": "address",
          "name": "",
          "type": "address"
        }
      ],
      "stateMutability": "view",
      "type": "function"
    },
    {
      "inputs": [],
      "name": "getContractStats",
      "outputs": [
        {
          "internalType": "uint256",
          "name": "totalDeals",
          "type": "uint256"
        },
        {
          "internalType": "uint256",
          "name": "locked",
          "type": "uint256"
        },
        {
          "internalType": "uint256",
          "name": "balance",
          "type": "uint256"
        },
        {
          "internalType": "uint256",
          "name": "excess",
          "type": "uint256"
        }
      ],
      "stateMutability": "view",
      "type": "function"
    },
    {
      "inputs": [
        {
          "internalType": "uint256",
          "name": "_dealId",
          "type": "uint256"
        }
      ],
      "name": "getDeal",
      "outputs": [
        {
          "components": [
            {
              "internalType": "uint256",
              "name": "id",
              "type": "uint256"
            },
            {
              "internalType": "address",
              "name": "buyer",
              "type": "address"
            },
            {
              "internalType": "address",
              "name": "seller",
              "type": "address"
            },
            {
              "internalType": "uint256",
              "name": "amount",
              "type": "uint256"
            },
            {
              "internalType": "bool",
              "name": "isCompleted",
              "type": "bool"
            },
            {
              "internalType": "bool",
              "name": "isDisputed",
              "type": "bool"
            },
            {
              "internalType": "uint256",
              "name": "createdAt",
              "type": "uint256"
            },
            {
              "internalType": "uint256",
              "name": "expiryTime",
              "type": "uint256"
            }
          ],
          "internalType": "struct AhadiEscrowFinal.Deal",
          "name": "",
          "type": "tuple"
        }
      ],
      "stateMutability": "view",
      "type": "function"
    },
    {
      "inputs": [],
      "name": "owner",
      "outputs": [
        {
          "internalType": "address",
          "name": "",
          "type": "address"
        }
      ],
      "stateMutability": "view",
      "type": "function"
    },
    {
      "inputs": [],
      "name": "pause",
      "outputs": [],
      "stateMutability": "nonpayable",
      "type": "function"
    },
    {
      "inputs": [],
      "name": "paused",
      "outputs": [
        {
          "internalType": "bool",
          "name": "",
          "type": "bool"
        }
      ],
      "stateMutability": "view",
      "type": "function"
    },
    {
      "inputs": [
        {
          "internalType": "uint256",
          "name": "_dealId",
          "type": "uint256"
        }
      ],
      "name": "raiseDispute",
      "outputs": [],
      "stateMutability": "nonpayable",
      "type": "function"
    },
    {
      "inputs": [
        {
          "internalType": "address",
          "name": "_token",
          "type": "address"
        },
        {
          "internalType": "address",
          "name": "_to",
          "type": "address"
        }
      ],
      "name": "recoverExcessTokens",
      "outputs": [],
      "stateMutability": "nonpayable",
      "type": "function"
    },
    {
      "inputs": [
        {
          "internalType": "uint256",
          "name": "_dealId",
          "type": "uint256"
        }
      ],
      "name": "refundBuyer",
      "outputs": [],
      "stateMutability": "nonpayable",
      "type": "function"
    },
    {
      "inputs": [
        {
          "internalType": "uint256",
          "name": "_dealId",
          "type": "uint256"
        }
      ],
      "name": "refundTimedOutDeal",
      "outputs": [],
      "stateMutability": "nonpayable",
      "type": "function"
    },
    {
      "inputs": [
        {
          "internalType": "uint256",
          "name": "_dealId",
          "type": "uint256"
        }
      ],
      "name": "releaseFunds",
      "outputs": [],
      "stateMutability": "nonpayable",
      "type": "function"
    },
    {
      "inputs": [],
      "name": "renounceOwnership",
      "outputs": [],
      "stateMutability": "nonpayable",
      "type": "function"
    },
    {
      "inputs": [
        {
          "internalType": "uint256",
          "name": "_dealId",
          "type": "uint256"
        },
        {
          "internalType": "address",
          "name": "_winner",
          "type": "address"
        }
      ],
      "name": "resolveDispute",
      "outputs": [],
      "stateMutability": "nonpayable",
      "type": "function"
    },
    {
      "inputs": [],
      "name": "stablecoin",
      "outputs": [
        {
          "internalType": "contract IERC20",
          "name": "",
          "type": "address"
        }
      ],
      "stateMutability": "view",
      "type": "function"
    },
    {
      "inputs": [],
      "name": "totalLockedFunds",
      "outputs": [
        {
          "internalType": "uint256",
          "name": "",
          "type": "uint256"
        }
      ],
      "stateMutability": "view",
      "type": "function"
    },
    {
      "inputs": [
        {
          "internalType": "address",
          "name": "newOwner",
          "type": "address"
        }
      ],
      "name": "transferOwnership",
      "outputs": [],
      "stateMutability": "nonpayable",
      "type": "function"
    },
    {
      "inputs": [],
      "name": "unpause",
      "outputs": [],
      "stateMutability": "nonpayable",
      "type": "function"
    },
    {
      "inputs": [
        {
          "internalType": "uint256",
          "name": "_newFee",
          "type": "uint256"
        }
      ],
      "name": "updateFee",
      "outputs": [],
      "stateMutability": "nonpayable",
      "type": "function"
    },
    {
      "inputs": [
        {
          "internalType": "address",
          "name": "_newWallet",
          "type": "address"
        }
      ],
      "name": "updateFeeWallet",
      "outputs": [],
      "stateMutability": "nonpayable",
      "type": "function"
    }
  ],
  "devdoc": {
    "events": {
      "Paused(address)": {
        "details": "Emitted when the pause is triggered by `account`."
      },
      "Unpaused(address)": {
        "details": "Emitted when the pause is lifted by `account`."
      }
    },
    "kind": "dev",
    "methods": {
      "owner()": {
        "details": "Returns the address of the current owner."
      },
      "paused()": {
        "details": "Returns true if the contract is paused, and false otherwise."
      },
      "renounceOwnership()": {
        "details": "Leaves the contract without owner. It will not be possible to call `onlyOwner` functions. Can only be called by the current owner. NOTE: Renouncing ownership will leave the contract without an owner, thereby disabling any functionality that is only available to the owner."
      },
      "transferOwnership(address)": {
        "details": "Transfers ownership of the contract to a new account (`newOwner`). Can only be called by the current owner."
      }
    },
    "title": "AhadiEscrowFinal",
    "version": 1
  },
  "evm": {
    "assembly": "    /* \"AhadiEscrow.sol\":469:8777  contract AhadiEscrowFinal is ReentrancyGuard, Ownable, Pausable {... */\n  mstore(0x40, 0x80)\n    /* \"AhadiEscrow.sol\":927:930  250 */\n  0xfa\n    /* \"AhadiEscrow.sol\":895:930  uint256 public feeBasisPoints = 250 */\n  0x02\n  sstore\n    /* \"AhadiEscrow.sol\":2426:2712  constructor(address _stablecoinAddress, address _feeWallet) {... */\n  callvalue\n  dup1\n  iszero\n  tag_1\n  jumpi\n  0x00\n  dup1\n  revert\ntag_1:\n  pop\n  mload(0x40)\n  sub(codesize, bytecodeSize)\n  dup1\n  bytecodeSize\n  dup4\n  codecopy\n  dup2\n  add\n  0x40\n  dup2\n  swap1\n  mstore\n  tag_2\n  swap2\n  tag_3\n  jump\t// in\ntag_2:\n    /* \"@openzeppelin/contracts/security/ReentrancyGuard.sol\":1716:1717   */\n  0x01\n    /* \"@openzeppelin/contracts/security/ReentrancyGuard.sol\":1821:1828   */\n  0x00\n    /* \"@openzeppelin/contracts/security/ReentrancyGuard.sol\":1821:1843   */\n  sstore\n    /* \"@openzeppelin/contracts/access/Ownable.sol\":936:968   */\n  tag_10\n    /* \"@openzeppelin/contracts/utils/Context.sol\":734:744   */\n  caller\n    /* \"@openzeppelin/contracts/access/Ownable.sol\":936:954   */\n  tag_13\n    /* \"@openzeppelin/contracts/access/Ownable.sol\":936:968   */\n  jump\t// in\ntag_10:\n    /* \"@openzeppelin/contracts/security/Pausable.sol\":996:1003   */\n  0x01\n    /* \"@openzeppelin/contracts/security/Pausable.sol\":996:1011   */\n  dup1\n  sload\n  not(shl(0xa0, 0xff))\n  and\n  swap1\n  sstore\n  sub(shl(0xa0, 0x01), 0x01)\n    /* \"AhadiEscrow.sol\":2504:2536  _stablecoinAddress != address(0) */\n  dup3\n  and\n    /* \"AhadiEscrow.sol\":2496:2559  require(_stablecoinAddress != address(0), \"Invalid stablecoin\") */\n  tag_16\n  jumpi\n  mload(0x40)\n  shl(0xe5, 0x461bcd)\n  dup2\n  mstore\n    /* \"#utility.yul\":696:698   */\n  0x20\n    /* \"AhadiEscrow.sol\":2496:2559  require(_stablecoinAddress != address(0), \"Invalid stablecoin\") */\n  0x04\n  dup3\n  add\n    /* \"#utility.yul\":678:699   */\n  mstore\n    /* \"#utility.yul\":735:737   */\n  0x12\n    /* \"#utility.yul\":715:733   */\n  0x24\n  dup3\n  add\n    /* \"#utility.yul\":708:738   */\n  mstore\n  shl(0x71, 0x24b73b30b634b21039ba30b13632b1b7b4b7)\n    /* \"#utility.yul\":754:772   */\n  0x44\n  dup3\n  add\n    /* \"#utility.yul\":747:795   */\n  mstore\n    /* \"#utility.yul\":812:830   */\n  0x64\n  add\n    /* \"AhadiEscrow.sol\":2496:2559  require(_stablecoinAddress != address(0), \"Invalid stablecoin\") */\ntag_17:\n  mload(0x40)\n  dup1\n  swap2\n  sub\n  swap1\n  revert\ntag_16:\n  sub(shl(0xa0, 0x01), 0x01)\n    /* \"AhadiEscrow.sol\":2577:2601  _feeWallet != address(0) */\n  dup2\n  and\n    /* \"AhadiEscrow.sol\":2569:2624  require(_feeWallet != address(0), \"Invalid fee wallet\") */\n  tag_19\n  jumpi\n  mload(0x40)\n  shl(0xe5, 0x461bcd)\n  dup2\n  mstore\n    /* \"#utility.yul\":1043:1045   */\n  0x20\n    /* \"AhadiEscrow.sol\":2569:2624  require(_feeWallet != address(0), \"Invalid fee wallet\") */\n  0x04\n  dup3\n  add\n    /* \"#utility.yul\":1025:1046   */\n  mstore\n    /* \"#utility.yul\":1082:1084   */\n  0x12\n    /* \"#utility.yul\":1062:1080   */\n  0x24\n  dup3\n  add\n    /* \"#utility.yul\":1055:1085   */\n  mstore\n  shl(0x72, 0x125b9d985b1a5908199959481dd85b1b195d)\n    /* \"#utility.yul\":1101:1119   */\n  0x44\n  dup3\n  add\n    /* \"#utility.yul\":1094:1142   */\n  mstore\n    /* \"#utility.yul\":1159:1177   */\n  0x64\n  add\n    /* \"AhadiEscrow.sol\":2569:2624  require(_feeWallet != address(0), \"Invalid fee wallet\") */\n  tag_17\n    /* \"#utility.yul\":841:1183   */\n  jump\n    /* \"AhadiEscrow.sol\":2569:2624  require(_feeWallet != address(0), \"Invalid fee wallet\") */\ntag_19:\n    /* \"AhadiEscrow.sol\":2634:2644  stablecoin */\n  0x04\n    /* \"AhadiEscrow.sol\":2634:2673  stablecoin = IERC20(_stablecoinAddress) */\n  dup1\n  sload\n  sub(shl(0xa0, 0x01), 0x01)\n  swap4\n  dup5\n  and\n  not(sub(shl(0xa0, 0x01), 0x01))\n  swap2\n  dup3\n  and\n  or\n  swap1\n  swap2\n  sstore\n    /* \"AhadiEscrow.sol\":2683:2692  feeWallet */\n  0x03\n    /* \"AhadiEscrow.sol\":2683:2705  feeWallet = _feeWallet */\n  dup1\n  sload\n  swap3\n  swap1\n  swap4\n  and\n  swap2\n  and\n  or\n  swap1\n  sstore\n    /* \"AhadiEscrow.sol\":469:8777  contract AhadiEscrowFinal is ReentrancyGuard, Ownable, Pausable {... */\n  jump(tag_26)\n    /* \"@openzeppelin/contracts/access/Ownable.sol\":2426:2613   */\ntag_13:\n    /* \"@openzeppelin/contracts/access/Ownable.sol\":2518:2524   */\n  0x01\n  dup1\n  sload\n  sub(shl(0xa0, 0x01), 0x01)\n    /* \"@openzeppelin/contracts/access/Ownable.sol\":2534:2551   */\n  dup4\n  dup2\n  and\n  not(sub(shl(0xa0, 0x01), 0x01))\n  dup4\n  and\n  dup2\n  or\n  swap1\n  swap4\n  sstore\n    /* \"@openzeppelin/contracts/access/Ownable.sol\":2566:2606   */\n  mload(0x40)\n    /* \"@openzeppelin/contracts/access/Ownable.sol\":2518:2524   */\n  swap2\n  and\n  swap2\n    /* \"@openzeppelin/contracts/access/Ownable.sol\":2534:2551   */\n  swap1\n    /* \"@openzeppelin/contracts/access/Ownable.sol\":2518:2524   */\n  dup3\n  swap1\n    /* \"@openzeppelin/contracts/access/Ownable.sol\":2566:2606   */\n  0x8be0079c531659141344cd1fd0a4f28419497f9722a3daafe3b4186f6b6457e0\n  swap1\n    /* \"@openzeppelin/contracts/access/Ownable.sol\":2499:2515   */\n  0x00\n  swap1\n    /* \"@openzeppelin/contracts/access/Ownable.sol\":2566:2606   */\n  log3\n    /* \"@openzeppelin/contracts/access/Ownable.sol\":2489:2613   */\n  pop\n    /* \"@openzeppelin/contracts/access/Ownable.sol\":2426:2613   */\n  pop\n  jump\t// out\n    /* \"#utility.yul\":14:191   */\ntag_25:\n    /* \"#utility.yul\":93:106   */\n  dup1\n  mload\n  sub(shl(0xa0, 0x01), 0x01)\n    /* \"#utility.yul\":135:166   */\n  dup2\n  and\n    /* \"#utility.yul\":125:167   */\n  dup2\n  eq\n    /* \"#utility.yul\":115:185   */\n  tag_28\n  jumpi\n    /* \"#utility.yul\":181:182   */\n  0x00\n    /* \"#utility.yul\":178:179   */\n  dup1\n    /* \"#utility.yul\":171:183   */\n  revert\n    /* \"#utility.yul\":115:185   */\ntag_28:\n    /* \"#utility.yul\":14:191   */\n  swap2\n  swap1\n  pop\n  jump\t// out\n    /* \"#utility.yul\":196:489   */\ntag_3:\n    /* \"#utility.yul\":275:281   */\n  0x00\n    /* \"#utility.yul\":283:289   */\n  dup1\n    /* \"#utility.yul\":336:338   */\n  0x40\n    /* \"#utility.yul\":324:333   */\n  dup4\n    /* \"#utility.yul\":315:322   */\n  dup6\n    /* \"#utility.yul\":311:334   */\n  sub\n    /* \"#utility.yul\":307:339   */\n  slt\n    /* \"#utility.yul\":304:356   */\n  iszero\n  tag_30\n  jumpi\n    /* \"#utility.yul\":352:353   */\n  0x00\n    /* \"#utility.yul\":349:350   */\n  dup1\n    /* \"#utility.yul\":342:354   */\n  revert\n    /* \"#utility.yul\":304:356   */\ntag_30:\n    /* \"#utility.yul\":375:415   */\n  tag_31\n    /* \"#utility.yul\":405:414   */\n  dup4\n    /* \"#utility.yul\":375:415   */\n  tag_25\n  jump\t// in\ntag_31:\n    /* \"#utility.yul\":365:415   */\n  swap2\n  pop\n    /* \"#utility.yul\":434:483   */\n  tag_32\n    /* \"#utility.yul\":479:481   */\n  0x20\n    /* \"#utility.yul\":468:477   */\n  dup5\n    /* \"#utility.yul\":464:482   */\n  add\n    /* \"#utility.yul\":434:483   */\n  tag_25\n  jump\t// in\ntag_32:\n    /* \"#utility.yul\":424:483   */\n  swap1\n  pop\n    /* \"#utility.yul\":196:489   */\n  swap3\n  pop\n  swap3\n  swap1\n  pop\n  jump\t// out\n    /* \"#utility.yul\":841:1183   */\ntag_26:\n    /* \"AhadiEscrow.sol\":469:8777  contract AhadiEscrowFinal is ReentrancyGuard, Ownable, Pausable {... */\n  dataSize(sub_0)\n  dup1\n  dataOffset(sub_0)\n  0x00\n  codecopy\n  0x00\n  return\nstop\n\nsub_0: assembly {\n        /* \"AhadiEscrow.sol\":469:8777  contract AhadiEscrowFinal is ReentrancyGuard, Ownable, Pausable {... */\n      mstore(0x40, 0x80)\n      callvalue\n      dup1\n      iszero\n      tag_1\n      jumpi\n      0x00\n      dup1\n      revert\n    tag_1:\n      pop\n      jumpi(tag_2, lt(calldatasize, 0x04))\n      shr(0xe0, calldataload(0x00))\n      dup1\n      0x9012c4a8\n      gt\n      tag_29\n      jumpi\n      dup1\n      0xc73b38e1\n      gt\n      tag_30\n      jumpi\n      dup1\n      0xe9cbd822\n      gt\n      tag_31\n      jumpi\n      dup1\n      0xe9cbd822\n      eq\n      tag_25\n      jumpi\n      dup1\n      0xf25f4b56\n      eq\n      tag_26\n      jumpi\n      dup1\n      0xf2fde38b\n      eq\n      tag_27\n      jumpi\n      dup1\n      0xfea266ae\n      eq\n      tag_28\n      jumpi\n      0x00\n      dup1\n      revert\n    tag_31:\n      dup1\n      0xc73b38e1\n      eq\n      tag_22\n      jumpi\n      dup1\n      0xde38eb3a\n      eq\n      tag_23\n      jumpi\n      dup1\n      0xdfe6b5d6\n      eq\n      tag_24\n      jumpi\n      0x00\n      dup1\n      revert\n    tag_30:\n      dup1\n      0xb8606eef\n      gt\n      tag_32\n      jumpi\n      dup1\n      0xb8606eef\n      eq\n      tag_19\n      jumpi\n      dup1\n      0xb88584bb\n      eq\n      tag_20\n      jumpi\n      dup1\n      0xbc063e1a\n      eq\n      tag_21\n      jumpi\n      0x00\n      dup1\n      revert\n    tag_32:\n      dup1\n      0x9012c4a8\n      eq\n      tag_16\n      jumpi\n      dup1\n      0xa5c1674e\n      eq\n      tag_17\n      jumpi\n      dup1\n      0xb02d1351\n      eq\n      tag_18\n      jumpi\n      0x00\n      dup1\n      revert\n    tag_29:\n      dup1\n      0x543ad1df\n      gt\n      tag_33\n      jumpi\n      dup1\n      0x715018a6\n      gt\n      tag_34\n      jumpi\n      dup1\n      0x715018a6\n      eq\n      tag_12\n      jumpi\n      dup1\n      0x82fd5bac\n      eq\n      tag_13\n      jumpi\n      dup1\n      0x8456cb59\n      eq\n      tag_14\n      jumpi\n      dup1\n      0x8da5cb5b\n      eq\n      tag_15\n      jumpi\n      0x00\n      dup1\n      revert\n    tag_34:\n      dup1\n      0x543ad1df\n      eq\n      tag_9\n      jumpi\n      dup1\n      0x5c975abb\n      eq\n      tag_10\n      jumpi\n      dup1\n      0x66718524\n      eq\n      tag_11\n      jumpi\n      0x00\n      dup1\n      revert\n    tag_33:\n      dup1\n      0x39292763\n      gt\n      tag_35\n      jumpi\n      dup1\n      0x39292763\n      eq\n      tag_6\n      jumpi\n      dup1\n      0x3f4ba83a\n      eq\n      tag_7\n      jumpi\n      dup1\n      0x4d68282f\n      eq\n      tag_8\n      jumpi\n      0x00\n      dup1\n      revert\n    tag_35:\n      dup1\n      0x03988f84\n      eq\n      tag_3\n      jumpi\n      dup1\n      0x0e33599d\n      eq\n      tag_4\n      jumpi\n      dup1\n      0x2c7f556a\n      eq\n      tag_5\n      jumpi\n    tag_2:\n      0x00\n      dup1\n      revert\n        /* \"AhadiEscrow.sol\":1387:1424  mapping(uint256 => Deal) public deals */\n    tag_3:\n      tag_36\n      tag_37\n      calldatasize\n      0x04\n      tag_38\n      jump\t// in\n    tag_37:\n      mstore(0x20, 0x07)\n      0x00\n      swap1\n      dup2\n      mstore\n      0x40\n      swap1\n      keccak256\n      dup1\n      sload\n      0x01\n      dup3\n      add\n      sload\n      0x02\n      dup4\n      add\n      sload\n      0x03\n      dup5\n      add\n      sload\n      0x04\n      dup6\n      add\n      sload\n      0x05\n      dup7\n      add\n      sload\n      0x06\n      swap1\n      swap7\n      add\n      sload\n      swap5\n      swap6\n      sub(shl(0xa0, 0x01), 0x01)\n      swap5\n      dup6\n      and\n      swap6\n      swap5\n      swap1\n      swap4\n      and\n      swap4\n      swap2\n      swap3\n      0xff\n      dup1\n      dup4\n      and\n      swap4\n      0x0100\n      swap1\n      swap4\n      div\n      and\n      swap2\n      dup9\n      jump\n    tag_36:\n      0x40\n      dup1\n      mload\n        /* \"#utility.yul\":530:555   */\n      swap9\n      dup10\n      mstore\n      sub(shl(0xa0, 0x01), 0x01)\n        /* \"#utility.yul\":652:667   */\n      swap8\n      dup9\n      and\n        /* \"#utility.yul\":647:649   */\n      0x20\n        /* \"#utility.yul\":632:650   */\n      dup11\n      add\n        /* \"#utility.yul\":625:668   */\n      mstore\n        /* \"#utility.yul\":704:719   */\n      swap6\n      swap1\n      swap7\n      and\n        /* \"#utility.yul\":684:702   */\n      swap5\n      dup8\n      add\n        /* \"#utility.yul\":677:720   */\n      swap5\n      swap1\n      swap5\n      mstore\n        /* \"#utility.yul\":751:753   */\n      0x60\n        /* \"#utility.yul\":736:754   */\n      dup7\n      add\n        /* \"#utility.yul\":729:763   */\n      swap3\n      swap1\n      swap3\n      mstore\n        /* \"#utility.yul\":807:821   */\n      iszero\n        /* \"#utility.yul\":800:822   */\n      iszero\n        /* \"#utility.yul\":794:797   */\n      0x80\n        /* \"#utility.yul\":779:798   */\n      dup6\n      add\n        /* \"#utility.yul\":772:823   */\n      mstore\n        /* \"#utility.yul\":867:881   */\n      iszero\n        /* \"#utility.yul\":860:882   */\n      iszero\n        /* \"#utility.yul\":854:857   */\n      0xa0\n        /* \"#utility.yul\":839:858   */\n      dup5\n      add\n        /* \"#utility.yul\":832:883   */\n      mstore\n        /* \"#utility.yul\":914:917   */\n      0xc0\n        /* \"#utility.yul\":899:918   */\n      dup4\n      add\n        /* \"#utility.yul\":892:927   */\n      mstore\n        /* \"#utility.yul\":958:961   */\n      0xe0\n        /* \"#utility.yul\":943:962   */\n      dup3\n      add\n        /* \"#utility.yul\":936:971   */\n      mstore\n        /* \"#utility.yul\":517:520   */\n      0x0100\n        /* \"#utility.yul\":502:521   */\n      add\n        /* \"AhadiEscrow.sol\":1387:1424  mapping(uint256 => Deal) public deals */\n    tag_40:\n      mload(0x40)\n      dup1\n      swap2\n      sub\n      swap1\n      return\n        /* \"AhadiEscrow.sol\":6000:6646  function resolveDispute(... */\n    tag_4:\n      tag_42\n      tag_43\n      calldatasize\n      0x04\n      tag_44\n      jump\t// in\n    tag_43:\n      tag_45\n      jump\t// in\n    tag_42:\n      stop\n        /* \"AhadiEscrow.sol\":785:835  uint256 public constant MIN_DEAL_AMOUNT = 1_000000 */\n    tag_5:\n      tag_46\n        /* \"AhadiEscrow.sol\":827:835  1_000000 */\n      0x0f4240\n        /* \"AhadiEscrow.sol\":785:835  uint256 public constant MIN_DEAL_AMOUNT = 1_000000 */\n      dup2\n      jump\n    tag_46:\n      mload(0x40)\n        /* \"#utility.yul\":1588:1613   */\n      swap1\n      dup2\n      mstore\n        /* \"#utility.yul\":1576:1578   */\n      0x20\n        /* \"#utility.yul\":1561:1579   */\n      add\n        /* \"AhadiEscrow.sol\":785:835  uint256 public constant MIN_DEAL_AMOUNT = 1_000000 */\n      tag_40\n        /* \"#utility.yul\":1442:1619   */\n      jump\n        /* \"AhadiEscrow.sol\":4444:4977  function refundBuyer(... */\n    tag_6:\n      tag_42\n      tag_51\n      calldatasize\n      0x04\n      tag_38\n      jump\t// in\n    tag_51:\n      tag_52\n      jump\t// in\n        /* \"AhadiEscrow.sol\":7803:7868  function unpause() external onlyOwner {... */\n    tag_7:\n      tag_42\n      tag_54\n      jump\t// in\n        /* \"AhadiEscrow.sol\":3882:4438  function releaseFunds(... */\n    tag_8:\n      tag_42\n      tag_56\n      calldatasize\n      0x04\n      tag_38\n      jump\t// in\n    tag_56:\n      tag_57\n      jump\t// in\n        /* \"AhadiEscrow.sol\":631:676  uint256 public constant MIN_TIMEOUT = 1 hours */\n    tag_9:\n      tag_46\n        /* \"AhadiEscrow.sol\":669:676  1 hours */\n      0x0e10\n        /* \"AhadiEscrow.sol\":631:676  uint256 public constant MIN_TIMEOUT = 1 hours */\n      dup2\n      jump\n        /* \"@openzeppelin/contracts/security/Pausable.sol\":1615:1699   */\n    tag_10:\n        /* \"@openzeppelin/contracts/security/Pausable.sol\":1685:1692   */\n      sload(0x01)\n      shl(0xa0, 0x01)\n      swap1\n      div\n      0xff\n      and\n        /* \"@openzeppelin/contracts/security/Pausable.sol\":1615:1699   */\n      mload(0x40)\n        /* \"#utility.yul\":1789:1803   */\n      swap1\n      iszero\n        /* \"#utility.yul\":1782:1804   */\n      iszero\n        /* \"#utility.yul\":1764:1805   */\n      dup2\n      mstore\n        /* \"#utility.yul\":1752:1754   */\n      0x20\n        /* \"#utility.yul\":1737:1755   */\n      add\n        /* \"@openzeppelin/contracts/security/Pausable.sol\":1615:1699   */\n      tag_40\n        /* \"#utility.yul\":1624:1811   */\n      jump\n        /* \"AhadiEscrow.sol\":6838:7045  function updateFeeWallet(address _newWallet) external onlyOwner {... */\n    tag_11:\n      tag_42\n      tag_66\n      calldatasize\n      0x04\n      tag_67\n      jump\t// in\n    tag_66:\n      tag_68\n      jump\t// in\n        /* \"@openzeppelin/contracts/access/Ownable.sol\":1824:1925   */\n    tag_12:\n      tag_42\n      tag_70\n      jump\t// in\n        /* \"AhadiEscrow.sol\":7905:8013  function getDeal(uint256 _dealId) external view returns (Deal memory) {... */\n    tag_13:\n      tag_71\n      tag_72\n      calldatasize\n      0x04\n      tag_38\n      jump\t// in\n    tag_72:\n      0x40\n      dup1\n      mload\n      0x0100\n      dup2\n      add\n      dup3\n      mstore\n      0x00\n      dup1\n      dup3\n      mstore\n      0x20\n      dup3\n      add\n      dup2\n      swap1\n      mstore\n      swap2\n      dup2\n      add\n      dup3\n      swap1\n      mstore\n      0x60\n      dup2\n      add\n      dup3\n      swap1\n      mstore\n      0x80\n      dup2\n      add\n      dup3\n      swap1\n      mstore\n      0xa0\n      dup2\n      add\n      dup3\n      swap1\n      mstore\n      0xc0\n      dup2\n      add\n      dup3\n      swap1\n      mstore\n      0xe0\n      dup2\n      add\n      swap2\n      swap1\n      swap2\n      mstore\n      pop\n        /* \"AhadiEscrow.sol\":7992:8006  deals[_dealId] */\n      0x00\n      swap1\n      dup2\n      mstore\n        /* \"AhadiEscrow.sol\":7992:7997  deals */\n      0x07\n        /* \"AhadiEscrow.sol\":7992:8006  deals[_dealId] */\n      0x20\n      swap1\n      dup2\n      mstore\n      0x40\n      swap2\n      dup3\n      swap1\n      keccak256\n        /* \"AhadiEscrow.sol\":7985:8006  return deals[_dealId] */\n      dup3\n      mload\n      0x0100\n      dup1\n      dup3\n      add\n      dup6\n      mstore\n      dup3\n      sload\n      dup3\n      mstore\n      0x01\n      dup4\n      add\n      sload\n      sub(shl(0xa0, 0x01), 0x01)\n      swap1\n      dup2\n      and\n      swap5\n      dup4\n      add\n      swap5\n      swap1\n      swap5\n      mstore\n      0x02\n      dup4\n      add\n      sload\n      swap1\n      swap4\n      and\n      swap4\n      dup2\n      add\n      swap4\n      swap1\n      swap4\n      mstore\n      0x03\n      dup2\n      add\n      sload\n      0x60\n      dup5\n      add\n      mstore\n      0x04\n      dup2\n      add\n      sload\n      0xff\n      dup1\n      dup3\n      and\n      iszero\n      iszero\n      0x80\n      dup7\n      add\n      mstore\n      swap3\n      swap1\n      div\n      swap1\n      swap2\n      and\n      iszero\n      iszero\n      0xa0\n      dup4\n      add\n      mstore\n      0x05\n      dup2\n      add\n      sload\n      0xc0\n      dup4\n      add\n      mstore\n      0x06\n      add\n      sload\n      0xe0\n      dup3\n      add\n      mstore\n      swap1\n        /* \"AhadiEscrow.sol\":7905:8013  function getDeal(uint256 _dealId) external view returns (Deal memory) {... */\n      jump\n    tag_71:\n      mload(0x40)\n      tag_40\n      swap2\n      swap1\n        /* \"#utility.yul\":2139:2143   */\n      0x00\n        /* \"#utility.yul\":2181:2184   */\n      0x0100\n        /* \"#utility.yul\":2170:2179   */\n      dup3\n        /* \"#utility.yul\":2166:2185   */\n      add\n        /* \"#utility.yul\":2158:2185   */\n      swap1\n      pop\n        /* \"#utility.yul\":2218:2224   */\n      dup3\n        /* \"#utility.yul\":2212:2225   */\n      mload\n        /* \"#utility.yul\":2201:2210   */\n      dup3\n        /* \"#utility.yul\":2194:2226   */\n      mstore\n        /* \"#utility.yul\":2273:2277   */\n      0x20\n        /* \"#utility.yul\":2265:2271   */\n      dup4\n        /* \"#utility.yul\":2261:2278   */\n      add\n        /* \"#utility.yul\":2255:2279   */\n      mload\n      sub(shl(0xa0, 0x01), 0x01)\n        /* \"#utility.yul\":2396:2398   */\n      dup1\n        /* \"#utility.yul\":2382:2394   */\n      dup3\n        /* \"#utility.yul\":2378:2399   */\n      and\n        /* \"#utility.yul\":2371:2375   */\n      0x20\n        /* \"#utility.yul\":2360:2369   */\n      dup6\n        /* \"#utility.yul\":2356:2376   */\n      add\n        /* \"#utility.yul\":2349:2400   */\n      mstore\n        /* \"#utility.yul\":2468:2470   */\n      dup1\n        /* \"#utility.yul\":2460:2464   */\n      0x40\n        /* \"#utility.yul\":2452:2458   */\n      dup7\n        /* \"#utility.yul\":2448:2465   */\n      add\n        /* \"#utility.yul\":2442:2466   */\n      mload\n        /* \"#utility.yul\":2438:2471   */\n      and\n        /* \"#utility.yul\":2431:2435   */\n      0x40\n        /* \"#utility.yul\":2420:2429   */\n      dup6\n        /* \"#utility.yul\":2416:2436   */\n      add\n        /* \"#utility.yul\":2409:2472   */\n      mstore\n      pop\n      pop\n        /* \"#utility.yul\":2528:2532   */\n      0x60\n        /* \"#utility.yul\":2520:2526   */\n      dup4\n        /* \"#utility.yul\":2516:2533   */\n      add\n        /* \"#utility.yul\":2510:2534   */\n      mload\n        /* \"#utility.yul\":2503:2507   */\n      0x60\n        /* \"#utility.yul\":2492:2501   */\n      dup4\n        /* \"#utility.yul\":2488:2508   */\n      add\n        /* \"#utility.yul\":2481:2535   */\n      mstore\n        /* \"#utility.yul\":2605:2609   */\n      0x80\n        /* \"#utility.yul\":2597:2603   */\n      dup4\n        /* \"#utility.yul\":2593:2610   */\n      add\n        /* \"#utility.yul\":2587:2611   */\n      mload\n        /* \"#utility.yul\":2580:2612   */\n      iszero\n        /* \"#utility.yul\":2573:2613   */\n      iszero\n        /* \"#utility.yul\":2566:2570   */\n      0x80\n        /* \"#utility.yul\":2555:2564   */\n      dup4\n        /* \"#utility.yul\":2551:2571   */\n      add\n        /* \"#utility.yul\":2544:2614   */\n      mstore\n        /* \"#utility.yul\":2684:2688   */\n      0xa0\n        /* \"#utility.yul\":2676:2682   */\n      dup4\n        /* \"#utility.yul\":2672:2689   */\n      add\n        /* \"#utility.yul\":2666:2690   */\n      mload\n        /* \"#utility.yul\":2659:2691   */\n      iszero\n        /* \"#utility.yul\":2652:2692   */\n      iszero\n        /* \"#utility.yul\":2645:2649   */\n      0xa0\n        /* \"#utility.yul\":2634:2643   */\n      dup4\n        /* \"#utility.yul\":2630:2650   */\n      add\n        /* \"#utility.yul\":2623:2693   */\n      mstore\n        /* \"#utility.yul\":2749:2753   */\n      0xc0\n        /* \"#utility.yul\":2741:2747   */\n      dup4\n        /* \"#utility.yul\":2737:2754   */\n      add\n        /* \"#utility.yul\":2731:2755   */\n      mload\n        /* \"#utility.yul\":2724:2728   */\n      0xc0\n        /* \"#utility.yul\":2713:2722   */\n      dup4\n        /* \"#utility.yul\":2709:2729   */\n      add\n        /* \"#utility.yul\":2702:2756   */\n      mstore\n        /* \"#utility.yul\":2812:2816   */\n      0xe0\n        /* \"#utility.yul\":2804:2810   */\n      dup4\n        /* \"#utility.yul\":2800:2817   */\n      add\n        /* \"#utility.yul\":2794:2818   */\n      mload\n        /* \"#utility.yul\":2787:2791   */\n      0xe0\n        /* \"#utility.yul\":2776:2785   */\n      dup4\n        /* \"#utility.yul\":2772:2792   */\n      add\n        /* \"#utility.yul\":2765:2819   */\n      mstore\n        /* \"#utility.yul\":2007:2825   */\n      swap3\n      swap2\n      pop\n      pop\n      jump\n        /* \"AhadiEscrow.sol\":7736:7797  function pause() external onlyOwner {... */\n    tag_14:\n      tag_42\n      tag_77\n      jump\t// in\n        /* \"@openzeppelin/contracts/access/Ownable.sol\":1201:1286   */\n    tag_15:\n        /* \"@openzeppelin/contracts/access/Ownable.sol\":1273:1279   */\n      and(sub(shl(0xa0, 0x01), 0x01), sload(0x01))\n        /* \"@openzeppelin/contracts/access/Ownable.sol\":1201:1286   */\n    tag_78:\n      mload(0x40)\n      sub(shl(0xa0, 0x01), 0x01)\n        /* \"#utility.yul\":2994:3049   */\n      swap1\n      swap2\n      and\n        /* \"#utility.yul\":2976:3050   */\n      dup2\n      mstore\n        /* \"#utility.yul\":2964:2966   */\n      0x20\n        /* \"#utility.yul\":2949:2967   */\n      add\n        /* \"@openzeppelin/contracts/access/Ownable.sol\":1201:1286   */\n      tag_40\n        /* \"#utility.yul\":2830:3056   */\n      jump\n        /* \"AhadiEscrow.sol\":6652:6832  function updateFee(uint256 _newFee) external onlyOwner {... */\n    tag_16:\n      tag_42\n      tag_83\n      calldatasize\n      0x04\n      tag_38\n      jump\t// in\n    tag_83:\n      tag_84\n      jump\t// in\n        /* \"AhadiEscrow.sol\":5532:5962  function raiseDispute(uint256 _dealId) external isValidDeal(_dealId) {... */\n    tag_17:\n      tag_42\n      tag_86\n      calldatasize\n      0x04\n      tag_38\n      jump\t// in\n    tag_86:\n      tag_87\n      jump\t// in\n        /* \"AhadiEscrow.sol\":2749:3876  function createDeal(... */\n    tag_18:\n      tag_46\n      tag_89\n      calldatasize\n      0x04\n      tag_90\n      jump\t// in\n    tag_89:\n      tag_91\n      jump\t// in\n        /* \"AhadiEscrow.sol\":895:930  uint256 public feeBasisPoints = 250 */\n    tag_19:\n      tag_46\n      sload(0x02)\n      dup2\n      jump\n        /* \"AhadiEscrow.sol\":1127:1158  uint256 public totalLockedFunds */\n    tag_20:\n      tag_46\n      sload(0x06)\n      dup2\n      jump\n        /* \"AhadiEscrow.sol\":734:772  uint256 public constant MAX_FEE = 1000 */\n    tag_21:\n      tag_46\n        /* \"AhadiEscrow.sol\":768:772  1000 */\n      0x03e8\n        /* \"AhadiEscrow.sol\":734:772  uint256 public constant MAX_FEE = 1000 */\n      dup2\n      jump\n        /* \"AhadiEscrow.sol\":7051:7730  function recoverExcessTokens(... */\n    tag_22:\n      tag_42\n      tag_103\n      calldatasize\n      0x04\n      tag_104\n      jump\t// in\n    tag_103:\n      tag_105\n      jump\t// in\n        /* \"AhadiEscrow.sol\":682:728  uint256 public constant MAX_TIMEOUT = 365 days */\n    tag_23:\n      tag_46\n        /* \"AhadiEscrow.sol\":720:728  365 days */\n      0x01e13380\n        /* \"AhadiEscrow.sol\":682:728  uint256 public constant MAX_TIMEOUT = 365 days */\n      dup2\n      jump\n        /* \"AhadiEscrow.sol\":8019:8417  function getContractStats()... */\n    tag_24:\n      tag_109\n      tag_110\n      jump\t// in\n    tag_109:\n      0x40\n      dup1\n      mload\n        /* \"#utility.yul\":3884:3909   */\n      swap5\n      dup6\n      mstore\n        /* \"#utility.yul\":3940:3942   */\n      0x20\n        /* \"#utility.yul\":3925:3943   */\n      dup6\n      add\n        /* \"#utility.yul\":3918:3952   */\n      swap4\n      swap1\n      swap4\n      mstore\n        /* \"#utility.yul\":3968:3986   */\n      swap2\n      dup4\n      add\n        /* \"#utility.yul\":3961:3995   */\n      mstore\n        /* \"#utility.yul\":4026:4028   */\n      0x60\n        /* \"#utility.yul\":4011:4029   */\n      dup3\n      add\n        /* \"#utility.yul\":4004:4038   */\n      mstore\n        /* \"#utility.yul\":3871:3874   */\n      0x80\n        /* \"#utility.yul\":3856:3875   */\n      add\n        /* \"AhadiEscrow.sol\":8019:8417  function getContractStats()... */\n      tag_40\n        /* \"#utility.yul\":3653:4044   */\n      jump\n        /* \"AhadiEscrow.sol\":974:998  IERC20 public stablecoin */\n    tag_25:\n      sload(0x04)\n      tag_78\n      swap1\n      sub(shl(0xa0, 0x01), 0x01)\n      and\n      dup2\n      jump\n        /* \"AhadiEscrow.sol\":944:968  address public feeWallet */\n    tag_26:\n      sload(0x03)\n      tag_78\n      swap1\n      sub(shl(0xa0, 0x01), 0x01)\n      and\n      dup2\n      jump\n        /* \"@openzeppelin/contracts/access/Ownable.sol\":2074:2272   */\n    tag_27:\n      tag_42\n      tag_121\n      calldatasize\n      0x04\n      tag_67\n      jump\t// in\n    tag_121:\n      tag_122\n      jump\t// in\n        /* \"AhadiEscrow.sol\":4983:5526  function refundTimedOutDeal(... */\n    tag_28:\n      tag_42\n      tag_124\n      calldatasize\n      0x04\n      tag_38\n      jump\t// in\n    tag_124:\n      tag_125\n      jump\t// in\n        /* \"AhadiEscrow.sol\":6000:6646  function resolveDispute(... */\n    tag_45:\n        /* \"@openzeppelin/contracts/access/Ownable.sol\":1094:1107   */\n      tag_127\n        /* \"@openzeppelin/contracts/access/Ownable.sol\":1094:1105   */\n      tag_128\n        /* \"@openzeppelin/contracts/access/Ownable.sol\":1094:1107   */\n      jump\t// in\n    tag_127:\n        /* \"@openzeppelin/contracts/security/ReentrancyGuard.sol\":2261:2282   */\n      tag_130\n        /* \"@openzeppelin/contracts/security/ReentrancyGuard.sol\":2261:2280   */\n      tag_131\n        /* \"@openzeppelin/contracts/security/ReentrancyGuard.sol\":2261:2282   */\n      jump\t// in\n    tag_130:\n        /* \"AhadiEscrow.sol\":2376:2377  0 */\n      0x00\n        /* \"AhadiEscrow.sol\":2344:2358  deals[_dealId] */\n      dup3\n      dup2\n      mstore\n        /* \"AhadiEscrow.sol\":2344:2349  deals */\n      0x07\n        /* \"AhadiEscrow.sol\":2344:2358  deals[_dealId] */\n      0x20\n      mstore\n      0x40\n      swap1\n      keccak256\n        /* \"AhadiEscrow.sol\":2344:2364  deals[_dealId].buyer */\n      0x01\n      add\n      sload\n        /* \"AhadiEscrow.sol\":6124:6131  _dealId */\n      dup3\n      swap1\n      sub(shl(0xa0, 0x01), 0x01)\n        /* \"AhadiEscrow.sol\":2344:2364  deals[_dealId].buyer */\n      and\n        /* \"AhadiEscrow.sol\":2336:2402  require(deals[_dealId].buyer != address(0), \"Deal does not exist\") */\n      tag_133\n      jumpi\n      mload(0x40)\n      shl(0xe5, 0x461bcd)\n      dup2\n      mstore\n        /* \"#utility.yul\":4497:4499   */\n      0x20\n        /* \"AhadiEscrow.sol\":2336:2402  require(deals[_dealId].buyer != address(0), \"Deal does not exist\") */\n      0x04\n      dup3\n      add\n        /* \"#utility.yul\":4479:4500   */\n      mstore\n        /* \"#utility.yul\":4536:4538   */\n      0x13\n        /* \"#utility.yul\":4516:4534   */\n      0x24\n      dup3\n      add\n        /* \"#utility.yul\":4509:4539   */\n      mstore\n      shl(0x6a, 0x1119585b08191bd95cc81b9bdd08195e1a5cdd)\n        /* \"#utility.yul\":4555:4573   */\n      0x44\n      dup3\n      add\n        /* \"#utility.yul\":4548:4597   */\n      mstore\n        /* \"#utility.yul\":4614:4632   */\n      0x64\n      add\n        /* \"AhadiEscrow.sol\":2336:2402  require(deals[_dealId].buyer != address(0), \"Deal does not exist\") */\n    tag_134:\n      mload(0x40)\n      dup1\n      swap2\n      sub\n      swap1\n      revert\n    tag_133:\n        /* \"AhadiEscrow.sol\":6143:6160  Deal storage deal */\n      0x00\n        /* \"AhadiEscrow.sol\":6163:6177  deals[_dealId] */\n      dup4\n      dup2\n      mstore\n        /* \"AhadiEscrow.sol\":6163:6168  deals */\n      0x07\n        /* \"AhadiEscrow.sol\":6163:6177  deals[_dealId] */\n      0x20\n      mstore\n      0x40\n      swap1\n      keccak256\n        /* \"AhadiEscrow.sol\":6195:6210  deal.isDisputed */\n      0x04\n      dup2\n      add\n      sload\n      0x0100\n      swap1\n      div\n      0xff\n      and\n        /* \"AhadiEscrow.sol\":6187:6227  require(deal.isDisputed, \"Not disputed\") */\n      tag_137\n      jumpi\n      mload(0x40)\n      shl(0xe5, 0x461bcd)\n      dup2\n      mstore\n        /* \"#utility.yul\":4845:4847   */\n      0x20\n        /* \"AhadiEscrow.sol\":6187:6227  require(deal.isDisputed, \"Not disputed\") */\n      0x04\n      dup3\n      add\n        /* \"#utility.yul\":4827:4848   */\n      mstore\n        /* \"#utility.yul\":4884:4886   */\n      0x0c\n        /* \"#utility.yul\":4864:4882   */\n      0x24\n      dup3\n      add\n        /* \"#utility.yul\":4857:4887   */\n      mstore\n        /* \"#utility.yul\":4923:4937   */\n      0x4e6f742064697370757465640000000000000000000000000000000000000000\n        /* \"#utility.yul\":4903:4921   */\n      0x44\n      dup3\n      add\n        /* \"#utility.yul\":4896:4938   */\n      mstore\n        /* \"#utility.yul\":4955:4973   */\n      0x64\n      add\n        /* \"AhadiEscrow.sol\":6187:6227  require(deal.isDisputed, \"Not disputed\") */\n      tag_134\n        /* \"#utility.yul\":4643:4979   */\n      jump\n        /* \"AhadiEscrow.sol\":6187:6227  require(deal.isDisputed, \"Not disputed\") */\n    tag_137:\n        /* \"AhadiEscrow.sol\":6246:6262  deal.isCompleted */\n      0x04\n      dup2\n      add\n      sload\n      0xff\n      and\n        /* \"AhadiEscrow.sol\":6245:6262  !deal.isCompleted */\n      iszero\n        /* \"AhadiEscrow.sol\":6237:6273  require(!deal.isCompleted, \"Closed\") */\n      tag_140\n      jumpi\n      mload(0x40)\n      shl(0xe5, 0x461bcd)\n      dup2\n      mstore\n        /* \"#utility.yul\":5186:5188   */\n      0x20\n        /* \"AhadiEscrow.sol\":6237:6273  require(!deal.isCompleted, \"Closed\") */\n      0x04\n      dup3\n      add\n        /* \"#utility.yul\":5168:5189   */\n      mstore\n        /* \"#utility.yul\":5225:5226   */\n      0x06\n        /* \"#utility.yul\":5205:5223   */\n      0x24\n      dup3\n      add\n        /* \"#utility.yul\":5198:5227   */\n      mstore\n        /* \"#utility.yul\":5263:5271   */\n      0x436c6f7365640000000000000000000000000000000000000000000000000000\n        /* \"#utility.yul\":5243:5261   */\n      0x44\n      dup3\n      add\n        /* \"#utility.yul\":5236:5272   */\n      mstore\n        /* \"#utility.yul\":5289:5307   */\n      0x64\n      add\n        /* \"AhadiEscrow.sol\":6237:6273  require(!deal.isCompleted, \"Closed\") */\n      tag_134\n        /* \"#utility.yul\":4984:5313   */\n      jump\n        /* \"AhadiEscrow.sol\":6237:6273  require(!deal.isCompleted, \"Closed\") */\n    tag_140:\n        /* \"AhadiEscrow.sol\":6315:6325  deal.buyer */\n      0x01\n      dup2\n      add\n      sload\n      sub(shl(0xa0, 0x01), 0x01)\n        /* \"AhadiEscrow.sol\":6304:6325  _winner == deal.buyer */\n      dup5\n      dup2\n      and\n        /* \"AhadiEscrow.sol\":6315:6325  deal.buyer */\n      swap2\n      and\n        /* \"AhadiEscrow.sol\":6304:6325  _winner == deal.buyer */\n      eq\n      dup1\n        /* \"AhadiEscrow.sol\":6304:6351  _winner == deal.buyer || _winner == deal.seller */\n      tag_143\n      jumpi\n      pop\n        /* \"AhadiEscrow.sol\":6340:6351  deal.seller */\n      0x02\n      dup2\n      add\n      sload\n      sub(shl(0xa0, 0x01), 0x01)\n        /* \"AhadiEscrow.sol\":6329:6351  _winner == deal.seller */\n      dup5\n      dup2\n      and\n        /* \"AhadiEscrow.sol\":6340:6351  deal.seller */\n      swap2\n      and\n        /* \"AhadiEscrow.sol\":6329:6351  _winner == deal.seller */\n      eq\n        /* \"AhadiEscrow.sol\":6304:6351  _winner == deal.buyer || _winner == deal.seller */\n    tag_143:\n        /* \"AhadiEscrow.sol\":6283:6391  require(... */\n      tag_144\n      jumpi\n      mload(0x40)\n      shl(0xe5, 0x461bcd)\n      dup2\n      mstore\n        /* \"#utility.yul\":5520:5522   */\n      0x20\n        /* \"AhadiEscrow.sol\":6283:6391  require(... */\n      0x04\n      dup3\n      add\n        /* \"#utility.yul\":5502:5523   */\n      mstore\n        /* \"#utility.yul\":5559:5561   */\n      0x0e\n        /* \"#utility.yul\":5539:5557   */\n      0x24\n      dup3\n      add\n        /* \"#utility.yul\":5532:5562   */\n      mstore\n        /* \"#utility.yul\":5598:5614   */\n      0x496e76616c69642077696e6e6572000000000000000000000000000000000000\n        /* \"#utility.yul\":5578:5596   */\n      0x44\n      dup3\n      add\n        /* \"#utility.yul\":5571:5615   */\n      mstore\n        /* \"#utility.yul\":5632:5650   */\n      0x64\n      add\n        /* \"AhadiEscrow.sol\":6283:6391  require(... */\n      tag_134\n        /* \"#utility.yul\":5318:5656   */\n      jump\n        /* \"AhadiEscrow.sol\":6283:6391  require(... */\n    tag_144:\n        /* \"AhadiEscrow.sol\":6419:6430  deal.amount */\n      0x03\n      dup2\n      add\n      sload\n        /* \"AhadiEscrow.sol\":6440:6456  deal.isCompleted */\n      0x04\n      dup3\n      add\n        /* \"AhadiEscrow.sol\":6440:6463  deal.isCompleted = true */\n      dup1\n      sload\n      not(0xffff)\n        /* \"AhadiEscrow.sol\":6473:6496  deal.isDisputed = false */\n      and\n        /* \"AhadiEscrow.sol\":6459:6463  true */\n      0x01\n        /* \"AhadiEscrow.sol\":6473:6496  deal.isDisputed = false */\n      or\n      swap1\n      sstore\n        /* \"AhadiEscrow.sol\":6506:6522  totalLockedFunds */\n      0x06\n        /* \"AhadiEscrow.sol\":6506:6532  totalLockedFunds -= amount */\n      dup1\n      sload\n        /* \"AhadiEscrow.sol\":6419:6430  deal.amount */\n      dup3\n      swap2\n        /* \"AhadiEscrow.sol\":6506:6522  totalLockedFunds */\n      swap1\n        /* \"AhadiEscrow.sol\":6402:6416  uint256 amount */\n      0x00\n      swap1\n        /* \"AhadiEscrow.sol\":6506:6532  totalLockedFunds -= amount */\n      tag_147\n      swap1\n        /* \"AhadiEscrow.sol\":6419:6430  deal.amount */\n      dup5\n      swap1\n        /* \"AhadiEscrow.sol\":6506:6532  totalLockedFunds -= amount */\n      tag_148\n      jump\t// in\n    tag_147:\n      swap1\n      swap2\n      sstore\n      pop\n      pop\n        /* \"AhadiEscrow.sol\":6543:6553  stablecoin */\n      sload(0x04)\n        /* \"AhadiEscrow.sol\":6543:6583  stablecoin.safeTransfer(_winner, amount) */\n      tag_149\n      swap1\n      sub(shl(0xa0, 0x01), 0x01)\n        /* \"AhadiEscrow.sol\":6543:6553  stablecoin */\n      and\n        /* \"AhadiEscrow.sol\":6567:6574  _winner */\n      dup6\n        /* \"AhadiEscrow.sol\":6576:6582  amount */\n      dup4\n        /* \"AhadiEscrow.sol\":6543:6566  stablecoin.safeTransfer */\n      tag_150\n        /* \"AhadiEscrow.sol\":6543:6583  stablecoin.safeTransfer(_winner, amount) */\n      jump\t// in\n    tag_149:\n        /* \"AhadiEscrow.sol\":6623:6630  _winner */\n      dup4\n      sub(shl(0xa0, 0x01), 0x01)\n        /* \"AhadiEscrow.sol\":6598:6639  DisputeResolved(_dealId, _winner, amount) */\n      and\n        /* \"AhadiEscrow.sol\":6614:6621  _dealId */\n      dup6\n        /* \"AhadiEscrow.sol\":6598:6639  DisputeResolved(_dealId, _winner, amount) */\n      0xdf0baf5489595ea17a097d16827d60793e2f57f3b85a982e5d7e02838b841ee6\n        /* \"AhadiEscrow.sol\":6632:6638  amount */\n      dup4\n        /* \"AhadiEscrow.sol\":6598:6639  DisputeResolved(_dealId, _winner, amount) */\n      mload(0x40)\n      tag_151\n      swap2\n        /* \"#utility.yul\":1588:1613   */\n      dup2\n      mstore\n        /* \"#utility.yul\":1576:1578   */\n      0x20\n        /* \"#utility.yul\":1561:1579   */\n      add\n      swap1\n        /* \"#utility.yul\":1442:1619   */\n      jump\n        /* \"AhadiEscrow.sol\":6598:6639  DisputeResolved(_dealId, _winner, amount) */\n    tag_151:\n      mload(0x40)\n      dup1\n      swap2\n      sub\n      swap1\n      log3\n        /* \"AhadiEscrow.sol\":6133:6646  {... */\n      pop\n      pop\n        /* \"@openzeppelin/contracts/security/ReentrancyGuard.sol\":2292:2293   */\n      pop\n        /* \"@openzeppelin/contracts/security/ReentrancyGuard.sol\":2303:2323   */\n      tag_152\n        /* \"@openzeppelin/contracts/security/ReentrancyGuard.sol\":1716:1717   */\n      0x01\n        /* \"@openzeppelin/contracts/security/ReentrancyGuard.sol\":2809:2816   */\n      0x00\n        /* \"@openzeppelin/contracts/security/ReentrancyGuard.sol\":2809:2831   */\n      sstore\n        /* \"@openzeppelin/contracts/security/ReentrancyGuard.sol\":2629:2838   */\n      jump\n        /* \"@openzeppelin/contracts/security/ReentrancyGuard.sol\":2303:2323   */\n    tag_152:\n        /* \"AhadiEscrow.sol\":6000:6646  function resolveDispute(... */\n      pop\n      pop\n      jump\t// out\n        /* \"AhadiEscrow.sol\":4444:4977  function refundBuyer(... */\n    tag_52:\n        /* \"@openzeppelin/contracts/security/ReentrancyGuard.sol\":2261:2282   */\n      tag_155\n        /* \"@openzeppelin/contracts/security/ReentrancyGuard.sol\":2261:2280   */\n      tag_131\n        /* \"@openzeppelin/contracts/security/ReentrancyGuard.sol\":2261:2282   */\n      jump\t// in\n    tag_155:\n        /* \"AhadiEscrow.sol\":2376:2377  0 */\n      0x00\n        /* \"AhadiEscrow.sol\":2344:2358  deals[_dealId] */\n      dup2\n      dup2\n      mstore\n        /* \"AhadiEscrow.sol\":2344:2349  deals */\n      0x07\n        /* \"AhadiEscrow.sol\":2344:2358  deals[_dealId] */\n      0x20\n      mstore\n      0x40\n      swap1\n      keccak256\n        /* \"AhadiEscrow.sol\":2344:2364  deals[_dealId].buyer */\n      0x01\n      add\n      sload\n        /* \"AhadiEscrow.sol\":4530:4537  _dealId */\n      dup2\n      swap1\n      sub(shl(0xa0, 0x01), 0x01)\n        /* \"AhadiEscrow.sol\":2344:2364  deals[_dealId].buyer */\n      and\n        /* \"AhadiEscrow.sol\":2336:2402  require(deals[_dealId].buyer != address(0), \"Deal does not exist\") */\n      tag_157\n      jumpi\n      mload(0x40)\n      shl(0xe5, 0x461bcd)\n      dup2\n      mstore\n        /* \"#utility.yul\":4497:4499   */\n      0x20\n        /* \"AhadiEscrow.sol\":2336:2402  require(deals[_dealId].buyer != address(0), \"Deal does not exist\") */\n      0x04\n      dup3\n      add\n        /* \"#utility.yul\":4479:4500   */\n      mstore\n        /* \"#utility.yul\":4536:4538   */\n      0x13\n        /* \"#utility.yul\":4516:4534   */\n      0x24\n      dup3\n      add\n        /* \"#utility.yul\":4509:4539   */\n      mstore\n      shl(0x6a, 0x1119585b08191bd95cc81b9bdd08195e1a5cdd)\n        /* \"#utility.yul\":4555:4573   */\n      0x44\n      dup3\n      add\n        /* \"#utility.yul\":4548:4597   */\n      mstore\n        /* \"#utility.yul\":4614:4632   */\n      0x64\n      add\n        /* \"AhadiEscrow.sol\":2336:2402  require(deals[_dealId].buyer != address(0), \"Deal does not exist\") */\n      tag_134\n        /* \"#utility.yul\":4295:4638   */\n      jump\n        /* \"AhadiEscrow.sol\":2336:2402  require(deals[_dealId].buyer != address(0), \"Deal does not exist\") */\n    tag_157:\n        /* \"AhadiEscrow.sol\":4549:4566  Deal storage deal */\n      0x00\n        /* \"AhadiEscrow.sol\":4569:4583  deals[_dealId] */\n      dup3\n      dup2\n      mstore\n        /* \"AhadiEscrow.sol\":4569:4574  deals */\n      0x07\n        /* \"AhadiEscrow.sol\":4569:4583  deals[_dealId] */\n      0x20\n      mstore\n      0x40\n      swap1\n      keccak256\n        /* \"AhadiEscrow.sol\":4615:4626  deal.seller */\n      0x02\n      dup2\n      add\n      sload\n      sub(shl(0xa0, 0x01), 0x01)\n      and\n        /* \"AhadiEscrow.sol\":4601:4611  msg.sender */\n      caller\n        /* \"AhadiEscrow.sol\":4601:4626  msg.sender == deal.seller */\n      eq\n        /* \"AhadiEscrow.sol\":4593:4653  require(msg.sender == deal.seller, \"Only seller can refund\") */\n      tag_160\n      jumpi\n      mload(0x40)\n      shl(0xe5, 0x461bcd)\n      dup2\n      mstore\n        /* \"#utility.yul\":6128:6130   */\n      0x20\n        /* \"AhadiEscrow.sol\":4593:4653  require(msg.sender == deal.seller, \"Only seller can refund\") */\n      0x04\n      dup3\n      add\n        /* \"#utility.yul\":6110:6131   */\n      mstore\n        /* \"#utility.yul\":6167:6169   */\n      0x16\n        /* \"#utility.yul\":6147:6165   */\n      0x24\n      dup3\n      add\n        /* \"#utility.yul\":6140:6170   */\n      mstore\n        /* \"#utility.yul\":6206:6230   */\n      0x4f6e6c792073656c6c65722063616e20726566756e6400000000000000000000\n        /* \"#utility.yul\":6186:6204   */\n      0x44\n      dup3\n      add\n        /* \"#utility.yul\":6179:6231   */\n      mstore\n        /* \"#utility.yul\":6248:6266   */\n      0x64\n      add\n        /* \"AhadiEscrow.sol\":4593:4653  require(msg.sender == deal.seller, \"Only seller can refund\") */\n      tag_134\n        /* \"#utility.yul\":5926:6272   */\n      jump\n        /* \"AhadiEscrow.sol\":4593:4653  require(msg.sender == deal.seller, \"Only seller can refund\") */\n    tag_160:\n        /* \"AhadiEscrow.sol\":4672:4688  deal.isCompleted */\n      0x04\n      dup2\n      add\n      sload\n      0xff\n      and\n        /* \"AhadiEscrow.sol\":4671:4688  !deal.isCompleted */\n      iszero\n        /* \"AhadiEscrow.sol\":4663:4704  require(!deal.isCompleted, \"Deal closed\") */\n      tag_163\n      jumpi\n      mload(0x40)\n      shl(0xe5, 0x461bcd)\n      dup2\n      mstore\n        /* \"#utility.yul\":6479:6481   */\n      0x20\n        /* \"AhadiEscrow.sol\":4663:4704  require(!deal.isCompleted, \"Deal closed\") */\n      0x04\n      dup3\n      add\n        /* \"#utility.yul\":6461:6482   */\n      mstore\n        /* \"#utility.yul\":6518:6520   */\n      0x0b\n        /* \"#utility.yul\":6498:6516   */\n      0x24\n      dup3\n      add\n        /* \"#utility.yul\":6491:6521   */\n      mstore\n      shl(0xaa, 0x1119585b0818db1bdcd959)\n        /* \"#utility.yul\":6537:6555   */\n      0x44\n      dup3\n      add\n        /* \"#utility.yul\":6530:6571   */\n      mstore\n        /* \"#utility.yul\":6588:6606   */\n      0x64\n      add\n        /* \"AhadiEscrow.sol\":4663:4704  require(!deal.isCompleted, \"Deal closed\") */\n      tag_134\n        /* \"#utility.yul\":6277:6612   */\n      jump\n        /* \"AhadiEscrow.sol\":4663:4704  require(!deal.isCompleted, \"Deal closed\") */\n    tag_163:\n        /* \"AhadiEscrow.sol\":4723:4738  deal.isDisputed */\n      0x04\n      dup2\n      add\n      sload\n      0x0100\n      swap1\n      div\n      0xff\n      and\n        /* \"AhadiEscrow.sol\":4722:4738  !deal.isDisputed */\n      iszero\n        /* \"AhadiEscrow.sol\":4714:4756  require(!deal.isDisputed, \"Deal disputed\") */\n      tag_166\n      jumpi\n      mload(0x40)\n      shl(0xe5, 0x461bcd)\n      dup2\n      mstore\n        /* \"#utility.yul\":6819:6821   */\n      0x20\n        /* \"AhadiEscrow.sol\":4714:4756  require(!deal.isDisputed, \"Deal disputed\") */\n      0x04\n      dup3\n      add\n        /* \"#utility.yul\":6801:6822   */\n      mstore\n        /* \"#utility.yul\":6858:6860   */\n      0x0d\n        /* \"#utility.yul\":6838:6856   */\n      0x24\n      dup3\n      add\n        /* \"#utility.yul\":6831:6861   */\n      mstore\n      shl(0x9a, 0x1119585b08191a5cdc1d5d1959)\n        /* \"#utility.yul\":6877:6895   */\n      0x44\n      dup3\n      add\n        /* \"#utility.yul\":6870:6913   */\n      mstore\n        /* \"#utility.yul\":6930:6948   */\n      0x64\n      add\n        /* \"AhadiEscrow.sol\":4714:4756  require(!deal.isDisputed, \"Deal disputed\") */\n      tag_134\n        /* \"#utility.yul\":6617:6954   */\n      jump\n        /* \"AhadiEscrow.sol\":4714:4756  require(!deal.isDisputed, \"Deal disputed\") */\n    tag_166:\n        /* \"AhadiEscrow.sol\":4784:4795  deal.amount */\n      0x03\n      dup2\n      add\n      sload\n        /* \"AhadiEscrow.sol\":4805:4821  deal.isCompleted */\n      0x04\n      dup3\n      add\n        /* \"AhadiEscrow.sol\":4805:4828  deal.isCompleted = true */\n      dup1\n      sload\n      not(0xff)\n      and\n        /* \"AhadiEscrow.sol\":4824:4828  true */\n      0x01\n        /* \"AhadiEscrow.sol\":4805:4828  deal.isCompleted = true */\n      or\n      swap1\n      sstore\n        /* \"AhadiEscrow.sol\":4838:4854  totalLockedFunds */\n      0x06\n        /* \"AhadiEscrow.sol\":4838:4864  totalLockedFunds -= amount */\n      dup1\n      sload\n        /* \"AhadiEscrow.sol\":4784:4795  deal.amount */\n      dup3\n      swap2\n        /* \"AhadiEscrow.sol\":4838:4854  totalLockedFunds */\n      swap1\n        /* \"AhadiEscrow.sol\":4767:4781  uint256 amount */\n      0x00\n      swap1\n        /* \"AhadiEscrow.sol\":4838:4864  totalLockedFunds -= amount */\n      tag_169\n      swap1\n        /* \"AhadiEscrow.sol\":4784:4795  deal.amount */\n      dup5\n      swap1\n        /* \"AhadiEscrow.sol\":4838:4864  totalLockedFunds -= amount */\n      tag_148\n      jump\t// in\n    tag_169:\n      swap1\n      swap2\n      sstore\n      pop\n      pop\n        /* \"AhadiEscrow.sol\":4899:4909  deal.buyer */\n      0x01\n      dup3\n      add\n      sload\n        /* \"AhadiEscrow.sol\":4875:4885  stablecoin */\n      sload(0x04)\n        /* \"AhadiEscrow.sol\":4875:4918  stablecoin.safeTransfer(deal.buyer, amount) */\n      tag_170\n      swap2\n      sub(shl(0xa0, 0x01), 0x01)\n        /* \"AhadiEscrow.sol\":4875:4885  stablecoin */\n      swap2\n      dup3\n      and\n      swap2\n        /* \"AhadiEscrow.sol\":4899:4909  deal.buyer */\n      and\n        /* \"AhadiEscrow.sol\":4911:4917  amount */\n      dup4\n        /* \"AhadiEscrow.sol\":4875:4898  stablecoin.safeTransfer */\n      tag_150\n        /* \"AhadiEscrow.sol\":4875:4918  stablecoin.safeTransfer(deal.buyer, amount) */\n      jump\t// in\n    tag_170:\n        /* \"AhadiEscrow.sol\":4951:4961  deal.buyer */\n      0x01\n      dup3\n      add\n      sload\n        /* \"AhadiEscrow.sol\":4933:4970  Refunded(_dealId, deal.buyer, amount) */\n      mload(0x40)\n        /* \"#utility.yul\":1588:1613   */\n      dup3\n      dup2\n      mstore\n      sub(shl(0xa0, 0x01), 0x01)\n        /* \"AhadiEscrow.sol\":4951:4961  deal.buyer */\n      swap1\n      swap2\n      and\n      swap1\n        /* \"AhadiEscrow.sol\":4942:4949  _dealId */\n      dup6\n      swap1\n        /* \"AhadiEscrow.sol\":4933:4970  Refunded(_dealId, deal.buyer, amount) */\n      0x7ca5472b7ea78c2c0141c5a12ee6d170cf4ce8ed06be3d22c8252ddfc7a6a2c4\n      swap1\n        /* \"#utility.yul\":1576:1578   */\n      0x20\n        /* \"#utility.yul\":1561:1579   */\n      add\n        /* \"AhadiEscrow.sol\":4933:4970  Refunded(_dealId, deal.buyer, amount) */\n      mload(0x40)\n      dup1\n      swap2\n      sub\n      swap1\n      log3\n        /* \"AhadiEscrow.sol\":4539:4977  {... */\n      pop\n      pop\n        /* \"@openzeppelin/contracts/security/ReentrancyGuard.sol\":2292:2293   */\n      pop\n        /* \"@openzeppelin/contracts/security/ReentrancyGuard.sol\":2303:2323   */\n      tag_172\n        /* \"@openzeppelin/contracts/security/ReentrancyGuard.sol\":1716:1717   */\n      0x01\n        /* \"@openzeppelin/contracts/security/ReentrancyGuard.sol\":2809:2816   */\n      0x00\n        /* \"@openzeppelin/contracts/security/ReentrancyGuard.sol\":2809:2831   */\n      sstore\n        /* \"@openzeppelin/contracts/security/ReentrancyGuard.sol\":2629:2838   */\n      jump\n        /* \"@openzeppelin/contracts/security/ReentrancyGuard.sol\":2303:2323   */\n    tag_172:\n        /* \"AhadiEscrow.sol\":4444:4977  function refundBuyer(... */\n      pop\n      jump\t// out\n        /* \"AhadiEscrow.sol\":7803:7868  function unpause() external onlyOwner {... */\n    tag_54:\n        /* \"@openzeppelin/contracts/access/Ownable.sol\":1094:1107   */\n      tag_174\n        /* \"@openzeppelin/contracts/access/Ownable.sol\":1094:1105   */\n      tag_128\n        /* \"@openzeppelin/contracts/access/Ownable.sol\":1094:1107   */\n      jump\t// in\n    tag_174:\n        /* \"AhadiEscrow.sol\":7851:7861  _unpause() */\n      tag_176\n        /* \"AhadiEscrow.sol\":7851:7859  _unpause */\n      tag_177\n        /* \"AhadiEscrow.sol\":7851:7861  _unpause() */\n      jump\t// in\n    tag_176:\n        /* \"AhadiEscrow.sol\":7803:7868  function unpause() external onlyOwner {... */\n      jump\t// out\n        /* \"AhadiEscrow.sol\":3882:4438  function releaseFunds(... */\n    tag_57:\n        /* \"@openzeppelin/contracts/security/ReentrancyGuard.sol\":2261:2282   */\n      tag_179\n        /* \"@openzeppelin/contracts/security/ReentrancyGuard.sol\":2261:2280   */\n      tag_131\n        /* \"@openzeppelin/contracts/security/ReentrancyGuard.sol\":2261:2282   */\n      jump\t// in\n    tag_179:\n        /* \"AhadiEscrow.sol\":2376:2377  0 */\n      0x00\n        /* \"AhadiEscrow.sol\":2344:2358  deals[_dealId] */\n      dup2\n      dup2\n      mstore\n        /* \"AhadiEscrow.sol\":2344:2349  deals */\n      0x07\n        /* \"AhadiEscrow.sol\":2344:2358  deals[_dealId] */\n      0x20\n      mstore\n      0x40\n      swap1\n      keccak256\n        /* \"AhadiEscrow.sol\":2344:2364  deals[_dealId].buyer */\n      0x01\n      add\n      sload\n        /* \"AhadiEscrow.sol\":3969:3976  _dealId */\n      dup2\n      swap1\n      sub(shl(0xa0, 0x01), 0x01)\n        /* \"AhadiEscrow.sol\":2344:2364  deals[_dealId].buyer */\n      and\n        /* \"AhadiEscrow.sol\":2336:2402  require(deals[_dealId].buyer != address(0), \"Deal does not exist\") */\n      tag_181\n      jumpi\n      mload(0x40)\n      shl(0xe5, 0x461bcd)\n      dup2\n      mstore\n        /* \"#utility.yul\":4497:4499   */\n      0x20\n        /* \"AhadiEscrow.sol\":2336:2402  require(deals[_dealId].buyer != address(0), \"Deal does not exist\") */\n      0x04\n      dup3\n      add\n        /* \"#utility.yul\":4479:4500   */\n      mstore\n        /* \"#utility.yul\":4536:4538   */\n      0x13\n        /* \"#utility.yul\":4516:4534   */\n      0x24\n      dup3\n      add\n        /* \"#utility.yul\":4509:4539   */\n      mstore\n      shl(0x6a, 0x1119585b08191bd95cc81b9bdd08195e1a5cdd)\n        /* \"#utility.yul\":4555:4573   */\n      0x44\n      dup3\n      add\n        /* \"#utility.yul\":4548:4597   */\n      mstore\n        /* \"#utility.yul\":4614:4632   */\n      0x64\n      add\n        /* \"AhadiEscrow.sol\":2336:2402  require(deals[_dealId].buyer != address(0), \"Deal does not exist\") */\n      tag_134\n        /* \"#utility.yul\":4295:4638   */\n      jump\n        /* \"AhadiEscrow.sol\":2336:2402  require(deals[_dealId].buyer != address(0), \"Deal does not exist\") */\n    tag_181:\n        /* \"AhadiEscrow.sol\":3988:4005  Deal storage deal */\n      0x00\n        /* \"AhadiEscrow.sol\":4008:4022  deals[_dealId] */\n      dup3\n      dup2\n      mstore\n        /* \"AhadiEscrow.sol\":4008:4013  deals */\n      0x07\n        /* \"AhadiEscrow.sol\":4008:4022  deals[_dealId] */\n      0x20\n      mstore\n      0x40\n      swap1\n      keccak256\n        /* \"AhadiEscrow.sol\":4054:4064  deal.buyer */\n      0x01\n      dup2\n      add\n      sload\n      sub(shl(0xa0, 0x01), 0x01)\n      and\n        /* \"AhadiEscrow.sol\":4040:4050  msg.sender */\n      caller\n        /* \"AhadiEscrow.sol\":4040:4064  msg.sender == deal.buyer */\n      eq\n        /* \"AhadiEscrow.sol\":4032:4091  require(msg.sender == deal.buyer, \"Only buyer can release\") */\n      tag_184\n      jumpi\n      mload(0x40)\n      shl(0xe5, 0x461bcd)\n      dup2\n      mstore\n        /* \"#utility.yul\":7161:7163   */\n      0x20\n        /* \"AhadiEscrow.sol\":4032:4091  require(msg.sender == deal.buyer, \"Only buyer can release\") */\n      0x04\n      dup3\n      add\n        /* \"#utility.yul\":7143:7164   */\n      mstore\n        /* \"#utility.yul\":7200:7202   */\n      0x16\n        /* \"#utility.yul\":7180:7198   */\n      0x24\n      dup3\n      add\n        /* \"#utility.yul\":7173:7203   */\n      mstore\n        /* \"#utility.yul\":7239:7263   */\n      0x4f6e6c792062757965722063616e2072656c6561736500000000000000000000\n        /* \"#utility.yul\":7219:7237   */\n      0x44\n      dup3\n      add\n        /* \"#utility.yul\":7212:7264   */\n      mstore\n        /* \"#utility.yul\":7281:7299   */\n      0x64\n      add\n        /* \"AhadiEscrow.sol\":4032:4091  require(msg.sender == deal.buyer, \"Only buyer can release\") */\n      tag_134\n        /* \"#utility.yul\":6959:7305   */\n      jump\n        /* \"AhadiEscrow.sol\":4032:4091  require(msg.sender == deal.buyer, \"Only buyer can release\") */\n    tag_184:\n        /* \"AhadiEscrow.sol\":4110:4126  deal.isCompleted */\n      0x04\n      dup2\n      add\n      sload\n      0xff\n      and\n        /* \"AhadiEscrow.sol\":4109:4126  !deal.isCompleted */\n      iszero\n        /* \"AhadiEscrow.sol\":4101:4142  require(!deal.isCompleted, \"Deal closed\") */\n      tag_187\n      jumpi\n      mload(0x40)\n      shl(0xe5, 0x461bcd)\n      dup2\n      mstore\n        /* \"#utility.yul\":6479:6481   */\n      0x20\n        /* \"AhadiEscrow.sol\":4101:4142  require(!deal.isCompleted, \"Deal closed\") */\n      0x04\n      dup3\n      add\n        /* \"#utility.yul\":6461:6482   */\n      mstore\n        /* \"#utility.yul\":6518:6520   */\n      0x0b\n        /* \"#utility.yul\":6498:6516   */\n      0x24\n      dup3\n      add\n        /* \"#utility.yul\":6491:6521   */\n      mstore\n      shl(0xaa, 0x1119585b0818db1bdcd959)\n        /* \"#utility.yul\":6537:6555   */\n      0x44\n      dup3\n      add\n        /* \"#utility.yul\":6530:6571   */\n      mstore\n        /* \"#utility.yul\":6588:6606   */\n      0x64\n      add\n        /* \"AhadiEscrow.sol\":4101:4142  require(!deal.isCompleted, \"Deal closed\") */\n      tag_134\n        /* \"#utility.yul\":6277:6612   */\n      jump\n        /* \"AhadiEscrow.sol\":4101:4142  require(!deal.isCompleted, \"Deal closed\") */\n    tag_187:\n        /* \"AhadiEscrow.sol\":4161:4176  deal.isDisputed */\n      0x04\n      dup2\n      add\n      sload\n      0x0100\n      swap1\n      div\n      0xff\n      and\n        /* \"AhadiEscrow.sol\":4160:4176  !deal.isDisputed */\n      iszero\n        /* \"AhadiEscrow.sol\":4152:4194  require(!deal.isDisputed, \"Deal disputed\") */\n      tag_189\n      jumpi\n      mload(0x40)\n      shl(0xe5, 0x461bcd)\n      dup2\n      mstore\n        /* \"#utility.yul\":6819:6821   */\n      0x20\n        /* \"AhadiEscrow.sol\":4152:4194  require(!deal.isDisputed, \"Deal disputed\") */\n      0x04\n      dup3\n      add\n        /* \"#utility.yul\":6801:6822   */\n      mstore\n        /* \"#utility.yul\":6858:6860   */\n      0x0d\n        /* \"#utility.yul\":6838:6856   */\n      0x24\n      dup3\n      add\n        /* \"#utility.yul\":6831:6861   */\n      mstore\n      shl(0x9a, 0x1119585b08191a5cdc1d5d1959)\n        /* \"#utility.yul\":6877:6895   */\n      0x44\n      dup3\n      add\n        /* \"#utility.yul\":6870:6913   */\n      mstore\n        /* \"#utility.yul\":6930:6948   */\n      0x64\n      add\n        /* \"AhadiEscrow.sol\":4152:4194  require(!deal.isDisputed, \"Deal disputed\") */\n      tag_134\n        /* \"#utility.yul\":6617:6954   */\n      jump\n        /* \"AhadiEscrow.sol\":4152:4194  require(!deal.isDisputed, \"Deal disputed\") */\n    tag_189:\n        /* \"AhadiEscrow.sol\":4222:4233  deal.amount */\n      0x03\n      dup2\n      add\n      sload\n        /* \"AhadiEscrow.sol\":4243:4259  deal.isCompleted */\n      0x04\n      dup3\n      add\n        /* \"AhadiEscrow.sol\":4243:4266  deal.isCompleted = true */\n      dup1\n      sload\n      not(0xff)\n      and\n        /* \"AhadiEscrow.sol\":4262:4266  true */\n      0x01\n        /* \"AhadiEscrow.sol\":4243:4266  deal.isCompleted = true */\n      or\n      swap1\n      sstore\n        /* \"AhadiEscrow.sol\":4276:4292  totalLockedFunds */\n      0x06\n        /* \"AhadiEscrow.sol\":4276:4302  totalLockedFunds -= amount */\n      dup1\n      sload\n        /* \"AhadiEscrow.sol\":4222:4233  deal.amount */\n      dup3\n      swap2\n        /* \"AhadiEscrow.sol\":4276:4292  totalLockedFunds */\n      swap1\n        /* \"AhadiEscrow.sol\":4205:4219  uint256 amount */\n      0x00\n      swap1\n        /* \"AhadiEscrow.sol\":4276:4302  totalLockedFunds -= amount */\n      tag_191\n      swap1\n        /* \"AhadiEscrow.sol\":4222:4233  deal.amount */\n      dup5\n      swap1\n        /* \"AhadiEscrow.sol\":4276:4302  totalLockedFunds -= amount */\n      tag_148\n      jump\t// in\n    tag_191:\n      swap1\n      swap2\n      sstore\n      pop\n      pop\n        /* \"AhadiEscrow.sol\":4353:4364  deal.seller */\n      0x02\n      dup3\n      add\n      sload\n        /* \"AhadiEscrow.sol\":4314:4328  uint256 payout */\n      0x00\n      swap1\n      dup2\n      swap1\n        /* \"AhadiEscrow.sol\":4345:4373  _payout(deal.seller, amount) */\n      tag_192\n      swap1\n      sub(shl(0xa0, 0x01), 0x01)\n        /* \"AhadiEscrow.sol\":4353:4364  deal.seller */\n      and\n        /* \"AhadiEscrow.sol\":4366:4372  amount */\n      dup5\n        /* \"AhadiEscrow.sol\":4345:4352  _payout */\n      tag_193\n        /* \"AhadiEscrow.sol\":4345:4373  _payout(deal.seller, amount) */\n      jump\t// in\n    tag_192:\n        /* \"AhadiEscrow.sol\":4406:4417  deal.seller */\n      0x02\n      dup7\n      add\n      sload\n        /* \"AhadiEscrow.sol\":4388:4431  Released(_dealId, deal.seller, payout, fee) */\n      0x40\n      dup1\n      mload\n        /* \"#utility.yul\":7484:7509   */\n      dup5\n      dup2\n      mstore\n        /* \"#utility.yul\":7540:7542   */\n      0x20\n        /* \"#utility.yul\":7525:7543   */\n      dup2\n      add\n        /* \"#utility.yul\":7518:7552   */\n      dup5\n      swap1\n      mstore\n        /* \"AhadiEscrow.sol\":4313:4373  (uint256 payout, uint256 fee) = _payout(deal.seller, amount) */\n      swap4\n      swap6\n      pop\n      swap2\n      swap4\n      pop\n      sub(shl(0xa0, 0x01), 0x01)\n        /* \"AhadiEscrow.sol\":4406:4417  deal.seller */\n      and\n      swap2\n        /* \"AhadiEscrow.sol\":4397:4404  _dealId */\n      dup9\n      swap2\n        /* \"AhadiEscrow.sol\":4388:4431  Released(_dealId, deal.seller, payout, fee) */\n      0xf86dbbaae73a38eba376327ec68def0678d91d952b4a18aa86d880f199632bd9\n      swap2\n        /* \"#utility.yul\":7457:7475   */\n      add\n        /* \"AhadiEscrow.sol\":4388:4431  Released(_dealId, deal.seller, payout, fee) */\n      mload(0x40)\n      dup1\n      swap2\n      sub\n      swap1\n      log3\n        /* \"AhadiEscrow.sol\":3978:4438  {... */\n      pop\n      pop\n      pop\n      pop\n        /* \"@openzeppelin/contracts/security/ReentrancyGuard.sol\":2292:2293   */\n      pop\n        /* \"@openzeppelin/contracts/security/ReentrancyGuard.sol\":2303:2323   */\n      tag_172\n        /* \"@openzeppelin/contracts/security/ReentrancyGuard.sol\":1716:1717   */\n      0x01\n        /* \"@openzeppelin/contracts/security/ReentrancyGuard.sol\":2809:2816   */\n      0x00\n        /* \"@openzeppelin/contracts/security/ReentrancyGuard.sol\":2809:2831   */\n      sstore\n        /* \"@openzeppelin/contracts/security/ReentrancyGuard.sol\":2629:2838   */\n      jump\n        /* \"AhadiEscrow.sol\":6838:7045  function updateFeeWallet(address _newWallet) external onlyOwner {... */\n    tag_68:\n        /* \"@openzeppelin/contracts/access/Ownable.sol\":1094:1107   */\n      tag_199\n        /* \"@openzeppelin/contracts/access/Ownable.sol\":1094:1105   */\n      tag_128\n        /* \"@openzeppelin/contracts/access/Ownable.sol\":1094:1107   */\n      jump\t// in\n    tag_199:\n      sub(shl(0xa0, 0x01), 0x01)\n        /* \"AhadiEscrow.sol\":6920:6944  _newWallet != address(0) */\n      dup2\n      and\n        /* \"AhadiEscrow.sol\":6912:6963  require(_newWallet != address(0), \"Invalid wallet\") */\n      tag_201\n      jumpi\n      mload(0x40)\n      shl(0xe5, 0x461bcd)\n      dup2\n      mstore\n        /* \"#utility.yul\":7765:7767   */\n      0x20\n        /* \"AhadiEscrow.sol\":6912:6963  require(_newWallet != address(0), \"Invalid wallet\") */\n      0x04\n      dup3\n      add\n        /* \"#utility.yul\":7747:7768   */\n      mstore\n        /* \"#utility.yul\":7804:7806   */\n      0x0e\n        /* \"#utility.yul\":7784:7802   */\n      0x24\n      dup3\n      add\n        /* \"#utility.yul\":7777:7807   */\n      mstore\n        /* \"#utility.yul\":7843:7859   */\n      0x496e76616c69642077616c6c6574000000000000000000000000000000000000\n        /* \"#utility.yul\":7823:7841   */\n      0x44\n      dup3\n      add\n        /* \"#utility.yul\":7816:7860   */\n      mstore\n        /* \"#utility.yul\":7877:7895   */\n      0x64\n      add\n        /* \"AhadiEscrow.sol\":6912:6963  require(_newWallet != address(0), \"Invalid wallet\") */\n      tag_134\n        /* \"#utility.yul\":7563:7901   */\n      jump\n        /* \"AhadiEscrow.sol\":6912:6963  require(_newWallet != address(0), \"Invalid wallet\") */\n    tag_201:\n        /* \"AhadiEscrow.sol\":6973:6982  feeWallet */\n      0x03\n        /* \"AhadiEscrow.sol\":6973:6995  feeWallet = _newWallet */\n      dup1\n      sload\n      not(0xffffffffffffffffffffffffffffffffffffffff)\n      and\n      sub(shl(0xa0, 0x01), 0x01)\n      dup4\n      and\n      swap1\n      dup2\n      or\n      swap1\n      swap2\n      sstore\n        /* \"AhadiEscrow.sol\":7010:7038  FeeWalletUpdated(_newWallet) */\n      mload(0x40)\n      0x29acee77dafcfa0143d74a7ea236018f3a6e1fa71e27fc59bbfbc6b8ca8edccd\n      swap1\n      0x00\n      swap1\n      log2\n        /* \"AhadiEscrow.sol\":6838:7045  function updateFeeWallet(address _newWallet) external onlyOwner {... */\n      pop\n      jump\t// out\n        /* \"@openzeppelin/contracts/access/Ownable.sol\":1824:1925   */\n    tag_70:\n        /* \"@openzeppelin/contracts/access/Ownable.sol\":1094:1107   */\n      tag_205\n        /* \"@openzeppelin/contracts/access/Ownable.sol\":1094:1105   */\n      tag_128\n        /* \"@openzeppelin/contracts/access/Ownable.sol\":1094:1107   */\n      jump\t// in\n    tag_205:\n        /* \"@openzeppelin/contracts/access/Ownable.sol\":1888:1918   */\n      tag_176\n        /* \"@openzeppelin/contracts/access/Ownable.sol\":1915:1916   */\n      0x00\n        /* \"@openzeppelin/contracts/access/Ownable.sol\":1888:1906   */\n      tag_208\n        /* \"@openzeppelin/contracts/access/Ownable.sol\":1888:1918   */\n      jump\t// in\n        /* \"AhadiEscrow.sol\":7736:7797  function pause() external onlyOwner {... */\n    tag_77:\n        /* \"@openzeppelin/contracts/access/Ownable.sol\":1094:1107   */\n      tag_213\n        /* \"@openzeppelin/contracts/access/Ownable.sol\":1094:1105   */\n      tag_128\n        /* \"@openzeppelin/contracts/access/Ownable.sol\":1094:1107   */\n      jump\t// in\n    tag_213:\n        /* \"AhadiEscrow.sol\":7782:7790  _pause() */\n      tag_176\n        /* \"AhadiEscrow.sol\":7782:7788  _pause */\n      tag_216\n        /* \"AhadiEscrow.sol\":7782:7790  _pause() */\n      jump\t// in\n        /* \"AhadiEscrow.sol\":6652:6832  function updateFee(uint256 _newFee) external onlyOwner {... */\n    tag_84:\n        /* \"@openzeppelin/contracts/access/Ownable.sol\":1094:1107   */\n      tag_219\n        /* \"@openzeppelin/contracts/access/Ownable.sol\":1094:1105   */\n      tag_128\n        /* \"@openzeppelin/contracts/access/Ownable.sol\":1094:1107   */\n      jump\t// in\n    tag_219:\n        /* \"AhadiEscrow.sol\":768:772  1000 */\n      0x03e8\n        /* \"AhadiEscrow.sol\":6725:6732  _newFee */\n      dup2\n        /* \"AhadiEscrow.sol\":6725:6743  _newFee <= MAX_FEE */\n      gt\n      iszero\n        /* \"AhadiEscrow.sol\":6717:6757  require(_newFee <= MAX_FEE, \"Fee > 10%\") */\n      tag_221\n      jumpi\n      mload(0x40)\n      shl(0xe5, 0x461bcd)\n      dup2\n      mstore\n        /* \"#utility.yul\":8108:8110   */\n      0x20\n        /* \"AhadiEscrow.sol\":6717:6757  require(_newFee <= MAX_FEE, \"Fee > 10%\") */\n      0x04\n      dup3\n      add\n        /* \"#utility.yul\":8090:8111   */\n      mstore\n        /* \"#utility.yul\":8147:8148   */\n      0x09\n        /* \"#utility.yul\":8127:8145   */\n      0x24\n      dup3\n      add\n        /* \"#utility.yul\":8120:8149   */\n      mstore\n        /* \"#utility.yul\":8185:8196   */\n      0x466565203e203130250000000000000000000000000000000000000000000000\n        /* \"#utility.yul\":8165:8183   */\n      0x44\n      dup3\n      add\n        /* \"#utility.yul\":8158:8197   */\n      mstore\n        /* \"#utility.yul\":8214:8232   */\n      0x64\n      add\n        /* \"AhadiEscrow.sol\":6717:6757  require(_newFee <= MAX_FEE, \"Fee > 10%\") */\n      tag_134\n        /* \"#utility.yul\":7906:8238   */\n      jump\n        /* \"AhadiEscrow.sol\":6717:6757  require(_newFee <= MAX_FEE, \"Fee > 10%\") */\n    tag_221:\n        /* \"AhadiEscrow.sol\":6767:6781  feeBasisPoints */\n      0x02\n        /* \"AhadiEscrow.sol\":6767:6791  feeBasisPoints = _newFee */\n      dup2\n      swap1\n      sstore\n        /* \"AhadiEscrow.sol\":6806:6825  FeeUpdated(_newFee) */\n      mload(0x40)\n        /* \"#utility.yul\":1588:1613   */\n      dup2\n      dup2\n      mstore\n        /* \"AhadiEscrow.sol\":6806:6825  FeeUpdated(_newFee) */\n      0x8c4d35e54a3f2ef1134138fd8ea3daee6a3c89e10d2665996babdf70261e2c76\n      swap1\n        /* \"#utility.yul\":1576:1578   */\n      0x20\n        /* \"#utility.yul\":1561:1579   */\n      add\n        /* \"AhadiEscrow.sol\":6806:6825  FeeUpdated(_newFee) */\n      mload(0x40)\n      dup1\n      swap2\n      sub\n      swap1\n      log1\n        /* \"AhadiEscrow.sol\":6652:6832  function updateFee(uint256 _newFee) external onlyOwner {... */\n      pop\n      jump\t// out\n        /* \"AhadiEscrow.sol\":5532:5962  function raiseDispute(uint256 _dealId) external isValidDeal(_dealId) {... */\n    tag_87:\n        /* \"AhadiEscrow.sol\":2376:2377  0 */\n      0x00\n        /* \"AhadiEscrow.sol\":2344:2358  deals[_dealId] */\n      dup2\n      dup2\n      mstore\n        /* \"AhadiEscrow.sol\":2344:2349  deals */\n      0x07\n        /* \"AhadiEscrow.sol\":2344:2358  deals[_dealId] */\n      0x20\n      mstore\n      0x40\n      swap1\n      keccak256\n        /* \"AhadiEscrow.sol\":2344:2364  deals[_dealId].buyer */\n      0x01\n      add\n      sload\n        /* \"AhadiEscrow.sol\":5592:5599  _dealId */\n      dup2\n      swap1\n      sub(shl(0xa0, 0x01), 0x01)\n        /* \"AhadiEscrow.sol\":2344:2364  deals[_dealId].buyer */\n      and\n        /* \"AhadiEscrow.sol\":2336:2402  require(deals[_dealId].buyer != address(0), \"Deal does not exist\") */\n      tag_226\n      jumpi\n      mload(0x40)\n      shl(0xe5, 0x461bcd)\n      dup2\n      mstore\n        /* \"#utility.yul\":4497:4499   */\n      0x20\n        /* \"AhadiEscrow.sol\":2336:2402  require(deals[_dealId].buyer != address(0), \"Deal does not exist\") */\n      0x04\n      dup3\n      add\n        /* \"#utility.yul\":4479:4500   */\n      mstore\n        /* \"#utility.yul\":4536:4538   */\n      0x13\n        /* \"#utility.yul\":4516:4534   */\n      0x24\n      dup3\n      add\n        /* \"#utility.yul\":4509:4539   */\n      mstore\n      shl(0x6a, 0x1119585b08191bd95cc81b9bdd08195e1a5cdd)\n        /* \"#utility.yul\":4555:4573   */\n      0x44\n      dup3\n      add\n        /* \"#utility.yul\":4548:4597   */\n      mstore\n        /* \"#utility.yul\":4614:4632   */\n      0x64\n      add\n        /* \"AhadiEscrow.sol\":2336:2402  require(deals[_dealId].buyer != address(0), \"Deal does not exist\") */\n      tag_134\n        /* \"#utility.yul\":4295:4638   */\n      jump\n        /* \"AhadiEscrow.sol\":2336:2402  require(deals[_dealId].buyer != address(0), \"Deal does not exist\") */\n    tag_226:\n        /* \"AhadiEscrow.sol\":5611:5628  Deal storage deal */\n      0x00\n        /* \"AhadiEscrow.sol\":5631:5645  deals[_dealId] */\n      dup3\n      dup2\n      mstore\n        /* \"AhadiEscrow.sol\":5631:5636  deals */\n      0x07\n        /* \"AhadiEscrow.sol\":5631:5645  deals[_dealId] */\n      0x20\n      mstore\n      0x40\n      swap1\n      keccak256\n        /* \"AhadiEscrow.sol\":5690:5700  deal.buyer */\n      0x01\n      dup2\n      add\n      sload\n      sub(shl(0xa0, 0x01), 0x01)\n      and\n        /* \"AhadiEscrow.sol\":5676:5686  msg.sender */\n      caller\n        /* \"AhadiEscrow.sol\":5676:5700  msg.sender == deal.buyer */\n      eq\n      dup1\n        /* \"AhadiEscrow.sol\":5676:5729  msg.sender == deal.buyer || msg.sender == deal.seller */\n      tag_229\n      jumpi\n      pop\n        /* \"AhadiEscrow.sol\":5718:5729  deal.seller */\n      0x02\n      dup2\n      add\n      sload\n      sub(shl(0xa0, 0x01), 0x01)\n      and\n        /* \"AhadiEscrow.sol\":5704:5714  msg.sender */\n      caller\n        /* \"AhadiEscrow.sol\":5704:5729  msg.sender == deal.seller */\n      eq\n        /* \"AhadiEscrow.sol\":5676:5729  msg.sender == deal.buyer || msg.sender == deal.seller */\n    tag_229:\n        /* \"AhadiEscrow.sol\":5655:5767  require(... */\n      tag_230\n      jumpi\n      mload(0x40)\n      shl(0xe5, 0x461bcd)\n      dup2\n      mstore\n        /* \"#utility.yul\":8445:8447   */\n      0x20\n        /* \"AhadiEscrow.sol\":5655:5767  require(... */\n      0x04\n      dup3\n      add\n        /* \"#utility.yul\":8427:8448   */\n      mstore\n        /* \"#utility.yul\":8484:8486   */\n      0x0c\n        /* \"#utility.yul\":8464:8482   */\n      0x24\n      dup3\n      add\n        /* \"#utility.yul\":8457:8487   */\n      mstore\n        /* \"#utility.yul\":8523:8537   */\n      0x4e6f7420696e766f6c7665640000000000000000000000000000000000000000\n        /* \"#utility.yul\":8503:8521   */\n      0x44\n      dup3\n      add\n        /* \"#utility.yul\":8496:8538   */\n      mstore\n        /* \"#utility.yul\":8555:8573   */\n      0x64\n      add\n        /* \"AhadiEscrow.sol\":5655:5767  require(... */\n      tag_134\n        /* \"#utility.yul\":8243:8579   */\n      jump\n        /* \"AhadiEscrow.sol\":5655:5767  require(... */\n    tag_230:\n        /* \"AhadiEscrow.sol\":5786:5802  deal.isCompleted */\n      0x04\n      dup2\n      add\n      sload\n      0xff\n      and\n        /* \"AhadiEscrow.sol\":5785:5802  !deal.isCompleted */\n      iszero\n        /* \"AhadiEscrow.sol\":5777:5818  require(!deal.isCompleted, \"Deal closed\") */\n      tag_233\n      jumpi\n      mload(0x40)\n      shl(0xe5, 0x461bcd)\n      dup2\n      mstore\n        /* \"#utility.yul\":6479:6481   */\n      0x20\n        /* \"AhadiEscrow.sol\":5777:5818  require(!deal.isCompleted, \"Deal closed\") */\n      0x04\n      dup3\n      add\n        /* \"#utility.yul\":6461:6482   */\n      mstore\n        /* \"#utility.yul\":6518:6520   */\n      0x0b\n        /* \"#utility.yul\":6498:6516   */\n      0x24\n      dup3\n      add\n        /* \"#utility.yul\":6491:6521   */\n      mstore\n      shl(0xaa, 0x1119585b0818db1bdcd959)\n        /* \"#utility.yul\":6537:6555   */\n      0x44\n      dup3\n      add\n        /* \"#utility.yul\":6530:6571   */\n      mstore\n        /* \"#utility.yul\":6588:6606   */\n      0x64\n      add\n        /* \"AhadiEscrow.sol\":5777:5818  require(!deal.isCompleted, \"Deal closed\") */\n      tag_134\n        /* \"#utility.yul\":6277:6612   */\n      jump\n        /* \"AhadiEscrow.sol\":5777:5818  require(!deal.isCompleted, \"Deal closed\") */\n    tag_233:\n        /* \"AhadiEscrow.sol\":5837:5852  deal.isDisputed */\n      0x04\n      dup2\n      add\n      sload\n      0x0100\n      swap1\n      div\n      0xff\n      and\n        /* \"AhadiEscrow.sol\":5836:5852  !deal.isDisputed */\n      iszero\n        /* \"AhadiEscrow.sol\":5828:5873  require(!deal.isDisputed, \"Already disputed\") */\n      tag_235\n      jumpi\n      mload(0x40)\n      shl(0xe5, 0x461bcd)\n      dup2\n      mstore\n        /* \"#utility.yul\":8786:8788   */\n      0x20\n        /* \"AhadiEscrow.sol\":5828:5873  require(!deal.isDisputed, \"Already disputed\") */\n      0x04\n      dup3\n      add\n        /* \"#utility.yul\":8768:8789   */\n      mstore\n        /* \"#utility.yul\":8825:8827   */\n      0x10\n        /* \"#utility.yul\":8805:8823   */\n      0x24\n      dup3\n      add\n        /* \"#utility.yul\":8798:8828   */\n      mstore\n        /* \"#utility.yul\":8864:8882   */\n      0x416c726561647920646973707574656400000000000000000000000000000000\n        /* \"#utility.yul\":8844:8862   */\n      0x44\n      dup3\n      add\n        /* \"#utility.yul\":8837:8883   */\n      mstore\n        /* \"#utility.yul\":8900:8918   */\n      0x64\n      add\n        /* \"AhadiEscrow.sol\":5828:5873  require(!deal.isDisputed, \"Already disputed\") */\n      tag_134\n        /* \"#utility.yul\":8584:8924   */\n      jump\n        /* \"AhadiEscrow.sol\":5828:5873  require(!deal.isDisputed, \"Already disputed\") */\n    tag_235:\n        /* \"AhadiEscrow.sol\":5884:5899  deal.isDisputed */\n      0x04\n      dup2\n      add\n        /* \"AhadiEscrow.sol\":5884:5906  deal.isDisputed = true */\n      dup1\n      sload\n      not(0xff00)\n      and\n      0x0100\n      or\n      swap1\n      sstore\n        /* \"AhadiEscrow.sol\":5921:5955  DisputeRaised(_dealId, msg.sender) */\n      mload(0x40)\n        /* \"AhadiEscrow.sol\":5944:5954  msg.sender */\n      caller\n      swap1\n        /* \"AhadiEscrow.sol\":5935:5942  _dealId */\n      dup5\n      swap1\n        /* \"AhadiEscrow.sol\":5921:5955  DisputeRaised(_dealId, msg.sender) */\n      0x84a477df8a28a4276ca6dee4458a06c3015f30c477d9c949ede4e13ff8a552b4\n      swap1\n        /* \"AhadiEscrow.sol\":5884:5906  deal.isDisputed = true */\n      0x00\n      swap1\n        /* \"AhadiEscrow.sol\":5921:5955  DisputeRaised(_dealId, msg.sender) */\n      log3\n        /* \"AhadiEscrow.sol\":5601:5962  {... */\n      pop\n        /* \"AhadiEscrow.sol\":5532:5962  function raiseDispute(uint256 _dealId) external isValidDeal(_dealId) {... */\n      pop\n      pop\n      jump\t// out\n        /* \"AhadiEscrow.sol\":2749:3876  function createDeal(... */\n    tag_91:\n        /* \"AhadiEscrow.sol\":2903:2917  uint256 dealId */\n      0x00\n        /* \"@openzeppelin/contracts/security/ReentrancyGuard.sol\":2261:2282   */\n      tag_239\n        /* \"@openzeppelin/contracts/security/ReentrancyGuard.sol\":2261:2280   */\n      tag_131\n        /* \"@openzeppelin/contracts/security/ReentrancyGuard.sol\":2261:2282   */\n      jump\t// in\n    tag_239:\n        /* \"@openzeppelin/contracts/security/Pausable.sol\":1239:1258   */\n      tag_241\n        /* \"@openzeppelin/contracts/security/Pausable.sol\":1239:1256   */\n      tag_242\n        /* \"@openzeppelin/contracts/security/Pausable.sol\":1239:1258   */\n      jump\t// in\n    tag_241:\n        /* \"AhadiEscrow.sol\":827:835  1_000000 */\n      0x0f4240\n        /* \"AhadiEscrow.sol\":2937:2944  _amount */\n      dup4\n        /* \"AhadiEscrow.sol\":2937:2963  _amount >= MIN_DEAL_AMOUNT */\n      lt\n      iszero\n        /* \"AhadiEscrow.sol\":2929:2997  require(_amount >= MIN_DEAL_AMOUNT, \"Amount below minimum (1 USDT)\") */\n      tag_244\n      jumpi\n      mload(0x40)\n      shl(0xe5, 0x461bcd)\n      dup2\n      mstore\n        /* \"#utility.yul\":9131:9133   */\n      0x20\n        /* \"AhadiEscrow.sol\":2929:2997  require(_amount >= MIN_DEAL_AMOUNT, \"Amount below minimum (1 USDT)\") */\n      0x04\n      dup3\n      add\n        /* \"#utility.yul\":9113:9134   */\n      mstore\n        /* \"#utility.yul\":9170:9172   */\n      0x1d\n        /* \"#utility.yul\":9150:9168   */\n      0x24\n      dup3\n      add\n        /* \"#utility.yul\":9143:9173   */\n      mstore\n        /* \"#utility.yul\":9209:9240   */\n      0x416d6f756e742062656c6f77206d696e696d756d202831205553445429000000\n        /* \"#utility.yul\":9189:9207   */\n      0x44\n      dup3\n      add\n        /* \"#utility.yul\":9182:9241   */\n      mstore\n        /* \"#utility.yul\":9258:9276   */\n      0x64\n      add\n        /* \"AhadiEscrow.sol\":2929:2997  require(_amount >= MIN_DEAL_AMOUNT, \"Amount below minimum (1 USDT)\") */\n      tag_134\n        /* \"#utility.yul\":8929:9282   */\n      jump\n        /* \"AhadiEscrow.sol\":2929:2997  require(_amount >= MIN_DEAL_AMOUNT, \"Amount below minimum (1 USDT)\") */\n    tag_244:\n        /* \"AhadiEscrow.sol\":3026:3036  msg.sender */\n      caller\n      sub(shl(0xa0, 0x01), 0x01)\n        /* \"AhadiEscrow.sol\":3015:3036  _seller != msg.sender */\n      dup6\n      and\n      sub\n        /* \"AhadiEscrow.sol\":3007:3062  require(_seller != msg.sender, \"Cannot deal with self\") */\n      tag_247\n      jumpi\n      mload(0x40)\n      shl(0xe5, 0x461bcd)\n      dup2\n      mstore\n        /* \"#utility.yul\":9489:9491   */\n      0x20\n        /* \"AhadiEscrow.sol\":3007:3062  require(_seller != msg.sender, \"Cannot deal with self\") */\n      0x04\n      dup3\n      add\n        /* \"#utility.yul\":9471:9492   */\n      mstore\n        /* \"#utility.yul\":9528:9530   */\n      0x15\n        /* \"#utility.yul\":9508:9526   */\n      0x24\n      dup3\n      add\n        /* \"#utility.yul\":9501:9531   */\n      mstore\n        /* \"#utility.yul\":9567:9590   */\n      0x43616e6e6f74206465616c20776974682073656c660000000000000000000000\n        /* \"#utility.yul\":9547:9565   */\n      0x44\n      dup3\n      add\n        /* \"#utility.yul\":9540:9591   */\n      mstore\n        /* \"#utility.yul\":9608:9626   */\n      0x64\n      add\n        /* \"AhadiEscrow.sol\":3007:3062  require(_seller != msg.sender, \"Cannot deal with self\") */\n      tag_134\n        /* \"#utility.yul\":9287:9632   */\n      jump\n        /* \"AhadiEscrow.sol\":3007:3062  require(_seller != msg.sender, \"Cannot deal with self\") */\n    tag_247:\n      sub(shl(0xa0, 0x01), 0x01)\n        /* \"AhadiEscrow.sol\":3080:3101  _seller != address(0) */\n      dup5\n      and\n        /* \"AhadiEscrow.sol\":3072:3128  require(_seller != address(0), \"Invalid seller address\") */\n      tag_250\n      jumpi\n      mload(0x40)\n      shl(0xe5, 0x461bcd)\n      dup2\n      mstore\n        /* \"#utility.yul\":9839:9841   */\n      0x20\n        /* \"AhadiEscrow.sol\":3072:3128  require(_seller != address(0), \"Invalid seller address\") */\n      0x04\n      dup3\n      add\n        /* \"#utility.yul\":9821:9842   */\n      mstore\n        /* \"#utility.yul\":9878:9880   */\n      0x16\n        /* \"#utility.yul\":9858:9876   */\n      0x24\n      dup3\n      add\n        /* \"#utility.yul\":9851:9881   */\n      mstore\n        /* \"#utility.yul\":9917:9941   */\n      0x496e76616c69642073656c6c6572206164647265737300000000000000000000\n        /* \"#utility.yul\":9897:9915   */\n      0x44\n      dup3\n      add\n        /* \"#utility.yul\":9890:9942   */\n      mstore\n        /* \"#utility.yul\":9959:9977   */\n      0x64\n      add\n        /* \"AhadiEscrow.sol\":3072:3128  require(_seller != address(0), \"Invalid seller address\") */\n      tag_134\n        /* \"#utility.yul\":9637:9983   */\n      jump\n        /* \"AhadiEscrow.sol\":3072:3128  require(_seller != address(0), \"Invalid seller address\") */\n    tag_250:\n        /* \"AhadiEscrow.sol\":669:676  1 hours */\n      0x0e10\n        /* \"AhadiEscrow.sol\":3146:3161  _timeoutSeconds */\n      dup3\n        /* \"AhadiEscrow.sol\":3146:3176  _timeoutSeconds >= MIN_TIMEOUT */\n      lt\n      iszero\n        /* \"AhadiEscrow.sol\":3138:3198  require(_timeoutSeconds >= MIN_TIMEOUT, \"Timeout too short\") */\n      tag_253\n      jumpi\n      mload(0x40)\n      shl(0xe5, 0x461bcd)\n      dup2\n      mstore\n        /* \"#utility.yul\":10190:10192   */\n      0x20\n        /* \"AhadiEscrow.sol\":3138:3198  require(_timeoutSeconds >= MIN_TIMEOUT, \"Timeout too short\") */\n      0x04\n      dup3\n      add\n        /* \"#utility.yul\":10172:10193   */\n      mstore\n        /* \"#utility.yul\":10229:10231   */\n      0x11\n        /* \"#utility.yul\":10209:10227   */\n      0x24\n      dup3\n      add\n        /* \"#utility.yul\":10202:10232   */\n      mstore\n        /* \"#utility.yul\":10268:10287   */\n      0x54696d656f757420746f6f2073686f7274000000000000000000000000000000\n        /* \"#utility.yul\":10248:10266   */\n      0x44\n      dup3\n      add\n        /* \"#utility.yul\":10241:10288   */\n      mstore\n        /* \"#utility.yul\":10305:10323   */\n      0x64\n      add\n        /* \"AhadiEscrow.sol\":3138:3198  require(_timeoutSeconds >= MIN_TIMEOUT, \"Timeout too short\") */\n      tag_134\n        /* \"#utility.yul\":9988:10329   */\n      jump\n        /* \"AhadiEscrow.sol\":3138:3198  require(_timeoutSeconds >= MIN_TIMEOUT, \"Timeout too short\") */\n    tag_253:\n        /* \"AhadiEscrow.sol\":720:728  365 days */\n      0x01e13380\n        /* \"AhadiEscrow.sol\":3216:3231  _timeoutSeconds */\n      dup3\n        /* \"AhadiEscrow.sol\":3216:3246  _timeoutSeconds <= MAX_TIMEOUT */\n      gt\n      iszero\n        /* \"AhadiEscrow.sol\":3208:3267  require(_timeoutSeconds <= MAX_TIMEOUT, \"Timeout too long\") */\n      tag_256\n      jumpi\n      mload(0x40)\n      shl(0xe5, 0x461bcd)\n      dup2\n      mstore\n        /* \"#utility.yul\":10536:10538   */\n      0x20\n        /* \"AhadiEscrow.sol\":3208:3267  require(_timeoutSeconds <= MAX_TIMEOUT, \"Timeout too long\") */\n      0x04\n      dup3\n      add\n        /* \"#utility.yul\":10518:10539   */\n      mstore\n        /* \"#utility.yul\":10575:10577   */\n      0x10\n        /* \"#utility.yul\":10555:10573   */\n      0x24\n      dup3\n      add\n        /* \"#utility.yul\":10548:10578   */\n      mstore\n        /* \"#utility.yul\":10614:10632   */\n      0x54696d656f757420746f6f206c6f6e6700000000000000000000000000000000\n        /* \"#utility.yul\":10594:10612   */\n      0x44\n      dup3\n      add\n        /* \"#utility.yul\":10587:10633   */\n      mstore\n        /* \"#utility.yul\":10650:10668   */\n      0x64\n      add\n        /* \"AhadiEscrow.sol\":3208:3267  require(_timeoutSeconds <= MAX_TIMEOUT, \"Timeout too long\") */\n      tag_134\n        /* \"#utility.yul\":10334:10674   */\n      jump\n        /* \"AhadiEscrow.sol\":3208:3267  require(_timeoutSeconds <= MAX_TIMEOUT, \"Timeout too long\") */\n    tag_256:\n        /* \"AhadiEscrow.sol\":3278:3292  _currentDealId */\n      0x05\n        /* \"AhadiEscrow.sol\":3278:3294  _currentDealId++ */\n      dup1\n      sload\n      swap1\n        /* \"AhadiEscrow.sol\":3278:3292  _currentDealId */\n      0x00\n        /* \"AhadiEscrow.sol\":3278:3294  _currentDealId++ */\n      tag_259\n      dup4\n      tag_260\n      jump\t// in\n    tag_259:\n      swap1\n      swap2\n      sstore\n      pop\n      pop\n        /* \"AhadiEscrow.sol\":3313:3327  _currentDealId */\n      sload(0x05)\n      swap1\n      pop\n        /* \"AhadiEscrow.sol\":3337:3351  uint256 expiry */\n      0x00\n        /* \"AhadiEscrow.sol\":3354:3387  block.timestamp + _timeoutSeconds */\n      tag_261\n        /* \"AhadiEscrow.sol\":3372:3387  _timeoutSeconds */\n      dup4\n        /* \"AhadiEscrow.sol\":3354:3369  block.timestamp */\n      timestamp\n        /* \"AhadiEscrow.sol\":3354:3387  block.timestamp + _timeoutSeconds */\n      tag_262\n      jump\t// in\n    tag_261:\n        /* \"AhadiEscrow.sol\":3398:3408  stablecoin */\n      sload(0x04)\n        /* \"AhadiEscrow.sol\":3337:3387  uint256 expiry = block.timestamp + _timeoutSeconds */\n      swap1\n      swap2\n      pop\n        /* \"AhadiEscrow.sol\":3398:3461  stablecoin.safeTransferFrom(msg.sender, address(this), _amount) */\n      tag_263\n      swap1\n      sub(shl(0xa0, 0x01), 0x01)\n        /* \"AhadiEscrow.sol\":3398:3408  stablecoin */\n      and\n        /* \"AhadiEscrow.sol\":3426:3436  msg.sender */\n      caller\n        /* \"AhadiEscrow.sol\":3446:3450  this */\n      address\n        /* \"AhadiEscrow.sol\":3453:3460  _amount */\n      dup8\n        /* \"AhadiEscrow.sol\":3398:3425  stablecoin.safeTransferFrom */\n      tag_264\n        /* \"AhadiEscrow.sol\":3398:3461  stablecoin.safeTransferFrom(msg.sender, address(this), _amount) */\n      jump\t// in\n    tag_263:\n        /* \"AhadiEscrow.sol\":3488:3752  Deal({... */\n      0x40\n      dup1\n      mload\n      0x0100\n      dup1\n      dup3\n      add\n      dup4\n      mstore\n      dup5\n      dup3\n      mstore\n        /* \"AhadiEscrow.sol\":3538:3548  msg.sender */\n      caller\n        /* \"AhadiEscrow.sol\":3488:3752  Deal({... */\n      0x20\n      dup1\n      dup5\n      add\n      swap2\n      dup3\n      mstore\n      sub(shl(0xa0, 0x01), 0x01)\n      dup11\n      dup2\n      and\n      dup6\n      dup8\n      add\n      swap1\n      dup2\n      mstore\n      0x60\n      dup7\n      add\n      dup12\n      dup2\n      mstore\n      0x00\n      0x80\n      dup9\n      add\n      dup2\n      dup2\n      mstore\n      0xa0\n      dup10\n      add\n      dup3\n      dup2\n      mstore\n        /* \"AhadiEscrow.sol\":3694:3709  block.timestamp */\n      timestamp\n        /* \"AhadiEscrow.sol\":3488:3752  Deal({... */\n      0xc0\n      dup12\n      add\n      swap1\n      dup2\n      mstore\n      0xe0\n      dup12\n      add\n      dup14\n      dup2\n      mstore\n        /* \"AhadiEscrow.sol\":3472:3485  deals[dealId] */\n      dup15\n      dup6\n      mstore\n        /* \"AhadiEscrow.sol\":3472:3477  deals */\n      0x07\n        /* \"AhadiEscrow.sol\":3472:3485  deals[dealId] */\n      swap1\n      swap9\n      mstore\n      swap11\n      dup4\n      keccak256\n        /* \"AhadiEscrow.sol\":3472:3752  deals[dealId] = Deal({... */\n      swap10\n      mload\n      dup11\n      sstore\n      swap7\n      mload\n        /* \"AhadiEscrow.sol\":3488:3752  Deal({... */\n      0x01\n        /* \"AhadiEscrow.sol\":3472:3752  deals[dealId] = Deal({... */\n      dup11\n      add\n      dup1\n      sload\n      swap2\n      dup8\n      and\n      not(0xffffffffffffffffffffffffffffffffffffffff)\n      swap3\n      dup4\n      and\n      or\n      swap1\n      sstore\n      swap4\n      mload\n      0x02\n      dup11\n      add\n      dup1\n      sload\n      swap2\n      swap1\n      swap7\n      and\n      swap5\n      and\n      swap4\n      swap1\n      swap4\n      or\n      swap1\n      swap4\n      sstore\n      mload\n      0x03\n      dup8\n      add\n      sstore\n      mload\n      0x04\n      dup7\n      add\n      dup1\n      sload\n      swap5\n      mload\n      iszero\n      iszero\n      swap1\n      swap6\n      mul\n      not(0xff00)\n      swap2\n      iszero\n      iszero\n      swap2\n      swap1\n      swap2\n      and\n      not(0xffff)\n      swap1\n      swap5\n      and\n      swap4\n      swap1\n      swap4\n      or\n      swap3\n      swap1\n      swap3\n      or\n      swap1\n      swap3\n      sstore\n      swap3\n      mload\n      0x05\n      dup4\n      add\n      sstore\n      mload\n      0x06\n      swap2\n      dup3\n      add\n      sstore\n        /* \"AhadiEscrow.sol\":3763:3790  totalLockedFunds += _amount */\n      dup1\n      sload\n        /* \"AhadiEscrow.sol\":3599:3606  _amount */\n      dup7\n      swap3\n      swap1\n        /* \"AhadiEscrow.sol\":3763:3790  totalLockedFunds += _amount */\n      tag_265\n      swap1\n        /* \"AhadiEscrow.sol\":3599:3606  _amount */\n      dup5\n      swap1\n        /* \"AhadiEscrow.sol\":3763:3790  totalLockedFunds += _amount */\n      tag_262\n      jump\t// in\n    tag_265:\n      swap1\n      swap2\n      sstore\n      pop\n      pop\n        /* \"AhadiEscrow.sol\":3805:3869  Deposited(dealId, msg.sender, _seller, _amount, _timeoutSeconds) */\n      0x40\n      dup1\n      mload\n        /* \"#utility.yul\":7484:7509   */\n      dup6\n      dup2\n      mstore\n        /* \"#utility.yul\":7540:7542   */\n      0x20\n        /* \"#utility.yul\":7525:7543   */\n      dup2\n      add\n        /* \"#utility.yul\":7518:7552   */\n      dup6\n      swap1\n      mstore\n      sub(shl(0xa0, 0x01), 0x01)\n        /* \"AhadiEscrow.sol\":3805:3869  Deposited(dealId, msg.sender, _seller, _amount, _timeoutSeconds) */\n      dup8\n      and\n      swap2\n        /* \"AhadiEscrow.sol\":3823:3833  msg.sender */\n      caller\n      swap2\n        /* \"AhadiEscrow.sol\":3815:3821  dealId */\n      dup6\n      swap2\n        /* \"AhadiEscrow.sol\":3805:3869  Deposited(dealId, msg.sender, _seller, _amount, _timeoutSeconds) */\n      0xefd7bb4f992963087670aa168590baee24d227ff5c18ae3790ef7ec22bde6274\n      swap2\n        /* \"#utility.yul\":7457:7475   */\n      add\n        /* \"AhadiEscrow.sol\":3805:3869  Deposited(dealId, msg.sender, _seller, _amount, _timeoutSeconds) */\n      mload(0x40)\n      dup1\n      swap2\n      sub\n      swap1\n      log4\n        /* \"AhadiEscrow.sol\":2919:3876  {... */\n      pop\n        /* \"@openzeppelin/contracts/security/ReentrancyGuard.sol\":2303:2323   */\n      tag_267\n        /* \"@openzeppelin/contracts/security/ReentrancyGuard.sol\":1716:1717   */\n      0x01\n        /* \"@openzeppelin/contracts/security/ReentrancyGuard.sol\":2809:2816   */\n      0x00\n        /* \"@openzeppelin/contracts/security/ReentrancyGuard.sol\":2809:2831   */\n      sstore\n        /* \"@openzeppelin/contracts/security/ReentrancyGuard.sol\":2629:2838   */\n      jump\n        /* \"@openzeppelin/contracts/security/ReentrancyGuard.sol\":2303:2323   */\n    tag_267:\n        /* \"AhadiEscrow.sol\":2749:3876  function createDeal(... */\n      swap4\n      swap3\n      pop\n      pop\n      pop\n      jump\t// out\n        /* \"AhadiEscrow.sol\":7051:7730  function recoverExcessTokens(... */\n    tag_105:\n        /* \"@openzeppelin/contracts/access/Ownable.sol\":1094:1107   */\n      tag_269\n        /* \"@openzeppelin/contracts/access/Ownable.sol\":1094:1105   */\n      tag_128\n        /* \"@openzeppelin/contracts/access/Ownable.sol\":1094:1107   */\n      jump\t// in\n    tag_269:\n        /* \"@openzeppelin/contracts/security/ReentrancyGuard.sol\":2261:2282   */\n      tag_271\n        /* \"@openzeppelin/contracts/security/ReentrancyGuard.sol\":2261:2280   */\n      tag_131\n        /* \"@openzeppelin/contracts/security/ReentrancyGuard.sol\":2261:2282   */\n      jump\t// in\n    tag_271:\n      sub(shl(0xa0, 0x01), 0x01)\n        /* \"AhadiEscrow.sol\":7181:7198  _to != address(0) */\n      dup2\n      and\n        /* \"AhadiEscrow.sol\":7173:7220  require(_to != address(0), \"Invalid recipient\") */\n      tag_273\n      jumpi\n      mload(0x40)\n      shl(0xe5, 0x461bcd)\n      dup2\n      mstore\n        /* \"#utility.yul\":11151:11153   */\n      0x20\n        /* \"AhadiEscrow.sol\":7173:7220  require(_to != address(0), \"Invalid recipient\") */\n      0x04\n      dup3\n      add\n        /* \"#utility.yul\":11133:11154   */\n      mstore\n        /* \"#utility.yul\":11190:11192   */\n      0x11\n        /* \"#utility.yul\":11170:11188   */\n      0x24\n      dup3\n      add\n        /* \"#utility.yul\":11163:11193   */\n      mstore\n        /* \"#utility.yul\":11229:11248   */\n      0x496e76616c696420726563697069656e74000000000000000000000000000000\n        /* \"#utility.yul\":11209:11227   */\n      0x44\n      dup3\n      add\n        /* \"#utility.yul\":11202:11249   */\n      mstore\n        /* \"#utility.yul\":11266:11284   */\n      0x64\n      add\n        /* \"AhadiEscrow.sol\":7173:7220  require(_to != address(0), \"Invalid recipient\") */\n      tag_134\n        /* \"#utility.yul\":10949:11290   */\n      jump\n        /* \"AhadiEscrow.sol\":7173:7220  require(_to != address(0), \"Invalid recipient\") */\n    tag_273:\n        /* \"AhadiEscrow.sol\":7287:7317  token.balanceOf(address(this)) */\n      mload(0x40)\n      shl(0xe0, 0x70a08231)\n      dup2\n      mstore\n        /* \"AhadiEscrow.sol\":7311:7315  this */\n      address\n        /* \"AhadiEscrow.sol\":7287:7317  token.balanceOf(address(this)) */\n      0x04\n      dup3\n      add\n        /* \"#utility.yul\":2976:3050   */\n      mstore\n        /* \"AhadiEscrow.sol\":7252:7258  _token */\n      dup3\n      swap1\n        /* \"AhadiEscrow.sol\":7230:7242  IERC20 token */\n      0x00\n      swap1\n      sub(shl(0xa0, 0x01), 0x01)\n        /* \"AhadiEscrow.sol\":7287:7302  token.balanceOf */\n      dup4\n      and\n      swap1\n      0x70a08231\n      swap1\n        /* \"#utility.yul\":2949:2967   */\n      0x24\n      add\n        /* \"AhadiEscrow.sol\":7287:7317  token.balanceOf(address(this)) */\n      0x20\n      mload(0x40)\n      dup1\n      dup4\n      sub\n      dup2\n      dup7\n      gas\n      staticcall\n      iszero\n      dup1\n      iszero\n      tag_278\n      jumpi\n      returndatasize\n      0x00\n      dup1\n      returndatacopy\n      revert(0x00, returndatasize)\n    tag_278:\n      pop\n      pop\n      pop\n      pop\n      mload(0x40)\n      returndatasize\n      not(0x1f)\n      0x1f\n      dup3\n      add\n      and\n      dup3\n      add\n      dup1\n      0x40\n      mstore\n      pop\n      dup2\n      add\n      swap1\n      tag_279\n      swap2\n      swap1\n      tag_280\n      jump\t// in\n    tag_279:\n        /* \"AhadiEscrow.sol\":7350:7360  stablecoin */\n      sload(0x04)\n        /* \"AhadiEscrow.sol\":7269:7317  uint256 balance = token.balanceOf(address(this)) */\n      swap1\n      swap2\n      pop\n      sub(shl(0xa0, 0x01), 0x01)\n        /* \"AhadiEscrow.sol\":7350:7360  stablecoin */\n      swap1\n      dup2\n      and\n        /* \"AhadiEscrow.sol\":7332:7361  _token == address(stablecoin) */\n      swap1\n      dup6\n      and\n      sub\n        /* \"AhadiEscrow.sol\":7328:7724  if (_token == address(stablecoin)) {... */\n      tag_281\n      jumpi\n        /* \"AhadiEscrow.sol\":7395:7411  totalLockedFunds */\n      sload(0x06)\n        /* \"AhadiEscrow.sol\":7385:7392  balance */\n      dup2\n        /* \"AhadiEscrow.sol\":7385:7411  balance > totalLockedFunds */\n      gt\n        /* \"AhadiEscrow.sol\":7377:7425  require(balance > totalLockedFunds, \"No excess\") */\n      tag_282\n      jumpi\n      mload(0x40)\n      shl(0xe5, 0x461bcd)\n      dup2\n      mstore\n        /* \"#utility.yul\":11686:11688   */\n      0x20\n        /* \"AhadiEscrow.sol\":7377:7425  require(balance > totalLockedFunds, \"No excess\") */\n      0x04\n      dup3\n      add\n        /* \"#utility.yul\":11668:11689   */\n      mstore\n        /* \"#utility.yul\":11725:11726   */\n      0x09\n        /* \"#utility.yul\":11705:11723   */\n      0x24\n      dup3\n      add\n        /* \"#utility.yul\":11698:11727   */\n      mstore\n        /* \"#utility.yul\":11763:11774   */\n      0x4e6f206578636573730000000000000000000000000000000000000000000000\n        /* \"#utility.yul\":11743:11761   */\n      0x44\n      dup3\n      add\n        /* \"#utility.yul\":11736:11775   */\n      mstore\n        /* \"#utility.yul\":11792:11810   */\n      0x64\n      add\n        /* \"AhadiEscrow.sol\":7377:7425  require(balance > totalLockedFunds, \"No excess\") */\n      tag_134\n        /* \"#utility.yul\":11484:11816   */\n      jump\n        /* \"AhadiEscrow.sol\":7377:7425  require(balance > totalLockedFunds, \"No excess\") */\n    tag_282:\n        /* \"AhadiEscrow.sol\":7439:7453  uint256 excess */\n      0x00\n        /* \"AhadiEscrow.sol\":7466:7482  totalLockedFunds */\n      sload(0x06)\n        /* \"AhadiEscrow.sol\":7456:7463  balance */\n      dup3\n        /* \"AhadiEscrow.sol\":7456:7482  balance - totalLockedFunds */\n      tag_285\n      swap2\n      swap1\n      tag_148\n      jump\t// in\n    tag_285:\n        /* \"AhadiEscrow.sol\":7439:7482  uint256 excess = balance - totalLockedFunds */\n      swap1\n      pop\n        /* \"AhadiEscrow.sol\":7496:7527  token.safeTransfer(_to, excess) */\n      tag_286\n      sub(shl(0xa0, 0x01), 0x01)\n        /* \"AhadiEscrow.sol\":7496:7514  token.safeTransfer */\n      dup5\n      and\n        /* \"AhadiEscrow.sol\":7515:7518  _to */\n      dup6\n        /* \"AhadiEscrow.sol\":7439:7482  uint256 excess = balance - totalLockedFunds */\n      dup4\n        /* \"AhadiEscrow.sol\":7496:7514  token.safeTransfer */\n      tag_150\n        /* \"AhadiEscrow.sol\":7496:7527  token.safeTransfer(_to, excess) */\n      jump\t// in\n    tag_286:\n        /* \"AhadiEscrow.sol\":7576:7579  _to */\n      dup4\n      sub(shl(0xa0, 0x01), 0x01)\n        /* \"AhadiEscrow.sol\":7546:7588  ExcessTokensRecovered(_token, _to, excess) */\n      and\n        /* \"AhadiEscrow.sol\":7568:7574  _token */\n      dup6\n      sub(shl(0xa0, 0x01), 0x01)\n        /* \"AhadiEscrow.sol\":7546:7588  ExcessTokensRecovered(_token, _to, excess) */\n      and\n      0x3f1ae5e59a88cdc56f419d6eee177af464afe1f10ceee0b87092af8f06fa6782\n        /* \"AhadiEscrow.sol\":7581:7587  excess */\n      dup4\n        /* \"AhadiEscrow.sol\":7546:7588  ExcessTokensRecovered(_token, _to, excess) */\n      mload(0x40)\n      tag_287\n      swap2\n        /* \"#utility.yul\":1588:1613   */\n      dup2\n      mstore\n        /* \"#utility.yul\":1576:1578   */\n      0x20\n        /* \"#utility.yul\":1561:1579   */\n      add\n      swap1\n        /* \"#utility.yul\":1442:1619   */\n      jump\n        /* \"AhadiEscrow.sol\":7546:7588  ExcessTokensRecovered(_token, _to, excess) */\n    tag_287:\n      mload(0x40)\n      dup1\n      swap2\n      sub\n      swap1\n      log3\n        /* \"AhadiEscrow.sol\":7363:7599  {... */\n      pop\n        /* \"AhadiEscrow.sol\":7328:7724  if (_token == address(stablecoin)) {... */\n      jump(tag_288)\n    tag_281:\n        /* \"AhadiEscrow.sol\":7619:7651  token.safeTransfer(_to, balance) */\n      tag_289\n      sub(shl(0xa0, 0x01), 0x01)\n        /* \"AhadiEscrow.sol\":7619:7637  token.safeTransfer */\n      dup4\n      and\n        /* \"AhadiEscrow.sol\":7638:7641  _to */\n      dup5\n        /* \"AhadiEscrow.sol\":7643:7650  balance */\n      dup4\n        /* \"AhadiEscrow.sol\":7619:7637  token.safeTransfer */\n      tag_150\n        /* \"AhadiEscrow.sol\":7619:7651  token.safeTransfer(_to, balance) */\n      jump\t// in\n    tag_289:\n        /* \"AhadiEscrow.sol\":7700:7703  _to */\n      dup3\n      sub(shl(0xa0, 0x01), 0x01)\n        /* \"AhadiEscrow.sol\":7670:7713  ExcessTokensRecovered(_token, _to, balance) */\n      and\n        /* \"AhadiEscrow.sol\":7692:7698  _token */\n      dup5\n      sub(shl(0xa0, 0x01), 0x01)\n        /* \"AhadiEscrow.sol\":7670:7713  ExcessTokensRecovered(_token, _to, balance) */\n      and\n      0x3f1ae5e59a88cdc56f419d6eee177af464afe1f10ceee0b87092af8f06fa6782\n        /* \"AhadiEscrow.sol\":7705:7712  balance */\n      dup4\n        /* \"AhadiEscrow.sol\":7670:7713  ExcessTokensRecovered(_token, _to, balance) */\n      mload(0x40)\n      tag_290\n      swap2\n        /* \"#utility.yul\":1588:1613   */\n      dup2\n      mstore\n        /* \"#utility.yul\":1576:1578   */\n      0x20\n        /* \"#utility.yul\":1561:1579   */\n      add\n      swap1\n        /* \"#utility.yul\":1442:1619   */\n      jump\n        /* \"AhadiEscrow.sol\":7670:7713  ExcessTokensRecovered(_token, _to, balance) */\n    tag_290:\n      mload(0x40)\n      dup1\n      swap2\n      sub\n      swap1\n      log3\n        /* \"AhadiEscrow.sol\":7328:7724  if (_token == address(stablecoin)) {... */\n    tag_288:\n        /* \"AhadiEscrow.sol\":7163:7730  {... */\n      pop\n      pop\n        /* \"@openzeppelin/contracts/security/ReentrancyGuard.sol\":2303:2323   */\n      tag_152\n        /* \"@openzeppelin/contracts/security/ReentrancyGuard.sol\":1716:1717   */\n      0x01\n        /* \"@openzeppelin/contracts/security/ReentrancyGuard.sol\":2809:2816   */\n      0x00\n        /* \"@openzeppelin/contracts/security/ReentrancyGuard.sol\":2809:2831   */\n      sstore\n        /* \"@openzeppelin/contracts/security/ReentrancyGuard.sol\":2629:2838   */\n      jump\n        /* \"AhadiEscrow.sol\":8019:8417  function getContractStats()... */\n    tag_110:\n        /* \"AhadiEscrow.sol\":8248:8262  _currentDealId */\n      sload(0x05)\n        /* \"AhadiEscrow.sol\":8281:8297  totalLockedFunds */\n      sload(0x06)\n        /* \"AhadiEscrow.sol\":8317:8327  stablecoin */\n      0x04\n      dup1\n      sload\n        /* \"AhadiEscrow.sol\":8317:8352  stablecoin.balanceOf(address(this)) */\n      mload(0x40)\n      shl(0xe0, 0x70a08231)\n      dup2\n      mstore\n        /* \"AhadiEscrow.sol\":8346:8350  this */\n      address\n        /* \"AhadiEscrow.sol\":8317:8352  stablecoin.balanceOf(address(this)) */\n      swap3\n      dup2\n      add\n        /* \"#utility.yul\":2976:3050   */\n      swap3\n      swap1\n      swap3\n      mstore\n        /* \"AhadiEscrow.sol\":8107:8125  uint256 totalDeals */\n      0x00\n      swap2\n      dup3\n      swap2\n      sub(shl(0xa0, 0x01), 0x01)\n        /* \"AhadiEscrow.sol\":8317:8327  stablecoin */\n      and\n      swap1\n        /* \"AhadiEscrow.sol\":8317:8337  stablecoin.balanceOf */\n      0x70a08231\n      swap1\n        /* \"#utility.yul\":2949:2967   */\n      0x24\n      add\n        /* \"AhadiEscrow.sol\":8317:8352  stablecoin.balanceOf(address(this)) */\n      0x20\n      mload(0x40)\n      dup1\n      dup4\n      sub\n      dup2\n      dup7\n      gas\n      staticcall\n      iszero\n      dup1\n      iszero\n      tag_295\n      jumpi\n      returndatasize\n      0x00\n      dup1\n      returndatacopy\n      revert(0x00, returndatasize)\n    tag_295:\n      pop\n      pop\n      pop\n      pop\n      mload(0x40)\n      returndatasize\n      not(0x1f)\n      0x1f\n      dup3\n      add\n      and\n      dup3\n      add\n      dup1\n      0x40\n      mstore\n      pop\n      dup2\n      add\n      swap1\n      tag_296\n      swap2\n      swap1\n      tag_280\n      jump\t// in\n    tag_296:\n        /* \"AhadiEscrow.sol\":8307:8352  balance = stablecoin.balanceOf(address(this)) */\n      swap2\n      pop\n        /* \"AhadiEscrow.sol\":8381:8387  locked */\n      dup3\n        /* \"AhadiEscrow.sol\":8371:8378  balance */\n      dup3\n        /* \"AhadiEscrow.sol\":8371:8387  balance > locked */\n      gt\n        /* \"AhadiEscrow.sol\":8371:8410  balance > locked ? balance - locked : 0 */\n      tag_297\n      jumpi\n        /* \"AhadiEscrow.sol\":8409:8410  0 */\n      0x00\n        /* \"AhadiEscrow.sol\":8371:8410  balance > locked ? balance - locked : 0 */\n      jump(tag_299)\n    tag_297:\n        /* \"AhadiEscrow.sol\":8390:8406  balance - locked */\n      tag_299\n        /* \"AhadiEscrow.sol\":8400:8406  locked */\n      dup4\n        /* \"AhadiEscrow.sol\":8390:8397  balance */\n      dup4\n        /* \"AhadiEscrow.sol\":8390:8406  balance - locked */\n      tag_148\n      jump\t// in\n    tag_299:\n        /* \"AhadiEscrow.sol\":8362:8410  excess = balance > locked ? balance - locked : 0 */\n      swap1\n      pop\n        /* \"AhadiEscrow.sol\":8019:8417  function getContractStats()... */\n      swap1\n      swap2\n      swap3\n      swap4\n      jump\t// out\n        /* \"@openzeppelin/contracts/access/Ownable.sol\":2074:2272   */\n    tag_122:\n        /* \"@openzeppelin/contracts/access/Ownable.sol\":1094:1107   */\n      tag_301\n        /* \"@openzeppelin/contracts/access/Ownable.sol\":1094:1105   */\n      tag_128\n        /* \"@openzeppelin/contracts/access/Ownable.sol\":1094:1107   */\n      jump\t// in\n    tag_301:\n      sub(shl(0xa0, 0x01), 0x01)\n        /* \"@openzeppelin/contracts/access/Ownable.sol\":2162:2184   */\n      dup2\n      and\n        /* \"@openzeppelin/contracts/access/Ownable.sol\":2154:2227   */\n      tag_303\n      jumpi\n      mload(0x40)\n      shl(0xe5, 0x461bcd)\n      dup2\n      mstore\n        /* \"#utility.yul\":12023:12025   */\n      0x20\n        /* \"@openzeppelin/contracts/access/Ownable.sol\":2154:2227   */\n      0x04\n      dup3\n      add\n        /* \"#utility.yul\":12005:12026   */\n      mstore\n        /* \"#utility.yul\":12062:12064   */\n      0x26\n        /* \"#utility.yul\":12042:12060   */\n      0x24\n      dup3\n      add\n        /* \"#utility.yul\":12035:12065   */\n      mstore\n        /* \"#utility.yul\":12101:12135   */\n      0x4f776e61626c653a206e6577206f776e657220697320746865207a65726f2061\n        /* \"#utility.yul\":12081:12099   */\n      0x44\n      dup3\n      add\n        /* \"#utility.yul\":12074:12136   */\n      mstore\n        /* \"#utility.yul\":12172:12180   */\n      0x6464726573730000000000000000000000000000000000000000000000000000\n        /* \"#utility.yul\":12152:12170   */\n      0x64\n      dup3\n      add\n        /* \"#utility.yul\":12145:12181   */\n      mstore\n        /* \"#utility.yul\":12198:12217   */\n      0x84\n      add\n        /* \"@openzeppelin/contracts/access/Ownable.sol\":2154:2227   */\n      tag_134\n        /* \"#utility.yul\":11821:12223   */\n      jump\n        /* \"@openzeppelin/contracts/access/Ownable.sol\":2154:2227   */\n    tag_303:\n        /* \"@openzeppelin/contracts/access/Ownable.sol\":2237:2265   */\n      tag_172\n        /* \"@openzeppelin/contracts/access/Ownable.sol\":2256:2264   */\n      dup2\n        /* \"@openzeppelin/contracts/access/Ownable.sol\":2237:2255   */\n      tag_208\n        /* \"@openzeppelin/contracts/access/Ownable.sol\":2237:2265   */\n      jump\t// in\n        /* \"AhadiEscrow.sol\":4983:5526  function refundTimedOutDeal(... */\n    tag_125:\n        /* \"@openzeppelin/contracts/security/ReentrancyGuard.sol\":2261:2282   */\n      tag_308\n        /* \"@openzeppelin/contracts/security/ReentrancyGuard.sol\":2261:2280   */\n      tag_131\n        /* \"@openzeppelin/contracts/security/ReentrancyGuard.sol\":2261:2282   */\n      jump\t// in\n    tag_308:\n        /* \"AhadiEscrow.sol\":2376:2377  0 */\n      0x00\n        /* \"AhadiEscrow.sol\":2344:2358  deals[_dealId] */\n      dup2\n      dup2\n      mstore\n        /* \"AhadiEscrow.sol\":2344:2349  deals */\n      0x07\n        /* \"AhadiEscrow.sol\":2344:2358  deals[_dealId] */\n      0x20\n      mstore\n      0x40\n      swap1\n      keccak256\n        /* \"AhadiEscrow.sol\":2344:2364  deals[_dealId].buyer */\n      0x01\n      add\n      sload\n        /* \"AhadiEscrow.sol\":5076:5083  _dealId */\n      dup2\n      swap1\n      sub(shl(0xa0, 0x01), 0x01)\n        /* \"AhadiEscrow.sol\":2344:2364  deals[_dealId].buyer */\n      and\n        /* \"AhadiEscrow.sol\":2336:2402  require(deals[_dealId].buyer != address(0), \"Deal does not exist\") */\n      tag_310\n      jumpi\n      mload(0x40)\n      shl(0xe5, 0x461bcd)\n      dup2\n      mstore\n        /* \"#utility.yul\":4497:4499   */\n      0x20\n        /* \"AhadiEscrow.sol\":2336:2402  require(deals[_dealId].buyer != address(0), \"Deal does not exist\") */\n      0x04\n      dup3\n      add\n        /* \"#utility.yul\":4479:4500   */\n      mstore\n        /* \"#utility.yul\":4536:4538   */\n      0x13\n        /* \"#utility.yul\":4516:4534   */\n      0x24\n      dup3\n      add\n        /* \"#utility.yul\":4509:4539   */\n      mstore\n      shl(0x6a, 0x1119585b08191bd95cc81b9bdd08195e1a5cdd)\n        /* \"#utility.yul\":4555:4573   */\n      0x44\n      dup3\n      add\n        /* \"#utility.yul\":4548:4597   */\n      mstore\n        /* \"#utility.yul\":4614:4632   */\n      0x64\n      add\n        /* \"AhadiEscrow.sol\":2336:2402  require(deals[_dealId].buyer != address(0), \"Deal does not exist\") */\n      tag_134\n        /* \"#utility.yul\":4295:4638   */\n      jump\n        /* \"AhadiEscrow.sol\":2336:2402  require(deals[_dealId].buyer != address(0), \"Deal does not exist\") */\n    tag_310:\n        /* \"AhadiEscrow.sol\":5095:5112  Deal storage deal */\n      0x00\n        /* \"AhadiEscrow.sol\":5115:5129  deals[_dealId] */\n      dup3\n      dup2\n      mstore\n        /* \"AhadiEscrow.sol\":5115:5120  deals */\n      0x07\n        /* \"AhadiEscrow.sol\":5115:5129  deals[_dealId] */\n      0x20\n      mstore\n      0x40\n      swap1\n      keccak256\n        /* \"AhadiEscrow.sol\":5148:5164  deal.isCompleted */\n      0x04\n      dup2\n      add\n      sload\n      0xff\n      and\n        /* \"AhadiEscrow.sol\":5147:5164  !deal.isCompleted */\n      iszero\n        /* \"AhadiEscrow.sol\":5139:5180  require(!deal.isCompleted, \"Deal closed\") */\n      tag_313\n      jumpi\n      mload(0x40)\n      shl(0xe5, 0x461bcd)\n      dup2\n      mstore\n        /* \"#utility.yul\":6479:6481   */\n      0x20\n        /* \"AhadiEscrow.sol\":5139:5180  require(!deal.isCompleted, \"Deal closed\") */\n      0x04\n      dup3\n      add\n        /* \"#utility.yul\":6461:6482   */\n      mstore\n        /* \"#utility.yul\":6518:6520   */\n      0x0b\n        /* \"#utility.yul\":6498:6516   */\n      0x24\n      dup3\n      add\n        /* \"#utility.yul\":6491:6521   */\n      mstore\n      shl(0xaa, 0x1119585b0818db1bdcd959)\n        /* \"#utility.yul\":6537:6555   */\n      0x44\n      dup3\n      add\n        /* \"#utility.yul\":6530:6571   */\n      mstore\n        /* \"#utility.yul\":6588:6606   */\n      0x64\n      add\n        /* \"AhadiEscrow.sol\":5139:5180  require(!deal.isCompleted, \"Deal closed\") */\n      tag_134\n        /* \"#utility.yul\":6277:6612   */\n      jump\n        /* \"AhadiEscrow.sol\":5139:5180  require(!deal.isCompleted, \"Deal closed\") */\n    tag_313:\n        /* \"AhadiEscrow.sol\":5199:5214  deal.isDisputed */\n      0x04\n      dup2\n      add\n      sload\n      0x0100\n      swap1\n      div\n      0xff\n      and\n        /* \"AhadiEscrow.sol\":5198:5214  !deal.isDisputed */\n      iszero\n        /* \"AhadiEscrow.sol\":5190:5232  require(!deal.isDisputed, \"Deal disputed\") */\n      tag_315\n      jumpi\n      mload(0x40)\n      shl(0xe5, 0x461bcd)\n      dup2\n      mstore\n        /* \"#utility.yul\":6819:6821   */\n      0x20\n        /* \"AhadiEscrow.sol\":5190:5232  require(!deal.isDisputed, \"Deal disputed\") */\n      0x04\n      dup3\n      add\n        /* \"#utility.yul\":6801:6822   */\n      mstore\n        /* \"#utility.yul\":6858:6860   */\n      0x0d\n        /* \"#utility.yul\":6838:6856   */\n      0x24\n      dup3\n      add\n        /* \"#utility.yul\":6831:6861   */\n      mstore\n      shl(0x9a, 0x1119585b08191a5cdc1d5d1959)\n        /* \"#utility.yul\":6877:6895   */\n      0x44\n      dup3\n      add\n        /* \"#utility.yul\":6870:6913   */\n      mstore\n        /* \"#utility.yul\":6930:6948   */\n      0x64\n      add\n        /* \"AhadiEscrow.sol\":5190:5232  require(!deal.isDisputed, \"Deal disputed\") */\n      tag_134\n        /* \"#utility.yul\":6617:6954   */\n      jump\n        /* \"AhadiEscrow.sol\":5190:5232  require(!deal.isDisputed, \"Deal disputed\") */\n    tag_315:\n        /* \"AhadiEscrow.sol\":5268:5272  deal */\n      dup1\n        /* \"AhadiEscrow.sol\":5268:5283  deal.expiryTime */\n      0x06\n      add\n      sload\n        /* \"AhadiEscrow.sol\":5250:5265  block.timestamp */\n      timestamp\n        /* \"AhadiEscrow.sol\":5250:5283  block.timestamp > deal.expiryTime */\n      gt\n        /* \"AhadiEscrow.sol\":5242:5305  require(block.timestamp > deal.expiryTime, \"Not timed out yet\") */\n      tag_166\n      jumpi\n      mload(0x40)\n      shl(0xe5, 0x461bcd)\n      dup2\n      mstore\n        /* \"#utility.yul\":12430:12432   */\n      0x20\n        /* \"AhadiEscrow.sol\":5242:5305  require(block.timestamp > deal.expiryTime, \"Not timed out yet\") */\n      0x04\n      dup3\n      add\n        /* \"#utility.yul\":12412:12433   */\n      mstore\n        /* \"#utility.yul\":12469:12471   */\n      0x11\n        /* \"#utility.yul\":12449:12467   */\n      0x24\n      dup3\n      add\n        /* \"#utility.yul\":12442:12472   */\n      mstore\n        /* \"#utility.yul\":12508:12527   */\n      0x4e6f742074696d6564206f757420796574000000000000000000000000000000\n        /* \"#utility.yul\":12488:12506   */\n      0x44\n      dup3\n      add\n        /* \"#utility.yul\":12481:12528   */\n      mstore\n        /* \"#utility.yul\":12545:12563   */\n      0x64\n      add\n        /* \"AhadiEscrow.sol\":5242:5305  require(block.timestamp > deal.expiryTime, \"Not timed out yet\") */\n      tag_134\n        /* \"#utility.yul\":12228:12569   */\n      jump\n        /* \"@openzeppelin/contracts/access/Ownable.sol\":1359:1489   */\n    tag_128:\n        /* \"@openzeppelin/contracts/access/Ownable.sol\":1273:1279   */\n      and(sub(shl(0xa0, 0x01), 0x01), sload(0x01))\n        /* \"@openzeppelin/contracts/utils/Context.sol\":734:744   */\n      caller\n        /* \"@openzeppelin/contracts/access/Ownable.sol\":1422:1445   */\n      eq\n        /* \"@openzeppelin/contracts/access/Ownable.sol\":1414:1482   */\n      tag_176\n      jumpi\n      mload(0x40)\n      shl(0xe5, 0x461bcd)\n      dup2\n      mstore\n        /* \"#utility.yul\":12776:12778   */\n      0x20\n        /* \"@openzeppelin/contracts/access/Ownable.sol\":1414:1482   */\n      0x04\n      dup3\n      add\n        /* \"#utility.yul\":12758:12779   */\n      dup2\n      swap1\n      mstore\n        /* \"#utility.yul\":12795:12813   */\n      0x24\n      dup3\n      add\n        /* \"#utility.yul\":12788:12818   */\n      mstore\n        /* \"#utility.yul\":12854:12888   */\n      0x4f776e61626c653a2063616c6c6572206973206e6f7420746865206f776e6572\n        /* \"#utility.yul\":12834:12852   */\n      0x44\n      dup3\n      add\n        /* \"#utility.yul\":12827:12889   */\n      mstore\n        /* \"#utility.yul\":12906:12924   */\n      0x64\n      add\n        /* \"@openzeppelin/contracts/access/Ownable.sol\":1414:1482   */\n      tag_134\n        /* \"#utility.yul\":12574:12930   */\n      jump\n        /* \"@openzeppelin/contracts/security/ReentrancyGuard.sol\":2336:2623   */\n    tag_131:\n        /* \"@openzeppelin/contracts/security/ReentrancyGuard.sol\":1759:1760   */\n      0x02\n        /* \"@openzeppelin/contracts/security/ReentrancyGuard.sol\":2468:2475   */\n      sload(0x00)\n        /* \"@openzeppelin/contracts/security/ReentrancyGuard.sol\":2468:2487   */\n      sub\n        /* \"@openzeppelin/contracts/security/ReentrancyGuard.sol\":2460:2523   */\n      tag_332\n      jumpi\n      mload(0x40)\n      shl(0xe5, 0x461bcd)\n      dup2\n      mstore\n        /* \"#utility.yul\":13137:13139   */\n      0x20\n        /* \"@openzeppelin/contracts/security/ReentrancyGuard.sol\":2460:2523   */\n      0x04\n      dup3\n      add\n        /* \"#utility.yul\":13119:13140   */\n      mstore\n        /* \"#utility.yul\":13176:13178   */\n      0x1f\n        /* \"#utility.yul\":13156:13174   */\n      0x24\n      dup3\n      add\n        /* \"#utility.yul\":13149:13179   */\n      mstore\n        /* \"#utility.yul\":13215:13248   */\n      0x5265656e7472616e637947756172643a207265656e7472616e742063616c6c00\n        /* \"#utility.yul\":13195:13213   */\n      0x44\n      dup3\n      add\n        /* \"#utility.yul\":13188:13249   */\n      mstore\n        /* \"#utility.yul\":13266:13284   */\n      0x64\n      add\n        /* \"@openzeppelin/contracts/security/ReentrancyGuard.sol\":2460:2523   */\n      tag_134\n        /* \"#utility.yul\":12935:13290   */\n      jump\n        /* \"@openzeppelin/contracts/security/ReentrancyGuard.sol\":2460:2523   */\n    tag_332:\n        /* \"@openzeppelin/contracts/security/ReentrancyGuard.sol\":1759:1760   */\n      0x02\n        /* \"@openzeppelin/contracts/security/ReentrancyGuard.sol\":2598:2605   */\n      0x00\n        /* \"@openzeppelin/contracts/security/ReentrancyGuard.sol\":2598:2616   */\n      sstore\n        /* \"@openzeppelin/contracts/security/ReentrancyGuard.sol\":2336:2623   */\n      jump\t// out\n        /* \"@openzeppelin/contracts/token/ERC20/utils/SafeERC20.sol\":941:1116   */\n    tag_150:\n        /* \"@openzeppelin/contracts/token/ERC20/utils/SafeERC20.sol\":1050:1108   */\n      mload(0x40)\n      sub(shl(0xa0, 0x01), 0x01)\n        /* \"#utility.yul\":13487:13542   */\n      dup4\n      and\n        /* \"@openzeppelin/contracts/token/ERC20/utils/SafeERC20.sol\":1050:1108   */\n      0x24\n      dup3\n      add\n        /* \"#utility.yul\":13469:13543   */\n      mstore\n        /* \"#utility.yul\":13559:13577   */\n      0x44\n      dup2\n      add\n        /* \"#utility.yul\":13552:13586   */\n      dup3\n      swap1\n      mstore\n        /* \"@openzeppelin/contracts/token/ERC20/utils/SafeERC20.sol\":1023:1109   */\n      tag_336\n      swap1\n        /* \"@openzeppelin/contracts/token/ERC20/utils/SafeERC20.sol\":1043:1048   */\n      dup5\n      swap1\n      shl(0xe0, 0xa9059cbb)\n        /* \"@openzeppelin/contracts/token/ERC20/utils/SafeERC20.sol\":1073:1096   */\n      swap1\n        /* \"#utility.yul\":13442:13460   */\n      0x64\n      add\n        /* \"@openzeppelin/contracts/token/ERC20/utils/SafeERC20.sol\":1050:1108   */\n    tag_337:\n      0x40\n      dup1\n      mload\n      not(0x1f)\n      dup2\n      dup5\n      sub\n      add\n      dup2\n      mstore\n      swap2\n      swap1\n      mstore\n      0x20\n      dup2\n      add\n      dup1\n      mload\n      0xffffffffffffffffffffffffffffffffffffffffffffffffffffffff\n      and\n      0xffffffff00000000000000000000000000000000000000000000000000000000\n      swap1\n      swap4\n      and\n      swap3\n      swap1\n      swap3\n      or\n      swap1\n      swap2\n      mstore\n        /* \"@openzeppelin/contracts/token/ERC20/utils/SafeERC20.sol\":1023:1042   */\n      tag_339\n        /* \"@openzeppelin/contracts/token/ERC20/utils/SafeERC20.sol\":1023:1109   */\n      jump\t// in\n    tag_336:\n        /* \"@openzeppelin/contracts/token/ERC20/utils/SafeERC20.sol\":941:1116   */\n      pop\n      pop\n      pop\n      jump\t// out\n        /* \"@openzeppelin/contracts/security/Pausable.sol\":2433:2550   */\n    tag_177:\n        /* \"@openzeppelin/contracts/security/Pausable.sol\":1486:1502   */\n      tag_342\n        /* \"@openzeppelin/contracts/security/Pausable.sol\":1486:1500   */\n      tag_343\n        /* \"@openzeppelin/contracts/security/Pausable.sol\":1486:1502   */\n      jump\t// in\n    tag_342:\n        /* \"@openzeppelin/contracts/security/Pausable.sol\":2491:2498   */\n      0x01\n        /* \"@openzeppelin/contracts/security/Pausable.sol\":2491:2506   */\n      dup1\n      sload\n      not(shl(0xa0, 0xff))\n      and\n      swap1\n      sstore\n        /* \"@openzeppelin/contracts/security/Pausable.sol\":2521:2543   */\n      0x5db9ee0a495bf2e6ff9c91a7834c1ba4fdd244a5e8aa4e537bd38aeae4b073aa\n        /* \"@openzeppelin/contracts/utils/Context.sol\":734:744   */\n      caller\n        /* \"@openzeppelin/contracts/security/Pausable.sol\":2530:2542   */\n    tag_345:\n        /* \"@openzeppelin/contracts/security/Pausable.sol\":2521:2543   */\n      mload(0x40)\n      sub(shl(0xa0, 0x01), 0x01)\n        /* \"#utility.yul\":2994:3049   */\n      swap1\n      swap2\n      and\n        /* \"#utility.yul\":2976:3050   */\n      dup2\n      mstore\n        /* \"#utility.yul\":2964:2966   */\n      0x20\n        /* \"#utility.yul\":2949:2967   */\n      add\n        /* \"@openzeppelin/contracts/security/Pausable.sol\":2521:2543   */\n      mload(0x40)\n      dup1\n      swap2\n      sub\n      swap1\n      log1\n        /* \"@openzeppelin/contracts/security/Pausable.sol\":2433:2550   */\n      jump\t// out\n        /* \"AhadiEscrow.sol\":8448:8775  function _payout(... */\n    tag_193:\n        /* \"AhadiEscrow.sol\":8542:8556  uint256 payout */\n      0x00\n        /* \"AhadiEscrow.sol\":8558:8569  uint256 fee */\n      dup1\n        /* \"AhadiEscrow.sol\":8616:8621  10000 */\n      0x2710\n        /* \"AhadiEscrow.sol\":8598:8612  feeBasisPoints */\n      sload(0x02)\n        /* \"AhadiEscrow.sol\":8588:8595  _amount */\n      dup5\n        /* \"AhadiEscrow.sol\":8588:8612  _amount * feeBasisPoints */\n      tag_348\n      swap2\n      swap1\n      tag_349\n      jump\t// in\n    tag_348:\n        /* \"AhadiEscrow.sol\":8587:8621  (_amount * feeBasisPoints) / 10000 */\n      tag_350\n      swap2\n      swap1\n      tag_351\n      jump\t// in\n    tag_350:\n        /* \"AhadiEscrow.sol\":8581:8621  fee = (_amount * feeBasisPoints) / 10000 */\n      swap1\n      pop\n        /* \"AhadiEscrow.sol\":8640:8653  _amount - fee */\n      tag_352\n        /* \"AhadiEscrow.sol\":8581:8621  fee = (_amount * feeBasisPoints) / 10000 */\n      dup2\n        /* \"AhadiEscrow.sol\":8640:8647  _amount */\n      dup5\n        /* \"AhadiEscrow.sol\":8640:8653  _amount - fee */\n      tag_148\n      jump\t// in\n    tag_352:\n        /* \"AhadiEscrow.sol\":8663:8673  stablecoin */\n      sload(0x04)\n        /* \"AhadiEscrow.sol\":8631:8653  payout = _amount - fee */\n      swap1\n      swap3\n      pop\n        /* \"AhadiEscrow.sol\":8663:8706  stablecoin.safeTransfer(_recipient, payout) */\n      tag_353\n      swap1\n      sub(shl(0xa0, 0x01), 0x01)\n        /* \"AhadiEscrow.sol\":8663:8673  stablecoin */\n      and\n        /* \"AhadiEscrow.sol\":8687:8697  _recipient */\n      dup6\n        /* \"AhadiEscrow.sol\":8631:8653  payout = _amount - fee */\n      dup5\n        /* \"AhadiEscrow.sol\":8663:8686  stablecoin.safeTransfer */\n      tag_150\n        /* \"AhadiEscrow.sol\":8663:8706  stablecoin.safeTransfer(_recipient, payout) */\n      jump\t// in\n    tag_353:\n        /* \"AhadiEscrow.sol\":8720:8727  fee > 0 */\n      dup1\n      iszero\n        /* \"AhadiEscrow.sol\":8716:8768  if (fee > 0) stablecoin.safeTransfer(feeWallet, fee) */\n      tag_355\n      jumpi\n        /* \"AhadiEscrow.sol\":8753:8762  feeWallet */\n      sload(0x03)\n        /* \"AhadiEscrow.sol\":8729:8739  stablecoin */\n      sload(0x04)\n        /* \"AhadiEscrow.sol\":8729:8768  stablecoin.safeTransfer(feeWallet, fee) */\n      tag_355\n      swap2\n      sub(shl(0xa0, 0x01), 0x01)\n        /* \"AhadiEscrow.sol\":8729:8739  stablecoin */\n      swap2\n      dup3\n      and\n      swap2\n        /* \"AhadiEscrow.sol\":8753:8762  feeWallet */\n      and\n        /* \"AhadiEscrow.sol\":8764:8767  fee */\n      dup4\n        /* \"AhadiEscrow.sol\":8729:8752  stablecoin.safeTransfer */\n      tag_150\n        /* \"AhadiEscrow.sol\":8729:8768  stablecoin.safeTransfer(feeWallet, fee) */\n      jump\t// in\n    tag_355:\n        /* \"AhadiEscrow.sol\":8448:8775  function _payout(... */\n      swap3\n      pop\n      swap3\n      swap1\n      pop\n      jump\t// out\n        /* \"@openzeppelin/contracts/access/Ownable.sol\":2426:2613   */\n    tag_208:\n        /* \"@openzeppelin/contracts/access/Ownable.sol\":2518:2524   */\n      0x01\n      dup1\n      sload\n      sub(shl(0xa0, 0x01), 0x01)\n        /* \"@openzeppelin/contracts/access/Ownable.sol\":2534:2551   */\n      dup4\n      dup2\n      and\n      not(0xffffffffffffffffffffffffffffffffffffffff)\n      dup4\n      and\n      dup2\n      or\n      swap1\n      swap4\n      sstore\n        /* \"@openzeppelin/contracts/access/Ownable.sol\":2566:2606   */\n      mload(0x40)\n        /* \"@openzeppelin/contracts/access/Ownable.sol\":2518:2524   */\n      swap2\n      and\n      swap2\n        /* \"@openzeppelin/contracts/access/Ownable.sol\":2534:2551   */\n      swap1\n        /* \"@openzeppelin/contracts/access/Ownable.sol\":2518:2524   */\n      dup3\n      swap1\n        /* \"@openzeppelin/contracts/access/Ownable.sol\":2566:2606   */\n      0x8be0079c531659141344cd1fd0a4f28419497f9722a3daafe3b4186f6b6457e0\n      swap1\n        /* \"@openzeppelin/contracts/access/Ownable.sol\":2499:2515   */\n      0x00\n      swap1\n        /* \"@openzeppelin/contracts/access/Ownable.sol\":2566:2606   */\n      log3\n        /* \"@openzeppelin/contracts/access/Ownable.sol\":2489:2613   */\n      pop\n        /* \"@openzeppelin/contracts/access/Ownable.sol\":2426:2613   */\n      pop\n      jump\t// out\n        /* \"@openzeppelin/contracts/security/Pausable.sol\":2186:2301   */\n    tag_216:\n        /* \"@openzeppelin/contracts/security/Pausable.sol\":1239:1258   */\n      tag_358\n        /* \"@openzeppelin/contracts/security/Pausable.sol\":1239:1256   */\n      tag_242\n        /* \"@openzeppelin/contracts/security/Pausable.sol\":1239:1258   */\n      jump\t// in\n    tag_358:\n        /* \"@openzeppelin/contracts/security/Pausable.sol\":2255:2259   */\n      0x01\n        /* \"@openzeppelin/contracts/security/Pausable.sol\":2245:2259   */\n      dup1\n      sload\n      not(shl(0xa0, 0xff))\n      and\n      shl(0xa0, 0x01)\n      or\n      swap1\n      sstore\n        /* \"@openzeppelin/contracts/security/Pausable.sol\":2274:2294   */\n      0x62e78cea01bee320cd4e420270b5ea74000d11b0c9f74754ebdbfc544b05a258\n        /* \"@openzeppelin/contracts/security/Pausable.sol\":2281:2293   */\n      tag_345\n        /* \"@openzeppelin/contracts/utils/Context.sol\":734:744   */\n      caller\n      swap1\n        /* \"@openzeppelin/contracts/utils/Context.sol\":655:751   */\n      jump\n        /* \"@openzeppelin/contracts/security/Pausable.sol\":1767:1873   */\n    tag_242:\n        /* \"@openzeppelin/contracts/security/Pausable.sol\":1685:1692   */\n      sload(0x01)\n      shl(0xa0, 0x01)\n      swap1\n      div\n      0xff\n      and\n        /* \"@openzeppelin/contracts/security/Pausable.sol\":1836:1845   */\n      iszero\n        /* \"@openzeppelin/contracts/security/Pausable.sol\":1828:1866   */\n      tag_176\n      jumpi\n      mload(0x40)\n      shl(0xe5, 0x461bcd)\n      dup2\n      mstore\n        /* \"#utility.yul\":14194:14196   */\n      0x20\n        /* \"@openzeppelin/contracts/security/Pausable.sol\":1828:1866   */\n      0x04\n      dup3\n      add\n        /* \"#utility.yul\":14176:14197   */\n      mstore\n        /* \"#utility.yul\":14233:14235   */\n      0x10\n        /* \"#utility.yul\":14213:14231   */\n      0x24\n      dup3\n      add\n        /* \"#utility.yul\":14206:14236   */\n      mstore\n        /* \"#utility.yul\":14272:14290   */\n      0x5061757361626c653a2070617573656400000000000000000000000000000000\n        /* \"#utility.yul\":14252:14270   */\n      0x44\n      dup3\n      add\n        /* \"#utility.yul\":14245:14291   */\n      mstore\n        /* \"#utility.yul\":14308:14326   */\n      0x64\n      add\n        /* \"@openzeppelin/contracts/security/Pausable.sol\":1828:1866   */\n      tag_134\n        /* \"#utility.yul\":13992:14332   */\n      jump\n        /* \"@openzeppelin/contracts/token/ERC20/utils/SafeERC20.sol\":1355:1558   */\n    tag_264:\n        /* \"@openzeppelin/contracts/token/ERC20/utils/SafeERC20.sol\":1482:1550   */\n      mload(0x40)\n      sub(shl(0xa0, 0x01), 0x01)\n        /* \"#utility.yul\":14618:14633   */\n      dup1\n      dup6\n      and\n        /* \"@openzeppelin/contracts/token/ERC20/utils/SafeERC20.sol\":1482:1550   */\n      0x24\n      dup4\n      add\n        /* \"#utility.yul\":14600:14634   */\n      mstore\n        /* \"#utility.yul\":14670:14685   */\n      dup4\n      and\n        /* \"#utility.yul\":14650:14668   */\n      0x44\n      dup3\n      add\n        /* \"#utility.yul\":14643:14686   */\n      mstore\n        /* \"#utility.yul\":14702:14720   */\n      0x64\n      dup2\n      add\n        /* \"#utility.yul\":14695:14729   */\n      dup3\n      swap1\n      mstore\n        /* \"@openzeppelin/contracts/token/ERC20/utils/SafeERC20.sol\":1455:1551   */\n      tag_368\n      swap1\n        /* \"@openzeppelin/contracts/token/ERC20/utils/SafeERC20.sol\":1475:1480   */\n      dup6\n      swap1\n      shl(0xe0, 0x23b872dd)\n        /* \"@openzeppelin/contracts/token/ERC20/utils/SafeERC20.sol\":1505:1532   */\n      swap1\n        /* \"#utility.yul\":14512:14530   */\n      0x84\n      add\n        /* \"@openzeppelin/contracts/token/ERC20/utils/SafeERC20.sol\":1482:1550   */\n      tag_337\n        /* \"#utility.yul\":14337:14735   */\n      jump\n        /* \"@openzeppelin/contracts/token/ERC20/utils/SafeERC20.sol\":1455:1551   */\n    tag_368:\n        /* \"@openzeppelin/contracts/token/ERC20/utils/SafeERC20.sol\":1355:1558   */\n      pop\n      pop\n      pop\n      pop\n      jump\t// out\n        /* \"@openzeppelin/contracts/token/ERC20/utils/SafeERC20.sol\":5196:5838   */\n    tag_339:\n        /* \"@openzeppelin/contracts/token/ERC20/utils/SafeERC20.sol\":5615:5638   */\n      0x00\n        /* \"@openzeppelin/contracts/token/ERC20/utils/SafeERC20.sol\":5641:5710   */\n      tag_373\n        /* \"@openzeppelin/contracts/token/ERC20/utils/SafeERC20.sol\":5669:5673   */\n      dup3\n        /* \"@openzeppelin/contracts/token/ERC20/utils/SafeERC20.sol\":5641:5710   */\n      mload(0x40)\n      dup1\n      0x40\n      add\n      0x40\n      mstore\n      dup1\n      0x20\n      dup2\n      mstore\n      0x20\n      add\n      0x5361666545524332303a206c6f772d6c6576656c2063616c6c206661696c6564\n      dup2\n      mstore\n      pop\n        /* \"@openzeppelin/contracts/token/ERC20/utils/SafeERC20.sol\":5649:5654   */\n      dup6\n      sub(shl(0xa0, 0x01), 0x01)\n        /* \"@openzeppelin/contracts/token/ERC20/utils/SafeERC20.sol\":5641:5668   */\n      and\n      tag_374\n      swap1\n        /* \"@openzeppelin/contracts/token/ERC20/utils/SafeERC20.sol\":5641:5710   */\n      swap3\n      swap2\n      swap1\n      0xffffffff\n      and\n      jump\t// in\n    tag_373:\n        /* \"@openzeppelin/contracts/token/ERC20/utils/SafeERC20.sol\":5615:5710   */\n      swap1\n      pop\n        /* \"@openzeppelin/contracts/token/ERC20/utils/SafeERC20.sol\":5728:5738   */\n      dup1\n        /* \"@openzeppelin/contracts/token/ERC20/utils/SafeERC20.sol\":5728:5745   */\n      mload\n        /* \"@openzeppelin/contracts/token/ERC20/utils/SafeERC20.sol\":5749:5750   */\n      0x00\n        /* \"@openzeppelin/contracts/token/ERC20/utils/SafeERC20.sol\":5728:5750   */\n      eq\n        /* \"@openzeppelin/contracts/token/ERC20/utils/SafeERC20.sol\":5728:5784   */\n      dup1\n      tag_376\n      jumpi\n      pop\n        /* \"@openzeppelin/contracts/token/ERC20/utils/SafeERC20.sol\":5765:5775   */\n      dup1\n        /* \"@openzeppelin/contracts/token/ERC20/utils/SafeERC20.sol\":5754:5784   */\n      dup1\n      0x20\n      add\n      swap1\n      mload\n      dup2\n      add\n      swap1\n      tag_376\n      swap2\n      swap1\n      tag_377\n      jump\t// in\n    tag_376:\n        /* \"@openzeppelin/contracts/token/ERC20/utils/SafeERC20.sol\":5720:5831   */\n      tag_336\n      jumpi\n      mload(0x40)\n      shl(0xe5, 0x461bcd)\n      dup2\n      mstore\n        /* \"#utility.yul\":15224:15226   */\n      0x20\n        /* \"@openzeppelin/contracts/token/ERC20/utils/SafeERC20.sol\":5720:5831   */\n      0x04\n      dup3\n      add\n        /* \"#utility.yul\":15206:15227   */\n      mstore\n        /* \"#utility.yul\":15263:15265   */\n      0x2a\n        /* \"#utility.yul\":15243:15261   */\n      0x24\n      dup3\n      add\n        /* \"#utility.yul\":15236:15266   */\n      mstore\n        /* \"#utility.yul\":15302:15336   */\n      0x5361666545524332303a204552433230206f7065726174696f6e20646964206e\n        /* \"#utility.yul\":15282:15300   */\n      0x44\n      dup3\n      add\n        /* \"#utility.yul\":15275:15337   */\n      mstore\n        /* \"#utility.yul\":15373:15385   */\n      0x6f74207375636365656400000000000000000000000000000000000000000000\n        /* \"#utility.yul\":15353:15371   */\n      0x64\n      dup3\n      add\n        /* \"#utility.yul\":15346:15386   */\n      mstore\n        /* \"#utility.yul\":15403:15422   */\n      0x84\n      add\n        /* \"@openzeppelin/contracts/token/ERC20/utils/SafeERC20.sol\":5720:5831   */\n      tag_134\n        /* \"#utility.yul\":15022:15428   */\n      jump\n        /* \"@openzeppelin/contracts/security/Pausable.sol\":1945:2051   */\n    tag_343:\n        /* \"@openzeppelin/contracts/security/Pausable.sol\":1685:1692   */\n      sload(0x01)\n      shl(0xa0, 0x01)\n      swap1\n      div\n      0xff\n      and\n        /* \"@openzeppelin/contracts/security/Pausable.sol\":2003:2044   */\n      tag_176\n      jumpi\n      mload(0x40)\n      shl(0xe5, 0x461bcd)\n      dup2\n      mstore\n        /* \"#utility.yul\":15635:15637   */\n      0x20\n        /* \"@openzeppelin/contracts/security/Pausable.sol\":2003:2044   */\n      0x04\n      dup3\n      add\n        /* \"#utility.yul\":15617:15638   */\n      mstore\n        /* \"#utility.yul\":15674:15676   */\n      0x14\n        /* \"#utility.yul\":15654:15672   */\n      0x24\n      dup3\n      add\n        /* \"#utility.yul\":15647:15677   */\n      mstore\n        /* \"#utility.yul\":15713:15735   */\n      0x5061757361626c653a206e6f7420706175736564000000000000000000000000\n        /* \"#utility.yul\":15693:15711   */\n      0x44\n      dup3\n      add\n        /* \"#utility.yul\":15686:15736   */\n      mstore\n        /* \"#utility.yul\":15753:15771   */\n      0x64\n      add\n        /* \"@openzeppelin/contracts/security/Pausable.sol\":2003:2044   */\n      tag_134\n        /* \"#utility.yul\":15433:15777   */\n      jump\n        /* \"@openzeppelin/contracts/utils/Address.sol\":4108:4331   */\n    tag_374:\n        /* \"@openzeppelin/contracts/utils/Address.sol\":4241:4253   */\n      0x60\n        /* \"@openzeppelin/contracts/utils/Address.sol\":4272:4324   */\n      tag_387\n        /* \"@openzeppelin/contracts/utils/Address.sol\":4294:4300   */\n      dup5\n        /* \"@openzeppelin/contracts/utils/Address.sol\":4302:4306   */\n      dup5\n        /* \"@openzeppelin/contracts/utils/Address.sol\":4308:4309   */\n      0x00\n        /* \"@openzeppelin/contracts/utils/Address.sol\":4311:4323   */\n      dup6\n        /* \"@openzeppelin/contracts/utils/Address.sol\":4272:4293   */\n      tag_388\n        /* \"@openzeppelin/contracts/utils/Address.sol\":4272:4324   */\n      jump\t// in\n    tag_387:\n        /* \"@openzeppelin/contracts/utils/Address.sol\":4265:4324   */\n      swap5\n        /* \"@openzeppelin/contracts/utils/Address.sol\":4108:4331   */\n      swap4\n      pop\n      pop\n      pop\n      pop\n      jump\t// out\n        /* \"@openzeppelin/contracts/utils/Address.sol\":5165:5611   */\n    tag_388:\n        /* \"@openzeppelin/contracts/utils/Address.sol\":5330:5342   */\n      0x60\n        /* \"@openzeppelin/contracts/utils/Address.sol\":5387:5392   */\n      dup3\n        /* \"@openzeppelin/contracts/utils/Address.sol\":5362:5383   */\n      selfbalance\n        /* \"@openzeppelin/contracts/utils/Address.sol\":5362:5392   */\n      lt\n      iszero\n        /* \"@openzeppelin/contracts/utils/Address.sol\":5354:5435   */\n      tag_390\n      jumpi\n      mload(0x40)\n      shl(0xe5, 0x461bcd)\n      dup2\n      mstore\n        /* \"#utility.yul\":15984:15986   */\n      0x20\n        /* \"@openzeppelin/contracts/utils/Address.sol\":5354:5435   */\n      0x04\n      dup3\n      add\n        /* \"#utility.yul\":15966:15987   */\n      mstore\n        /* \"#utility.yul\":16023:16025   */\n      0x26\n        /* \"#utility.yul\":16003:16021   */\n      0x24\n      dup3\n      add\n        /* \"#utility.yul\":15996:16026   */\n      mstore\n        /* \"#utility.yul\":16062:16096   */\n      0x416464726573733a20696e73756666696369656e742062616c616e636520666f\n        /* \"#utility.yul\":16042:16060   */\n      0x44\n      dup3\n      add\n        /* \"#utility.yul\":16035:16097   */\n      mstore\n        /* \"#utility.yul\":16133:16141   */\n      0x722063616c6c0000000000000000000000000000000000000000000000000000\n        /* \"#utility.yul\":16113:16131   */\n      0x64\n      dup3\n      add\n        /* \"#utility.yul\":16106:16142   */\n      mstore\n        /* \"#utility.yul\":16159:16178   */\n      0x84\n      add\n        /* \"@openzeppelin/contracts/utils/Address.sol\":5354:5435   */\n      tag_134\n        /* \"#utility.yul\":15782:16184   */\n      jump\n        /* \"@openzeppelin/contracts/utils/Address.sol\":5354:5435   */\n    tag_390:\n        /* \"@openzeppelin/contracts/utils/Address.sol\":5446:5458   */\n      0x00\n        /* \"@openzeppelin/contracts/utils/Address.sol\":5460:5483   */\n      dup1\n        /* \"@openzeppelin/contracts/utils/Address.sol\":5487:5493   */\n      dup7\n      sub(shl(0xa0, 0x01), 0x01)\n        /* \"@openzeppelin/contracts/utils/Address.sol\":5487:5498   */\n      and\n        /* \"@openzeppelin/contracts/utils/Address.sol\":5506:5511   */\n      dup6\n        /* \"@openzeppelin/contracts/utils/Address.sol\":5513:5517   */\n      dup8\n        /* \"@openzeppelin/contracts/utils/Address.sol\":5487:5518   */\n      mload(0x40)\n      tag_393\n      swap2\n      swap1\n      tag_394\n      jump\t// in\n    tag_393:\n      0x00\n      mload(0x40)\n      dup1\n      dup4\n      sub\n      dup2\n      dup6\n      dup8\n      gas\n      call\n      swap3\n      pop\n      pop\n      pop\n      returndatasize\n      dup1\n      0x00\n      dup2\n      eq\n      tag_397\n      jumpi\n      mload(0x40)\n      swap2\n      pop\n      and(add(returndatasize, 0x3f), not(0x1f))\n      dup3\n      add\n      0x40\n      mstore\n      returndatasize\n      dup3\n      mstore\n      returndatasize\n      0x00\n      0x20\n      dup5\n      add\n      returndatacopy\n      jump(tag_396)\n    tag_397:\n      0x60\n      swap2\n      pop\n    tag_396:\n      pop\n        /* \"@openzeppelin/contracts/utils/Address.sol\":5445:5518   */\n      swap2\n      pop\n      swap2\n      pop\n        /* \"@openzeppelin/contracts/utils/Address.sol\":5535:5604   */\n      tag_398\n        /* \"@openzeppelin/contracts/utils/Address.sol\":5562:5568   */\n      dup8\n        /* \"@openzeppelin/contracts/utils/Address.sol\":5570:5577   */\n      dup4\n        /* \"@openzeppelin/contracts/utils/Address.sol\":5579:5589   */\n      dup4\n        /* \"@openzeppelin/contracts/utils/Address.sol\":5591:5603   */\n      dup8\n        /* \"@openzeppelin/contracts/utils/Address.sol\":5535:5561   */\n      tag_399\n        /* \"@openzeppelin/contracts/utils/Address.sol\":5535:5604   */\n      jump\t// in\n    tag_398:\n        /* \"@openzeppelin/contracts/utils/Address.sol\":5528:5604   */\n      swap8\n        /* \"@openzeppelin/contracts/utils/Address.sol\":5165:5611   */\n      swap7\n      pop\n      pop\n      pop\n      pop\n      pop\n      pop\n      pop\n      jump\t// out\n        /* \"@openzeppelin/contracts/utils/Address.sol\":7671:8299   */\n    tag_399:\n        /* \"@openzeppelin/contracts/utils/Address.sol\":7851:7863   */\n      0x60\n        /* \"@openzeppelin/contracts/utils/Address.sol\":7879:7886   */\n      dup4\n        /* \"@openzeppelin/contracts/utils/Address.sol\":7875:8293   */\n      iszero\n      tag_401\n      jumpi\n        /* \"@openzeppelin/contracts/utils/Address.sol\":7906:7916   */\n      dup3\n        /* \"@openzeppelin/contracts/utils/Address.sol\":7906:7923   */\n      mload\n        /* \"@openzeppelin/contracts/utils/Address.sol\":7927:7928   */\n      0x00\n        /* \"@openzeppelin/contracts/utils/Address.sol\":7906:7928   */\n      sub\n        /* \"@openzeppelin/contracts/utils/Address.sol\":7902:8188   */\n      tag_405\n      jumpi\n      sub(shl(0xa0, 0x01), 0x01)\n        /* \"@openzeppelin/contracts/utils/Address.sol\":1702:1721   */\n      dup6\n      and\n      extcodesize\n        /* \"@openzeppelin/contracts/utils/Address.sol\":8113:8173   */\n      tag_405\n      jumpi\n      mload(0x40)\n      shl(0xe5, 0x461bcd)\n      dup2\n      mstore\n        /* \"#utility.yul\":16697:16699   */\n      0x20\n        /* \"@openzeppelin/contracts/utils/Address.sol\":8113:8173   */\n      0x04\n      dup3\n      add\n        /* \"#utility.yul\":16679:16700   */\n      mstore\n        /* \"#utility.yul\":16736:16738   */\n      0x1d\n        /* \"#utility.yul\":16716:16734   */\n      0x24\n      dup3\n      add\n        /* \"#utility.yul\":16709:16739   */\n      mstore\n        /* \"#utility.yul\":16775:16806   */\n      0x416464726573733a2063616c6c20746f206e6f6e2d636f6e7472616374000000\n        /* \"#utility.yul\":16755:16773   */\n      0x44\n      dup3\n      add\n        /* \"#utility.yul\":16748:16807   */\n      mstore\n        /* \"#utility.yul\":16824:16842   */\n      0x64\n      add\n        /* \"@openzeppelin/contracts/utils/Address.sol\":8113:8173   */\n      tag_134\n        /* \"#utility.yul\":16495:16848   */\n      jump\n        /* \"@openzeppelin/contracts/utils/Address.sol\":8113:8173   */\n    tag_405:\n      pop\n        /* \"@openzeppelin/contracts/utils/Address.sol\":8208:8218   */\n      dup2\n        /* \"@openzeppelin/contracts/utils/Address.sol\":8201:8218   */\n      jump(tag_387)\n        /* \"@openzeppelin/contracts/utils/Address.sol\":7875:8293   */\n    tag_401:\n        /* \"@openzeppelin/contracts/utils/Address.sol\":8249:8282   */\n      tag_387\n        /* \"@openzeppelin/contracts/utils/Address.sol\":8257:8267   */\n      dup4\n        /* \"@openzeppelin/contracts/utils/Address.sol\":8269:8281   */\n      dup4\n        /* \"@openzeppelin/contracts/utils/Address.sol\":8980:8997   */\n      dup2\n      mload\n        /* \"@openzeppelin/contracts/utils/Address.sol\":8980:9001   */\n      iszero\n        /* \"@openzeppelin/contracts/utils/Address.sol\":8976:9355   */\n      tag_413\n      jumpi\n        /* \"@openzeppelin/contracts/utils/Address.sol\":9208:9218   */\n      dup2\n        /* \"@openzeppelin/contracts/utils/Address.sol\":9202:9219   */\n      mload\n        /* \"@openzeppelin/contracts/utils/Address.sol\":9264:9279   */\n      dup1\n        /* \"@openzeppelin/contracts/utils/Address.sol\":9251:9261   */\n      dup4\n        /* \"@openzeppelin/contracts/utils/Address.sol\":9247:9249   */\n      0x20\n        /* \"@openzeppelin/contracts/utils/Address.sol\":9243:9262   */\n      add\n        /* \"@openzeppelin/contracts/utils/Address.sol\":9236:9280   */\n      revert\n        /* \"@openzeppelin/contracts/utils/Address.sol\":8976:9355   */\n    tag_413:\n        /* \"@openzeppelin/contracts/utils/Address.sol\":9331:9343   */\n      dup1\n        /* \"@openzeppelin/contracts/utils/Address.sol\":9324:9344   */\n      mload(0x40)\n      shl(0xe5, 0x461bcd)\n      dup2\n      mstore\n      0x04\n      add\n      tag_134\n      swap2\n      swap1\n      tag_416\n      jump\t// in\n        /* \"#utility.yul\":14:194   */\n    tag_38:\n        /* \"#utility.yul\":73:79   */\n      0x00\n        /* \"#utility.yul\":126:128   */\n      0x20\n        /* \"#utility.yul\":114:123   */\n      dup3\n        /* \"#utility.yul\":105:112   */\n      dup5\n        /* \"#utility.yul\":101:124   */\n      sub\n        /* \"#utility.yul\":97:129   */\n      slt\n        /* \"#utility.yul\":94:146   */\n      iszero\n      tag_421\n      jumpi\n        /* \"#utility.yul\":142:143   */\n      0x00\n        /* \"#utility.yul\":139:140   */\n      dup1\n        /* \"#utility.yul\":132:144   */\n      revert\n        /* \"#utility.yul\":94:146   */\n    tag_421:\n      pop\n        /* \"#utility.yul\":165:188   */\n      calldataload\n      swap2\n        /* \"#utility.yul\":14:194   */\n      swap1\n      pop\n      jump\t// out\n        /* \"#utility.yul\":982:1178   */\n    tag_417:\n        /* \"#utility.yul\":1050:1070   */\n      dup1\n      calldataload\n      sub(shl(0xa0, 0x01), 0x01)\n        /* \"#utility.yul\":1099:1153   */\n      dup2\n      and\n        /* \"#utility.yul\":1089:1154   */\n      dup2\n      eq\n        /* \"#utility.yul\":1079:1172   */\n      tag_424\n      jumpi\n        /* \"#utility.yul\":1168:1169   */\n      0x00\n        /* \"#utility.yul\":1165:1166   */\n      dup1\n        /* \"#utility.yul\":1158:1170   */\n      revert\n        /* \"#utility.yul\":1079:1172   */\n    tag_424:\n        /* \"#utility.yul\":982:1178   */\n      swap2\n      swap1\n      pop\n      jump\t// out\n        /* \"#utility.yul\":1183:1437   */\n    tag_44:\n        /* \"#utility.yul\":1251:1257   */\n      0x00\n        /* \"#utility.yul\":1259:1265   */\n      dup1\n        /* \"#utility.yul\":1312:1314   */\n      0x40\n        /* \"#utility.yul\":1300:1309   */\n      dup4\n        /* \"#utility.yul\":1291:1298   */\n      dup6\n        /* \"#utility.yul\":1287:1310   */\n      sub\n        /* \"#utility.yul\":1283:1315   */\n      slt\n        /* \"#utility.yul\":1280:1332   */\n      iszero\n      tag_426\n      jumpi\n        /* \"#utility.yul\":1328:1329   */\n      0x00\n        /* \"#utility.yul\":1325:1326   */\n      dup1\n        /* \"#utility.yul\":1318:1330   */\n      revert\n        /* \"#utility.yul\":1280:1332   */\n    tag_426:\n        /* \"#utility.yul\":1364:1373   */\n      dup3\n        /* \"#utility.yul\":1351:1374   */\n      calldataload\n        /* \"#utility.yul\":1341:1374   */\n      swap2\n      pop\n        /* \"#utility.yul\":1393:1431   */\n      tag_427\n        /* \"#utility.yul\":1427:1429   */\n      0x20\n        /* \"#utility.yul\":1416:1425   */\n      dup5\n        /* \"#utility.yul\":1412:1430   */\n      add\n        /* \"#utility.yul\":1393:1431   */\n      tag_417\n      jump\t// in\n    tag_427:\n        /* \"#utility.yul\":1383:1431   */\n      swap1\n      pop\n        /* \"#utility.yul\":1183:1437   */\n      swap3\n      pop\n      swap3\n      swap1\n      pop\n      jump\t// out\n        /* \"#utility.yul\":1816:2002   */\n    tag_67:\n        /* \"#utility.yul\":1875:1881   */\n      0x00\n        /* \"#utility.yul\":1928:1930   */\n      0x20\n        /* \"#utility.yul\":1916:1925   */\n      dup3\n        /* \"#utility.yul\":1907:1914   */\n      dup5\n        /* \"#utility.yul\":1903:1926   */\n      sub\n        /* \"#utility.yul\":1899:1931   */\n      slt\n        /* \"#utility.yul\":1896:1948   */\n      iszero\n      tag_431\n      jumpi\n        /* \"#utility.yul\":1944:1945   */\n      0x00\n        /* \"#utility.yul\":1941:1942   */\n      dup1\n        /* \"#utility.yul\":1934:1946   */\n      revert\n        /* \"#utility.yul\":1896:1948   */\n    tag_431:\n        /* \"#utility.yul\":1967:1996   */\n      tag_267\n        /* \"#utility.yul\":1986:1995   */\n      dup3\n        /* \"#utility.yul\":1967:1996   */\n      tag_417\n      jump\t// in\n        /* \"#utility.yul\":3061:3383   */\n    tag_90:\n        /* \"#utility.yul\":3138:3144   */\n      0x00\n        /* \"#utility.yul\":3146:3152   */\n      dup1\n        /* \"#utility.yul\":3154:3160   */\n      0x00\n        /* \"#utility.yul\":3207:3209   */\n      0x60\n        /* \"#utility.yul\":3195:3204   */\n      dup5\n        /* \"#utility.yul\":3186:3193   */\n      dup7\n        /* \"#utility.yul\":3182:3205   */\n      sub\n        /* \"#utility.yul\":3178:3210   */\n      slt\n        /* \"#utility.yul\":3175:3227   */\n      iszero\n      tag_436\n      jumpi\n        /* \"#utility.yul\":3223:3224   */\n      0x00\n        /* \"#utility.yul\":3220:3221   */\n      dup1\n        /* \"#utility.yul\":3213:3225   */\n      revert\n        /* \"#utility.yul\":3175:3227   */\n    tag_436:\n        /* \"#utility.yul\":3246:3275   */\n      tag_437\n        /* \"#utility.yul\":3265:3274   */\n      dup5\n        /* \"#utility.yul\":3246:3275   */\n      tag_417\n      jump\t// in\n    tag_437:\n        /* \"#utility.yul\":3236:3275   */\n      swap6\n        /* \"#utility.yul\":3322:3324   */\n      0x20\n        /* \"#utility.yul\":3307:3325   */\n      dup6\n      add\n        /* \"#utility.yul\":3294:3326   */\n      calldataload\n      swap6\n      pop\n        /* \"#utility.yul\":3373:3375   */\n      0x40\n        /* \"#utility.yul\":3358:3376   */\n      swap1\n      swap5\n      add\n        /* \"#utility.yul\":3345:3377   */\n      calldataload\n      swap4\n        /* \"#utility.yul\":3061:3383   */\n      swap3\n      pop\n      pop\n      pop\n      jump\t// out\n        /* \"#utility.yul\":3388:3648   */\n    tag_104:\n        /* \"#utility.yul\":3456:3462   */\n      0x00\n        /* \"#utility.yul\":3464:3470   */\n      dup1\n        /* \"#utility.yul\":3517:3519   */\n      0x40\n        /* \"#utility.yul\":3505:3514   */\n      dup4\n        /* \"#utility.yul\":3496:3503   */\n      dup6\n        /* \"#utility.yul\":3492:3515   */\n      sub\n        /* \"#utility.yul\":3488:3520   */\n      slt\n        /* \"#utility.yul\":3485:3537   */\n      iszero\n      tag_439\n      jumpi\n        /* \"#utility.yul\":3533:3534   */\n      0x00\n        /* \"#utility.yul\":3530:3531   */\n      dup1\n        /* \"#utility.yul\":3523:3535   */\n      revert\n        /* \"#utility.yul\":3485:3537   */\n    tag_439:\n        /* \"#utility.yul\":3556:3585   */\n      tag_440\n        /* \"#utility.yul\":3575:3584   */\n      dup4\n        /* \"#utility.yul\":3556:3585   */\n      tag_417\n      jump\t// in\n    tag_440:\n        /* \"#utility.yul\":3546:3585   */\n      swap2\n      pop\n        /* \"#utility.yul\":3604:3642   */\n      tag_427\n        /* \"#utility.yul\":3638:3640   */\n      0x20\n        /* \"#utility.yul\":3627:3636   */\n      dup5\n        /* \"#utility.yul\":3623:3641   */\n      add\n        /* \"#utility.yul\":3604:3642   */\n      tag_417\n      jump\t// in\n        /* \"#utility.yul\":5661:5788   */\n    tag_418:\n        /* \"#utility.yul\":5722:5732   */\n      0x4e487b71\n        /* \"#utility.yul\":5717:5720   */\n      0xe0\n        /* \"#utility.yul\":5713:5733   */\n      shl\n        /* \"#utility.yul\":5710:5711   */\n      0x00\n        /* \"#utility.yul\":5703:5734   */\n      mstore\n        /* \"#utility.yul\":5753:5757   */\n      0x11\n        /* \"#utility.yul\":5750:5751   */\n      0x04\n        /* \"#utility.yul\":5743:5758   */\n      mstore\n        /* \"#utility.yul\":5777:5781   */\n      0x24\n        /* \"#utility.yul\":5774:5775   */\n      0x00\n        /* \"#utility.yul\":5767:5782   */\n      revert\n        /* \"#utility.yul\":5793:5921   */\n    tag_148:\n        /* \"#utility.yul\":5860:5869   */\n      dup2\n      dup2\n      sub\n        /* \"#utility.yul\":5881:5892   */\n      dup2\n      dup2\n      gt\n        /* \"#utility.yul\":5878:5915   */\n      iszero\n      tag_451\n      jumpi\n        /* \"#utility.yul\":5895:5913   */\n      tag_451\n      tag_418\n      jump\t// in\n    tag_451:\n        /* \"#utility.yul\":5793:5921   */\n      swap3\n      swap2\n      pop\n      pop\n      jump\t// out\n        /* \"#utility.yul\":10679:10814   */\n    tag_260:\n        /* \"#utility.yul\":10718:10721   */\n      0x00\n        /* \"#utility.yul\":10739:10756   */\n      0x01\n      dup3\n      add\n        /* \"#utility.yul\":10736:10779   */\n      tag_468\n      jumpi\n        /* \"#utility.yul\":10759:10777   */\n      tag_468\n      tag_418\n      jump\t// in\n    tag_468:\n      pop\n        /* \"#utility.yul\":10806:10807   */\n      0x01\n        /* \"#utility.yul\":10795:10808   */\n      add\n      swap1\n        /* \"#utility.yul\":10679:10814   */\n      jump\t// out\n        /* \"#utility.yul\":10819:10944   */\n    tag_262:\n        /* \"#utility.yul\":10884:10893   */\n      dup1\n      dup3\n      add\n        /* \"#utility.yul\":10905:10915   */\n      dup1\n      dup3\n      gt\n        /* \"#utility.yul\":10902:10938   */\n      iszero\n      tag_451\n      jumpi\n        /* \"#utility.yul\":10918:10936   */\n      tag_451\n      tag_418\n      jump\t// in\n        /* \"#utility.yul\":11295:11479   */\n    tag_280:\n        /* \"#utility.yul\":11365:11371   */\n      0x00\n        /* \"#utility.yul\":11418:11420   */\n      0x20\n        /* \"#utility.yul\":11406:11415   */\n      dup3\n        /* \"#utility.yul\":11397:11404   */\n      dup5\n        /* \"#utility.yul\":11393:11416   */\n      sub\n        /* \"#utility.yul\":11389:11421   */\n      slt\n        /* \"#utility.yul\":11386:11438   */\n      iszero\n      tag_474\n      jumpi\n        /* \"#utility.yul\":11434:11435   */\n      0x00\n        /* \"#utility.yul\":11431:11432   */\n      dup1\n        /* \"#utility.yul\":11424:11436   */\n      revert\n        /* \"#utility.yul\":11386:11438   */\n    tag_474:\n      pop\n        /* \"#utility.yul\":11457:11473   */\n      mload\n      swap2\n        /* \"#utility.yul\":11295:11479   */\n      swap1\n      pop\n      jump\t// out\n        /* \"#utility.yul\":13597:13765   */\n    tag_349:\n        /* \"#utility.yul\":13670:13679   */\n      dup1\n      dup3\n      mul\n        /* \"#utility.yul\":13701:13710   */\n      dup2\n      iszero\n        /* \"#utility.yul\":13718:13733   */\n      dup3\n      dup3\n      div\n        /* \"#utility.yul\":13712:13734   */\n      dup5\n      eq\n        /* \"#utility.yul\":13698:13735   */\n      or\n        /* \"#utility.yul\":13688:13759   */\n      tag_451\n      jumpi\n        /* \"#utility.yul\":13739:13757   */\n      tag_451\n      tag_418\n      jump\t// in\n        /* \"#utility.yul\":13770:13987   */\n    tag_351:\n        /* \"#utility.yul\":13810:13811   */\n      0x00\n        /* \"#utility.yul\":13836:13837   */\n      dup3\n        /* \"#utility.yul\":13826:13958   */\n      tag_485\n      jumpi\n        /* \"#utility.yul\":13880:13890   */\n      0x4e487b71\n        /* \"#utility.yul\":13875:13878   */\n      0xe0\n        /* \"#utility.yul\":13871:13891   */\n      shl\n        /* \"#utility.yul\":13868:13869   */\n      0x00\n        /* \"#utility.yul\":13861:13892   */\n      mstore\n        /* \"#utility.yul\":13915:13919   */\n      0x12\n        /* \"#utility.yul\":13912:13913   */\n      0x04\n        /* \"#utility.yul\":13905:13920   */\n      mstore\n        /* \"#utility.yul\":13943:13947   */\n      0x24\n        /* \"#utility.yul\":13940:13941   */\n      0x00\n        /* \"#utility.yul\":13933:13948   */\n      revert\n        /* \"#utility.yul\":13826:13958   */\n    tag_485:\n      pop\n        /* \"#utility.yul\":13972:13981   */\n      div\n      swap1\n        /* \"#utility.yul\":13770:13987   */\n      jump\t// out\n        /* \"#utility.yul\":14740:15017   */\n    tag_377:\n        /* \"#utility.yul\":14807:14813   */\n      0x00\n        /* \"#utility.yul\":14860:14862   */\n      0x20\n        /* \"#utility.yul\":14848:14857   */\n      dup3\n        /* \"#utility.yul\":14839:14846   */\n      dup5\n        /* \"#utility.yul\":14835:14858   */\n      sub\n        /* \"#utility.yul\":14831:14863   */\n      slt\n        /* \"#utility.yul\":14828:14880   */\n      iszero\n      tag_489\n      jumpi\n        /* \"#utility.yul\":14876:14877   */\n      0x00\n        /* \"#utility.yul\":14873:14874   */\n      dup1\n        /* \"#utility.yul\":14866:14878   */\n      revert\n        /* \"#utility.yul\":14828:14880   */\n    tag_489:\n        /* \"#utility.yul\":14908:14917   */\n      dup2\n        /* \"#utility.yul\":14902:14918   */\n      mload\n        /* \"#utility.yul\":14961:14966   */\n      dup1\n        /* \"#utility.yul\":14954:14967   */\n      iszero\n        /* \"#utility.yul\":14947:14968   */\n      iszero\n        /* \"#utility.yul\":14940:14945   */\n      dup2\n        /* \"#utility.yul\":14937:14969   */\n      eq\n        /* \"#utility.yul\":14927:14987   */\n      tag_267\n      jumpi\n        /* \"#utility.yul\":14983:14984   */\n      0x00\n        /* \"#utility.yul\":14980:14981   */\n      dup1\n        /* \"#utility.yul\":14973:14985   */\n      revert\n        /* \"#utility.yul\":16189:16490   */\n    tag_394:\n        /* \"#utility.yul\":16318:16321   */\n      0x00\n        /* \"#utility.yul\":16356:16362   */\n      dup3\n        /* \"#utility.yul\":16350:16363   */\n      mload\n        /* \"#utility.yul\":16402:16408   */\n      dup1\n        /* \"#utility.yul\":16395:16399   */\n      0x20\n        /* \"#utility.yul\":16387:16393   */\n      dup6\n        /* \"#utility.yul\":16383:16400   */\n      add\n        /* \"#utility.yul\":16378:16381   */\n      dup5\n        /* \"#utility.yul\":16372:16409   */\n      mcopy\n        /* \"#utility.yul\":16464:16465   */\n      0x00\n        /* \"#utility.yul\":16428:16444   */\n      swap3\n      add\n        /* \"#utility.yul\":16453:16466   */\n      swap2\n      dup3\n      mstore\n      pop\n        /* \"#utility.yul\":16428:16444   */\n      swap2\n        /* \"#utility.yul\":16189:16490   */\n      swap1\n      pop\n      jump\t// out\n        /* \"#utility.yul\":16853:17271   */\n    tag_416:\n        /* \"#utility.yul\":17002:17004   */\n      0x20\n        /* \"#utility.yul\":16991:17000   */\n      dup2\n        /* \"#utility.yul\":16984:17005   */\n      mstore\n        /* \"#utility.yul\":16965:16969   */\n      0x00\n        /* \"#utility.yul\":17034:17040   */\n      dup3\n        /* \"#utility.yul\":17028:17041   */\n      mload\n        /* \"#utility.yul\":17077:17083   */\n      dup1\n        /* \"#utility.yul\":17072:17074   */\n      0x20\n        /* \"#utility.yul\":17061:17070   */\n      dup5\n        /* \"#utility.yul\":17057:17075   */\n      add\n        /* \"#utility.yul\":17050:17084   */\n      mstore\n        /* \"#utility.yul\":17136:17142   */\n      dup1\n        /* \"#utility.yul\":17131:17133   */\n      0x20\n        /* \"#utility.yul\":17123:17129   */\n      dup6\n        /* \"#utility.yul\":17119:17134   */\n      add\n        /* \"#utility.yul\":17114:17116   */\n      0x40\n        /* \"#utility.yul\":17103:17112   */\n      dup6\n        /* \"#utility.yul\":17099:17117   */\n      add\n        /* \"#utility.yul\":17093:17143   */\n      mcopy\n        /* \"#utility.yul\":17192:17193   */\n      0x00\n        /* \"#utility.yul\":17187:17189   */\n      0x40\n        /* \"#utility.yul\":17178:17184   */\n      dup3\n        /* \"#utility.yul\":17167:17176   */\n      dup6\n        /* \"#utility.yul\":17163:17185   */\n      add\n        /* \"#utility.yul\":17159:17190   */\n      add\n        /* \"#utility.yul\":17152:17194   */\n      mstore\n        /* \"#utility.yul\":17262:17264   */\n      0x40\n        /* \"#utility.yul\":17255:17257   */\n      0x1f\n        /* \"#utility.yul\":17251:17258   */\n      not\n        /* \"#utility.yul\":17246:17248   */\n      0x1f\n        /* \"#utility.yul\":17238:17244   */\n      dup4\n        /* \"#utility.yul\":17234:17249   */\n      add\n        /* \"#utility.yul\":17230:17259   */\n      and\n        /* \"#utility.yul\":17219:17228   */\n      dup5\n        /* \"#utility.yul\":17215:17260   */\n      add\n        /* \"#utility.yul\":17211:17265   */\n      add\n        /* \"#utility.yul\":17203:17265   */\n      swap2\n      pop\n      pop\n        /* \"#utility.yul\":16853:17271   */\n      swap3\n      swap2\n      pop\n      pop\n      jump\t// out\n\n    auxdata: 0xa26469706673582212204fbf6b17107cdbcaf8e5f668a09b971c5f6d34d613a8f347a00e1165686a2b3564736f6c63430008190033\n}\n",
    "bytecode": {
      "linkReferences": {},
      "object": "608060405260fa600255348015610014575f80fd5b5060405161209038038061209083398101604081905261003391610185565b60015f5561004033610119565b6001805460ff60a01b191690556001600160a01b03821661009d5760405162461bcd60e51b815260206004820152601260248201527124b73b30b634b21039ba30b13632b1b7b4b760711b60448201526064015b60405180910390fd5b6001600160a01b0381166100e85760405162461bcd60e51b8152602060048201526012602482015271125b9d985b1a5908199959481dd85b1b195d60721b6044820152606401610094565b600480546001600160a01b039384166001600160a01b031991821617909155600380549290931691161790556101b6565b600180546001600160a01b038381166001600160a01b0319831681179093556040519116919082907f8be0079c531659141344cd1fd0a4f28419497f9722a3daafe3b4186f6b6457e0905f90a35050565b80516001600160a01b0381168114610180575f80fd5b919050565b5f8060408385031215610196575f80fd5b61019f8361016a565b91506101ad6020840161016a565b90509250929050565b611ecd806101c35f395ff3fe608060405234801561000f575f80fd5b50600436106101a5575f3560e01c80639012c4a8116100e8578063c73b38e111610093578063e9cbd8221161006e578063e9cbd82214610503578063f25f4b5614610516578063f2fde38b14610529578063fea266ae1461053c575f80fd5b8063c73b38e1146104bd578063de38eb3a146104d0578063dfe6b5d6146104db575f80fd5b8063b8606eef116100c3578063b8606eef146104a2578063b88584bb146104ab578063bc063e1a146104b4575f80fd5b80639012c4a814610469578063a5c1674e1461047c578063b02d13511461048f575f80fd5b8063543ad1df11610153578063715018a61161012e578063715018a6146102ef57806382fd5bac146102f75780638456cb591461043c5780638da5cb5b14610444575f80fd5b8063543ad1df146102b65780635c975abb146102bf57806366718524146102dc575f80fd5b8063392927631161018357806339292763146102885780633f4ba83a1461029b5780634d68282f146102a3575f80fd5b806303988f84146101a95780630e33599d1461025b5780632c7f556a14610270575b5f80fd5b61020b6101b7366004611cbb565b60076020525f9081526040902080546001820154600283015460038401546004850154600586015460069096015494956001600160a01b03948516959490931693919260ff80831693610100909304169188565b604080519889526001600160a01b0397881660208a01529590961694870194909452606086019290925215156080850152151560a084015260c083015260e0820152610100015b60405180910390f35b61026e610269366004611ced565b61054f565b005b61027a620f424081565b604051908152602001610252565b61026e610296366004611cbb565b61078f565b61026e61098c565b61026e6102b1366004611cbb565b61099e565b61027a610e1081565b600154600160a01b900460ff166040519015158152602001610252565b61026e6102ea366004611d17565b610ba1565b61026e610c55565b6103c9610305366004611cbb565b60408051610100810182525f80825260208201819052918101829052606081018290526080810182905260a0810182905260c0810182905260e0810191909152505f90815260076020908152604091829020825161010080820185528254825260018301546001600160a01b039081169483019490945260028301549093169381019390935260038101546060840152600481015460ff80821615156080860152929004909116151560a0830152600581015460c08301526006015460e082015290565b60405161025291905f610100820190508251825260208301516001600160a01b03808216602085015280604086015116604085015250506060830151606083015260808301511515608083015260a0830151151560a083015260c083015160c083015260e083015160e083015292915050565b61026e610c66565b6001546001600160a01b03165b6040516001600160a01b039091168152602001610252565b61026e610477366004611cbb565b610c76565b61026e61048a366004611cbb565b610d0b565b61027a61049d366004611d30565b610ec8565b61027a60025481565b61027a60065481565b61027a6103e881565b61026e6104cb366004611d60565b611205565b61027a6301e1338081565b6104e3611424565b604080519485526020850193909352918301526060820152608001610252565b600454610451906001600160a01b031681565b600354610451906001600160a01b031681565b61026e610537366004611d17565b6114ba565b61026e61054a366004611cbb565b611547565b61055761169a565b61055f6116f4565b5f8281526007602052604090206001015482906001600160a01b03166105c25760405162461bcd60e51b81526020600482015260136024820152721119585b08191bd95cc81b9bdd08195e1a5cdd606a1b60448201526064015b60405180910390fd5b5f8381526007602052604090206004810154610100900460ff166106285760405162461bcd60e51b815260206004820152600c60248201527f4e6f74206469737075746564000000000000000000000000000000000000000060448201526064016105b9565b600481015460ff161561067d5760405162461bcd60e51b815260206004820152600660248201527f436c6f736564000000000000000000000000000000000000000000000000000060448201526064016105b9565b60018101546001600160a01b03848116911614806106aa575060028101546001600160a01b038481169116145b6106f65760405162461bcd60e51b815260206004820152600e60248201527f496e76616c69642077696e6e657200000000000000000000000000000000000060448201526064016105b9565b600381015460048201805461ffff19166001179055600680548291905f9061071f908490611d9c565b909155505060045461073b906001600160a01b0316858361174b565b836001600160a01b0316857fdf0baf5489595ea17a097d16827d60793e2f57f3b85a982e5d7e02838b841ee68360405161077791815260200190565b60405180910390a350505061078b60015f55565b5050565b6107976116f4565b5f8181526007602052604090206001015481906001600160a01b03166107f55760405162461bcd60e51b81526020600482015260136024820152721119585b08191bd95cc81b9bdd08195e1a5cdd606a1b60448201526064016105b9565b5f82815260076020526040902060028101546001600160a01b0316331461085e5760405162461bcd60e51b815260206004820152601660248201527f4f6e6c792073656c6c65722063616e20726566756e640000000000000000000060448201526064016105b9565b600481015460ff16156108a15760405162461bcd60e51b815260206004820152600b60248201526a1119585b0818db1bdcd95960aa1b60448201526064016105b9565b6004810154610100900460ff16156108eb5760405162461bcd60e51b815260206004820152600d60248201526c1119585b08191a5cdc1d5d1959609a1b60448201526064016105b9565b600381015460048201805460ff19166001179055600680548291905f90610913908490611d9c565b90915550506001820154600454610937916001600160a01b0391821691168361174b565b60018201546040518281526001600160a01b039091169085907f7ca5472b7ea78c2c0141c5a12ee6d170cf4ce8ed06be3d22c8252ddfc7a6a2c49060200160405180910390a350505061098960015f55565b50565b61099461169a565b61099c6117e0565b565b6109a66116f4565b5f8181526007602052604090206001015481906001600160a01b0316610a045760405162461bcd60e51b81526020600482015260136024820152721119585b08191bd95cc81b9bdd08195e1a5cdd606a1b60448201526064016105b9565b5f82815260076020526040902060018101546001600160a01b03163314610a6d5760405162461bcd60e51b815260206004820152601660248201527f4f6e6c792062757965722063616e2072656c656173650000000000000000000060448201526064016105b9565b600481015460ff1615610ab05760405162461bcd60e51b815260206004820152600b60248201526a1119585b0818db1bdcd95960aa1b60448201526064016105b9565b6004810154610100900460ff1615610afa5760405162461bcd60e51b815260206004820152600d60248201526c1119585b08191a5cdc1d5d1959609a1b60448201526064016105b9565b600381015460048201805460ff19166001179055600680548291905f90610b22908490611d9c565b909155505060028201545f908190610b43906001600160a01b031684611835565b600286015460408051848152602081018490529395509193506001600160a01b03169188917ff86dbbaae73a38eba376327ec68def0678d91d952b4a18aa86d880f199632bd9910160405180910390a3505050505061098960015f55565b610ba961169a565b6001600160a01b038116610bff5760405162461bcd60e51b815260206004820152600e60248201527f496e76616c69642077616c6c657400000000000000000000000000000000000060448201526064016105b9565b6003805473ffffffffffffffffffffffffffffffffffffffff19166001600160a01b0383169081179091556040517f29acee77dafcfa0143d74a7ea236018f3a6e1fa71e27fc59bbfbc6b8ca8edccd905f90a250565b610c5d61169a565b61099c5f6118a2565b610c6e61169a565b61099c611900565b610c7e61169a565b6103e8811115610cd05760405162461bcd60e51b815260206004820152600960248201527f466565203e20313025000000000000000000000000000000000000000000000060448201526064016105b9565b60028190556040518181527f8c4d35e54a3f2ef1134138fd8ea3daee6a3c89e10d2665996babdf70261e2c769060200160405180910390a150565b5f8181526007602052604090206001015481906001600160a01b0316610d695760405162461bcd60e51b81526020600482015260136024820152721119585b08191bd95cc81b9bdd08195e1a5cdd606a1b60448201526064016105b9565b5f82815260076020526040902060018101546001600160a01b0316331480610d9d575060028101546001600160a01b031633145b610de95760405162461bcd60e51b815260206004820152600c60248201527f4e6f7420696e766f6c766564000000000000000000000000000000000000000060448201526064016105b9565b600481015460ff1615610e2c5760405162461bcd60e51b815260206004820152600b60248201526a1119585b0818db1bdcd95960aa1b60448201526064016105b9565b6004810154610100900460ff1615610e865760405162461bcd60e51b815260206004820152601060248201527f416c72656164792064697370757465640000000000000000000000000000000060448201526064016105b9565b60048101805461ff001916610100179055604051339084907f84a477df8a28a4276ca6dee4458a06c3015f30c477d9c949ede4e13ff8a552b4905f90a3505050565b5f610ed16116f4565b610ed9611943565b620f4240831015610f2c5760405162461bcd60e51b815260206004820152601d60248201527f416d6f756e742062656c6f77206d696e696d756d20283120555344542900000060448201526064016105b9565b336001600160a01b03851603610f845760405162461bcd60e51b815260206004820152601560248201527f43616e6e6f74206465616c20776974682073656c66000000000000000000000060448201526064016105b9565b6001600160a01b038416610fda5760405162461bcd60e51b815260206004820152601660248201527f496e76616c69642073656c6c657220616464726573730000000000000000000060448201526064016105b9565b610e1082101561102c5760405162461bcd60e51b815260206004820152601160248201527f54696d656f757420746f6f2073686f727400000000000000000000000000000060448201526064016105b9565b6301e133808211156110805760405162461bcd60e51b815260206004820152601060248201527f54696d656f757420746f6f206c6f6e670000000000000000000000000000000060448201526064016105b9565b60058054905f61108f83611db5565b909155505060055490505f6110a48342611dcd565b6004549091506110bf906001600160a01b031633308761199d565b6040805161010080820183528482523360208084019182526001600160a01b038a8116858701908152606086018b81525f6080880181815260a089018281524260c08b0190815260e08b018d81528e855260079098529a832099518a55965160018a01805491871673ffffffffffffffffffffffffffffffffffffffff19928316179055935160028a01805491909616941693909317909355516003870155516004860180549451151590950261ff00199115159190911661ffff199094169390931792909217909255925160058301555160069182015580548692906111a7908490611dcd565b909155505060408051858152602081018590526001600160a01b03871691339185917fefd7bb4f992963087670aa168590baee24d227ff5c18ae3790ef7ec22bde6274910160405180910390a4506111fe60015f55565b9392505050565b61120d61169a565b6112156116f4565b6001600160a01b03811661126b5760405162461bcd60e51b815260206004820152601160248201527f496e76616c696420726563697069656e7400000000000000000000000000000060448201526064016105b9565b6040516370a0823160e01b815230600482015282905f906001600160a01b038316906370a0823190602401602060405180830381865afa1580156112b1573d5f803e3d5ffd5b505050506040513d601f19601f820116820180604052508101906112d59190611de0565b6004549091506001600160a01b03908116908516036113b757600654811161133f5760405162461bcd60e51b815260206004820152600960248201527f4e6f20657863657373000000000000000000000000000000000000000000000060448201526064016105b9565b5f6006548261134e9190611d9c565b90506113646001600160a01b038416858361174b565b836001600160a01b0316856001600160a01b03167f3f1ae5e59a88cdc56f419d6eee177af464afe1f10ceee0b87092af8f06fa6782836040516113a991815260200190565b60405180910390a350611419565b6113cb6001600160a01b038316848361174b565b826001600160a01b0316846001600160a01b03167f3f1ae5e59a88cdc56f419d6eee177af464afe1f10ceee0b87092af8f06fa67828360405161141091815260200190565b60405180910390a35b505061078b60015f55565b600554600654600480546040516370a0823160e01b815230928101929092525f9182916001600160a01b0316906370a0823190602401602060405180830381865afa158015611475573d5f803e3d5ffd5b505050506040513d601f19601f820116820180604052508101906114999190611de0565b91508282116114a8575f6114b2565b6114b28383611d9c565b905090919293565b6114c261169a565b6001600160a01b03811661153e5760405162461bcd60e51b815260206004820152602660248201527f4f776e61626c653a206e6577206f776e657220697320746865207a65726f206160448201527f646472657373000000000000000000000000000000000000000000000000000060648201526084016105b9565b610989816118a2565b61154f6116f4565b5f8181526007602052604090206001015481906001600160a01b03166115ad5760405162461bcd60e51b81526020600482015260136024820152721119585b08191bd95cc81b9bdd08195e1a5cdd606a1b60448201526064016105b9565b5f828152600760205260409020600481015460ff16156115fd5760405162461bcd60e51b815260206004820152600b60248201526a1119585b0818db1bdcd95960aa1b60448201526064016105b9565b6004810154610100900460ff16156116475760405162461bcd60e51b815260206004820152600d60248201526c1119585b08191a5cdc1d5d1959609a1b60448201526064016105b9565b806006015442116108eb5760405162461bcd60e51b815260206004820152601160248201527f4e6f742074696d6564206f75742079657400000000000000000000000000000060448201526064016105b9565b6001546001600160a01b0316331461099c5760405162461bcd60e51b815260206004820181905260248201527f4f776e61626c653a2063616c6c6572206973206e6f7420746865206f776e657260448201526064016105b9565b60025f54036117455760405162461bcd60e51b815260206004820152601f60248201527f5265656e7472616e637947756172643a207265656e7472616e742063616c6c0060448201526064016105b9565b60025f55565b6040516001600160a01b0383166024820152604481018290526117db90849063a9059cbb60e01b906064015b60408051601f198184030181529190526020810180517bffffffffffffffffffffffffffffffffffffffffffffffffffffffff167fffffffff00000000000000000000000000000000000000000000000000000000909316929092179091526119db565b505050565b6117e8611ac1565b6001805460ff60a01b191690557f5db9ee0a495bf2e6ff9c91a7834c1ba4fdd244a5e8aa4e537bd38aeae4b073aa335b6040516001600160a01b03909116815260200160405180910390a1565b5f80612710600254846118489190611df7565b6118529190611e0e565b905061185e8184611d9c565b600454909250611878906001600160a01b0316858461174b565b801561189b5760035460045461189b916001600160a01b0391821691168361174b565b9250929050565b600180546001600160a01b0383811673ffffffffffffffffffffffffffffffffffffffff19831681179093556040519116919082907f8be0079c531659141344cd1fd0a4f28419497f9722a3daafe3b4186f6b6457e0905f90a35050565b611908611943565b6001805460ff60a01b1916600160a01b1790557f62e78cea01bee320cd4e420270b5ea74000d11b0c9f74754ebdbfc544b05a2586118183390565b600154600160a01b900460ff161561099c5760405162461bcd60e51b815260206004820152601060248201527f5061757361626c653a207061757365640000000000000000000000000000000060448201526064016105b9565b6040516001600160a01b03808516602483015283166044820152606481018290526119d59085906323b872dd60e01b90608401611777565b50505050565b5f611a2f826040518060400160405280602081526020017f5361666545524332303a206c6f772d6c6576656c2063616c6c206661696c6564815250856001600160a01b0316611b1a9092919063ffffffff16565b905080515f1480611a4f575080806020019051810190611a4f9190611e2d565b6117db5760405162461bcd60e51b815260206004820152602a60248201527f5361666545524332303a204552433230206f7065726174696f6e20646964206e60448201527f6f7420737563636565640000000000000000000000000000000000000000000060648201526084016105b9565b600154600160a01b900460ff1661099c5760405162461bcd60e51b815260206004820152601460248201527f5061757361626c653a206e6f742070617573656400000000000000000000000060448201526064016105b9565b6060611b2884845f85611b30565b949350505050565b606082471015611ba85760405162461bcd60e51b815260206004820152602660248201527f416464726573733a20696e73756666696369656e742062616c616e636520666f60448201527f722063616c6c000000000000000000000000000000000000000000000000000060648201526084016105b9565b5f80866001600160a01b03168587604051611bc39190611e4c565b5f6040518083038185875af1925050503d805f8114611bfd576040519150601f19603f3d011682016040523d82523d5f602084013e611c02565b606091505b5091509150611c1387838387611c1e565b979650505050505050565b60608315611c8c5782515f03611c85576001600160a01b0385163b611c855760405162461bcd60e51b815260206004820152601d60248201527f416464726573733a2063616c6c20746f206e6f6e2d636f6e747261637400000060448201526064016105b9565b5081611b28565b611b288383815115611ca15781518083602001fd5b8060405162461bcd60e51b81526004016105b99190611e62565b5f60208284031215611ccb575f80fd5b5035919050565b80356001600160a01b0381168114611ce8575f80fd5b919050565b5f8060408385031215611cfe575f80fd5b82359150611d0e60208401611cd2565b90509250929050565b5f60208284031215611d27575f80fd5b6111fe82611cd2565b5f805f60608486031215611d42575f80fd5b611d4b84611cd2565b95602085013595506040909401359392505050565b5f8060408385031215611d71575f80fd5b611d7a83611cd2565b9150611d0e60208401611cd2565b634e487b7160e01b5f52601160045260245ffd5b81810381811115611daf57611daf611d88565b92915050565b5f60018201611dc657611dc6611d88565b5060010190565b80820180821115611daf57611daf611d88565b5f60208284031215611df0575f80fd5b5051919050565b8082028115828204841417611daf57611daf611d88565b5f82611e2857634e487b7160e01b5f52601260045260245ffd5b500490565b5f60208284031215611e3d575f80fd5b815180151581146111fe575f80fd5b5f82518060208501845e5f920191825250919050565b602081525f82518060208401528060208501604085015e5f604082850101526040601f19601f8301168401019150509291505056fea26469706673582212204fbf6b17107cdbcaf8e5f668a09b971c5f6d34d613a8f347a00e1165686a2b3564736f6c63430008190033",
      "opcodes": "PUSH1 0x80 PUSH1 0x40 MSTORE PUSH1 0xFA PUSH1 0x2 SSTORE CALLVALUE DUP1 ISZERO PUSH2 0x14 JUMPI PUSH0 DUP1 REVERT JUMPDEST POP PUSH1 0x40 MLOAD PUSH2 0x2090 CODESIZE SUB DUP1 PUSH2 0x2090 DUP4 CODECOPY DUP2 ADD PUSH1 0x40 DUP2 SWAP1 MSTORE PUSH2 0x33 SWAP2 PUSH2 0x185 JUMP JUMPDEST PUSH1 0x1 PUSH0 SSTORE PUSH2 0x40 CALLER PUSH2 0x119 JUMP JUMPDEST PUSH1 0x1 DUP1 SLOAD PUSH1 0xFF PUSH1 0xA0 SHL NOT AND SWAP1 SSTORE PUSH1 0x1 PUSH1 0x1 PUSH1 0xA0 SHL SUB DUP3 AND PUSH2 0x9D JUMPI PUSH1 0x40 MLOAD PUSH3 0x461BCD PUSH1 0xE5 SHL DUP2 MSTORE PUSH1 0x20 PUSH1 0x4 DUP3 ADD MSTORE PUSH1 0x12 PUSH1 0x24 DUP3 ADD MSTORE PUSH18 0x24B73B30B634B21039BA30B13632B1B7B4B7 PUSH1 0x71 SHL PUSH1 0x44 DUP3 ADD MSTORE PUSH1 0x64 ADD JUMPDEST PUSH1 0x40 MLOAD DUP1 SWAP2 SUB SWAP1 REVERT JUMPDEST PUSH1 0x1 PUSH1 0x1 PUSH1 0xA0 SHL SUB DUP2 AND PUSH2 0xE8 JUMPI PUSH1 0x40 MLOAD PUSH3 0x461BCD PUSH1 0xE5 SHL DUP2 MSTORE PUSH1 0x20 PUSH1 0x4 DUP3 ADD MSTORE PUSH1 0x12 PUSH1 0x24 DUP3 ADD MSTORE PUSH18 0x125B9D985B1A5908199959481DD85B1B195D PUSH1 0x72 SHL PUSH1 0x44 DUP3 ADD MSTORE PUSH1 0x64 ADD PUSH2 0x94 JUMP JUMPDEST PUSH1 0x4 DUP1 SLOAD PUSH1 0x1 PUSH1 0x1 PUSH1 0xA0 SHL SUB SWAP4 DUP5 AND PUSH1 0x1 PUSH1 0x1 PUSH1 0xA0 SHL SUB NOT SWAP2 DUP3 AND OR SWAP1 SWAP2 SSTORE PUSH1 0x3 DUP1 SLOAD SWAP3 SWAP1 SWAP4 AND SWAP2 AND OR SWAP1 SSTORE PUSH2 0x1B6 JUMP JUMPDEST PUSH1 0x1 DUP1 SLOAD PUSH1 0x1 PUSH1 0x1 PUSH1 0xA0 SHL SUB DUP4 DUP2 AND PUSH1 0x1 PUSH1 0x1 PUSH1 0xA0 SHL SUB NOT DUP4 AND DUP2 OR SWAP1 SWAP4 SSTORE PUSH1 0x40 MLOAD SWAP2 AND SWAP2 SWAP1 DUP3 SWAP1 PUSH32 0x8BE0079C531659141344CD1FD0A4F28419497F9722A3DAAFE3B4186F6B6457E0 SWAP1 PUSH0 SWAP1 LOG3 POP POP JUMP JUMPDEST DUP1 MLOAD PUSH1 0x1 PUSH1 0x1 PUSH1 0xA0 SHL SUB DUP2 AND DUP2 EQ PUSH2 0x180 JUMPI PUSH0 DUP1 REVERT JUMPDEST SWAP2 SWAP1 POP JUMP JUMPDEST PUSH0 DUP1 PUSH1 0x40 DUP4 DUP6 SUB SLT ISZERO PUSH2 0x196 JUMPI PUSH0 DUP1 REVERT JUMPDEST PUSH2 0x19F DUP4 PUSH2 0x16A JUMP JUMPDEST SWAP2 POP PUSH2 0x1AD PUSH1 0x20 DUP5 ADD PUSH2 0x16A JUMP JUMPDEST SWAP1 POP SWAP3 POP SWAP3 SWAP1 POP JUMP JUMPDEST PUSH2 0x1ECD DUP1 PUSH2 0x1C3 PUSH0 CODECOPY PUSH0 RETURN INVALID PUSH1 0x80 PUSH1 0x40 MSTORE CALLVALUE DUP1 ISZERO PUSH2 0xF JUMPI PUSH0 DUP1 REVERT JUMPDEST POP PUSH1 0x4 CALLDATASIZE LT PUSH2 0x1A5 JUMPI PUSH0 CALLDATALOAD PUSH1 0xE0 SHR DUP1 PUSH4 0x9012C4A8 GT PUSH2 0xE8 JUMPI DUP1 PUSH4 0xC73B38E1 GT PUSH2 0x93 JUMPI DUP1 PUSH4 0xE9CBD822 GT PUSH2 0x6E JUMPI DUP1 PUSH4 0xE9CBD822 EQ PUSH2 0x503 JUMPI DUP1 PUSH4 0xF25F4B56 EQ PUSH2 0x516 JUMPI DUP1 PUSH4 0xF2FDE38B EQ PUSH2 0x529 JUMPI DUP1 PUSH4 0xFEA266AE EQ PUSH2 0x53C JUMPI PUSH0 DUP1 REVERT JUMPDEST DUP1 PUSH4 0xC73B38E1 EQ PUSH2 0x4BD JUMPI DUP1 PUSH4 0xDE38EB3A EQ PUSH2 0x4D0 JUMPI DUP1 PUSH4 0xDFE6B5D6 EQ PUSH2 0x4DB JUMPI PUSH0 DUP1 REVERT JUMPDEST DUP1 PUSH4 0xB8606EEF GT PUSH2 0xC3 JUMPI DUP1 PUSH4 0xB8606EEF EQ PUSH2 0x4A2 JUMPI DUP1 PUSH4 0xB88584BB EQ PUSH2 0x4AB JUMPI DUP1 PUSH4 0xBC063E1A EQ PUSH2 0x4B4 JUMPI PUSH0 DUP1 REVERT JUMPDEST DUP1 PUSH4 0x9012C4A8 EQ PUSH2 0x469 JUMPI DUP1 PUSH4 0xA5C1674E EQ PUSH2 0x47C JUMPI DUP1 PUSH4 0xB02D1351 EQ PUSH2 0x48F JUMPI PUSH0 DUP1 REVERT JUMPDEST DUP1 PUSH4 0x543AD1DF GT PUSH2 0x153 JUMPI DUP1 PUSH4 0x715018A6 GT PUSH2 0x12E JUMPI DUP1 PUSH4 0x715018A6 EQ PUSH2 0x2EF JUMPI DUP1 PUSH4 0x82FD5BAC EQ PUSH2 0x2F7 JUMPI DUP1 PUSH4 0x8456CB59 EQ PUSH2 0x43C JUMPI DUP1 PUSH4 0x8DA5CB5B EQ PUSH2 0x444 JUMPI PUSH0 DUP1 REVERT JUMPDEST DUP1 PUSH4 0x543AD1DF EQ PUSH2 0x2B6 JUMPI DUP1 PUSH4 0x5C975ABB EQ PUSH2 0x2BF JUMPI DUP1 PUSH4 0x66718524 EQ PUSH2 0x2DC JUMPI PUSH0 DUP1 REVERT JUMPDEST DUP1 PUSH4 0x39292763 GT PUSH2 0x183 JUMPI DUP1 PUSH4 0x39292763 EQ PUSH2 0x288 JUMPI DUP1 PUSH4 0x3F4BA83A EQ PUSH2 0x29B JUMPI DUP1 PUSH4 0x4D68282F EQ PUSH2 0x2A3 JUMPI PUSH0 DUP1 REVERT JUMPDEST DUP1 PUSH4 0x3988F84 EQ PUSH2 0x1A9 JUMPI DUP1 PUSH4 0xE33599D EQ PUSH2 0x25B JUMPI DUP1 PUSH4 0x2C7F556A EQ PUSH2 0x270 JUMPI JUMPDEST PUSH0 DUP1 REVERT JUMPDEST PUSH2 0x20B PUSH2 0x1B7 CALLDATASIZE PUSH1 0x4 PUSH2 0x1CBB JUMP JUMPDEST PUSH1 0x7 PUSH1 0x20 MSTORE PUSH0 SWAP1 DUP2 MSTORE PUSH1 0x40 SWAP1 KECCAK256 DUP1 SLOAD PUSH1 0x1 DUP3 ADD SLOAD PUSH1 0x2 DUP4 ADD SLOAD PUSH1 0x3 DUP5 ADD SLOAD PUSH1 0x4 DUP6 ADD SLOAD PUSH1 0x5 DUP7 ADD SLOAD PUSH1 0x6 SWAP1 SWAP7 ADD SLOAD SWAP5 SWAP6 PUSH1 0x1 PUSH1 0x1 PUSH1 0xA0 SHL SUB SWAP5 DUP6 AND SWAP6 SWAP5 SWAP1 SWAP4 AND SWAP4 SWAP2 SWAP3 PUSH1 0xFF DUP1 DUP4 AND SWAP4 PUSH2 0x100 SWAP1 SWAP4 DIV AND SWAP2 DUP9 JUMP JUMPDEST PUSH1 0x40 DUP1 MLOAD SWAP9 DUP10 MSTORE PUSH1 0x1 PUSH1 0x1 PUSH1 0xA0 SHL SUB SWAP8 DUP9 AND PUSH1 0x20 DUP11 ADD MSTORE SWAP6 SWAP1 SWAP7 AND SWAP5 DUP8 ADD SWAP5 SWAP1 SWAP5 MSTORE PUSH1 0x60 DUP7 ADD SWAP3 SWAP1 SWAP3 MSTORE ISZERO ISZERO PUSH1 0x80 DUP6 ADD MSTORE ISZERO ISZERO PUSH1 0xA0 DUP5 ADD MSTORE PUSH1 0xC0 DUP4 ADD MSTORE PUSH1 0xE0 DUP3 ADD MSTORE PUSH2 0x100 ADD JUMPDEST PUSH1 0x40 MLOAD DUP1 SWAP2 SUB SWAP1 RETURN JUMPDEST PUSH2 0x26E PUSH2 0x269 CALLDATASIZE PUSH1 0x4 PUSH2 0x1CED JUMP JUMPDEST PUSH2 0x54F JUMP JUMPDEST STOP JUMPDEST PUSH2 0x27A PUSH3 0xF4240 DUP2 JUMP JUMPDEST PUSH1 0x40 MLOAD SWAP1 DUP2 MSTORE PUSH1 0x20 ADD PUSH2 0x252 JUMP JUMPDEST PUSH2 0x26E PUSH2 0x296 CALLDATASIZE PUSH1 0x4 PUSH2 0x1CBB JUMP JUMPDEST PUSH2 0x78F JUMP JUMPDEST PUSH2 0x26E PUSH2 0x98C JUMP JUMPDEST PUSH2 0x26E PUSH2 0x2B1 CALLDATASIZE PUSH1 0x4 PUSH2 0x1CBB JUMP JUMPDEST PUSH2 0x99E JUMP JUMPDEST PUSH2 0x27A PUSH2 0xE10 DUP2 JUMP JUMPDEST PUSH1 0x1 SLOAD PUSH1 0x1 PUSH1 0xA0 SHL SWAP1 DIV PUSH1 0xFF AND PUSH1 0x40 MLOAD SWAP1 ISZERO ISZERO DUP2 MSTORE PUSH1 0x20 ADD PUSH2 0x252 JUMP JUMPDEST PUSH2 0x26E PUSH2 0x2EA CALLDATASIZE PUSH1 0x4 PUSH2 0x1D17 JUMP JUMPDEST PUSH2 0xBA1 JUMP JUMPDEST PUSH2 0x26E PUSH2 0xC55 JUMP JUMPDEST PUSH2 0x3C9 PUSH2 0x305 CALLDATASIZE PUSH1 0x4 PUSH2 0x1CBB JUMP JUMPDEST PUSH1 0x40 DUP1 MLOAD PUSH2 0x100 DUP2 ADD DUP3 MSTORE PUSH0 DUP1 DUP3 MSTORE PUSH1 0x20 DUP3 ADD DUP2 SWAP1 MSTORE SWAP2 DUP2 ADD DUP3 SWAP1 MSTORE PUSH1 0x60 DUP2 ADD DUP3 SWAP1 MSTORE PUSH1 0x80 DUP2 ADD DUP3 SWAP1 MSTORE PUSH1 0xA0 DUP2 ADD DUP3 SWAP1 MSTORE PUSH1 0xC0 DUP2 ADD DUP3 SWAP1 MSTORE PUSH1 0xE0 DUP2 ADD SWAP2 SWAP1 SWAP2 MSTORE POP PUSH0 SWAP1 DUP2 MSTORE PUSH1 0x7 PUSH1 0x20 SWAP1 DUP2 MSTORE PUSH1 0x40 SWAP2 DUP3 SWAP1 KECCAK256 DUP3 MLOAD PUSH2 0x100 DUP1 DUP3 ADD DUP6 MSTORE DUP3 SLOAD DUP3 MSTORE PUSH1 0x1 DUP4 ADD SLOAD PUSH1 0x1 PUSH1 0x1 PUSH1 0xA0 SHL SUB SWAP1 DUP2 AND SWAP5 DUP4 ADD SWAP5 SWAP1 SWAP5 MSTORE PUSH1 0x2 DUP4 ADD SLOAD SWAP1 SWAP4 AND SWAP4 DUP2 ADD SWAP4 SWAP1 SWAP4 MSTORE PUSH1 0x3 DUP2 ADD SLOAD PUSH1 0x60 DUP5 ADD MSTORE PUSH1 0x4 DUP2 ADD SLOAD PUSH1 0xFF DUP1 DUP3 AND ISZERO ISZERO PUSH1 0x80 DUP7 ADD MSTORE SWAP3 SWAP1 DIV SWAP1 SWAP2 AND ISZERO ISZERO PUSH1 0xA0 DUP4 ADD MSTORE PUSH1 0x5 DUP2 ADD SLOAD PUSH1 0xC0 DUP4 ADD MSTORE PUSH1 0x6 ADD SLOAD PUSH1 0xE0 DUP3 ADD MSTORE SWAP1 JUMP JUMPDEST PUSH1 0x40 MLOAD PUSH2 0x252 SWAP2 SWAP1 PUSH0 PUSH2 0x100 DUP3 ADD SWAP1 POP DUP3 MLOAD DUP3 MSTORE PUSH1 0x20 DUP4 ADD MLOAD PUSH1 0x1 PUSH1 0x1 PUSH1 0xA0 SHL SUB DUP1 DUP3 AND PUSH1 0x20 DUP6 ADD MSTORE DUP1 PUSH1 0x40 DUP7 ADD MLOAD AND PUSH1 0x40 DUP6 ADD MSTORE POP POP PUSH1 0x60 DUP4 ADD MLOAD PUSH1 0x60 DUP4 ADD MSTORE PUSH1 0x80 DUP4 ADD MLOAD ISZERO ISZERO PUSH1 0x80 DUP4 ADD MSTORE PUSH1 0xA0 DUP4 ADD MLOAD ISZERO ISZERO PUSH1 0xA0 DUP4 ADD MSTORE PUSH1 0xC0 DUP4 ADD MLOAD PUSH1 0xC0 DUP4 ADD MSTORE PUSH1 0xE0 DUP4 ADD MLOAD PUSH1 0xE0 DUP4 ADD MSTORE SWAP3 SWAP2 POP POP JUMP JUMPDEST PUSH2 0x26E PUSH2 0xC66 JUMP JUMPDEST PUSH1 0x1 SLOAD PUSH1 0x1 PUSH1 0x1 PUSH1 0xA0 SHL SUB AND JUMPDEST PUSH1 0x40 MLOAD PUSH1 0x1 PUSH1 0x1 PUSH1 0xA0 SHL SUB SWAP1 SWAP2 AND DUP2 MSTORE PUSH1 0x20 ADD PUSH2 0x252 JUMP JUMPDEST PUSH2 0x26E PUSH2 0x477 CALLDATASIZE PUSH1 0x4 PUSH2 0x1CBB JUMP JUMPDEST PUSH2 0xC76 JUMP JUMPDEST PUSH2 0x26E PUSH2 0x48A CALLDATASIZE PUSH1 0x4 PUSH2 0x1CBB JUMP JUMPDEST PUSH2 0xD0B JUMP JUMPDEST PUSH2 0x27A PUSH2 0x49D CALLDATASIZE PUSH1 0x4 PUSH2 0x1D30 JUMP JUMPDEST PUSH2 0xEC8 JUMP JUMPDEST PUSH2 0x27A PUSH1 0x2 SLOAD DUP2 JUMP JUMPDEST PUSH2 0x27A PUSH1 0x6 SLOAD DUP2 JUMP JUMPDEST PUSH2 0x27A PUSH2 0x3E8 DUP2 JUMP JUMPDEST PUSH2 0x26E PUSH2 0x4CB CALLDATASIZE PUSH1 0x4 PUSH2 0x1D60 JUMP JUMPDEST PUSH2 0x1205 JUMP JUMPDEST PUSH2 0x27A PUSH4 0x1E13380 DUP2 JUMP JUMPDEST PUSH2 0x4E3 PUSH2 0x1424 JUMP JUMPDEST PUSH1 0x40 DUP1 MLOAD SWAP5 DUP6 MSTORE PUSH1 0x20 DUP6 ADD SWAP4 SWAP1 SWAP4 MSTORE SWAP2 DUP4 ADD MSTORE PUSH1 0x60 DUP3 ADD MSTORE PUSH1 0x80 ADD PUSH2 0x252 JUMP JUMPDEST PUSH1 0x4 SLOAD PUSH2 0x451 SWAP1 PUSH1 0x1 PUSH1 0x1 PUSH1 0xA0 SHL SUB AND DUP2 JUMP JUMPDEST PUSH1 0x3 SLOAD PUSH2 0x451 SWAP1 PUSH1 0x1 PUSH1 0x1 PUSH1 0xA0 SHL SUB AND DUP2 JUMP JUMPDEST PUSH2 0x26E PUSH2 0x537 CALLDATASIZE PUSH1 0x4 PUSH2 0x1D17 JUMP JUMPDEST PUSH2 0x14BA JUMP JUMPDEST PUSH2 0x26E PUSH2 0x54A CALLDATASIZE PUSH1 0x4 PUSH2 0x1CBB JUMP JUMPDEST PUSH2 0x1547 JUMP JUMPDEST PUSH2 0x557 PUSH2 0x169A JUMP JUMPDEST PUSH2 0x55F PUSH2 0x16F4 JUMP JUMPDEST PUSH0 DUP3 DUP2 MSTORE PUSH1 0x7 PUSH1 0x20 MSTORE PUSH1 0x40 SWAP1 KECCAK256 PUSH1 0x1 ADD SLOAD DUP3 SWAP1 PUSH1 0x1 PUSH1 0x1 PUSH1 0xA0 SHL SUB AND PUSH2 0x5C2 JUMPI PUSH1 0x40 MLOAD PUSH3 0x461BCD PUSH1 0xE5 SHL DUP2 MSTORE PUSH1 0x20 PUSH1 0x4 DUP3 ADD MSTORE PUSH1 0x13 PUSH1 0x24 DUP3 ADD MSTORE PUSH19 0x1119585B08191BD95CC81B9BDD08195E1A5CDD PUSH1 0x6A SHL PUSH1 0x44 DUP3 ADD MSTORE PUSH1 0x64 ADD JUMPDEST PUSH1 0x40 MLOAD DUP1 SWAP2 SUB SWAP1 REVERT JUMPDEST PUSH0 DUP4 DUP2 MSTORE PUSH1 0x7 PUSH1 0x20 MSTORE PUSH1 0x40 SWAP1 KECCAK256 PUSH1 0x4 DUP2 ADD SLOAD PUSH2 0x100 SWAP1 DIV PUSH1 0xFF AND PUSH2 0x628 JUMPI PUSH1 0x40 MLOAD PUSH3 0x461BCD PUSH1 0xE5 SHL DUP2 MSTORE PUSH1 0x20 PUSH1 0x4 DUP3 ADD MSTORE PUSH1 0xC PUSH1 0x24 DUP3 ADD MSTORE PUSH32 0x4E6F742064697370757465640000000000000000000000000000000000000000 PUSH1 0x44 DUP3 ADD MSTORE PUSH1 0x64 ADD PUSH2 0x5B9 JUMP JUMPDEST PUSH1 0x4 DUP2 ADD SLOAD PUSH1 0xFF AND ISZERO PUSH2 0x67D JUMPI PUSH1 0x40 MLOAD PUSH3 0x461BCD PUSH1 0xE5 SHL DUP2 MSTORE PUSH1 0x20 PUSH1 0x4 DUP3 ADD MSTORE PUSH1 0x6 PUSH1 0x24 DUP3 ADD MSTORE PUSH32 0x436C6F7365640000000000000000000000000000000000000000000000000000 PUSH1 0x44 DUP3 ADD MSTORE PUSH1 0x64 ADD PUSH2 0x5B9 JUMP JUMPDEST PUSH1 0x1 DUP2 ADD SLOAD PUSH1 0x1 PUSH1 0x1 PUSH1 0xA0 SHL SUB DUP5 DUP2 AND SWAP2 AND EQ DUP1 PUSH2 0x6AA JUMPI POP PUSH1 0x2 DUP2 ADD SLOAD PUSH1 0x1 PUSH1 0x1 PUSH1 0xA0 SHL SUB DUP5 DUP2 AND SWAP2 AND EQ JUMPDEST PUSH2 0x6F6 JUMPI PUSH1 0x40 MLOAD PUSH3 0x461BCD PUSH1 0xE5 SHL DUP2 MSTORE PUSH1 0x20 PUSH1 0x4 DUP3 ADD MSTORE PUSH1 0xE PUSH1 0x24 DUP3 ADD MSTORE PUSH32 0x496E76616C69642077696E6E6572000000000000000000000000000000000000 PUSH1 0x44 DUP3 ADD MSTORE PUSH1 0x64 ADD PUSH2 0x5B9 JUMP JUMPDEST PUSH1 0x3 DUP2 ADD SLOAD PUSH1 0x4 DUP3 ADD DUP1 SLOAD PUSH2 0xFFFF NOT AND PUSH1 0x1 OR SWAP1 SSTORE PUSH1 0x6 DUP1 SLOAD DUP3 SWAP2 SWAP1 PUSH0 SWAP1 PUSH2 0x71F SWAP1 DUP5 SWAP1 PUSH2 0x1D9C JUMP JUMPDEST SWAP1 SWAP2 SSTORE POP POP PUSH1 0x4 SLOAD PUSH2 0x73B SWAP1 PUSH1 0x1 PUSH1 0x1 PUSH1 0xA0 SHL SUB AND DUP6 DUP4 PUSH2 0x174B JUMP JUMPDEST DUP4 PUSH1 0x1 PUSH1 0x1 PUSH1 0xA0 SHL SUB AND DUP6 PUSH32 0xDF0BAF5489595EA17A097D16827D60793E2F57F3B85A982E5D7E02838B841EE6 DUP4 PUSH1 0x40 MLOAD PUSH2 0x777 SWAP2 DUP2 MSTORE PUSH1 0x20 ADD SWAP1 JUMP JUMPDEST PUSH1 0x40 MLOAD DUP1 SWAP2 SUB SWAP1 LOG3 POP POP POP PUSH2 0x78B PUSH1 0x1 PUSH0 SSTORE JUMP JUMPDEST POP POP JUMP JUMPDEST PUSH2 0x797 PUSH2 0x16F4 JUMP JUMPDEST PUSH0 DUP2 DUP2 MSTORE PUSH1 0x7 PUSH1 0x20 MSTORE PUSH1 0x40 SWAP1 KECCAK256 PUSH1 0x1 ADD SLOAD DUP2 SWAP1 PUSH1 0x1 PUSH1 0x1 PUSH1 0xA0 SHL SUB AND PUSH2 0x7F5 JUMPI PUSH1 0x40 MLOAD PUSH3 0x461BCD PUSH1 0xE5 SHL DUP2 MSTORE PUSH1 0x20 PUSH1 0x4 DUP3 ADD MSTORE PUSH1 0x13 PUSH1 0x24 DUP3 ADD MSTORE PUSH19 0x1119585B08191BD95CC81B9BDD08195E1A5CDD PUSH1 0x6A SHL PUSH1 0x44 DUP3 ADD MSTORE PUSH1 0x64 ADD PUSH2 0x5B9 JUMP JUMPDEST PUSH0 DUP3 DUP2 MSTORE PUSH1 0x7 PUSH1 0x20 MSTORE PUSH1 0x40 SWAP1 KECCAK256 PUSH1 0x2 DUP2 ADD SLOAD PUSH1 0x1 PUSH1 0x1 PUSH1 0xA0 SHL SUB AND CALLER EQ PUSH2 0x85E JUMPI PUSH1 0x40 MLOAD PUSH3 0x461BCD PUSH1 0xE5 SHL DUP2 MSTORE PUSH1 0x20 PUSH1 0x4 DUP3 ADD MSTORE PUSH1 0x16 PUSH1 0x24 DUP3 ADD MSTORE PUSH32 0x4F6E6C792073656C6C65722063616E20726566756E6400000000000000000000 PUSH1 0x44 DUP3 ADD MSTORE PUSH1 0x64 ADD PUSH2 0x5B9 JUMP JUMPDEST PUSH1 0x4 DUP2 ADD SLOAD PUSH1 0xFF AND ISZERO PUSH2 0x8A1 JUMPI PUSH1 0x40 MLOAD PUSH3 0x461BCD PUSH1 0xE5 SHL DUP2 MSTORE PUSH1 0x20 PUSH1 0x4 DUP3 ADD MSTORE PUSH1 0xB PUSH1 0x24 DUP3 ADD MSTORE PUSH11 0x1119585B0818DB1BDCD959 PUSH1 0xAA SHL PUSH1 0x44 DUP3 ADD MSTORE PUSH1 0x64 ADD PUSH2 0x5B9 JUMP JUMPDEST PUSH1 0x4 DUP2 ADD SLOAD PUSH2 0x100 SWAP1 DIV PUSH1 0xFF AND ISZERO PUSH2 0x8EB JUMPI PUSH1 0x40 MLOAD PUSH3 0x461BCD PUSH1 0xE5 SHL DUP2 MSTORE PUSH1 0x20 PUSH1 0x4 DUP3 ADD MSTORE PUSH1 0xD PUSH1 0x24 DUP3 ADD MSTORE PUSH13 0x1119585B08191A5CDC1D5D1959 PUSH1 0x9A SHL PUSH1 0x44 DUP3 ADD MSTORE PUSH1 0x64 ADD PUSH2 0x5B9 JUMP JUMPDEST PUSH1 0x3 DUP2 ADD SLOAD PUSH1 0x4 DUP3 ADD DUP1 SLOAD PUSH1 0xFF NOT AND PUSH1 0x1 OR SWAP1 SSTORE PUSH1 0x6 DUP1 SLOAD DUP3 SWAP2 SWAP1 PUSH0 SWAP1 PUSH2 0x913 SWAP1 DUP5 SWAP1 PUSH2 0x1D9C JUMP JUMPDEST SWAP1 SWAP2 SSTORE POP POP PUSH1 0x1 DUP3 ADD SLOAD PUSH1 0x4 SLOAD PUSH2 0x937 SWAP2 PUSH1 0x1 PUSH1 0x1 PUSH1 0xA0 SHL SUB SWAP2 DUP3 AND SWAP2 AND DUP4 PUSH2 0x174B JUMP JUMPDEST PUSH1 0x1 DUP3 ADD SLOAD PUSH1 0x40 MLOAD DUP3 DUP2 MSTORE PUSH1 0x1 PUSH1 0x1 PUSH1 0xA0 SHL SUB SWAP1 SWAP2 AND SWAP1 DUP6 SWAP1 PUSH32 0x7CA5472B7EA78C2C0141C5A12EE6D170CF4CE8ED06BE3D22C8252DDFC7A6A2C4 SWAP1 PUSH1 0x20 ADD PUSH1 0x40 MLOAD DUP1 SWAP2 SUB SWAP1 LOG3 POP POP POP PUSH2 0x989 PUSH1 0x1 PUSH0 SSTORE JUMP JUMPDEST POP JUMP JUMPDEST PUSH2 0x994 PUSH2 0x169A JUMP JUMPDEST PUSH2 0x99C PUSH2 0x17E0 JUMP JUMPDEST JUMP JUMPDEST PUSH2 0x9A6 PUSH2 0x16F4 JUMP JUMPDEST PUSH0 DUP2 DUP2 MSTORE PUSH1 0x7 PUSH1 0x20 MSTORE PUSH1 0x40 SWAP1 KECCAK256 PUSH1 0x1 ADD SLOAD DUP2 SWAP1 PUSH1 0x1 PUSH1 0x1 PUSH1 0xA0 SHL SUB AND PUSH2 0xA04 JUMPI PUSH1 0x40 MLOAD PUSH3 0x461BCD PUSH1 0xE5 SHL DUP2 MSTORE PUSH1 0x20 PUSH1 0x4 DUP3 ADD MSTORE PUSH1 0x13 PUSH1 0x24 DUP3 ADD MSTORE PUSH19 0x1119585B08191BD95CC81B9BDD08195E1A5CDD PUSH1 0x6A SHL PUSH1 0x44 DUP3 ADD MSTORE PUSH1 0x64 ADD PUSH2 0x5B9 JUMP JUMPDEST PUSH0 DUP3 DUP2 MSTORE PUSH1 0x7 PUSH1 0x20 MSTORE PUSH1 0x40 SWAP1 KECCAK256 PUSH1 0x1 DUP2 ADD SLOAD PUSH1 0x1 PUSH1 0x1 PUSH1 0xA0 SHL SUB AND CALLER EQ PUSH2 0xA6D JUMPI PUSH1 0x40 MLOAD PUSH3 0x461BCD PUSH1 0xE5 SHL DUP2 MSTORE PUSH1 0x20 PUSH1 0x4 DUP3 ADD MSTORE PUSH1 0x16 PUSH1 0x24 DUP3 ADD MSTORE PUSH32 0x4F6E6C792062757965722063616E2072656C6561736500000000000000000000 PUSH1 0x44 DUP3 ADD MSTORE PUSH1 0x64 ADD PUSH2 0x5B9 JUMP JUMPDEST PUSH1 0x4 DUP2 ADD SLOAD PUSH1 0xFF AND ISZERO PUSH2 0xAB0 JUMPI PUSH1 0x40 MLOAD PUSH3 0x461BCD PUSH1 0xE5 SHL DUP2 MSTORE PUSH1 0x20 PUSH1 0x4 DUP3 ADD MSTORE PUSH1 0xB PUSH1 0x24 DUP3 ADD MSTORE PUSH11 0x1119585B0818DB1BDCD959 PUSH1 0xAA SHL PUSH1 0x44 DUP3 ADD MSTORE PUSH1 0x64 ADD PUSH2 0x5B9 JUMP JUMPDEST PUSH1 0x4 DUP2 ADD SLOAD PUSH2 0x100 SWAP1 DIV PUSH1 0xFF AND ISZERO PUSH2 0xAFA JUMPI PUSH1 0x40 MLOAD PUSH3 0x461BCD PUSH1 0xE5 SHL DUP2 MSTORE PUSH1 0x20 PUSH1 0x4 DUP3 ADD MSTORE PUSH1 0xD PUSH1 0x24 DUP3 ADD MSTORE PUSH13 0x1119585B08191A5CDC1D5D1959 PUSH1 0x9A SHL PUSH1 0x44 DUP3 ADD MSTORE PUSH1 0x64 ADD PUSH2 0x5B9 JUMP JUMPDEST PUSH1 0x3 DUP2 ADD SLOAD PUSH1 0x4 DUP3 ADD DUP1 SLOAD PUSH1 0xFF NOT AND PUSH1 0x1 OR SWAP1 SSTORE PUSH1 0x6 DUP1 SLOAD DUP3 SWAP2 SWAP1 PUSH0 SWAP1 PUSH2 0xB22 SWAP1 DUP5 SWAP1 PUSH2 0x1D9C JUMP JUMPDEST SWAP1 SWAP2 SSTORE POP POP PUSH1 0x2 DUP3 ADD SLOAD PUSH0 SWAP1 DUP2 SWAP1 PUSH2 0xB43 SWAP1 PUSH1 0x1 PUSH1 0x1 PUSH1 0xA0 SHL SUB AND DUP5 PUSH2 0x1835 JUMP JUMPDEST PUSH1 0x2 DUP7 ADD SLOAD PUSH1 0x40 DUP1 MLOAD DUP5 DUP2 MSTORE PUSH1 0x20 DUP2 ADD DUP5 SWAP1 MSTORE SWAP4 SWAP6 POP SWAP2 SWAP4 POP PUSH1 0x1 PUSH1 0x1 PUSH1 0xA0 SHL SUB AND SWAP2 DUP9 SWAP2 PUSH32 0xF86DBBAAE73A38EBA376327EC68DEF0678D91D952B4A18AA86D880F199632BD9 SWAP2 ADD PUSH1 0x40 MLOAD DUP1 SWAP2 SUB SWAP1 LOG3 POP POP POP POP POP PUSH2 0x989 PUSH1 0x1 PUSH0 SSTORE JUMP JUMPDEST PUSH2 0xBA9 PUSH2 0x169A JUMP JUMPDEST PUSH1 0x1 PUSH1 0x1 PUSH1 0xA0 SHL SUB DUP2 AND PUSH2 0xBFF JUMPI PUSH1 0x40 MLOAD PUSH3 0x461BCD PUSH1 0xE5 SHL DUP2 MSTORE PUSH1 0x20 PUSH1 0x4 DUP3 ADD MSTORE PUSH1 0xE PUSH1 0x24 DUP3 ADD MSTORE PUSH32 0x496E76616C69642077616C6C6574000000000000000000000000000000000000 PUSH1 0x44 DUP3 ADD MSTORE PUSH1 0x64 ADD PUSH2 0x5B9 JUMP JUMPDEST PUSH1 0x3 DUP1 SLOAD PUSH20 0xFFFFFFFFFFFFFFFFFFFFFFFFFFFFFFFFFFFFFFFF NOT AND PUSH1 0x1 PUSH1 0x1 PUSH1 0xA0 SHL SUB DUP4 AND SWAP1 DUP2 OR SWAP1 SWAP2 SSTORE PUSH1 0x40 MLOAD PUSH32 0x29ACEE77DAFCFA0143D74A7EA236018F3A6E1FA71E27FC59BBFBC6B8CA8EDCCD SWAP1 PUSH0 SWAP1 LOG2 POP JUMP JUMPDEST PUSH2 0xC5D PUSH2 0x169A JUMP JUMPDEST PUSH2 0x99C PUSH0 PUSH2 0x18A2 JUMP JUMPDEST PUSH2 0xC6E PUSH2 0x169A JUMP JUMPDEST PUSH2 0x99C PUSH2 0x1900 JUMP JUMPDEST PUSH2 0xC7E PUSH2 0x169A JUMP JUMPDEST PUSH2 0x3E8 DUP2 GT ISZERO PUSH2 0xCD0 JUMPI PUSH1 0x40 MLOAD PUSH3 0x461BCD PUSH1 0xE5 SHL DUP2 MSTORE PUSH1 0x20 PUSH1 0x4 DUP3 ADD MSTORE PUSH1 0x9 PUSH1 0x24 DUP3 ADD MSTORE PUSH32 0x466565203E203130250000000000000000000000000000000000000000000000 PUSH1 0x44 DUP3 ADD MSTORE PUSH1 0x64 ADD PUSH2 0x5B9 JUMP JUMPDEST PUSH1 0x2 DUP2 SWAP1 SSTORE PUSH1 0x40 MLOAD DUP2 DUP2 MSTORE PUSH32 0x8C4D35E54A3F2EF1134138FD8EA3DAEE6A3C89E10D2665996BABDF70261E2C76 SWAP1 PUSH1 0x20 ADD PUSH1 0x40 MLOAD DUP1 SWAP2 SUB SWAP1 LOG1 POP JUMP JUMPDEST PUSH0 DUP2 DUP2 MSTORE PUSH1 0x7 PUSH1 0x20 MSTORE PUSH1 0x40 SWAP1 KECCAK256 PUSH1 0x1 ADD SLOAD DUP2 SWAP1 PUSH1 0x1 PUSH1 0x1 PUSH1 0xA0 SHL SUB AND PUSH2 0xD69 JUMPI PUSH1 0x40 MLOAD PUSH3 0x461BCD PUSH1 0xE5 SHL DUP2 MSTORE PUSH1 0x20 PUSH1 0x4 DUP3 ADD MSTORE PUSH1 0x13 PUSH1 0x24 DUP3 ADD MSTORE PUSH19 0x1119585B08191BD95CC81B9BDD08195E1A5CDD PUSH1 0x6A SHL PUSH1 0x44 DUP3 ADD MSTORE PUSH1 0x64 ADD PUSH2 0x5B9 JUMP JUMPDEST PUSH0 DUP3 DUP2 MSTORE PUSH1 0x7 PUSH1 0x20 MSTORE PUSH1 0x40 SWAP1 KECCAK256 PUSH1 0x1 DUP2 ADD SLOAD PUSH1 0x1 PUSH1 0x1 PUSH1 0xA0 SHL SUB AND CALLER EQ DUP1 PUSH2 0xD9D JUMPI POP PUSH1 0x2 DUP2 ADD SLOAD PUSH1 0x1 PUSH1 0x1 PUSH1 0xA0 SHL SUB AND CALLER EQ JUMPDEST PUSH2 0xDE9 JUMPI PUSH1 0x40 MLOAD PUSH3 0x461BCD PUSH1 0xE5 SHL DUP2 MSTORE PUSH1 0x20 PUSH1 0x4 DUP3 ADD MSTORE PUSH1 0xC PUSH1 0x24 DUP3 ADD MSTORE PUSH32 0x4E6F7420696E766F6C7665640000000000000000000000000000000000000000 PUSH1 0x44 DUP3 ADD MSTORE PUSH1 0x64 ADD PUSH2 0x5B9 JUMP JUMPDEST PUSH1 0x4 DUP2 ADD SLOAD PUSH1 0xFF AND ISZERO PUSH2 0xE2C JUMPI PUSH1 0x40 MLOAD PUSH3 0x461BCD PUSH1 0xE5 SHL DUP2 MSTORE PUSH1 0x20 PUSH1 0x4 DUP3 ADD MSTORE PUSH1 0xB PUSH1 0x24 DUP3 ADD MSTORE PUSH11 0x1119585B0818DB1BDCD959 PUSH1 0xAA SHL PUSH1 0x44 DUP3 ADD MSTORE PUSH1 0x64 ADD PUSH2 0x5B9 JUMP JUMPDEST PUSH1 0x4 DUP2 ADD SLOAD PUSH2 0x100 SWAP1 DIV PUSH1 0xFF AND ISZERO PUSH2 0xE86 JUMPI PUSH1 0x40 MLOAD PUSH3 0x461BCD PUSH1 0xE5 SHL DUP2 MSTORE PUSH1 0x20 PUSH1 0x4 DUP3 ADD MSTORE PUSH1 0x10 PUSH1 0x24 DUP3 ADD MSTORE PUSH32 0x416C726561647920646973707574656400000000000000000000000000000000 PUSH1 0x44 DUP3 ADD MSTORE PUSH1 0x64 ADD PUSH2 0x5B9 JUMP JUMPDEST PUSH1 0x4 DUP2 ADD DUP1 SLOAD PUSH2 0xFF00 NOT AND PUSH2 0x100 OR SWAP1 SSTORE PUSH1 0x40 MLOAD CALLER SWAP1 DUP5 SWAP1 PUSH32 0x84A477DF8A28A4276CA6DEE4458A06C3015F30C477D9C949EDE4E13FF8A552B4 SWAP1 PUSH0 SWAP1 LOG3 POP POP POP JUMP JUMPDEST PUSH0 PUSH2 0xED1 PUSH2 0x16F4 JUMP JUMPDEST PUSH2 0xED9 PUSH2 0x1943 JUMP JUMPDEST PUSH3 0xF4240 DUP4 LT ISZERO PUSH2 0xF2C JUMPI PUSH1 0x40 MLOAD PUSH3 0x461BCD PUSH1 0xE5 SHL DUP2 MSTORE PUSH1 0x20 PUSH1 0x4 DUP3 ADD MSTORE PUSH1 0x1D PUSH1 0x24 DUP3 ADD MSTORE PUSH32 0x416D6F756E742062656C6F77206D696E696D756D202831205553445429000000 PUSH1 0x44 DUP3 ADD MSTORE PUSH1 0x64 ADD PUSH2 0x5B9 JUMP JUMPDEST CALLER PUSH1 0x1 PUSH1 0x1 PUSH1 0xA0 SHL SUB DUP6 AND SUB PUSH2 0xF84 JUMPI PUSH1 0x40 MLOAD PUSH3 0x461BCD PUSH1 0xE5 SHL DUP2 MSTORE PUSH1 0x20 PUSH1 0x4 DUP3 ADD MSTORE PUSH1 0x15 PUSH1 0x24 DUP3 ADD MSTORE PUSH32 0x43616E6E6F74206465616C20776974682073656C660000000000000000000000 PUSH1 0x44 DUP3 ADD MSTORE PUSH1 0x64 ADD PUSH2 0x5B9 JUMP JUMPDEST PUSH1 0x1 PUSH1 0x1 PUSH1 0xA0 SHL SUB DUP5 AND PUSH2 0xFDA JUMPI PUSH1 0x40 MLOAD PUSH3 0x461BCD PUSH1 0xE5 SHL DUP2 MSTORE PUSH1 0x20 PUSH1 0x4 DUP3 ADD MSTORE PUSH1 0x16 PUSH1 0x24 DUP3 ADD MSTORE PUSH32 0x496E76616C69642073656C6C6572206164647265737300000000000000000000 PUSH1 0x44 DUP3 ADD MSTORE PUSH1 0x64 ADD PUSH2 0x5B9 JUMP JUMPDEST PUSH2 0xE10 DUP3 LT ISZERO PUSH2 0x102C JUMPI PUSH1 0x40 MLOAD PUSH3 0x461BCD PUSH1 0xE5 SHL DUP2 MSTORE PUSH1 0x20 PUSH1 0x4 DUP3 ADD MSTORE PUSH1 0x11 PUSH1 0x24 DUP3 ADD MSTORE PUSH32 0x54696D656F757420746F6F2073686F7274000000000000000000000000000000 PUSH1 0x44 DUP3 ADD MSTORE PUSH1 0x64 ADD PUSH2 0x5B9 JUMP JUMPDEST PUSH4 0x1E13380 DUP3 GT ISZERO PUSH2 0x1080 JUMPI PUSH1 0x40 MLOAD PUSH3 0x461BCD PUSH1 0xE5 SHL DUP2 MSTORE PUSH1 0x20 PUSH1 0x4 DUP3 ADD MSTORE PUSH1 0x10 PUSH1 0x24 DUP3 ADD MSTORE PUSH32 0x54696D656F757420746F6F206C6F6E6700000000000000000000000000000000 PUSH1 0x44 DUP3 ADD MSTORE PUSH1 0x64 ADD PUSH2 0x5B9 JUMP JUMPDEST PUSH1 0x5 DUP1 SLOAD SWAP1 PUSH0 PUSH2 0x108F DUP4 PUSH2 0x1DB5 JUMP JUMPDEST SWAP1 SWAP2 SSTORE POP POP PUSH1 0x5 SLOAD SWAP1 POP PUSH0 PUSH2 0x10A4 DUP4 TIMESTAMP PUSH2 0x1DCD JUMP JUMPDEST PUSH1 0x4 SLOAD SWAP1 SWAP2 POP PUSH2 0x10BF SWAP1 PUSH1 0x1 PUSH1 0x1 PUSH1 0xA0 SHL SUB AND CALLER ADDRESS DUP8 PUSH2 0x199D JUMP JUMPDEST PUSH1 0x40 DUP1 MLOAD PUSH2 0x100 DUP1 DUP3 ADD DUP4 MSTORE DUP5 DUP3 MSTORE CALLER PUSH1 0x20 DUP1 DUP5 ADD SWAP2 DUP3 MSTORE PUSH1 0x1 PUSH1 0x1 PUSH1 0xA0 SHL SUB DUP11 DUP2 AND DUP6 DUP8 ADD SWAP1 DUP2 MSTORE PUSH1 0x60 DUP7 ADD DUP12 DUP2 MSTORE PUSH0 PUSH1 0x80 DUP9 ADD DUP2 DUP2 MSTORE PUSH1 0xA0 DUP10 ADD DUP3 DUP2 MSTORE TIMESTAMP PUSH1 0xC0 DUP12 ADD SWAP1 DUP2 MSTORE PUSH1 0xE0 DUP12 ADD DUP14 DUP2 MSTORE DUP15 DUP6 MSTORE PUSH1 0x7 SWAP1 SWAP9 MSTORE SWAP11 DUP4 KECCAK256 SWAP10 MLOAD DUP11 SSTORE SWAP7 MLOAD PUSH1 0x1 DUP11 ADD DUP1 SLOAD SWAP2 DUP8 AND PUSH20 0xFFFFFFFFFFFFFFFFFFFFFFFFFFFFFFFFFFFFFFFF NOT SWAP3 DUP4 AND OR SWAP1 SSTORE SWAP4 MLOAD PUSH1 0x2 DUP11 ADD DUP1 SLOAD SWAP2 SWAP1 SWAP7 AND SWAP5 AND SWAP4 SWAP1 SWAP4 OR SWAP1 SWAP4 SSTORE MLOAD PUSH1 0x3 DUP8 ADD SSTORE MLOAD PUSH1 0x4 DUP7 ADD DUP1 SLOAD SWAP5 MLOAD ISZERO ISZERO SWAP1 SWAP6 MUL PUSH2 0xFF00 NOT SWAP2 ISZERO ISZERO SWAP2 SWAP1 SWAP2 AND PUSH2 0xFFFF NOT SWAP1 SWAP5 AND SWAP4 SWAP1 SWAP4 OR SWAP3 SWAP1 SWAP3 OR SWAP1 SWAP3 SSTORE SWAP3 MLOAD PUSH1 0x5 DUP4 ADD SSTORE MLOAD PUSH1 0x6 SWAP2 DUP3 ADD SSTORE DUP1 SLOAD DUP7 SWAP3 SWAP1 PUSH2 0x11A7 SWAP1 DUP5 SWAP1 PUSH2 0x1DCD JUMP JUMPDEST SWAP1 SWAP2 SSTORE POP POP PUSH1 0x40 DUP1 MLOAD DUP6 DUP2 MSTORE PUSH1 0x20 DUP2 ADD DUP6 SWAP1 MSTORE PUSH1 0x1 PUSH1 0x1 PUSH1 0xA0 SHL SUB DUP8 AND SWAP2 CALLER SWAP2 DUP6 SWAP2 PUSH32 0xEFD7BB4F992963087670AA168590BAEE24D227FF5C18AE3790EF7EC22BDE6274 SWAP2 ADD PUSH1 0x40 MLOAD DUP1 SWAP2 SUB SWAP1 LOG4 POP PUSH2 0x11FE PUSH1 0x1 PUSH0 SSTORE JUMP JUMPDEST SWAP4 SWAP3 POP POP POP JUMP JUMPDEST PUSH2 0x120D PUSH2 0x169A JUMP JUMPDEST PUSH2 0x1215 PUSH2 0x16F4 JUMP JUMPDEST PUSH1 0x1 PUSH1 0x1 PUSH1 0xA0 SHL SUB DUP2 AND PUSH2 0x126B JUMPI PUSH1 0x40 MLOAD PUSH3 0x461BCD PUSH1 0xE5 SHL DUP2 MSTORE PUSH1 0x20 PUSH1 0x4 DUP3 ADD MSTORE PUSH1 0x11 PUSH1 0x24 DUP3 ADD MSTORE PUSH32 0x496E76616C696420726563697069656E74000000000000000000000000000000 PUSH1 0x44 DUP3 ADD MSTORE PUSH1 0x64 ADD PUSH2 0x5B9 JUMP JUMPDEST PUSH1 0x40 MLOAD PUSH4 0x70A08231 PUSH1 0xE0 SHL DUP2 MSTORE ADDRESS PUSH1 0x4 DUP3 ADD MSTORE DUP3 SWAP1 PUSH0 SWAP1 PUSH1 0x1 PUSH1 0x1 PUSH1 0xA0 SHL SUB DUP4 AND SWAP1 PUSH4 0x70A08231 SWAP1 PUSH1 0x24 ADD PUSH1 0x20 PUSH1 0x40 MLOAD DUP1 DUP4 SUB DUP2 DUP7 GAS STATICCALL ISZERO DUP1 ISZERO PUSH2 0x12B1 JUMPI RETURNDATASIZE PUSH0 DUP1 RETURNDATACOPY RETURNDATASIZE PUSH0 REVERT JUMPDEST POP POP POP POP PUSH1 0x40 MLOAD RETURNDATASIZE PUSH1 0x1F NOT PUSH1 0x1F DUP3 ADD AND DUP3 ADD DUP1 PUSH1 0x40 MSTORE POP DUP2 ADD SWAP1 PUSH2 0x12D5 SWAP2 SWAP1 PUSH2 0x1DE0 JUMP JUMPDEST PUSH1 0x4 SLOAD SWAP1 SWAP2 POP PUSH1 0x1 PUSH1 0x1 PUSH1 0xA0 SHL SUB SWAP1 DUP2 AND SWAP1 DUP6 AND SUB PUSH2 0x13B7 JUMPI PUSH1 0x6 SLOAD DUP2 GT PUSH2 0x133F JUMPI PUSH1 0x40 MLOAD PUSH3 0x461BCD PUSH1 0xE5 SHL DUP2 MSTORE PUSH1 0x20 PUSH1 0x4 DUP3 ADD MSTORE PUSH1 0x9 PUSH1 0x24 DUP3 ADD MSTORE PUSH32 0x4E6F206578636573730000000000000000000000000000000000000000000000 PUSH1 0x44 DUP3 ADD MSTORE PUSH1 0x64 ADD PUSH2 0x5B9 JUMP JUMPDEST PUSH0 PUSH1 0x6 SLOAD DUP3 PUSH2 0x134E SWAP2 SWAP1 PUSH2 0x1D9C JUMP JUMPDEST SWAP1 POP PUSH2 0x1364 PUSH1 0x1 PUSH1 0x1 PUSH1 0xA0 SHL SUB DUP5 AND DUP6 DUP4 PUSH2 0x174B JUMP JUMPDEST DUP4 PUSH1 0x1 PUSH1 0x1 PUSH1 0xA0 SHL SUB AND DUP6 PUSH1 0x1 PUSH1 0x1 PUSH1 0xA0 SHL SUB AND PUSH32 0x3F1AE5E59A88CDC56F419D6EEE177AF464AFE1F10CEEE0B87092AF8F06FA6782 DUP4 PUSH1 0x40 MLOAD PUSH2 0x13A9 SWAP2 DUP2 MSTORE PUSH1 0x20 ADD SWAP1 JUMP JUMPDEST PUSH1 0x40 MLOAD DUP1 SWAP2 SUB SWAP1 LOG3 POP PUSH2 0x1419 JUMP JUMPDEST PUSH2 0x13CB PUSH1 0x1 PUSH1 0x1 PUSH1 0xA0 SHL SUB DUP4 AND DUP5 DUP4 PUSH2 0x174B JUMP JUMPDEST DUP3 PUSH1 0x1 PUSH1 0x1 PUSH1 0xA0 SHL SUB AND DUP5 PUSH1 0x1 PUSH1 0x1 PUSH1 0xA0 SHL SUB AND PUSH32 0x3F1AE5E59A88CDC56F419D6EEE177AF464AFE1F10CEEE0B87092AF8F06FA6782 DUP4 PUSH1 0x40 MLOAD PUSH2 0x1410 SWAP2 DUP2 MSTORE PUSH1 0x20 ADD SWAP1 JUMP JUMPDEST PUSH1 0x40 MLOAD DUP1 SWAP2 SUB SWAP1 LOG3 JUMPDEST POP POP PUSH2 0x78B PUSH1 0x1 PUSH0 SSTORE JUMP JUMPDEST PUSH1 0x5 SLOAD PUSH1 0x6 SLOAD PUSH1 0x4 DUP1 SLOAD PUSH1 0x40 MLOAD PUSH4 0x70A08231 PUSH1 0xE0 SHL DUP2 MSTORE ADDRESS SWAP3 DUP2 ADD SWAP3 SWAP1 SWAP3 MSTORE PUSH0 SWAP2 DUP3 SWAP2 PUSH1 0x1 PUSH1 0x1 PUSH1 0xA0 SHL SUB AND SWAP1 PUSH4 0x70A08231 SWAP1 PUSH1 0x24 ADD PUSH1 0x20 PUSH1 0x40 MLOAD DUP1 DUP4 SUB DUP2 DUP7 GAS STATICCALL ISZERO DUP1 ISZERO PUSH2 0x1475 JUMPI RETURNDATASIZE PUSH0 DUP1 RETURNDATACOPY RETURNDATASIZE PUSH0 REVERT JUMPDEST POP POP POP POP PUSH1 0x40 MLOAD RETURNDATASIZE PUSH1 0x1F NOT PUSH1 0x1F DUP3 ADD AND DUP3 ADD DUP1 PUSH1 0x40 MSTORE POP DUP2 ADD SWAP1 PUSH2 0x1499 SWAP2 SWAP1 PUSH2 0x1DE0 JUMP JUMPDEST SWAP2 POP DUP3 DUP3 GT PUSH2 0x14A8 JUMPI PUSH0 PUSH2 0x14B2 JUMP JUMPDEST PUSH2 0x14B2 DUP4 DUP4 PUSH2 0x1D9C JUMP JUMPDEST SWAP1 POP SWAP1 SWAP2 SWAP3 SWAP4 JUMP JUMPDEST PUSH2 0x14C2 PUSH2 0x169A JUMP JUMPDEST PUSH1 0x1 PUSH1 0x1 PUSH1 0xA0 SHL SUB DUP2 AND PUSH2 0x153E JUMPI PUSH1 0x40 MLOAD PUSH3 0x461BCD PUSH1 0xE5 SHL DUP2 MSTORE PUSH1 0x20 PUSH1 0x4 DUP3 ADD MSTORE PUSH1 0x26 PUSH1 0x24 DUP3 ADD MSTORE PUSH32 0x4F776E61626C653A206E6577206F776E657220697320746865207A65726F2061 PUSH1 0x44 DUP3 ADD MSTORE PUSH32 0x6464726573730000000000000000000000000000000000000000000000000000 PUSH1 0x64 DUP3 ADD MSTORE PUSH1 0x84 ADD PUSH2 0x5B9 JUMP JUMPDEST PUSH2 0x989 DUP2 PUSH2 0x18A2 JUMP JUMPDEST PUSH2 0x154F PUSH2 0x16F4 JUMP JUMPDEST PUSH0 DUP2 DUP2 MSTORE PUSH1 0x7 PUSH1 0x20 MSTORE PUSH1 0x40 SWAP1 KECCAK256 PUSH1 0x1 ADD SLOAD DUP2 SWAP1 PUSH1 0x1 PUSH1 0x1 PUSH1 0xA0 SHL SUB AND PUSH2 0x15AD JUMPI PUSH1 0x40 MLOAD PUSH3 0x461BCD PUSH1 0xE5 SHL DUP2 MSTORE PUSH1 0x20 PUSH1 0x4 DUP3 ADD MSTORE PUSH1 0x13 PUSH1 0x24 DUP3 ADD MSTORE PUSH19 0x1119585B08191BD95CC81B9BDD08195E1A5CDD PUSH1 0x6A SHL PUSH1 0x44 DUP3 ADD MSTORE PUSH1 0x64 ADD PUSH2 0x5B9 JUMP JUMPDEST PUSH0 DUP3 DUP2 MSTORE PUSH1 0x7 PUSH1 0x20 MSTORE PUSH1 0x40 SWAP1 KECCAK256 PUSH1 0x4 DUP2 ADD SLOAD PUSH1 0xFF AND ISZERO PUSH2 0x15FD JUMPI PUSH1 0x40 MLOAD PUSH3 0x461BCD PUSH1 0xE5 SHL DUP2 MSTORE PUSH1 0x20 PUSH1 0x4 DUP3 ADD MSTORE PUSH1 0xB PUSH1 0x24 DUP3 ADD MSTORE PUSH11 0x1119585B0818DB1BDCD959 PUSH1 0xAA SHL PUSH1 0x44 DUP3 ADD MSTORE PUSH1 0x64 ADD PUSH2 0x5B9 JUMP JUMPDEST PUSH1 0x4 DUP2 ADD SLOAD PUSH2 0x100 SWAP1 DIV PUSH1 0xFF AND ISZERO PUSH2 0x1647 JUMPI PUSH1 0x40 MLOAD PUSH3 0x461BCD PUSH1 0xE5 SHL DUP2 MSTORE PUSH1 0x20 PUSH1 0x4 DUP3 ADD MSTORE PUSH1 0xD PUSH1 0x24 DUP3 ADD MSTORE PUSH13 0x1119585B08191A5CDC1D5D1959 PUSH1 0x9A SHL PUSH1 0x44 DUP3 ADD MSTORE PUSH1 0x64 ADD PUSH2 0x5B9 JUMP JUMPDEST DUP1 PUSH1 0x6 ADD SLOAD TIMESTAMP GT PUSH2 0x8EB JUMPI PUSH1 0x40 MLOAD PUSH3 0x461BCD PUSH1 0xE5 SHL DUP2 MSTORE PUSH1 0x20 PUSH1 0x4 DUP3 ADD MSTORE PUSH1 0x11 PUSH1 0x24 DUP3 ADD MSTORE PUSH32 0x4E6F742074696D6564206F757420796574000000000000000000000000000000 PUSH1 0x44 DUP3 ADD MSTORE PUSH1 0x64 ADD PUSH2 0x5B9 JUMP JUMPDEST PUSH1 0x1 SLOAD PUSH1 0x1 PUSH1 0x1 PUSH1 0xA0 SHL SUB AND CALLER EQ PUSH2 0x99C JUMPI PUSH1 0x40 MLOAD PUSH3 0x461BCD PUSH1 0xE5 SHL DUP2 MSTORE PUSH1 0x20 PUSH1 0x4 DUP3 ADD DUP2 SWAP1 MSTORE PUSH1 0x24 DUP3 ADD MSTORE PUSH32 0x4F776E61626C653A2063616C6C6572206973206E6F7420746865206F776E6572 PUSH1 0x44 DUP3 ADD MSTORE PUSH1 0x64 ADD PUSH2 0x5B9 JUMP JUMPDEST PUSH1 0x2 PUSH0 SLOAD SUB PUSH2 0x1745 JUMPI PUSH1 0x40 MLOAD PUSH3 0x461BCD PUSH1 0xE5 SHL DUP2 MSTORE PUSH1 0x20 PUSH1 0x4 DUP3 ADD MSTORE PUSH1 0x1F PUSH1 0x24 DUP3 ADD MSTORE PUSH32 0x5265656E7472616E637947756172643A207265656E7472616E742063616C6C00 PUSH1 0x44 DUP3 ADD MSTORE PUSH1 0x64 ADD PUSH2 0x5B9 JUMP JUMPDEST PUSH1 0x2 PUSH0 SSTORE JUMP JUMPDEST PUSH1 0x40 MLOAD PUSH1 0x1 PUSH1 0x1 PUSH1 0xA0 SHL SUB DUP4 AND PUSH1 0x24 DUP3 ADD MSTORE PUSH1 0x44 DUP2 ADD DUP3 SWAP1 MSTORE PUSH2 0x17DB SWAP1 DUP5 SWAP1 PUSH4 0xA9059CBB PUSH1 0xE0 SHL SWAP1 PUSH1 0x64 ADD JUMPDEST PUSH1 0x40 DUP1 MLOAD PUSH1 0x1F NOT DUP2 DUP5 SUB ADD DUP2 MSTORE SWAP2 SWAP1 MSTORE PUSH1 0x20 DUP2 ADD DUP1 MLOAD PUSH28 0xFFFFFFFFFFFFFFFFFFFFFFFFFFFFFFFFFFFFFFFFFFFFFFFFFFFFFFFF AND PUSH32 0xFFFFFFFF00000000000000000000000000000000000000000000000000000000 SWAP1 SWAP4 AND SWAP3 SWAP1 SWAP3 OR SWAP1 SWAP2 MSTORE PUSH2 0x19DB JUMP JUMPDEST POP POP POP JUMP JUMPDEST PUSH2 0x17E8 PUSH2 0x1AC1 JUMP JUMPDEST PUSH1 0x1 DUP1 SLOAD PUSH1 0xFF PUSH1 0xA0 SHL NOT AND SWAP1 SSTORE PUSH32 0x5DB9EE0A495BF2E6FF9C91A7834C1BA4FDD244A5E8AA4E537BD38AEAE4B073AA CALLER JUMPDEST PUSH1 0x40 MLOAD PUSH1 0x1 PUSH1 0x1 PUSH1 0xA0 SHL SUB SWAP1 SWAP2 AND DUP2 MSTORE PUSH1 0x20 ADD PUSH1 0x40 MLOAD DUP1 SWAP2 SUB SWAP1 LOG1 JUMP JUMPDEST PUSH0 DUP1 PUSH2 0x2710 PUSH1 0x2 SLOAD DUP5 PUSH2 0x1848 SWAP2 SWAP1 PUSH2 0x1DF7 JUMP JUMPDEST PUSH2 0x1852 SWAP2 SWAP1 PUSH2 0x1E0E JUMP JUMPDEST SWAP1 POP PUSH2 0x185E DUP2 DUP5 PUSH2 0x1D9C JUMP JUMPDEST PUSH1 0x4 SLOAD SWAP1 SWAP3 POP PUSH2 0x1878 SWAP1 PUSH1 0x1 PUSH1 0x1 PUSH1 0xA0 SHL SUB AND DUP6 DUP5 PUSH2 0x174B JUMP JUMPDEST DUP1 ISZERO PUSH2 0x189B JUMPI PUSH1 0x3 SLOAD PUSH1 0x4 SLOAD PUSH2 0x189B SWAP2 PUSH1 0x1 PUSH1 0x1 PUSH1 0xA0 SHL SUB SWAP2 DUP3 AND SWAP2 AND DUP4 PUSH2 0x174B JUMP JUMPDEST SWAP3 POP SWAP3 SWAP1 POP JUMP JUMPDEST PUSH1 0x1 DUP1 SLOAD PUSH1 0x1 PUSH1 0x1 PUSH1 0xA0 SHL SUB DUP4 DUP2 AND PUSH20 0xFFFFFFFFFFFFFFFFFFFFFFFFFFFFFFFFFFFFFFFF NOT DUP4 AND DUP2 OR SWAP1 SWAP4 SSTORE PUSH1 0x40 MLOAD SWAP2 AND SWAP2 SWAP1 DUP3 SWAP1 PUSH32 0x8BE0079C531659141344CD1FD0A4F28419497F9722A3DAAFE3B4186F6B6457E0 SWAP1 PUSH0 SWAP1 LOG3 POP POP JUMP JUMPDEST PUSH2 0x1908 PUSH2 0x1943 JUMP JUMPDEST PUSH1 0x1 DUP1 SLOAD PUSH1 0xFF PUSH1 0xA0 SHL NOT AND PUSH1 0x1 PUSH1 0xA0 SHL OR SWAP1 SSTORE PUSH32 0x62E78CEA01BEE320CD4E420270B5EA74000D11B0C9F74754EBDBFC544B05A258 PUSH2 0x1818 CALLER SWAP1 JUMP JUMPDEST PUSH1 0x1 SLOAD PUSH1 0x1 PUSH1 0xA0 SHL SWAP1 DIV PUSH1 0xFF AND ISZERO PUSH2 0x99C JUMPI PUSH1 0x40 MLOAD PUSH3 0x461BCD PUSH1 0xE5 SHL DUP2 MSTORE PUSH1 0x20 PUSH1 0x4 DUP3 ADD MSTORE PUSH1 0x10 PUSH1 0x24 DUP3 ADD MSTORE PUSH32 0x5061757361626C653A2070617573656400000000000000000000000000000000 PUSH1 0x44 DUP3 ADD MSTORE PUSH1 0x64 ADD PUSH2 0x5B9 JUMP JUMPDEST PUSH1 0x40 MLOAD PUSH1 0x1 PUSH1 0x1 PUSH1 0xA0 SHL SUB DUP1 DUP6 AND PUSH1 0x24 DUP4 ADD MSTORE DUP4 AND PUSH1 0x44 DUP3 ADD MSTORE PUSH1 0x64 DUP2 ADD DUP3 SWAP1 MSTORE PUSH2 0x19D5 SWAP1 DUP6 SWAP1 PUSH4 0x23B872DD PUSH1 0xE0 SHL SWAP1 PUSH1 0x84 ADD PUSH2 0x1777 JUMP JUMPDEST POP POP POP POP JUMP JUMPDEST PUSH0 PUSH2 0x1A2F DUP3 PUSH1 0x40 MLOAD DUP1 PUSH1 0x40 ADD PUSH1 0x40 MSTORE DUP1 PUSH1 0x20 DUP2 MSTORE PUSH1 0x20 ADD PUSH32 0x5361666545524332303A206C6F772D6C6576656C2063616C6C206661696C6564 DUP2 MSTORE POP DUP6 PUSH1 0x1 PUSH1 0x1 PUSH1 0xA0 SHL SUB AND PUSH2 0x1B1A SWAP1 SWAP3 SWAP2 SWAP1 PUSH4 0xFFFFFFFF AND JUMP JUMPDEST SWAP1 POP DUP1 MLOAD PUSH0 EQ DUP1 PUSH2 0x1A4F JUMPI POP DUP1 DUP1 PUSH1 0x20 ADD SWAP1 MLOAD DUP2 ADD SWAP1 PUSH2 0x1A4F SWAP2 SWAP1 PUSH2 0x1E2D JUMP JUMPDEST PUSH2 0x17DB JUMPI PUSH1 0x40 MLOAD PUSH3 0x461BCD PUSH1 0xE5 SHL DUP2 MSTORE PUSH1 0x20 PUSH1 0x4 DUP3 ADD MSTORE PUSH1 0x2A PUSH1 0x24 DUP3 ADD MSTORE PUSH32 0x5361666545524332303A204552433230206F7065726174696F6E20646964206E PUSH1 0x44 DUP3 ADD MSTORE PUSH32 0x6F74207375636365656400000000000000000000000000000000000000000000 PUSH1 0x64 DUP3 ADD MSTORE PUSH1 0x84 ADD PUSH2 0x5B9 JUMP JUMPDEST PUSH1 0x1 SLOAD PUSH1 0x1 PUSH1 0xA0 SHL SWAP1 DIV PUSH1 0xFF AND PUSH2 0x99C JUMPI PUSH1 0x40 MLOAD PUSH3 0x461BCD PUSH1 0xE5 SHL DUP2 MSTORE PUSH1 0x20 PUSH1 0x4 DUP3 ADD MSTORE PUSH1 0x14 PUSH1 0x24 DUP3 ADD MSTORE PUSH32 0x5061757361626C653A206E6F7420706175736564000000000000000000000000 PUSH1 0x44 DUP3 ADD MSTORE PUSH1 0x64 ADD PUSH2 0x5B9 JUMP JUMPDEST PUSH1 0x60 PUSH2 0x1B28 DUP5 DUP5 PUSH0 DUP6 PUSH2 0x1B30 JUMP JUMPDEST SWAP5 SWAP4 POP POP POP POP JUMP JUMPDEST PUSH1 0x60 DUP3 SELFBALANCE LT ISZERO PUSH2 0x1BA8 JUMPI PUSH1 0x40 MLOAD PUSH3 0x461BCD PUSH1 0xE5 SHL DUP2 MSTORE PUSH1 0x20 PUSH1 0x4 DUP3 ADD MSTORE PUSH1 0x26 PUSH1 0x24 DUP3 ADD MSTORE PUSH32 0x416464726573733A20696E73756666696369656E742062616C616E636520666F PUSH1 0x44 DUP3 ADD MSTORE PUSH32 0x722063616C6C0000000000000000000000000000000000000000000000000000 PUSH1 0x64 DUP3 ADD MSTORE PUSH1 0x84 ADD PUSH2 0x5B9 JUMP JUMPDEST PUSH0 DUP1 DUP7 PUSH1 0x1 PUSH1 0x1 PUSH1 0xA0 SHL SUB AND DUP6 DUP8 PUSH1 0x40 MLOAD PUSH2 0x1BC3 SWAP2 SWAP1 PUSH2 0x1E4C JUMP JUMPDEST PUSH0 PUSH1 0x40 MLOAD DUP1 DUP4 SUB DUP2 DUP6 DUP8 GAS CALL SWAP3 POP POP POP RETURNDATASIZE DUP1 PUSH0 DUP2 EQ PUSH2 0x1BFD JUMPI PUSH1 0x40 MLOAD SWAP2 POP PUSH1 0x1F NOT PUSH1 0x3F RETURNDATASIZE ADD AND DUP3 ADD PUSH1 0x40 MSTORE RETURNDATASIZE DUP3 MSTORE RETURNDATASIZE PUSH0 PUSH1 0x20 DUP5 ADD RETURNDATACOPY PUSH2 0x1C02 JUMP JUMPDEST PUSH1 0x60 SWAP2 POP JUMPDEST POP SWAP2 POP SWAP2 POP PUSH2 0x1C13 DUP8 DUP4 DUP4 DUP8 PUSH2 0x1C1E JUMP JUMPDEST SWAP8 SWAP7 POP POP POP POP POP POP POP JUMP JUMPDEST PUSH1 0x60 DUP4 ISZERO PUSH2 0x1C8C JUMPI DUP3 MLOAD PUSH0 SUB PUSH2 0x1C85 JUMPI PUSH1 0x1 PUSH1 0x1 PUSH1 0xA0 SHL SUB DUP6 AND EXTCODESIZE PUSH2 0x1C85 JUMPI PUSH1 0x40 MLOAD PUSH3 0x461BCD PUSH1 0xE5 SHL DUP2 MSTORE PUSH1 0x20 PUSH1 0x4 DUP3 ADD MSTORE PUSH1 0x1D PUSH1 0x24 DUP3 ADD MSTORE PUSH32 0x416464726573733A2063616C6C20746F206E6F6E2D636F6E7472616374000000 PUSH1 0x44 DUP3 ADD MSTORE PUSH1 0x64 ADD PUSH2 0x5B9 JUMP JUMPDEST POP DUP2 PUSH2 0x1B28 JUMP JUMPDEST PUSH2 0x1B28 DUP4 DUP4 DUP2 MLOAD ISZERO PUSH2 0x1CA1 JUMPI DUP2 MLOAD DUP1 DUP4 PUSH1 0x20 ADD REVERT JUMPDEST DUP1 PUSH1 0x40 MLOAD PUSH3 0x461BCD PUSH1 0xE5 SHL DUP2 MSTORE PUSH1 0x4 ADD PUSH2 0x5B9 SWAP2 SWAP1 PUSH2 0x1E62 JUMP JUMPDEST PUSH0 PUSH1 0x20 DUP3 DUP5 SUB SLT ISZERO PUSH2 0x1CCB JUMPI PUSH0 DUP1 REVERT JUMPDEST POP CALLDATALOAD SWAP2 SWAP1 POP JUMP JUMPDEST DUP1 CALLDATALOAD PUSH1 0x1 PUSH1 0x1 PUSH1 0xA0 SHL SUB DUP2 AND DUP2 EQ PUSH2 0x1CE8 JUMPI PUSH0 DUP1 REVERT JUMPDEST SWAP2 SWAP1 POP JUMP JUMPDEST PUSH0 DUP1 PUSH1 0x40 DUP4 DUP6 SUB SLT ISZERO PUSH2 0x1CFE JUMPI PUSH0 DUP1 REVERT JUMPDEST DUP3 CALLDATALOAD SWAP2 POP PUSH2 0x1D0E PUSH1 0x20 DUP5 ADD PUSH2 0x1CD2 JUMP JUMPDEST SWAP1 POP SWAP3 POP SWAP3 SWAP1 POP JUMP JUMPDEST PUSH0 PUSH1 0x20 DUP3 DUP5 SUB SLT ISZERO PUSH2 0x1D27 JUMPI PUSH0 DUP1 REVERT JUMPDEST PUSH2 0x11FE DUP3 PUSH2 0x1CD2 JUMP JUMPDEST PUSH0 DUP1 PUSH0 PUSH1 0x60 DUP5 DUP7 SUB SLT ISZERO PUSH2 0x1D42 JUMPI PUSH0 DUP1 REVERT JUMPDEST PUSH2 0x1D4B DUP5 PUSH2 0x1CD2 JUMP JUMPDEST SWAP6 PUSH1 0x20 DUP6 ADD CALLDATALOAD SWAP6 POP PUSH1 0x40 SWAP1 SWAP5 ADD CALLDATALOAD SWAP4 SWAP3 POP POP POP JUMP JUMPDEST PUSH0 DUP1 PUSH1 0x40 DUP4 DUP6 SUB SLT ISZERO PUSH2 0x1D71 JUMPI PUSH0 DUP1 REVERT JUMPDEST PUSH2 0x1D7A DUP4 PUSH2 0x1CD2 JUMP JUMPDEST SWAP2 POP PUSH2 0x1D0E PUSH1 0x20 DUP5 ADD PUSH2 0x1CD2 JUMP JUMPDEST PUSH4 0x4E487B71 PUSH1 0xE0 SHL PUSH0 MSTORE PUSH1 0x11 PUSH1 0x4 MSTORE PUSH1 0x24 PUSH0 REVERT JUMPDEST DUP2 DUP2 SUB DUP2 DUP2 GT ISZERO PUSH2 0x1DAF JUMPI PUSH2 0x1DAF PUSH2 0x1D88 JUMP JUMPDEST SWAP3 SWAP2 POP POP JUMP JUMPDEST PUSH0 PUSH1 0x1 DUP3 ADD PUSH2 0x1DC6 JUMPI PUSH2 0x1DC6 PUSH2 0x1D88 JUMP JUMPDEST POP PUSH1 0x1 ADD SWAP1 JUMP JUMPDEST DUP1 DUP3 ADD DUP1 DUP3 GT ISZERO PUSH2 0x1DAF JUMPI PUSH2 0x1DAF PUSH2 0x1D88 JUMP JUMPDEST PUSH0 PUSH1 0x20 DUP3 DUP5 SUB SLT ISZERO PUSH2 0x1DF0 JUMPI PUSH0 DUP1 REVERT JUMPDEST POP MLOAD SWAP2 SWAP1 POP JUMP JUMPDEST DUP1 DUP3 MUL DUP2 ISZERO DUP3 DUP3 DIV DUP5 EQ OR PUSH2 0x1DAF JUMPI PUSH2 0x1DAF PUSH2 0x1D88 JUMP JUMPDEST PUSH0 DUP3 PUSH2 0x1E28 JUMPI PUSH4 0x4E487B71 PUSH1 0xE0 SHL PUSH0 MSTORE PUSH1 0x12 PUSH1 0x4 MSTORE PUSH1 0x24 PUSH0 REVERT JUMPDEST POP DIV SWAP1 JUMP JUMPDEST PUSH0 PUSH1 0x20 DUP3 DUP5 SUB SLT ISZERO PUSH2 0x1E3D JUMPI PUSH0 DUP1 REVERT JUMPDEST DUP2 MLOAD DUP1 ISZERO ISZERO DUP2 EQ PUSH2 0x11FE JUMPI PUSH0 DUP1 REVERT JUMPDEST PUSH0 DUP3 MLOAD DUP1 PUSH1 0x20 DUP6 ADD DUP5 MCOPY PUSH0 SWAP3 ADD SWAP2 DUP3 MSTORE POP SWAP2 SWAP1 POP JUMP JUMPDEST PUSH1 0x20 DUP2 MSTORE PUSH0 DUP3 MLOAD DUP1 PUSH1 0x20 DUP5 ADD MSTORE DUP1 PUSH1 0x20 DUP6 ADD PUSH1 0x40 DUP6 ADD MCOPY PUSH0 PUSH1 0x40 DUP3 DUP6 ADD ADD MSTORE PUSH1 0x40 PUSH1 0x1F NOT PUSH1 0x1F DUP4 ADD AND DUP5 ADD ADD SWAP2 POP POP SWAP3 SWAP2 POP POP JUMP INVALID LOG2 PUSH5 0x6970667358 0x22 SLT KECCAK256 0x4F 0xBF PUSH12 0x17107CDBCAF8E5F668A09B97 SHR PUSH0 PUSH14 0x34D613A8F347A00E1165686A2B35 PUSH5 0x736F6C6343 STOP ADDMOD NOT STOP CALLER "
    },
    "gasEstimates": {
      "creation": {
        "codeDepositCost": "1577000",
        "executionCost": "infinite",
        "totalCost": "infinite"
      },
      "external": {
        "MAX_FEE()": "283",
        "MAX_TIMEOUT()": "261",
        "MIN_DEAL_AMOUNT()": "285",
        "MIN_TIMEOUT()": "240",
        "createDeal(address,uint256,uint256)": "infinite",
        "deals(uint256)": "15394",
        "feeBasisPoints()": "2339",
        "feeWallet()": "2402",
        "getContractStats()": "infinite",
        "getDeal(uint256)": "15856",
        "owner()": "2430",
        "pause()": "infinite",
        "paused()": "2376",
        "raiseDispute(uint256)": "36903",
        "recoverExcessTokens(address,address)": "infinite",
        "refundBuyer(uint256)": "infinite",
        "refundTimedOutDeal(uint256)": "infinite",
        "releaseFunds(uint256)": "infinite",
        "renounceOwnership()": "infinite",
        "resolveDispute(uint256,address)": "infinite",
        "stablecoin()": "2380",
        "totalLockedFunds()": "2361",
        "transferOwnership(address)": "28409",
        "unpause()": "infinite",
        "updateFee(uint256)": "25623",
        "updateFeeWallet(address)": "27984"
      },
      "internal": {
        "_payout(address,uint256)": "infinite"
      }
    },
    "methodIdentifiers": {
      "MAX_FEE()": "bc063e1a",
      "MAX_TIMEOUT()": "de38eb3a",
      "MIN_DEAL_AMOUNT()": "2c7f556a",
      "MIN_TIMEOUT()": "543ad1df",
      "createDeal(address,uint256,uint256)": "b02d1351",
      "deals(uint256)": "03988f84",
      "feeBasisPoints()": "b8606eef",
      "feeWallet()": "f25f4b56",
      "getContractStats()": "dfe6b5d6",
      "getDeal(uint256)": "82fd5bac",
      "owner()": "8da5cb5b",
      "pause()": "8456cb59",
      "paused()": "5c975abb",
      "raiseDispute(uint256)": "a5c1674e",
      "recoverExcessTokens(address,address)": "c73b38e1",
      "refundBuyer(uint256)": "39292763",
      "refundTimedOutDeal(uint256)": "fea266ae",
      "releaseFunds(uint256)": "4d68282f",
      "renounceOwnership()": "715018a6",
      "resolveDispute(uint256,address)": "0e33599d",
      "stablecoin()": "e9cbd822",
      "totalLockedFunds()": "b88584bb",
      "transferOwnership(address)": "f2fde38b",
      "unpause()": "3f4ba83a",
      "updateFee(uint256)": "9012c4a8",
      "updateFeeWallet(address)": "66718524"
    }
  },
  "storageLayout": {
    "storage": [
      {
        "astId": 1132,
        "contract": "AhadiEscrow.sol:AhadiEscrowFinal",
        "label": "_status",
        "offset": 0,
        "slot": "0",
        "type": "t_uint256"
      },
      {
        "astId": 908,
        "contract": "AhadiEscrow.sol:AhadiEscrowFinal",
        "label": "_owner",
        "offset": 0,
        "slot": "1",
        "type": "t_address"
      },
      {
        "astId": 1031,
        "contract": "AhadiEscrow.sol:AhadiEscrowFinal",
        "label": "_paused",
        "offset": 20,
        "slot": "1",
        "type": "t_bool"
      },
      {
        "astId": 32,
        "contract": "AhadiEscrow.sol:AhadiEscrowFinal",
        "label": "feeBasisPoints",
        "offset": 0,
        "slot": "2",
        "type": "t_uint256"
      },
      {
        "astId": 34,
        "contract": "AhadiEscrow.sol:AhadiEscrowFinal",
        "label": "feeWallet",
        "offset": 0,
        "slot": "3",
        "type": "t_address"
      },
      {
        "astId": 37,
        "contract": "AhadiEscrow.sol:AhadiEscrowFinal",
        "label": "stablecoin",
        "offset": 0,
        "slot": "4",
        "type": "t_contract(IERC20)1264"
      },
      {
        "astId": 39,
        "contract": "AhadiEscrow.sol:AhadiEscrowFinal",
        "label": "_currentDealId",
        "offset": 0,
        "slot": "5",
        "type": "t_uint256"
      },
      {
        "astId": 41,
        "contract": "AhadiEscrow.sol:AhadiEscrowFinal",
        "label": "totalLockedFunds",
        "offset": 0,
        "slot": "6",
        "type": "t_uint256"
      },
      {
        "astId": 63,
        "contract": "AhadiEscrow.sol:AhadiEscrowFinal",
        "label": "deals",
        "offset": 0,
        "slot": "7",
        "type": "t_mapping(t_uint256,t_struct(Deal)58_storage)"
      }
    ],
    "types": {
      "t_address": {
        "encoding": "inplace",
        "label": "address",
        "numberOfBytes": "20"
      },
      "t_bool": {
        "encoding": "inplace",
        "label": "bool",
        "numberOfBytes": "1"
      },
      "t_contract(IERC20)1264": {
        "encoding": "inplace",
        "label": "contract IERC20",
        "numberOfBytes": "20"
      },
      "t_mapping(t_uint256,t_struct(Deal)58_storage)": {
        "encoding": "mapping",
        "key": "t_uint256",
        "label": "mapping(uint256 => struct AhadiEscrowFinal.Deal)",
        "numberOfBytes": "32",
        "value": "t_struct(Deal)58_storage"
      },
      "t_struct(Deal)58_storage": {
        "encoding": "inplace",
        "label": "struct AhadiEscrowFinal.Deal",
        "members": [
          {
            "astId": 43,
            "contract": "AhadiEscrow.sol:AhadiEscrowFinal",
            "label": "id",
            "offset": 0,
            "slot": "0",
            "type": "t_uint256"
          },
          {
            "astId": 45,
            "contract": "AhadiEscrow.sol:AhadiEscrowFinal",
            "label": "buyer",
            "offset": 0,
            "slot": "1",
            "type": "t_address"
          },
          {
            "astId": 47,
            "contract": "AhadiEscrow.sol:AhadiEscrowFinal",
            "label": "seller",
            "offset": 0,
            "slot": "2",
            "type": "t_address"
          },
          {
            "astId": 49,
            "contract": "AhadiEscrow.sol:AhadiEscrowFinal",
            "label": "amount",
            "offset": 0,
            "slot": "3",
            "type": "t_uint256"
          },
          {
            "astId": 51,
            "contract": "AhadiEscrow.sol:AhadiEscrowFinal",
            "label": "isCompleted",
            "offset": 0,
            "slot": "4",
            "type": "t_bool"
          },
          {
            "astId": 53,
            "contract": "AhadiEscrow.sol:AhadiEscrowFinal",
            "label": "isDisputed",
            "offset": 1,
            "slot": "4",
            "type": "t_bool"
          },
          {
            "astId": 55,
            "contract": "AhadiEscrow.sol:AhadiEscrowFinal",
            "label": "createdAt",
            "offset": 0,
            "slot": "5",
            "type": "t_uint256"
          },
          {
            "astId": 57,
            "contract": "AhadiEscrow.sol:AhadiEscrowFinal",
            "label": "expiryTime",
            "offset": 0,
            "slot": "6",
            "type": "t_uint256"
          }
        ],
        "numberOfBytes": "224"
      },
      "t_uint256": {
        "encoding": "inplace",
        "label": "uint256",
        "numberOfBytes": "32"
      }
    }
  },
  "userdoc": {
    "kind": "user",
    "methods": {},
    "notice": "Scalable P2P escrow with O(1) balance tracking and per-deal timeouts",
    "version": 1
  }
}